{
  "contractName": "MedRecChain",
  "abi": [
    {
      "inputs": [],
      "stateMutability": "nonpayable",
      "type": "constructor"
    },
    {
      "anonymous": false,
      "inputs": [
        {
          "indexed": true,
          "internalType": "bytes32",
          "name": "role",
          "type": "bytes32"
        },
        {
          "indexed": true,
          "internalType": "bytes32",
          "name": "previousAdminRole",
          "type": "bytes32"
        },
        {
          "indexed": true,
          "internalType": "bytes32",
          "name": "newAdminRole",
          "type": "bytes32"
        }
      ],
      "name": "RoleAdminChanged",
      "type": "event"
    },
    {
      "anonymous": false,
      "inputs": [
        {
          "indexed": true,
          "internalType": "bytes32",
          "name": "role",
          "type": "bytes32"
        },
        {
          "indexed": true,
          "internalType": "address",
          "name": "account",
          "type": "address"
        },
        {
          "indexed": true,
          "internalType": "address",
          "name": "sender",
          "type": "address"
        }
      ],
      "name": "RoleGranted",
      "type": "event"
    },
    {
      "anonymous": false,
      "inputs": [
        {
          "indexed": true,
          "internalType": "bytes32",
          "name": "role",
          "type": "bytes32"
        },
        {
          "indexed": true,
          "internalType": "address",
          "name": "account",
          "type": "address"
        },
        {
          "indexed": true,
          "internalType": "address",
          "name": "sender",
          "type": "address"
        }
      ],
      "name": "RoleRevoked",
      "type": "event"
    },
    {
      "inputs": [],
      "name": "ADMIN_ROLE",
      "outputs": [
        {
          "internalType": "bytes32",
          "name": "",
          "type": "bytes32"
        }
      ],
      "stateMutability": "view",
      "type": "function",
      "constant": true
    },
    {
      "inputs": [],
      "name": "Admin",
      "outputs": [
        {
          "internalType": "address",
          "name": "",
          "type": "address"
        }
      ],
      "stateMutability": "view",
      "type": "function",
      "constant": true
    },
    {
      "inputs": [],
      "name": "DEFAULT_ADMIN_ROLE",
      "outputs": [
        {
          "internalType": "bytes32",
          "name": "",
          "type": "bytes32"
        }
      ],
      "stateMutability": "view",
      "type": "function",
      "constant": true
    },
    {
      "inputs": [],
      "name": "DOCTOR_ROLE",
      "outputs": [
        {
          "internalType": "bytes32",
          "name": "",
          "type": "bytes32"
        }
      ],
      "stateMutability": "view",
      "type": "function",
      "constant": true
    },
    {
      "inputs": [],
      "name": "HOSPITAL_ROLE",
      "outputs": [
        {
          "internalType": "bytes32",
          "name": "",
          "type": "bytes32"
        }
      ],
      "stateMutability": "view",
      "type": "function",
      "constant": true
    },
    {
      "inputs": [
        {
          "internalType": "uint256",
          "name": "",
          "type": "uint256"
        }
      ],
      "name": "Hospitals_keys",
      "outputs": [
        {
          "internalType": "address",
          "name": "",
          "type": "address"
        }
      ],
      "stateMutability": "view",
      "type": "function",
      "constant": true
    },
    {
      "inputs": [],
      "name": "PATIENT_ROLE",
      "outputs": [
        {
          "internalType": "bytes32",
          "name": "",
          "type": "bytes32"
        }
      ],
      "stateMutability": "view",
      "type": "function",
      "constant": true
    },
    {
      "inputs": [
        {
          "internalType": "bytes32",
          "name": "role",
          "type": "bytes32"
        }
      ],
      "name": "getRoleAdmin",
      "outputs": [
        {
          "internalType": "bytes32",
          "name": "",
          "type": "bytes32"
        }
      ],
      "stateMutability": "view",
      "type": "function",
      "constant": true
    },
    {
      "inputs": [
        {
          "internalType": "bytes32",
          "name": "role",
          "type": "bytes32"
        },
        {
          "internalType": "address",
          "name": "account",
          "type": "address"
        }
      ],
      "name": "grantRole",
      "outputs": [],
      "stateMutability": "nonpayable",
      "type": "function"
    },
    {
      "inputs": [
        {
          "internalType": "bytes32",
          "name": "role",
          "type": "bytes32"
        },
        {
          "internalType": "address",
          "name": "account",
          "type": "address"
        }
      ],
      "name": "hasRole",
      "outputs": [
        {
          "internalType": "bool",
          "name": "",
          "type": "bool"
        }
      ],
      "stateMutability": "view",
      "type": "function",
      "constant": true
    },
    {
      "inputs": [
        {
          "internalType": "bytes32",
          "name": "role",
          "type": "bytes32"
        },
        {
          "internalType": "address",
          "name": "account",
          "type": "address"
        }
      ],
      "name": "renounceRole",
      "outputs": [],
      "stateMutability": "nonpayable",
      "type": "function"
    },
    {
      "inputs": [
        {
          "internalType": "uint256",
          "name": "",
          "type": "uint256"
        }
      ],
      "name": "requests",
      "outputs": [
        {
          "internalType": "uint256",
          "name": "id",
          "type": "uint256"
        },
        {
          "internalType": "address",
          "name": "from_doctor_addr",
          "type": "address"
        },
        {
          "internalType": "address",
          "name": "to_patients_addr",
          "type": "address"
        },
        {
          "internalType": "uint256",
          "name": "date",
          "type": "uint256"
        },
        {
          "internalType": "string",
          "name": "patient_name",
          "type": "string"
        },
        {
          "internalType": "string",
          "name": "doctor_name",
          "type": "string"
        }
      ],
      "stateMutability": "view",
      "type": "function",
      "constant": true
    },
    {
      "inputs": [
        {
          "internalType": "bytes32",
          "name": "role",
          "type": "bytes32"
        },
        {
          "internalType": "address",
          "name": "account",
          "type": "address"
        }
      ],
      "name": "revokeRole",
      "outputs": [],
      "stateMutability": "nonpayable",
      "type": "function"
    },
    {
      "inputs": [
        {
          "internalType": "bytes4",
          "name": "interfaceId",
          "type": "bytes4"
        }
      ],
      "name": "supportsInterface",
      "outputs": [
        {
          "internalType": "bool",
          "name": "",
          "type": "bool"
        }
      ],
      "stateMutability": "view",
      "type": "function",
      "constant": true
    },
    {
      "inputs": [],
      "name": "logg",
      "outputs": [
        {
          "internalType": "uint256",
          "name": "role",
          "type": "uint256"
        }
      ],
      "stateMutability": "view",
      "type": "function",
      "constant": true
    },
    {
      "inputs": [
        {
          "internalType": "string",
          "name": "_name",
          "type": "string"
        },
        {
          "internalType": "address",
          "name": "_address",
          "type": "address"
        },
        {
          "internalType": "string",
          "name": "_place",
          "type": "string"
        },
        {
          "internalType": "uint256",
          "name": "_phone",
          "type": "uint256"
        }
      ],
      "name": "addhospital",
      "outputs": [
        {
          "internalType": "bool",
          "name": "success",
          "type": "bool"
        }
      ],
      "stateMutability": "nonpayable",
      "type": "function"
    },
    {
      "inputs": [
        {
          "internalType": "address",
          "name": "_hosAddress",
          "type": "address"
        }
      ],
      "name": "removeitem_hos",
      "outputs": [],
      "stateMutability": "nonpayable",
      "type": "function"
    },
    {
      "inputs": [
        {
          "internalType": "address",
          "name": "_address",
          "type": "address"
        }
      ],
      "name": "removehospital",
      "outputs": [
        {
          "internalType": "bool",
          "name": "success",
          "type": "bool"
        }
      ],
      "stateMutability": "nonpayable",
      "type": "function"
    },
    {
      "inputs": [],
      "name": "get_all_hospitals",
      "outputs": [
        {
          "components": [
            {
              "internalType": "uint256",
              "name": "id",
              "type": "uint256"
            },
            {
              "internalType": "string",
              "name": "name",
              "type": "string"
            },
            {
              "internalType": "address",
              "name": "addr",
              "type": "address"
            },
            {
              "internalType": "string",
              "name": "place",
              "type": "string"
            },
            {
              "internalType": "uint256",
              "name": "phone",
              "type": "uint256"
            }
          ],
          "internalType": "struct MedRecChain.Hospital[]",
          "name": "",
          "type": "tuple[]"
        }
      ],
      "stateMutability": "view",
      "type": "function",
      "constant": true
    },
    {
      "inputs": [
        {
          "internalType": "string",
          "name": "_name",
          "type": "string"
        },
        {
          "internalType": "string",
          "name": "_hospital_name",
          "type": "string"
        },
        {
          "internalType": "address",
          "name": "_hospital_addr",
          "type": "address"
        },
        {
          "internalType": "uint256",
          "name": "_phone",
          "type": "uint256"
        },
        {
          "internalType": "string",
          "name": "_email",
          "type": "string"
        },
        {
          "internalType": "uint256",
          "name": "_age",
          "type": "uint256"
        },
        {
          "internalType": "string",
          "name": "_place",
          "type": "string"
        },
        {
          "internalType": "string",
          "name": "_Medical_specialty",
          "type": "string"
        },
        {
          "internalType": "address",
          "name": "_docAddress",
          "type": "address"
        }
      ],
      "name": "addDoctor",
      "outputs": [
        {
          "internalType": "bool",
          "name": "success",
          "type": "bool"
        }
      ],
      "stateMutability": "nonpayable",
      "type": "function"
    },
    {
      "inputs": [
        {
          "internalType": "address",
          "name": "_docAddress",
          "type": "address"
        }
      ],
      "name": "removeitem_doc",
      "outputs": [],
      "stateMutability": "nonpayable",
      "type": "function"
    },
    {
      "inputs": [
        {
          "internalType": "address",
          "name": "_docAddress",
          "type": "address"
        }
      ],
      "name": "removeDoctor",
      "outputs": [
        {
          "internalType": "bool",
          "name": "success",
          "type": "bool"
        }
      ],
      "stateMutability": "nonpayable",
      "type": "function"
    },
    {
      "inputs": [],
      "name": "get_all_Doctors",
      "outputs": [
        {
          "components": [
            {
              "internalType": "uint256",
              "name": "id",
              "type": "uint256"
            },
            {
              "internalType": "string",
              "name": "name",
              "type": "string"
            },
            {
              "internalType": "string",
              "name": "hospital_name",
              "type": "string"
            },
            {
              "internalType": "address",
              "name": "hospital_addr",
              "type": "address"
            },
            {
              "internalType": "uint256",
              "name": "phone",
              "type": "uint256"
            },
            {
              "internalType": "string",
              "name": "email",
              "type": "string"
            },
            {
              "internalType": "uint256",
              "name": "age",
              "type": "uint256"
            },
            {
              "internalType": "string",
              "name": "place",
              "type": "string"
            },
            {
              "internalType": "string",
              "name": "Medical_specialty",
              "type": "string"
            },
            {
              "internalType": "address",
              "name": "docAddress",
              "type": "address"
            }
          ],
          "internalType": "struct MedRecChain.doctor[]",
          "name": "",
          "type": "tuple[]"
        }
      ],
      "stateMutability": "view",
      "type": "function",
      "constant": true
    },
    {
      "inputs": [],
      "name": "get_record_number",
      "outputs": [
        {
          "internalType": "uint256",
          "name": "i",
          "type": "uint256"
        }
      ],
      "stateMutability": "view",
      "type": "function",
      "constant": true
    },
    {
      "inputs": [
        {
          "internalType": "address",
          "name": "_addr",
          "type": "address"
        }
      ],
      "name": "get_hospita_by_address",
      "outputs": [
        {
          "components": [
            {
              "internalType": "uint256",
              "name": "id",
              "type": "uint256"
            },
            {
              "internalType": "string",
              "name": "name",
              "type": "string"
            },
            {
              "internalType": "address",
              "name": "addr",
              "type": "address"
            },
            {
              "internalType": "string",
              "name": "place",
              "type": "string"
            },
            {
              "internalType": "uint256",
              "name": "phone",
              "type": "uint256"
            }
          ],
          "internalType": "struct MedRecChain.Hospital",
          "name": "",
          "type": "tuple"
        }
      ],
      "stateMutability": "view",
      "type": "function",
      "constant": true
    },
    {
      "inputs": [
        {
          "internalType": "string",
          "name": "_name",
          "type": "string"
        },
        {
          "internalType": "string",
          "name": "_email",
          "type": "string"
        },
        {
          "internalType": "string",
          "name": "_National_Addr",
          "type": "string"
        },
        {
          "internalType": "uint256",
          "name": "_National_id",
          "type": "uint256"
        },
        {
          "internalType": "uint256",
          "name": "_age",
          "type": "uint256"
        },
        {
          "internalType": "address",
          "name": "_PatientAddress",
          "type": "address"
        },
        {
          "internalType": "uint256",
          "name": "_phone",
          "type": "uint256"
        },
        {
          "internalType": "string",
          "name": "_Blood_Type",
          "type": "string"
        },
        {
          "internalType": "string",
          "name": "_marital_status",
          "type": "string"
        },
        {
          "internalType": "string",
          "name": "_gender",
          "type": "string"
        }
      ],
      "name": "addPatient",
      "outputs": [
        {
          "internalType": "bool",
          "name": "success",
          "type": "bool"
        }
      ],
      "stateMutability": "nonpayable",
      "type": "function"
    },
    {
      "inputs": [],
      "name": "get_all_Patients",
      "outputs": [
        {
          "components": [
            {
              "internalType": "uint256",
              "name": "id",
              "type": "uint256"
            },
            {
              "internalType": "string",
              "name": "name",
              "type": "string"
            },
            {
              "internalType": "string",
              "name": "email",
              "type": "string"
            },
            {
              "internalType": "string",
              "name": "National_Addr",
              "type": "string"
            },
            {
              "internalType": "uint256",
              "name": "National_id",
              "type": "uint256"
            },
            {
              "internalType": "uint256",
              "name": "age",
              "type": "uint256"
            },
            {
              "internalType": "address",
              "name": "PatientAddress",
              "type": "address"
            },
            {
              "internalType": "uint256",
              "name": "phone",
              "type": "uint256"
            },
            {
              "internalType": "string",
              "name": "Blood_Type",
              "type": "string"
            },
            {
              "internalType": "string",
              "name": "marital_status",
              "type": "string"
            },
            {
              "internalType": "string",
              "name": "gender",
              "type": "string"
            },
            {
              "internalType": "address",
              "name": "hospital_addr",
              "type": "address"
            },
            {
              "components": [
                {
                  "internalType": "uint256",
                  "name": "Medical_id",
                  "type": "uint256"
                },
                {
                  "internalType": "string",
                  "name": "category",
                  "type": "string"
                },
                {
                  "internalType": "string",
                  "name": "patient_name",
                  "type": "string"
                },
                {
                  "internalType": "string",
                  "name": "rec_name",
                  "type": "string"
                },
                {
                  "internalType": "string",
                  "name": "Created_at",
                  "type": "string"
                },
                {
                  "internalType": "address",
                  "name": "patient_addr",
                  "type": "address"
                },
                {
                  "internalType": "address",
                  "name": "doctor_addr",
                  "type": "address"
                },
                {
                  "internalType": "string",
                  "name": "hex_ipfs",
                  "type": "string"
                },
                {
                  "internalType": "string",
                  "name": "notes",
                  "type": "string"
                }
              ],
              "internalType": "struct MedRecChain.record[]",
              "name": "Records",
              "type": "tuple[]"
            }
          ],
          "internalType": "struct MedRecChain.patient[]",
          "name": "",
          "type": "tuple[]"
        }
      ],
      "stateMutability": "view",
      "type": "function",
      "constant": true
    },
    {
      "inputs": [
        {
          "internalType": "address",
          "name": "_addr",
          "type": "address"
        }
      ],
      "name": "get_doctor_by_address",
      "outputs": [
        {
          "components": [
            {
              "internalType": "uint256",
              "name": "id",
              "type": "uint256"
            },
            {
              "internalType": "string",
              "name": "name",
              "type": "string"
            },
            {
              "internalType": "string",
              "name": "hospital_name",
              "type": "string"
            },
            {
              "internalType": "address",
              "name": "hospital_addr",
              "type": "address"
            },
            {
              "internalType": "uint256",
              "name": "phone",
              "type": "uint256"
            },
            {
              "internalType": "string",
              "name": "email",
              "type": "string"
            },
            {
              "internalType": "uint256",
              "name": "age",
              "type": "uint256"
            },
            {
              "internalType": "string",
              "name": "place",
              "type": "string"
            },
            {
              "internalType": "string",
              "name": "Medical_specialty",
              "type": "string"
            },
            {
              "internalType": "address",
              "name": "docAddress",
              "type": "address"
            }
          ],
          "internalType": "struct MedRecChain.doctor",
          "name": "",
          "type": "tuple"
        }
      ],
      "stateMutability": "view",
      "type": "function",
      "constant": true
    },
    {
      "inputs": [
        {
          "internalType": "address",
          "name": "_from_doctor_addr",
          "type": "address"
        },
        {
          "internalType": "address",
          "name": "_to_patients_addr",
          "type": "address"
        }
      ],
      "name": "checkRequestExists",
      "outputs": [
        {
          "internalType": "bool",
          "name": "",
          "type": "bool"
        }
      ],
      "stateMutability": "view",
      "type": "function",
      "constant": true
    },
    {
      "inputs": [
        {
          "internalType": "address",
          "name": "_patient",
          "type": "address"
        },
        {
          "internalType": "address",
          "name": "_doctor",
          "type": "address"
        }
      ],
      "name": "send_request_Access",
      "outputs": [
        {
          "internalType": "bool",
          "name": "success",
          "type": "bool"
        }
      ],
      "stateMutability": "nonpayable",
      "type": "function"
    },
    {
      "inputs": [],
      "name": "get_all_requests",
      "outputs": [
        {
          "components": [
            {
              "internalType": "uint256",
              "name": "id",
              "type": "uint256"
            },
            {
              "internalType": "address",
              "name": "from_doctor_addr",
              "type": "address"
            },
            {
              "internalType": "address",
              "name": "to_patients_addr",
              "type": "address"
            },
            {
              "internalType": "uint256",
              "name": "date",
              "type": "uint256"
            },
            {
              "internalType": "string",
              "name": "patient_name",
              "type": "string"
            },
            {
              "internalType": "string",
              "name": "doctor_name",
              "type": "string"
            }
          ],
          "internalType": "struct MedRecChain.request[]",
          "name": "",
          "type": "tuple[]"
        }
      ],
      "stateMutability": "view",
      "type": "function",
      "constant": true
    },
    {
      "inputs": [
        {
          "internalType": "string",
          "name": "_category",
          "type": "string"
        },
        {
          "internalType": "string",
          "name": "_patient_name",
          "type": "string"
        },
        {
          "internalType": "string",
          "name": "_rec_name",
          "type": "string"
        },
        {
          "internalType": "string",
          "name": "_Created_at",
          "type": "string"
        },
        {
          "internalType": "address",
          "name": "_patientAddr",
          "type": "address"
        },
        {
          "internalType": "address",
          "name": "_doctor_addr",
          "type": "address"
        },
        {
          "internalType": "string",
          "name": "_hex_ipfs",
          "type": "string"
        },
        {
          "internalType": "string",
          "name": "_notes",
          "type": "string"
        }
      ],
      "name": "addRecord",
      "outputs": [
        {
          "internalType": "bool",
          "name": "",
          "type": "bool"
        }
      ],
      "stateMutability": "nonpayable",
      "type": "function"
    },
    {
      "inputs": [
        {
          "internalType": "address",
          "name": "_addr",
          "type": "address"
        }
      ],
      "name": "get_patient_by_address",
      "outputs": [
        {
          "components": [
            {
              "internalType": "uint256",
              "name": "id",
              "type": "uint256"
            },
            {
              "internalType": "string",
              "name": "name",
              "type": "string"
            },
            {
              "internalType": "string",
              "name": "email",
              "type": "string"
            },
            {
              "internalType": "string",
              "name": "National_Addr",
              "type": "string"
            },
            {
              "internalType": "uint256",
              "name": "National_id",
              "type": "uint256"
            },
            {
              "internalType": "uint256",
              "name": "age",
              "type": "uint256"
            },
            {
              "internalType": "address",
              "name": "PatientAddress",
              "type": "address"
            },
            {
              "internalType": "uint256",
              "name": "phone",
              "type": "uint256"
            },
            {
              "internalType": "string",
              "name": "Blood_Type",
              "type": "string"
            },
            {
              "internalType": "string",
              "name": "marital_status",
              "type": "string"
            },
            {
              "internalType": "string",
              "name": "gender",
              "type": "string"
            },
            {
              "internalType": "address",
              "name": "hospital_addr",
              "type": "address"
            },
            {
              "components": [
                {
                  "internalType": "uint256",
                  "name": "Medical_id",
                  "type": "uint256"
                },
                {
                  "internalType": "string",
                  "name": "category",
                  "type": "string"
                },
                {
                  "internalType": "string",
                  "name": "patient_name",
                  "type": "string"
                },
                {
                  "internalType": "string",
                  "name": "rec_name",
                  "type": "string"
                },
                {
                  "internalType": "string",
                  "name": "Created_at",
                  "type": "string"
                },
                {
                  "internalType": "address",
                  "name": "patient_addr",
                  "type": "address"
                },
                {
                  "internalType": "address",
                  "name": "doctor_addr",
                  "type": "address"
                },
                {
                  "internalType": "string",
                  "name": "hex_ipfs",
                  "type": "string"
                },
                {
                  "internalType": "string",
                  "name": "notes",
                  "type": "string"
                }
              ],
              "internalType": "struct MedRecChain.record[]",
              "name": "Records",
              "type": "tuple[]"
            }
          ],
          "internalType": "struct MedRecChain.patient",
          "name": "",
          "type": "tuple"
        }
      ],
      "stateMutability": "view",
      "type": "function",
      "constant": true
    },
    {
      "inputs": [],
      "name": "See_Record_for_Patient",
      "outputs": [
        {
          "components": [
            {
              "internalType": "uint256",
              "name": "Medical_id",
              "type": "uint256"
            },
            {
              "internalType": "string",
              "name": "category",
              "type": "string"
            },
            {
              "internalType": "string",
              "name": "patient_name",
              "type": "string"
            },
            {
              "internalType": "string",
              "name": "rec_name",
              "type": "string"
            },
            {
              "internalType": "string",
              "name": "Created_at",
              "type": "string"
            },
            {
              "internalType": "address",
              "name": "patient_addr",
              "type": "address"
            },
            {
              "internalType": "address",
              "name": "doctor_addr",
              "type": "address"
            },
            {
              "internalType": "string",
              "name": "hex_ipfs",
              "type": "string"
            },
            {
              "internalType": "string",
              "name": "notes",
              "type": "string"
            }
          ],
          "internalType": "struct MedRecChain.record[]",
          "name": "",
          "type": "tuple[]"
        }
      ],
      "stateMutability": "view",
      "type": "function",
      "constant": true
    },
    {
      "inputs": [
        {
          "internalType": "address",
          "name": "_doctor",
          "type": "address"
        }
      ],
      "name": "approveAccess",
      "outputs": [],
      "stateMutability": "nonpayable",
      "type": "function"
    },
    {
      "inputs": [
        {
          "internalType": "address",
          "name": "_doctor",
          "type": "address"
        },
        {
          "internalType": "address",
          "name": "_patient",
          "type": "address"
        }
      ],
      "name": "check_approve_Access",
      "outputs": [
        {
          "internalType": "bool",
          "name": "",
          "type": "bool"
        }
      ],
      "stateMutability": "view",
      "type": "function",
      "constant": true
    },
    {
      "inputs": [
        {
          "internalType": "address",
          "name": "doc",
          "type": "address"
        },
        {
          "internalType": "address",
          "name": "pat",
          "type": "address"
        }
      ],
      "name": "DeleteRequest",
      "outputs": [],
      "stateMutability": "nonpayable",
      "type": "function"
    },
    {
      "inputs": [
        {
          "internalType": "address",
          "name": "_doctor",
          "type": "address"
        }
      ],
      "name": "rejectAccess",
      "outputs": [],
      "stateMutability": "nonpayable",
      "type": "function"
    }
  ],
  "bytecode": "0x6080604052600180546001600160a01b03191673c577e31a2a01564b662c57b115c86af62f7e528a1790553480156200003757600080fd5b5060015462000071907fa49807205ce4d355092ef5a8a18f56e8913cf4a201fbe287825b095693c21775906001600160a01b031662000077565b62000127565b62000083828262000087565b5050565b6000828152602081815260408083206001600160a01b038516845290915290205460ff1662000083576000828152602081815260408083206001600160a01b03851684529091529020805460ff19166001179055620000e33390565b6001600160a01b0316816001600160a01b0316837f2f8788117e7eff1d82e926ec794901d17c78024a50270940304540a733656f0d60405160405180910390a45050565b615aad80620001376000396000f3fe608060405234801561001057600080fd5b50600436106101c25760003560e01c806301ffc9a7146101c7578063217e16f7146101ef57806321ea00a91461020457806323654cc41461021a578063248a9ca31461022d57806324ca3b35146102405780632f2ff15d146102535780633141172c1461026857806336568abe1461027b578063432d62741461028e57806353bbcf03146102b9578063705211f4146102c157806375b238fc146102d457806381d12c58146102e957806385b5f7fc1461030e5780638f333d7014610321578063905e03ba1461033657806391d148541461034957806393ac61771461035c57806398fc90e91461037c578063a217fddf1461038f578063a2cdceda14610397578063aa836ed2146103aa578063ac5cb97d146103bd578063aefae3b1146103d2578063bb5bfd66146103e5578063c10f7611146103fa578063c1b325711461040f578063c821f07f14610422578063d15258d114610442578063d547741f14610457578063d8b070fa1461046a578063f2b62d931461047d578063f6ba667814610490578063fd6ecf0b146104a5578063fe7ac90d146104c5578063fec331f2146104d8578063ff1b636d146104ed575b600080fd5b6101da6101d5366004614a23565b610500565b60405190151581526020015b60405180910390f35b6101f7610537565b6040516101e69190614b0b565b61020c610785565b6040519081526020016101e6565b6101da610228366004614b84565b610819565b61020c61023b366004614bb7565b610a8e565b6101da61024e366004614c72565b610aa3565b610266610261366004614d78565b610dc2565b005b610266610276366004614d9b565b610de3565b610266610289366004614d78565b610ec0565b6102a161029c366004614bb7565b610f3e565b6040516001600160a01b0390911681526020016101e6565b61020c610f68565b6102666102cf366004614d9b565b610fd5565b61020c600080516020615a3883398151915281565b6102fc6102f7366004614bb7565b61111f565b6040516101e696959493929190614db6565b61026661031c366004614b84565b611287565b6103296116f0565b6040516101e69190614f2a565b6101da610344366004614f3d565b611b54565b6101da610357366004614d78565b611d7d565b61036f61036a366004614d9b565b611da6565b6040516101e69190614fb8565b6101da61038a366004614d9b565b611f27565b61020c600081565b6102666103a5366004614d9b565b61207d565b6101da6103b8366004614b84565b61221f565b61020c6000805160206159f883398151915281565b6101da6103e0366004614b84565b612285565b6103ed61233c565b6040516101e69190614fcb565b6104026124f0565b6040516101e6919061519e565b61026661041d366004614d9b565b612da0565b610435610430366004614d9b565b612f18565b6040516101e691906152c4565b61044a61326e565b6040516101e691906152d7565b610266610465366004614d78565b61368e565b6101da61047836600461532c565b6136aa565b6101da61048b366004615451565b6139cc565b61020c600080516020615a5883398151915281565b6104b86104b3366004614d9b565b613cbb565b6040516101e69190615568565b6101da6104d3366004614d9b565b6144a3565b61020c600080516020615a1883398151915281565b6001546102a1906001600160a01b031681565b60006001600160e01b03198216637965db0b60e01b148061053157506301ffc9a760e01b6001600160e01b03198316145b92915050565b6004546060906000906001600160401b0381111561055757610557614bd0565b60405190808252806020026020018201604052801561059057816020015b61057d6148b9565b8152602001906001900390816105755790505b50905060005b60045481101561077f5760036000600483815481106105b7576105b761557b565b9060005260206000200160009054906101000a90046001600160a01b03166001600160a01b03166001600160a01b031681526020019081526020016000206040518060a00160405290816000820154815260200160018201805461061a90615591565b80601f016020809104026020016040519081016040528092919081815260200182805461064690615591565b80156106935780601f1061066857610100808354040283529160200191610693565b820191906000526020600020905b81548152906001019060200180831161067657829003601f168201915b505050918352505060028201546001600160a01b031660208201526003820180546040909201916106c390615591565b80601f01602080910402602001604051908101604052809291908181526020018280546106ef90615591565b801561073c5780601f106107115761010080835404028352916020019161073c565b820191906000526020600020905b81548152906001019060200180831161071f57829003601f168201915b505050505081526020016004820154815250508282815181106107615761076161557b565b60200260200101819052508080610777906155db565b915050610596565b50919050565b600061079f600080516020615a3883398151915233611d7d565b156107aa5750600190565b6107c2600080516020615a5883398151915233611d7d565b156107cd5750600290565b6107e5600080516020615a1883398151915233611d7d565b156107f05750600390565b6108086000805160206159f883398151915233611d7d565b156108135750600490565b50600090565b60006108336000805160206159f883398151915284611d7d565b6108a55760405162461bcd60e51b815260206004820152603860248201527f54686520706572736f6e20796f75206172652072657175657374696e6720616360448201527718d95cdcc81d1bc81a5cc81b9bdd08184814185d1a595b9d60421b60648201526084015b60405180910390fd5b6108af8284612285565b156108f55760405162461bcd60e51b8152602060048201526016602482015275185b1c9958591e481cd95b990818481c995c5d595cdd60521b604482015260640161089c565b600d546109039060016155f4565b600d55600061091184613cbb565b9050600061091e84612f18565b6040805160c081018252600d5481526001600160a01b0380881660208084019182528a8316948401948552426060850190815288820151608086019081529187015160a0860152600e8054600181018255600091909152855160069091027fbb7b4a454dc3493923482f07822329ed19e8244eff582cc204f8554c3620c3fd810191825593517fbb7b4a454dc3493923482f07822329ed19e8244eff582cc204f8554c3620c3fe850180549187166001600160a01b031992831617905596517fbb7b4a454dc3493923482f07822329ed19e8244eff582cc204f8554c3620c3ff850180549190961697169690961790935591517fbb7b4a454dc3493923482f07822329ed19e8244eff582cc204f8554c3620c400820155905193945090927fbb7b4a454dc3493923482f07822329ed19e8244eff582cc204f8554c3620c40190910190610a6b9082615655565b5060a08201516005820190610a809082615655565b506001979650505050505050565b60009081526020819052604090206001015490565b6000610abd600080516020615a3883398151915233611d7d565b610ad95760405162461bcd60e51b815260040161089c90615714565b610af1600080516020615a1883398151915283611d7d565b15610b3e5760405162461bcd60e51b815260206004820152601d60248201527f54686973206163636f756e7420616c7265616479206120646f63746f72000000604482015260640161089c565b610b56600080516020615a3883398151915283611d7d565b15610b735760405162461bcd60e51b815260040161089c90615764565b610b8b600080516020615a5883398151915283611d7d565b15610ba85760405162461bcd60e51b815260040161089c90615796565b610bc06000805160206159f883398151915283611d7d565b15610bdd5760405162461bcd60e51b815260040161089c906157cb565b610bf5600080516020615a5883398151915289611d7d565b610c115760405162461bcd60e51b815260040161089c906157ff565b610c29600080516020615a18833981519152836145af565b600a54610c379060016155f4565b600a819055604080516101408101825291825260208083018d81528383018d90526001600160a01b03808d166060860152608085018c905260a085018b905260c085018a905260e08501899052610100850188905286166101208501819052600090815260079092529190208251815590516001820190610cb89082615655565b5060408201516002820190610ccd9082615655565b5060608201516003820180546001600160a01b0319166001600160a01b039092169190911790556080820151600482015560a08201516005820190610d129082615655565b5060c0820151600682015560e08201516007820190610d319082615655565b506101008201516008820190610d479082615655565b506101209190910151600990910180546001600160a01b03199081166001600160a01b039384161790915560088054600181810183556000929092527ff3f7a9fe364faab93b216da50a3214154f22a0a2b415b23a84c8169e8b636ee301805490921694909216939093179092555098975050505050505050565b610dcb82610a8e565b610dd4816145b9565b610dde83836145c3565b505050565b610dfb6000805160206159f883398151915233611d7d565b610e175760405162461bcd60e51b815260040161089c90615840565b610e2f600080516020615a1883398151915282611d7d565b610e875760405162461bcd60e51b8152602060048201526024808201527f446f63746f7220646f6573206e6f7420686176652074686520646f63746f7220604482015263726f6c6560e01b606482015260840161089c565b3360008181526002602090815260408083206001600160a01b03861684529091529020805460ff19169055610ebd908290611287565b50565b6001600160a01b0381163314610f305760405162461bcd60e51b815260206004820152602f60248201527f416363657373436f6e74726f6c3a2063616e206f6e6c792072656e6f756e636560448201526e103937b632b9903337b91039b2b63360891b606482015260840161089c565b610f3a8282614647565b5050565b60048181548110610f4e57600080fd5b6000918252602090912001546001600160a01b0316905081565b60008060005b60065481101561077f576005600060068381548110610f8f57610f8f61557b565b60009182526020808320909101546001600160a01b031683528201929092526040019020600c0154610fc190836155f4565b915080610fcd816155db565b915050610f6e565b610fed6000805160206159f883398151915233611d7d565b6110095760405162461bcd60e51b815260040161089c90615840565b611021600080516020615a1883398151915282611d7d565b61106c5760405162461bcd60e51b815260206004820152601c60248201527b03a3434b99030b1b7bab73a1034b9903737ba1030903237b1ba37b9160251b604482015260640161089c565b3360009081526002602090815260408083206001600160a01b038516845290915290205460ff16156110ee5760405162461bcd60e51b815260206004820152602560248201527f54686973205265717565737420616c7261656479206265656e20417070726f76604482015264032b21090960dd1b606482015260840161089c565b3360009081526002602090815260408083206001600160a01b0394909416835292905220805460ff19166001179055565b600e818154811061112f57600080fd5b6000918252602090912060069091020180546001820154600283015460038401546004850180549496506001600160a01b0393841695929093169390929061117690615591565b80601f01602080910402602001604051908101604052809291908181526020018280546111a290615591565b80156111ef5780601f106111c4576101008083540402835291602001916111ef565b820191906000526020600020905b8154815290600101906020018083116111d257829003601f168201915b50505050509080600501805461120490615591565b80601f016020809104026020016040519081016040528092919081815260200182805461123090615591565b801561127d5780601f106112525761010080835404028352916020019161127d565b820191906000526020600020905b81548152906001019060200180831161126057829003601f168201915b5050505050905086565b600e546112a65760405162461bcd60e51b815260040161089c90615875565b60005b600e54811015610dde57826040516020016112c4919061589f565b60405160208183030381529060405280519060200120600e82815481106112ed576112ed61557b565b60009182526020918290206001600690920201015460405161131b926001600160a01b03909216910161589f565b604051602081830303815290604052805190602001201480156113b957508160405160200161134a919061589f565b60405160208183030381529060405280519060200120600e82815481106113735761137361557b565b6000918252602091829020600260069092020101546040516113a1926001600160a01b03909216910161589f565b60405160208183030381529060405280519060200120145b156116de57600e81815481106113d1576113d161557b565b6000918252602082206006909102018181556001810180546001600160a01b03199081169091556002820180549091169055600381018290559061141860048301826148f1565b6114266005830160006148f1565b5050600e5460009061143a906001906158b7565b90506000600e82815481106114515761145161557b565b60009182526020918290206040805160c08101825260069093029091018054835260018101546001600160a01b0390811694840194909452600281015490931690820152600382015460608201526004820180549192916080840191906114b790615591565b80601f01602080910402602001604051908101604052809291908181526020018280546114e390615591565b80156115305780601f1061150557610100808354040283529160200191611530565b820191906000526020600020905b81548152906001019060200180831161151357829003601f168201915b5050505050815260200160058201805461154990615591565b80601f016020809104026020016040519081016040528092919081815260200182805461157590615591565b80156115c25780601f10611597576101008083540402835291602001916115c2565b820191906000526020600020905b8154815290600101906020018083116115a557829003601f168201915b505050505081525050905080600e84815481106115e1576115e161557b565b60009182526020918290208351600690920201908155908201516001820180546001600160a01b039283166001600160a01b0319918216179091556040840151600284018054919093169116179055606082015160038201556080820151600482019061164e9082615655565b5060a082015160058201906116639082615655565b50905050600e805480611678576116786158ca565b6000828152602081206006600019909301928302018181556001810180546001600160a01b0319908116909155600282018054909116905560038101829055906116c560048301826148f1565b6116d36005830160006148f1565b505090555050505050565b806116e8816155db565b9150506112a9565b336000908152600560205260409020600c01546060906117515760405162461bcd60e51b815260206004820152601c60248201527b1c185d1a595b9d081c9958dbdc9908191bd95cdb89dd08195e1a5cdd60221b604482015260640161089c565b336000908152600560209081526040808320600c0180548251818502810185019093528083529193909284015b82821015611b4b578382906000526020600020906009020160405180610120016040529081600082015481526020016001820180546117bc90615591565b80601f01602080910402602001604051908101604052809291908181526020018280546117e890615591565b80156118355780601f1061180a57610100808354040283529160200191611835565b820191906000526020600020905b81548152906001019060200180831161181857829003601f168201915b5050505050815260200160028201805461184e90615591565b80601f016020809104026020016040519081016040528092919081815260200182805461187a90615591565b80156118c75780601f1061189c576101008083540402835291602001916118c7565b820191906000526020600020905b8154815290600101906020018083116118aa57829003601f168201915b505050505081526020016003820180546118e090615591565b80601f016020809104026020016040519081016040528092919081815260200182805461190c90615591565b80156119595780601f1061192e57610100808354040283529160200191611959565b820191906000526020600020905b81548152906001019060200180831161193c57829003601f168201915b5050505050815260200160048201805461197290615591565b80601f016020809104026020016040519081016040528092919081815260200182805461199e90615591565b80156119eb5780601f106119c0576101008083540402835291602001916119eb565b820191906000526020600020905b8154815290600101906020018083116119ce57829003601f168201915b505050918352505060058201546001600160a01b0390811660208301526006830154166040820152600782018054606090920191611a2890615591565b80601f0160208091040260200160405190810160405280929190818152602001828054611a5490615591565b8015611aa15780601f10611a7657610100808354040283529160200191611aa1565b820191906000526020600020905b815481529060010190602001808311611a8457829003601f168201915b50505050508152602001600882018054611aba90615591565b80601f0160208091040260200160405190810160405280929190818152602001828054611ae690615591565b8015611b335780601f10611b0857610100808354040283529160200191611b33565b820191906000526020600020905b815481529060010190602001808311611b1657829003601f168201915b5050505050815250508152602001906001019061177e565b50505050905090565b6000611b6e600080516020615a3883398151915233611d7d565b611b8a5760405162461bcd60e51b815260040161089c90615714565b611ba2600080516020615a5883398151915285611d7d565b15611bbf5760405162461bcd60e51b815260040161089c906157ff565b611bd7600080516020615a3883398151915285611d7d565b15611bf45760405162461bcd60e51b815260040161089c90615764565b611c0c600080516020615a1883398151915285611d7d565b15611c295760405162461bcd60e51b815260040161089c906158e0565b611c416000805160206159f883398151915285611d7d565b15611c5e5760405162461bcd60e51b815260040161089c906157cb565b611c76600080516020615a58833981519152856145af565b600954611c849060016155f4565b60098190556040805160a08101825291825260208083018881526001600160a01b0388168484018190526060850188905260808501879052600090815260039092529190208251815590516001820190611cde9082615655565b5060408201516002820180546001600160a01b0319166001600160a01b0390921691909117905560608201516003820190611d199082615655565b50608091909101516004918201558054600181810183556000929092527f8a35acfbc15ff81a39ae7d344fd709f28e8600b4aa8c65c6b64bfe7fe36bd19b0180546001600160a01b0387166001600160a01b03199091161790559050949350505050565b6000918252602082815260408084206001600160a01b0393909316845291905290205460ff1690565b611dae6148b9565b6001600160a01b038216600090815260036020908152604091829020825160a08101909352805483526001810180549192840191611deb90615591565b80601f0160208091040260200160405190810160405280929190818152602001828054611e1790615591565b8015611e645780601f10611e3957610100808354040283529160200191611e64565b820191906000526020600020905b815481529060010190602001808311611e4757829003601f168201915b505050918352505060028201546001600160a01b03166020820152600382018054604090920191611e9490615591565b80601f0160208091040260200160405190810160405280929190818152602001828054611ec090615591565b8015611f0d5780601f10611ee257610100808354040283529160200191611f0d565b820191906000526020600020905b815481529060010190602001808311611ef057829003601f168201915b505050505081526020016004820154815250509050919050565b6000611f41600080516020615a3883398151915233611d7d565b611f5d5760405162461bcd60e51b815260040161089c90615714565b611f75600080516020615a1883398151915283611d7d565b611fbb5760405162461bcd60e51b8152602060048201526017602482015276151a1a5cc81858d8dbdd5b9d081b9bdd08195e1a5cda5d604a1b604482015260640161089c565b6001600160a01b038216600090815260076020526040812081815590611fe460018301826148f1565b611ff26002830160006148f1565b6003820180546001600160a01b031916905560006004830181905561201b9060058401906148f1565b600682016000905560078201600061203391906148f1565b6120416008830160006148f1565b5060090180546001600160a01b031916905561206b600080516020615a1883398151915283614647565b6120748261207d565b5060015b919050565b60085461209c5760405162461bcd60e51b815260040161089c90615875565b60005b600854811015610f3a57816040516020016120ba919061589f565b60405160208183030381529060405280519060200120600882815481106120e3576120e361557b565b60009182526020918290200154604051612109926001600160a01b03909216910161589f565b604051602081830303815290604052805190602001200361220d57600881815481106121375761213761557b565b6000918252602082200180546001600160a01b031916905560085461215e906001906158b7565b90506000600882815481106121755761217561557b565b600091825260209091200154600880546001600160a01b0390921692508291859081106121a4576121a461557b565b9060005260206000200160006101000a8154816001600160a01b0302191690836001600160a01b0316021790555060088054806121e3576121e36158ca565b600082815260209020810160001990810180546001600160a01b031916905501905550610f3a9050565b80612217816155db565b91505061209f565b6000612239600080516020615a1883398151915233611d7d565b6122555760405162461bcd60e51b815260040161089c90615913565b506001600160a01b0380821660009081526002602090815260408083209386168352929052205460ff1692915050565b6000805b600e5481101561233257836001600160a01b0316600e82815481106122b0576122b061557b565b60009182526020909120600160069092020101546001600160a01b03161480156123115750826001600160a01b0316600e82815481106122f2576122f261557b565b60009182526020909120600260069092020101546001600160a01b0316145b15612320576001915050610531565b8061232a816155db565b915050612289565b5060009392505050565b6060600e805480602002602001604051908101604052809291908181526020016000905b82821015611b4b5760008481526020908190206040805160c081018252600686029092018054835260018101546001600160a01b0390811694840194909452600281015490931690820152600382015460608201526004820180549192916080840191906123cd90615591565b80601f01602080910402602001604051908101604052809291908181526020018280546123f990615591565b80156124465780601f1061241b57610100808354040283529160200191612446565b820191906000526020600020905b81548152906001019060200180831161242957829003601f168201915b5050505050815260200160058201805461245f90615591565b80601f016020809104026020016040519081016040528092919081815260200182805461248b90615591565b80156124d85780601f106124ad576101008083540402835291602001916124d8565b820191906000526020600020905b8154815290600101906020018083116124bb57829003601f168201915b50505050508152505081526020019060010190612360565b6006546060906000906001600160401b0381111561251057612510614bd0565b60405190808252806020026020018201604052801561254957816020015b61253661492b565b81526020019060019003908161252e5790505b50905060005b60065481101561077f5760056000600683815481106125705761257061557b565b9060005260206000200160009054906101000a90046001600160a01b03166001600160a01b03166001600160a01b03168152602001908152602001600020604051806101a0016040529081600082015481526020016001820180546125d490615591565b80601f016020809104026020016040519081016040528092919081815260200182805461260090615591565b801561264d5780601f106126225761010080835404028352916020019161264d565b820191906000526020600020905b81548152906001019060200180831161263057829003601f168201915b5050505050815260200160028201805461266690615591565b80601f016020809104026020016040519081016040528092919081815260200182805461269290615591565b80156126df5780601f106126b4576101008083540402835291602001916126df565b820191906000526020600020905b8154815290600101906020018083116126c257829003601f168201915b505050505081526020016003820180546126f890615591565b80601f016020809104026020016040519081016040528092919081815260200182805461272490615591565b80156127715780601f1061274657610100808354040283529160200191612771565b820191906000526020600020905b81548152906001019060200180831161275457829003601f168201915b5050509183525050600482015460208201526005820154604082015260068201546001600160a01b031660608201526007820154608082015260088201805460a0909201916127bf90615591565b80601f01602080910402602001604051908101604052809291908181526020018280546127eb90615591565b80156128385780601f1061280d57610100808354040283529160200191612838565b820191906000526020600020905b81548152906001019060200180831161281b57829003601f168201915b5050505050815260200160098201805461285190615591565b80601f016020809104026020016040519081016040528092919081815260200182805461287d90615591565b80156128ca5780601f1061289f576101008083540402835291602001916128ca565b820191906000526020600020905b8154815290600101906020018083116128ad57829003601f168201915b50505050508152602001600a820180546128e390615591565b80601f016020809104026020016040519081016040528092919081815260200182805461290f90615591565b801561295c5780601f106129315761010080835404028352916020019161295c565b820191906000526020600020905b81548152906001019060200180831161293f57829003601f168201915b5050509183525050600b8201546001600160a01b0316602080830191909152600c83018054604080518285028101850182528281529401939260009084015b82821015612d68578382906000526020600020906009020160405180610120016040529081600082015481526020016001820180546129d990615591565b80601f0160208091040260200160405190810160405280929190818152602001828054612a0590615591565b8015612a525780601f10612a2757610100808354040283529160200191612a52565b820191906000526020600020905b815481529060010190602001808311612a3557829003601f168201915b50505050508152602001600282018054612a6b90615591565b80601f0160208091040260200160405190810160405280929190818152602001828054612a9790615591565b8015612ae45780601f10612ab957610100808354040283529160200191612ae4565b820191906000526020600020905b815481529060010190602001808311612ac757829003601f168201915b50505050508152602001600382018054612afd90615591565b80601f0160208091040260200160405190810160405280929190818152602001828054612b2990615591565b8015612b765780601f10612b4b57610100808354040283529160200191612b76565b820191906000526020600020905b815481529060010190602001808311612b5957829003601f168201915b50505050508152602001600482018054612b8f90615591565b80601f0160208091040260200160405190810160405280929190818152602001828054612bbb90615591565b8015612c085780601f10612bdd57610100808354040283529160200191612c08565b820191906000526020600020905b815481529060010190602001808311612beb57829003601f168201915b505050918352505060058201546001600160a01b0390811660208301526006830154166040820152600782018054606090920191612c4590615591565b80601f0160208091040260200160405190810160405280929190818152602001828054612c7190615591565b8015612cbe5780601f10612c9357610100808354040283529160200191612cbe565b820191906000526020600020905b815481529060010190602001808311612ca157829003601f168201915b50505050508152602001600882018054612cd790615591565b80601f0160208091040260200160405190810160405280929190818152602001828054612d0390615591565b8015612d505780601f10612d2557610100808354040283529160200191612d50565b820191906000526020600020905b815481529060010190602001808311612d3357829003601f168201915b5050505050815250508152602001906001019061299b565b5050505081525050828281518110612d8257612d8261557b565b60200260200101819052508080612d98906155db565b91505061254f565b600454612dbf5760405162461bcd60e51b815260040161089c90615875565b60005b600454811015610f3a5781604051602001612ddd919061589f565b6040516020818303038152906040528051906020012060048281548110612e0657612e0661557b565b60009182526020918290200154604051612e2c926001600160a01b03909216910161589f565b6040516020818303038152906040528051906020012003612f065760048181548110612e5a57612e5a61557b565b6000918252602082200180546001600160a01b0319169055600454612e81906001906158b7565b9050600060048281548110612e9857612e9861557b565b600091825260209091200154600480546001600160a01b039092169250829185908110612ec757612ec761557b565b9060005260206000200160006101000a8154816001600160a01b0302191690836001600160a01b0316021790555060048054806121e3576121e36158ca565b80612f10816155db565b915050612dc2565b612f206149a5565b6001600160a01b03821660009081526007602090815260409182902082516101408101909352805483526001810180549192840191612f5e90615591565b80601f0160208091040260200160405190810160405280929190818152602001828054612f8a90615591565b8015612fd75780601f10612fac57610100808354040283529160200191612fd7565b820191906000526020600020905b815481529060010190602001808311612fba57829003601f168201915b50505050508152602001600282018054612ff090615591565b80601f016020809104026020016040519081016040528092919081815260200182805461301c90615591565b80156130695780601f1061303e57610100808354040283529160200191613069565b820191906000526020600020905b81548152906001019060200180831161304c57829003601f168201915b505050918352505060038201546001600160a01b03166020820152600482015460408201526005820180546060909201916130a390615591565b80601f01602080910402602001604051908101604052809291908181526020018280546130cf90615591565b801561311c5780601f106130f15761010080835404028352916020019161311c565b820191906000526020600020905b8154815290600101906020018083116130ff57829003601f168201915b505050505081526020016006820154815260200160078201805461313f90615591565b80601f016020809104026020016040519081016040528092919081815260200182805461316b90615591565b80156131b85780601f1061318d576101008083540402835291602001916131b8565b820191906000526020600020905b81548152906001019060200180831161319b57829003601f168201915b505050505081526020016008820180546131d190615591565b80601f01602080910402602001604051908101604052809291908181526020018280546131fd90615591565b801561324a5780601f1061321f5761010080835404028352916020019161324a565b820191906000526020600020905b81548152906001019060200180831161322d57829003601f168201915b5050509183525050600991909101546001600160a01b031660209091015292915050565b6008546060906000906001600160401b0381111561328e5761328e614bd0565b6040519080825280602002602001820160405280156132c757816020015b6132b46149a5565b8152602001906001900390816132ac5790505b50905060005b60085481101561077f5760076000600883815481106132ee576132ee61557b565b9060005260206000200160009054906101000a90046001600160a01b03166001600160a01b03166001600160a01b03168152602001908152602001600020604051806101400160405290816000820154815260200160018201805461335290615591565b80601f016020809104026020016040519081016040528092919081815260200182805461337e90615591565b80156133cb5780601f106133a0576101008083540402835291602001916133cb565b820191906000526020600020905b8154815290600101906020018083116133ae57829003601f168201915b505050505081526020016002820180546133e490615591565b80601f016020809104026020016040519081016040528092919081815260200182805461341090615591565b801561345d5780601f106134325761010080835404028352916020019161345d565b820191906000526020600020905b81548152906001019060200180831161344057829003601f168201915b505050918352505060038201546001600160a01b031660208201526004820154604082015260058201805460609092019161349790615591565b80601f01602080910402602001604051908101604052809291908181526020018280546134c390615591565b80156135105780601f106134e557610100808354040283529160200191613510565b820191906000526020600020905b8154815290600101906020018083116134f357829003601f168201915b505050505081526020016006820154815260200160078201805461353390615591565b80601f016020809104026020016040519081016040528092919081815260200182805461355f90615591565b80156135ac5780601f10613581576101008083540402835291602001916135ac565b820191906000526020600020905b81548152906001019060200180831161358f57829003601f168201915b505050505081526020016008820180546135c590615591565b80601f01602080910402602001604051908101604052809291908181526020018280546135f190615591565b801561363e5780601f106136135761010080835404028352916020019161363e565b820191906000526020600020905b81548152906001019060200180831161362157829003601f168201915b5050509183525050600991909101546001600160a01b031660209091015282518390839081106136705761367061557b565b60200260200101819052508080613686906155db565b9150506132cd565b61369782610a8e565b6136a0816145b9565b610dde8383614647565b60006136c4600080516020615a5883398151915233611d7d565b61370f5760405162461bcd60e51b815260206004820152601c60248201527b151a1a5cc81858d8dbdd5b9d081a5cc81b9bdd08121bdcdc1a5d185b60221b604482015260640161089c565b6137276000805160206159f883398151915287611d7d565b156137745760405162461bcd60e51b815260206004820152601e60248201527f54686973206163636f756e7420616c726561647920612070617469656e740000604482015260640161089c565b61378c600080516020615a3883398151915287611d7d565b156137a95760405162461bcd60e51b815260040161089c90615764565b6137c1600080516020615a1883398151915287611d7d565b156137de5760405162461bcd60e51b815260040161089c906158e0565b6137f6600080516020615a5883398151915287611d7d565b156138135760405162461bcd60e51b815260040161089c90615796565b61382b6000805160206159f8833981519152876145af565b600b546138399060016155f4565b600b8190556001600160a01b03871660008181526005602052604090209182556006820180546001600160a01b031916909117905560010161387b8c82615655565b506001600160a01b03861660009081526005602052604090206002016138a18b82615655565b506001600160a01b03861660009081526005602052604090206003016138c78a82615655565b506001600160a01b0386166000908152600560208190526040909120600481018a9055908101889055600781018690556008016139048582615655565b506001600160a01b038616600090815260056020526040902060090161392a8482615655565b506001600160a01b0386166000908152600560205260409020600a016139508382615655565b50506001600160a01b0385166000818152600560205260408120600b0180546001600160a01b031990811633179091556006805460018181018355919093527ff652222313e28459528d920b65115c16c04f3efc82aaedc97be59f3f377c0d3f90920180549091169092179091559a9950505050505050505050565b60006139e6600080516020615a1883398151915233611d7d565b613a025760405162461bcd60e51b815260040161089c90615913565b613a1a6000805160206159f883398151915286611d7d565b613a645760405162461bcd60e51b815260206004820152601b60248201527a151a1a5cc81c185d1a595b9d1cc81a5cc81b9bdd08195e1a5cda5d602a1b604482015260640161089c565b6001600160a01b038516600090815260026020908152604080832033845290915290205460ff16613ad65760405162461bcd60e51b815260206004820152601c60248201527b4e6f207065726d697373696f6e20746f20616464205265636f72647360201b604482015260640161089c565b6001600160a01b0384163314613b2d5760405162461bcd60e51b815260206004820152601c60248201527b2737903832b936b4b9b9b4b7b7103a37903a3434b9902237b1ba37b960211b604482015260640161089c565b600c54613b3b9060016155f4565b600c8190555060056000866001600160a01b03166001600160a01b03168152602001908152602001600020600c01604051806101200160405280600c5481526020018b81526020018a8152602001898152602001888152602001876001600160a01b03168152602001866001600160a01b03168152602001858152602001848152509080600181540180825580915050600190039060005260206000209060090201600090919091909150600082015181600001556020820151816001019081613c059190615655565b5060408201516002820190613c1a9082615655565b5060608201516003820190613c2f9082615655565b5060808201516004820190613c449082615655565b5060a08201516005820180546001600160a01b039283166001600160a01b03199182161790915560c084015160068401805491909316911617905560e08201516007820190613c939082615655565b506101008201516008820190613ca99082615655565b5060019b9a5050505050505050505050565b613cc361492b565b6001600160a01b03821660009081526005602090815260409182902082516101a08101909352805483526001810180549192840191613d0190615591565b80601f0160208091040260200160405190810160405280929190818152602001828054613d2d90615591565b8015613d7a5780601f10613d4f57610100808354040283529160200191613d7a565b820191906000526020600020905b815481529060010190602001808311613d5d57829003601f168201915b50505050508152602001600282018054613d9390615591565b80601f0160208091040260200160405190810160405280929190818152602001828054613dbf90615591565b8015613e0c5780601f10613de157610100808354040283529160200191613e0c565b820191906000526020600020905b815481529060010190602001808311613def57829003601f168201915b50505050508152602001600382018054613e2590615591565b80601f0160208091040260200160405190810160405280929190818152602001828054613e5190615591565b8015613e9e5780601f10613e7357610100808354040283529160200191613e9e565b820191906000526020600020905b815481529060010190602001808311613e8157829003601f168201915b5050509183525050600482015460208201526005820154604082015260068201546001600160a01b031660608201526007820154608082015260088201805460a090920191613eec90615591565b80601f0160208091040260200160405190810160405280929190818152602001828054613f1890615591565b8015613f655780601f10613f3a57610100808354040283529160200191613f65565b820191906000526020600020905b815481529060010190602001808311613f4857829003601f168201915b50505050508152602001600982018054613f7e90615591565b80601f0160208091040260200160405190810160405280929190818152602001828054613faa90615591565b8015613ff75780601f10613fcc57610100808354040283529160200191613ff7565b820191906000526020600020905b815481529060010190602001808311613fda57829003601f168201915b50505050508152602001600a8201805461401090615591565b80601f016020809104026020016040519081016040528092919081815260200182805461403c90615591565b80156140895780601f1061405e57610100808354040283529160200191614089565b820191906000526020600020905b81548152906001019060200180831161406c57829003601f168201915b5050509183525050600b8201546001600160a01b0316602080830191909152600c83018054604080518285028101850182528281529401939260009084015b828210156144955783829060005260206000209060090201604051806101200160405290816000820154815260200160018201805461410690615591565b80601f016020809104026020016040519081016040528092919081815260200182805461413290615591565b801561417f5780601f106141545761010080835404028352916020019161417f565b820191906000526020600020905b81548152906001019060200180831161416257829003601f168201915b5050505050815260200160028201805461419890615591565b80601f01602080910402602001604051908101604052809291908181526020018280546141c490615591565b80156142115780601f106141e657610100808354040283529160200191614211565b820191906000526020600020905b8154815290600101906020018083116141f457829003601f168201915b5050505050815260200160038201805461422a90615591565b80601f016020809104026020016040519081016040528092919081815260200182805461425690615591565b80156142a35780601f10614278576101008083540402835291602001916142a3565b820191906000526020600020905b81548152906001019060200180831161428657829003601f168201915b505050505081526020016004820180546142bc90615591565b80601f01602080910402602001604051908101604052809291908181526020018280546142e890615591565b80156143355780601f1061430a57610100808354040283529160200191614335565b820191906000526020600020905b81548152906001019060200180831161431857829003601f168201915b505050918352505060058201546001600160a01b039081166020830152600683015416604082015260078201805460609092019161437290615591565b80601f016020809104026020016040519081016040528092919081815260200182805461439e90615591565b80156143eb5780601f106143c0576101008083540402835291602001916143eb565b820191906000526020600020905b8154815290600101906020018083116143ce57829003601f168201915b5050505050815260200160088201805461440490615591565b80601f016020809104026020016040519081016040528092919081815260200182805461443090615591565b801561447d5780601f106144525761010080835404028352916020019161447d565b820191906000526020600020905b81548152906001019060200180831161446057829003601f168201915b505050505081525050815260200190600101906140c8565b505050915250909392505050565b60006144bd600080516020615a3883398151915233611d7d565b6144d95760405162461bcd60e51b815260040161089c90615714565b6144f1600080516020615a5883398151915283611d7d565b61453b5760405162461bcd60e51b815260206004820152601b60248201527a151a1a5cc81a1bdcdc1a5d185b081a5cc81b9bdd08195e1a5cda5d602a1b604482015260640161089c565b614553600080516020615a5883398151915283614647565b6001600160a01b03821660009081526003602052604081208181559061457c60018301826148f1565b6002820180546001600160a01b031916905561459c6003830160006148f1565b6004820160009055505061207482612da0565b610f3a82826145c3565b610ebd81336146ac565b6145cd8282611d7d565b610f3a576000828152602081815260408083206001600160a01b03851684529091529020805460ff191660011790556146033390565b6001600160a01b0316816001600160a01b0316837f2f8788117e7eff1d82e926ec794901d17c78024a50270940304540a733656f0d60405160405180910390a45050565b6146518282611d7d565b15610f3a576000828152602081815260408083206001600160a01b0385168085529252808320805460ff1916905551339285917ff6391f5c32d9c69d2a47ea670b442974b53935d1edc7fd64eb21e047a839171b9190a45050565b6146b68282611d7d565b610f3a576146c381614705565b6146ce836020614717565b6040516020016146df929190615947565b60408051601f198184030181529082905262461bcd60e51b825261089c916004016159b6565b60606105316001600160a01b03831660145b606060006147268360026159c9565b6147319060026155f4565b6001600160401b0381111561474857614748614bd0565b6040519080825280601f01601f191660200182016040528015614772576020820181803683370190505b509050600360fc1b8160008151811061478d5761478d61557b565b60200101906001600160f81b031916908160001a905350600f60fb1b816001815181106147bc576147bc61557b565b60200101906001600160f81b031916908160001a90535060006147e08460026159c9565b6147eb9060016155f4565b90505b6001811115614863576f181899199a1a9b1b9c1cb0b131b232b360811b85600f166010811061481f5761481f61557b565b1a60f81b8282815181106148355761483561557b565b60200101906001600160f81b031916908160001a90535060049490941c9361485c816159e0565b90506147ee565b5083156148b25760405162461bcd60e51b815260206004820181905260248201527f537472696e67733a20686578206c656e67746820696e73756666696369656e74604482015260640161089c565b9392505050565b6040518060a00160405280600081526020016060815260200160006001600160a01b0316815260200160608152602001600081525090565b5080546148fd90615591565b6000825580601f1061490d575050565b601f016020900490600052602060002090810190610ebd9190614a0a565b604051806101a0016040528060008152602001606081526020016060815260200160608152602001600081526020016000815260200160006001600160a01b031681526020016000815260200160608152602001606081526020016060815260200160006001600160a01b03168152602001606081525090565b60405180610140016040528060008152602001606081526020016060815260200160006001600160a01b03168152602001600081526020016060815260200160008152602001606081526020016060815260200160006001600160a01b031681525090565b5b80821115614a1f5760008155600101614a0b565b5090565b600060208284031215614a3557600080fd5b81356001600160e01b0319811681146148b257600080fd5b60005b83811015614a68578181015183820152602001614a50565b50506000910152565b60008151808452614a89816020860160208601614a4d565b601f01601f19169290920160200192915050565b6001600160a01b03169052565b805182526000602082015160a06020850152614ac960a0850182614a71565b905060018060a01b03604084015116604085015260608301518482036060860152614af48282614a71565b915050608083015160808501528091505092915050565b6000602080830181845280855180835260408601915060408160051b870101925083870160005b82811015614b6057603f19888603018452614b4e858351614aaa565b94509285019290850190600101614b32565b5092979650505050505050565b80356001600160a01b038116811461207857600080fd5b60008060408385031215614b9757600080fd5b614ba083614b6d565b9150614bae60208401614b6d565b90509250929050565b600060208284031215614bc957600080fd5b5035919050565b634e487b7160e01b600052604160045260246000fd5b600082601f830112614bf757600080fd5b81356001600160401b0380821115614c1157614c11614bd0565b604051601f8301601f19908116603f01168101908282118183101715614c3957614c39614bd0565b81604052838152866020858801011115614c5257600080fd5b836020870160208301376000602085830101528094505050505092915050565b60008060008060008060008060006101208a8c031215614c9157600080fd5b89356001600160401b0380821115614ca857600080fd5b614cb48d838e01614be6565b9a5060208c0135915080821115614cca57600080fd5b614cd68d838e01614be6565b9950614ce460408d01614b6d565b985060608c0135975060808c0135915080821115614d0157600080fd5b614d0d8d838e01614be6565b965060a08c0135955060c08c0135915080821115614d2a57600080fd5b614d368d838e01614be6565b945060e08c0135915080821115614d4c57600080fd5b50614d598c828d01614be6565b925050614d696101008b01614b6d565b90509295985092959850929598565b60008060408385031215614d8b57600080fd5b82359150614bae60208401614b6d565b600060208284031215614dad57600080fd5b6148b282614b6d565b8681526001600160a01b038681166020830152851660408201526060810184905260c060808201819052600090614def90830185614a71565b82810360a0840152614e018185614a71565b9998505050505050505050565b600081518084526020808501808196508360051b8101915082860160005b85811015614f1d578284038952815161012081518652868201518188880152614e5782880182614a71565b91505060408083015187830382890152614e718382614a71565b9250505060608083015187830382890152614e8c8382614a71565b9250505060808083015187830382890152614ea78382614a71565b9250505060a080830151614ebd82890182614a9d565b505060c080830151614ed182890182614a9d565b505060e08083015187830382890152614eea8382614a71565b925050506101008083015192508682038188015250614f098183614a71565b9a87019a9550505090840190600101614e2c565b5091979650505050505050565b6020815260006148b26020830184614e0e565b60008060008060808587031215614f5357600080fd5b84356001600160401b0380821115614f6a57600080fd5b614f7688838901614be6565b9550614f8460208801614b6d565b94506040870135915080821115614f9a57600080fd5b50614fa787828801614be6565b949793965093946060013593505050565b6020815260006148b26020830184614aaa565b60006020808301818452808551808352604092508286019150828160051b87010184880160005b8381101561507d57888303603f19018552815180518452878101516001600160a01b03908116898601528782015116878501526060808201519085015260808082015160c0828701819052919061504b83880182614a71565b9250505060a080830151925085820381870152506150698183614a71565b968901969450505090860190600101614ff2565b509098975050505050505050565b60006101a08251845260208301518160208601526150ab82860182614a71565b915050604083015184820360408601526150c58282614a71565b915050606083015184820360608601526150df8282614a71565b9150506080830151608085015260a083015160a085015260c083015161510860c0860182614a9d565b5060e083015160e0850152610100808401518583038287015261512b8382614a71565b9250505061012080840151858303828701526151478382614a71565b9250505061014080840151858303828701526151638382614a71565b925050506101608084015161517a82870182614a9d565b505061018080840151858303828701526151948382614e0e565b9695505050505050565b6000602080830181845280855180835260408601915060408160051b870101925083870160005b82811015614b6057603f198886030184526151e185835161508b565b945092850192908501906001016151c5565b600061014082518452602083015181602086015261521382860182614a71565b9150506040830151848203604086015261522d8282614a71565b91505060608301516152426060860182614a9d565b506080830151608085015260a083015184820360a08601526152648282614a71565b91505060c083015160c085015260e083015184820360e08601526152888282614a71565b91505061010080840151858303828701526152a38382614a71565b92505050610120808401516152ba82870182614a9d565b5090949350505050565b6020815260006148b260208301846151f3565b6000602080830181845280855180835260408601915060408160051b870101925083870160005b82811015614b6057603f1988860301845261531a8583516151f3565b945092850192908501906001016152fe565b6000806000806000806000806000806101408b8d03121561534c57600080fd5b8a356001600160401b038082111561536357600080fd5b61536f8e838f01614be6565b9b5060208d013591508082111561538557600080fd5b6153918e838f01614be6565b9a5060408d01359150808211156153a757600080fd5b6153b38e838f01614be6565b995060608d0135985060808d013597506153cf60a08e01614b6d565b965060c08d0135955060e08d01359150808211156153ec57600080fd5b6153f88e838f01614be6565b94506101008d013591508082111561540f57600080fd5b61541b8e838f01614be6565b93506101208d013591508082111561543257600080fd5b5061543f8d828e01614be6565b9150509295989b9194979a5092959850565b600080600080600080600080610100898b03121561546e57600080fd5b88356001600160401b038082111561548557600080fd5b6154918c838d01614be6565b995060208b01359150808211156154a757600080fd5b6154b38c838d01614be6565b985060408b01359150808211156154c957600080fd5b6154d58c838d01614be6565b975060608b01359150808211156154eb57600080fd5b6154f78c838d01614be6565b965061550560808c01614b6d565b955061551360a08c01614b6d565b945060c08b013591508082111561552957600080fd5b6155358c838d01614be6565b935060e08b013591508082111561554b57600080fd5b506155588b828c01614be6565b9150509295985092959890939650565b6020815260006148b2602083018461508b565b634e487b7160e01b600052603260045260246000fd5b600181811c908216806155a557607f821691505b60208210810361077f57634e487b7160e01b600052602260045260246000fd5b634e487b7160e01b600052601160045260246000fd5b6000600182016155ed576155ed6155c5565b5060010190565b80820180821115610531576105316155c5565b601f821115610dde57600081815260208120601f850160051c8101602086101561562e5750805b601f850160051c820191505b8181101561564d5782815560010161563a565b505050505050565b81516001600160401b0381111561566e5761566e614bd0565b6156828161567c8454615591565b84615607565b602080601f8311600181146156b7576000841561569f5750858301515b600019600386901b1c1916600185901b17855561564d565b600085815260208120601f198616915b828110156156e6578886015182559484019460019091019084016156c7565b50858210156157045787850151600019600388901b60f8161c191681555b5050505050600190811b01905550565b60208082526030908201527f4f6e6c7920737570657241646d696e20686173207065726d697373696f6e207460408201526f37903237903a3430ba1030b1ba34b7b760811b606082015260800190565b60208082526018908201527702a3434b99020b1b1b7bab73a1034b99020b236b4b71090960451b604082015260600190565b6020808252601b908201527a02a3434b99020b1b1b7bab73a1034b9902437b9b834ba30b610909602d1b604082015260600190565b6020808252601a908201527902a3434b99020b1b1b7bab73a1034b9902830ba34b2b73a1090960351b604082015260600190565b60208082526021908201527f5468697320686f73706974616c206973207265616c6c792065786973697421216040820152600160fd1b606082015260800190565b6020808252601b908201527a151a1a5cc81858d8dbdd5b9d081a5cc81b9bdd081c185d1a595b9d602a1b604082015260600190565b60208082526010908201526f4e6f206b65797320696e20617272617960801b604082015260600190565b60609190911b6001600160601b031916815260140190565b81810381811115610531576105316155c5565b634e487b7160e01b600052603160045260246000fd5b60208082526019908201527802a3434b99020b1b1b7bab73a1034b9902237b1ba37b910909603d1b604082015260600190565b6020808252601a90820152792a3434b99030b1b1b7bab73a1034b9903737ba102237b1ba37b960311b604082015260600190565b76020b1b1b2b9b9a1b7b73a3937b61d1030b1b1b7bab73a1604d1b815260008351615979816017850160208801614a4d565b7001034b99036b4b9b9b4b733903937b6329607d1b60179184019182015283516159aa816028840160208801614a4d565b01602801949350505050565b6020815260006148b26020830184614a71565b8082028115828204841417610531576105316155c5565b6000816159ef576159ef6155c5565b50600019019056fe72606200fac42b7dc86b75901d61ecfab2a4a1a6eded478b97a428094891abed0af1dac7dea2fd7f7738119cec7df099dfad49aa9d2e7d17ba6b60f63ae7411fa49807205ce4d355092ef5a8a18f56e8913cf4a201fbe287825b095693c21775c8f5b4140cca307cd927e59cbeea8291bffeee228fc677f0fa059aef7b4dd8d5a26469706673582212205aa2930b80b7fa9cb61a209cf579cdf37e076a14a7e8d00b23e6bd45d1da4da164736f6c63430008130033",
  "immutableReferences": {},
  "source": "// SPDX-License-Identifier: GPL-3.0\r\npragma solidity ^0.8.0;\r\n\r\nimport \"@openzeppelin/contracts/access/AccessControl.sol\";\r\n\r\ncontract MedRecChain is AccessControl {\r\n    //ROLES\r\n    bytes32 public constant ADMIN_ROLE = keccak256(\"ADMIN_ROLE\");\r\n    bytes32 public constant HOSPITAL_ROLE = keccak256(\"HOSPITAL_ROLE\");\r\n    bytes32 public constant DOCTOR_ROLE = keccak256(\"DOCTOR_ROLE\");\r\n    bytes32 public constant PATIENT_ROLE = keccak256(\"PATIENT_ROLE\");\r\n\r\n    // Admin refers to government, It hard coded by us.\r\n    address public Admin = 0xC577E31A2A01564b662C57B115C86Af62f7E528A;\r\n\r\n    // [_patient][_doctor] = bool\r\n    mapping(address => mapping(address => bool)) isAuth;\r\n\r\n    struct Hospital {\r\n        uint256 id;\r\n        string name;\r\n        address addr;\r\n        string place;\r\n        uint256 phone;\r\n    }\r\n\r\n    mapping(address => Hospital) Hospitals;\r\n    address[] public Hospitals_keys;\r\n\r\n    struct patient {\r\n        uint256 id;\r\n        string name;\r\n        string email;\r\n        string National_Addr;\r\n        uint256 National_id;\r\n        uint256 age;\r\n        address PatientAddress;\r\n        uint256 phone;\r\n        string Blood_Type;\r\n        string marital_status;\r\n        string gender;\r\n        address hospital_addr;\r\n        record[] Records;\r\n    }\r\n\r\n    mapping(address => patient) patients;\r\n    address[] private patients_keys;\r\n\r\n    struct doctor {\r\n        uint256 id;\r\n        string name;\r\n        string hospital_name;\r\n        address hospital_addr;\r\n        uint256 phone;\r\n        string email;\r\n        uint256 age;\r\n        string place;\r\n        string Medical_specialty;\r\n        address docAddress;\r\n    }\r\n\r\n    mapping(address => doctor) doctors;\r\n    address[] private doctors_keys;\r\n\r\n    struct record {\r\n        uint Medical_id;\r\n        string category;\r\n        string patient_name;\r\n        string rec_name;\r\n        string Created_at;\r\n        address patient_addr;\r\n        address doctor_addr;\r\n        string hex_ipfs; // file, image date\r\n        string notes;\r\n    }\r\n\r\n    // for Ids\r\n    uint256 Hospital_index;\r\n    uint256 Doctor_index;\r\n    uint256 Patient_index;\r\n\r\n    uint256 Record_index;\r\n    uint256 Request_index;\r\n\r\n    constructor() {\r\n        _setupRole(ADMIN_ROLE, Admin);\r\n    }\r\n\r\n    // function to know who logg in\r\n    function logg() public view returns (uint role) {\r\n        if (hasRole(ADMIN_ROLE, msg.sender)) {\r\n            return 1;\r\n        } else if (hasRole(HOSPITAL_ROLE, msg.sender)) {\r\n            return 2;\r\n        } else if (hasRole(DOCTOR_ROLE, msg.sender)) {\r\n            return 3;\r\n        } else if (hasRole(PATIENT_ROLE, msg.sender)) {\r\n            return 4;\r\n        } else {\r\n            return 0;\r\n        }\r\n    }\r\n\r\n    //To check the role of who deploye the contract.\r\n    modifier onlyAdmin() {\r\n        require(\r\n            hasRole(ADMIN_ROLE, msg.sender),\r\n            \"Only superAdmin has permission to do that action\"\r\n        );\r\n        _;\r\n    }\r\n\r\n    modifier onlyHospital() {\r\n        require(\r\n            hasRole(HOSPITAL_ROLE, msg.sender),\r\n            \"This account is not Hospital\"\r\n        );\r\n        _;\r\n    }\r\n    modifier onlydoctors() {\r\n        require(hasRole(DOCTOR_ROLE, msg.sender), \"This account is not Doctor\");\r\n        _;\r\n    }\r\n    modifier onlypatient() {\r\n        require(\r\n            hasRole(PATIENT_ROLE, msg.sender),\r\n            \"This account is not patient\"\r\n        );\r\n        _;\r\n    }\r\n\r\n    //////////////////////////////////////\r\n\r\n    //Tasks done by Admin (defult exisit)\r\n    //1. add hospital\r\n    //2. delete hospital\r\n    //3. add doctor\r\n    //4. delete doctor\r\n    //5. see all hospital in system\r\n    //6. see all doctors in system\r\n\r\n    function addhospital(\r\n        string memory _name,\r\n        address _address,\r\n        string memory _place,\r\n        uint256 _phone\r\n    ) public onlyAdmin returns (bool success) {\r\n        require(\r\n            !hasRole(HOSPITAL_ROLE, _address),\r\n            \"This hospital is really exisit!! \"\r\n        );\r\n        require(!hasRole(ADMIN_ROLE, _address), \"This Account is Admin!! \");\r\n        require(!hasRole(DOCTOR_ROLE, _address), \"This Account is Doctor!! \");\r\n        require(!hasRole(PATIENT_ROLE, _address), \"This Account is Patient!! \");\r\n\r\n        _setupRole(HOSPITAL_ROLE, _address);\r\n        Hospital_index = Hospital_index + 1;\r\n        Hospitals[_address] = Hospital(\r\n            Hospital_index,\r\n            _name,\r\n            _address,\r\n            _place,\r\n            _phone\r\n        );\r\n        Hospitals_keys.push(_address);\r\n        return true;\r\n    }\r\n\r\n    function removeitem_hos(address _hosAddress) public {\r\n        require(Hospitals_keys.length > 0, \"No keys in array\");\r\n        for (uint i = 0; i < Hospitals_keys.length; i++) {\r\n            if (\r\n                keccak256(abi.encodePacked(Hospitals_keys[i])) ==\r\n                keccak256(abi.encodePacked(_hosAddress))\r\n            ) {\r\n                delete Hospitals_keys[i];\r\n                uint lastIndex = Hospitals_keys.length - 1;\r\n                address lastId = Hospitals_keys[lastIndex];\r\n                Hospitals_keys[i] = lastId;\r\n                Hospitals_keys.pop();\r\n                break;\r\n            }\r\n        }\r\n    }\r\n\r\n    function removehospital(\r\n        address _address\r\n    ) public onlyAdmin returns (bool success) {\r\n        require(\r\n            hasRole(HOSPITAL_ROLE, _address),\r\n            \"This hospital is not exisit\"\r\n        );\r\n        _revokeRole(HOSPITAL_ROLE, _address);\r\n        delete Hospitals[_address];\r\n        removeitem_hos(_address);\r\n        return true;\r\n    }\r\n\r\n    function get_all_hospitals()\r\n        public\r\n        view\r\n        \r\n        returns (Hospital[] memory)\r\n    {\r\n        Hospital[] memory hos = new Hospital[](Hospitals_keys.length);\r\n        for (uint256 i = 0; i < Hospitals_keys.length; i++) {\r\n            hos[i] = Hospitals[Hospitals_keys[i]];\r\n        }\r\n        return hos;\r\n    }\r\n\r\n    ///////////////\r\n\r\n    function addDoctor(\r\n        string memory _name,\r\n        string memory _hospital_name,\r\n        address _hospital_addr,\r\n        uint256 _phone,\r\n        string memory _email,\r\n        uint256 _age,\r\n        string memory _place,\r\n        string memory _Medical_specialty,\r\n        address _docAddress\r\n    ) public onlyAdmin returns (bool success) {\r\n        require(\r\n            !hasRole(DOCTOR_ROLE, _docAddress),\r\n            \"This account already a doctor\"\r\n        );\r\n        require(!hasRole(ADMIN_ROLE, _docAddress), \"This Account is Admin!! \");\r\n        require(\r\n            !hasRole(HOSPITAL_ROLE, _docAddress),\r\n            \"This Account is Hospital!! \"\r\n        );\r\n        require(\r\n            !hasRole(PATIENT_ROLE, _docAddress),\r\n            \"This Account is Patient!! \"\r\n        );\r\n        require(\r\n            hasRole(HOSPITAL_ROLE, _hospital_addr),\r\n            \"This hospital is really exisit!! \"\r\n        );\r\n        _setupRole(DOCTOR_ROLE, _docAddress);\r\n        Doctor_index = Doctor_index + 1;\r\n        doctors[_docAddress] = doctor(\r\n            Doctor_index,\r\n            _name,\r\n            _hospital_name,\r\n            _hospital_addr,\r\n            _phone,\r\n            _email,\r\n            _age,\r\n            _place,\r\n            _Medical_specialty,\r\n            _docAddress\r\n        );\r\n        doctors_keys.push(_docAddress);\r\n        return true;\r\n    }\r\n\r\n    function removeitem_doc(address _docAddress) public {\r\n        require(doctors_keys.length > 0, \"No keys in array\");\r\n        for (uint i = 0; i < doctors_keys.length; i++) {\r\n            if (\r\n                keccak256(abi.encodePacked(doctors_keys[i])) ==\r\n                keccak256(abi.encodePacked(_docAddress))\r\n            ) {\r\n                delete doctors_keys[i];\r\n                uint lastIndex = doctors_keys.length - 1;\r\n                address lastId = doctors_keys[lastIndex];\r\n                doctors_keys[i] = lastId;\r\n                doctors_keys.pop();\r\n                break;\r\n            }\r\n        }\r\n    }\r\n\r\n    function removeDoctor(\r\n        address _docAddress\r\n    ) public onlyAdmin returns (bool success) {\r\n        require(hasRole(DOCTOR_ROLE, _docAddress), \"This account not exisit\");\r\n        delete doctors[_docAddress];\r\n        _revokeRole(DOCTOR_ROLE, _docAddress);\r\n        removeitem_doc(_docAddress);\r\n        return true;\r\n    }\r\n\r\n    function get_all_Doctors() public view returns (doctor[] memory) {\r\n        doctor[] memory doc = new doctor[](doctors_keys.length);\r\n        for (uint256 i = 0; i < doctors_keys.length; i++) {\r\n            doc[i] = doctors[doctors_keys[i]];\r\n        }\r\n        return doc;\r\n    }\r\n\r\n    function get_record_number() public view returns (uint256 i) {\r\n        uint256 total;\r\n        for (uint256 a = 0; a < patients_keys.length; a++) {\r\n            total += patients[patients_keys[a]].Records.length;\r\n        }\r\n        return total;\r\n    }\r\n\r\n    ///////////////////////////////////////////\r\n\r\n    // Tasks done by Hospitals (sign in )\r\n    //1. add patient\r\n    //2.See his profile\r\n    //3.see all patients\r\n\r\n    function get_hospita_by_address(\r\n        address _addr\r\n    ) public view returns (Hospital memory) {\r\n        return (Hospitals[_addr]);\r\n    }\r\n\r\n    function addPatient(\r\n        string memory _name,\r\n        string memory _email,\r\n        string memory _National_Addr,\r\n        uint256 _National_id,\r\n        uint256 _age,\r\n        address _PatientAddress,\r\n        uint256 _phone,\r\n        string memory _Blood_Type,\r\n        string memory _marital_status,\r\n        string memory _gender\r\n    ) public onlyHospital returns (bool success) {\r\n        require(\r\n            !hasRole(PATIENT_ROLE, _PatientAddress),\r\n            \"This account already a patient\"\r\n        );\r\n        require(\r\n            !hasRole(ADMIN_ROLE, _PatientAddress),\r\n            \"This Account is Admin!! \"\r\n        );\r\n        require(\r\n            !hasRole(DOCTOR_ROLE, _PatientAddress),\r\n            \"This Account is Doctor!! \"\r\n        );\r\n        require(\r\n            !hasRole(HOSPITAL_ROLE, _PatientAddress),\r\n            \"This Account is Hospital!! \"\r\n        );\r\n        _setupRole(PATIENT_ROLE, _PatientAddress);\r\n        Patient_index = Patient_index + 1;\r\n        patients[_PatientAddress].id = Patient_index;\r\n        patients[_PatientAddress].PatientAddress = _PatientAddress;\r\n        patients[_PatientAddress].name = _name;\r\n        patients[_PatientAddress].email = _email;\r\n        patients[_PatientAddress].National_Addr = _National_Addr;\r\n        patients[_PatientAddress].National_id = _National_id;\r\n        patients[_PatientAddress].age = _age;\r\n        patients[_PatientAddress].phone = _phone;\r\n        patients[_PatientAddress].Blood_Type = _Blood_Type;\r\n        patients[_PatientAddress].marital_status = _marital_status;\r\n        patients[_PatientAddress].gender = _gender;\r\n        patients[_PatientAddress].hospital_addr = msg.sender;\r\n\r\n        patients_keys.push(_PatientAddress);\r\n        return true;\r\n    }\r\n\r\n    function get_all_Patients() public view returns (patient[] memory) {\r\n        patient[] memory pat = new patient[](patients_keys.length);\r\n        for (uint256 i = 0; i < patients_keys.length; i++) {\r\n            pat[i] = patients[patients_keys[i]];\r\n        }\r\n        return pat;\r\n    }\r\n\r\n    //////////////////////////////////////////////\r\n\r\n    // Tasks done by Doctor (sign in)\r\n    // 1. send request to patient\r\n    // 2. see record (has be accepted)\r\n    // 3. add record (has be accepted)\r\n    // 4.view his profile info\r\n    // 5.show requests by id & show their status\r\n\r\n    function get_doctor_by_address(\r\n        address _addr\r\n    ) public view returns (doctor memory) {\r\n        return (doctors[_addr]);\r\n    }\r\n\r\n    struct request {\r\n        uint id;\r\n        address from_doctor_addr;\r\n        address to_patients_addr;\r\n        uint256 date;\r\n        string patient_name;\r\n        string doctor_name;\r\n    }\r\n\r\n    request[] public requests;\r\n\r\n    function checkRequestExists(\r\n        address _from_doctor_addr,\r\n        address _to_patients_addr\r\n    ) public view returns (bool) {\r\n        for (uint i = 0; i < requests.length; i++) {\r\n            if (\r\n                ((requests[i].from_doctor_addr) == (_from_doctor_addr)) &&\r\n                ((requests[i].to_patients_addr) == (_to_patients_addr))\r\n            ) {\r\n                return true;\r\n            }\r\n        }\r\n        return false;\r\n    }\r\n\r\n    function send_request_Access(\r\n        address _patient,\r\n        address _doctor\r\n    ) public returns (bool success) {\r\n        require(\r\n            hasRole(PATIENT_ROLE, _patient),\r\n            \"The person you are requesting access to is not a Patient\"\r\n        );\r\n        require(\r\n            !checkRequestExists(_doctor, _patient),\r\n            \"already send a request\"\r\n        );\r\n        Request_index = Request_index + 1;\r\n        patient memory pati = get_patient_by_address(_patient);\r\n        doctor memory doc = get_doctor_by_address(_doctor);\r\n        requests.push(\r\n            request(\r\n                Request_index,\r\n                _doctor,\r\n                _patient,\r\n                block.timestamp,\r\n                pati.name,\r\n                doc.name\r\n            )\r\n        );\r\n        return true;\r\n    }\r\n\r\n    function get_all_requests() public view returns (request[] memory) {\r\n        //IN JS convert a Unix timestamp to a human-readable\r\n        // const unixTimestamp = date.currentTimestamp();\r\n        // const date = new Date(unixTimestamp * 1000);\r\n        // const humanReadableDate = date.toLocaleString();\r\n\r\n        // Also, be handled, cause it show all requests at blockchain NOT whose patient's requests\r\n        // it will be solved by check\r\n        // for (i=0 ; i<requests.lenght;i++ ){\r\n        // \"if (requests.to_patients_addr == accounts[0]){....}\"\r\n        //}\r\n        return (requests);\r\n    }\r\n\r\n    function addRecord(\r\n        string memory _category,\r\n        string memory _patient_name,\r\n        string memory _rec_name,\r\n        string memory _Created_at,\r\n        address _patientAddr,\r\n        address _doctor_addr,\r\n        string memory _hex_ipfs,\r\n        string memory _notes\r\n    ) public onlydoctors returns (bool) {\r\n        require(\r\n            hasRole(PATIENT_ROLE, _patientAddr),\r\n            \"This patients is not exisit\"\r\n        );\r\n        require(\r\n            isAuth[_patientAddr][msg.sender],\r\n            \"No permission to add Records\"\r\n        );\r\n        require(_doctor_addr == msg.sender, \"No permission to this Doctor\");\r\n        Record_index = Record_index + 1;\r\n        patients[_patientAddr].Records.push(\r\n            record(\r\n                Record_index,\r\n                _category,\r\n                _patient_name,\r\n                _rec_name,\r\n                _Created_at,\r\n                _patientAddr,\r\n                _doctor_addr,\r\n                _hex_ipfs,\r\n                _notes\r\n            )\r\n        );\r\n        return true;\r\n    }\r\n\r\n    // function See_Record_for_Doctor(address _patientAddr)  view public returns(record[] memory){\r\n    //    require(isAuth[_patientAddr][msg.sender],\"No permission to get Records\");\r\n    //     require(hasRole(PATIENT_ROLE, _patientAddr),\"This patients is not exisit\");\r\n    //     require(patients[_patientAddr].Records.length>0,\"patient record doesn't exist\");\r\n    //     return (patients[_patientAddr].Records);\r\n\r\n    // }\r\n\r\n    ///////////////////////////////////\r\n\r\n    //Tasks done by Patient (sign in)\r\n\r\n    //1.view his all records\r\n    //2.accept request sended by doctor\r\n    //3.rejected request sended by doctor\r\n    //4.give permission to doctor bt himself\r\n    //5.see requestes from doctors\r\n    //6.view his profile info\r\n\r\n    function get_patient_by_address(\r\n        address _addr\r\n    ) public view returns (patient memory) {\r\n        return (patients[_addr]);\r\n    }\r\n\r\n    function See_Record_for_Patient() public view returns (record[] memory) {\r\n        require(\r\n            patients[msg.sender].Records.length > 0,\r\n            \"patient record doesn't exist\"\r\n        );\r\n        return (patients[msg.sender].Records);\r\n    }\r\n\r\n    function approveAccess(address _doctor) public onlypatient {\r\n        require(hasRole(DOCTOR_ROLE, _doctor), \"this acount is not a doctor \");\r\n        require(\r\n            (isAuth[msg.sender][_doctor]) == false,\r\n            \"This Request alraedy been Approved!! \"\r\n        );\r\n        isAuth[msg.sender][_doctor] = true;\r\n    }\r\n\r\n    function check_approve_Access(\r\n        address _doctor,\r\n        address _patient\r\n    ) public view onlydoctors returns (bool) {\r\n        return (isAuth[_patient][_doctor]);\r\n    }\r\n\r\n    function DeleteRequest(address doc, address pat) public  {\r\n        require(requests.length > 0, \"No keys in array\");\r\n        for (uint i = 0; i < requests.length; i++) {\r\n            if (\r\n                (keccak256(abi.encodePacked(requests[i].from_doctor_addr)) ==\r\n                    keccak256(abi.encodePacked(doc))) &&\r\n                (keccak256(abi.encodePacked(requests[i].to_patients_addr)) ==\r\n                    keccak256(abi.encodePacked(pat)))\r\n            ) {\r\n                delete requests[i];\r\n                uint lastIndex = requests.length - 1;\r\n                request memory lastId = requests[lastIndex];\r\n                requests[i] = lastId;\r\n                requests.pop();\r\n                break;\r\n            }\r\n        }\r\n    }\r\n\r\n    function rejectAccess(address _doctor) public onlypatient {\r\n        require(\r\n            hasRole(DOCTOR_ROLE, _doctor),\r\n            \"Doctor does not have the doctor role\"\r\n        );\r\n        //   require((isAuth[msg.sender][_doctor]) == true, \"This Request alraedy been Reject!! \");\r\n        isAuth[msg.sender][_doctor] = false;\r\n        DeleteRequest(_doctor, msg.sender);\r\n    }\r\n}\r\n",
  "sourcePath": "G:\\BFCAI\\project\\clone\\penultimate-modification\\contracts\\MedRecChain.sol",
  "compiler": {
    "name": "solc",
    "version": "0.8.19+commit.7dd6d404.Emscripten.clang"
  },
  "schemaVersion": "3.4.13",
  "updatedAt": "2023-05-27T18:20:43.274Z",
  "networkType": "ethereum",
  "devdoc": {
    "events": {
      "RoleAdminChanged(bytes32,bytes32,bytes32)": {
        "details": "Emitted when `newAdminRole` is set as ``role``'s admin role, replacing `previousAdminRole` `DEFAULT_ADMIN_ROLE` is the starting admin for all roles, despite {RoleAdminChanged} not being emitted signaling this. _Available since v3.1._"
      },
      "RoleGranted(bytes32,address,address)": {
        "details": "Emitted when `account` is granted `role`. `sender` is the account that originated the contract call, an admin role bearer except when using {AccessControl-_setupRole}."
      },
      "RoleRevoked(bytes32,address,address)": {
        "details": "Emitted when `account` is revoked `role`. `sender` is the account that originated the contract call:   - if using `revokeRole`, it is the admin role bearer   - if using `renounceRole`, it is the role bearer (i.e. `account`)"
      }
    },
    "kind": "dev",
    "methods": {
      "getRoleAdmin(bytes32)": {
        "details": "Returns the admin role that controls `role`. See {grantRole} and {revokeRole}. To change a role's admin, use {_setRoleAdmin}."
      },
      "grantRole(bytes32,address)": {
        "details": "Grants `role` to `account`. If `account` had not been already granted `role`, emits a {RoleGranted} event. Requirements: - the caller must have ``role``'s admin role. May emit a {RoleGranted} event."
      },
      "hasRole(bytes32,address)": {
        "details": "Returns `true` if `account` has been granted `role`."
      },
      "renounceRole(bytes32,address)": {
        "details": "Revokes `role` from the calling account. Roles are often managed via {grantRole} and {revokeRole}: this function's purpose is to provide a mechanism for accounts to lose their privileges if they are compromised (such as when a trusted device is misplaced). If the calling account had been revoked `role`, emits a {RoleRevoked} event. Requirements: - the caller must be `account`. May emit a {RoleRevoked} event."
      },
      "revokeRole(bytes32,address)": {
        "details": "Revokes `role` from `account`. If `account` had been granted `role`, emits a {RoleRevoked} event. Requirements: - the caller must have ``role``'s admin role. May emit a {RoleRevoked} event."
      },
      "supportsInterface(bytes4)": {
        "details": "See {IERC165-supportsInterface}."
      }
    },
    "version": 1
  },
  "userdoc": {
    "kind": "user",
    "methods": {},
    "version": 1
  }
}