{
  "contractName": "MedRecChain",
  "abi": [
    {
      "inputs": [],
      "stateMutability": "nonpayable",
      "type": "constructor"
    },
    {
      "anonymous": false,
      "inputs": [
        {
          "indexed": true,
          "internalType": "bytes32",
          "name": "role",
          "type": "bytes32"
        },
        {
          "indexed": true,
          "internalType": "bytes32",
          "name": "previousAdminRole",
          "type": "bytes32"
        },
        {
          "indexed": true,
          "internalType": "bytes32",
          "name": "newAdminRole",
          "type": "bytes32"
        }
      ],
      "name": "RoleAdminChanged",
      "type": "event"
    },
    {
      "anonymous": false,
      "inputs": [
        {
          "indexed": true,
          "internalType": "bytes32",
          "name": "role",
          "type": "bytes32"
        },
        {
          "indexed": true,
          "internalType": "address",
          "name": "account",
          "type": "address"
        },
        {
          "indexed": true,
          "internalType": "address",
          "name": "sender",
          "type": "address"
        }
      ],
      "name": "RoleGranted",
      "type": "event"
    },
    {
      "anonymous": false,
      "inputs": [
        {
          "indexed": true,
          "internalType": "bytes32",
          "name": "role",
          "type": "bytes32"
        },
        {
          "indexed": true,
          "internalType": "address",
          "name": "account",
          "type": "address"
        },
        {
          "indexed": true,
          "internalType": "address",
          "name": "sender",
          "type": "address"
        }
      ],
      "name": "RoleRevoked",
      "type": "event"
    },
    {
      "inputs": [],
      "name": "ADMIN_ROLE",
      "outputs": [
        {
          "internalType": "bytes32",
          "name": "",
          "type": "bytes32"
        }
      ],
      "stateMutability": "view",
      "type": "function",
      "constant": true
    },
    {
      "inputs": [],
      "name": "Admin",
      "outputs": [
        {
          "internalType": "address",
          "name": "",
          "type": "address"
        }
      ],
      "stateMutability": "view",
      "type": "function",
      "constant": true
    },
    {
      "inputs": [],
      "name": "DEFAULT_ADMIN_ROLE",
      "outputs": [
        {
          "internalType": "bytes32",
          "name": "",
          "type": "bytes32"
        }
      ],
      "stateMutability": "view",
      "type": "function",
      "constant": true
    },
    {
      "inputs": [],
      "name": "DOCTOR_ROLE",
      "outputs": [
        {
          "internalType": "bytes32",
          "name": "",
          "type": "bytes32"
        }
      ],
      "stateMutability": "view",
      "type": "function",
      "constant": true
    },
    {
      "inputs": [],
      "name": "HOSPITAL_ROLE",
      "outputs": [
        {
          "internalType": "bytes32",
          "name": "",
          "type": "bytes32"
        }
      ],
      "stateMutability": "view",
      "type": "function",
      "constant": true
    },
    {
      "inputs": [
        {
          "internalType": "uint256",
          "name": "",
          "type": "uint256"
        }
      ],
      "name": "Hospitals_keys",
      "outputs": [
        {
          "internalType": "address",
          "name": "",
          "type": "address"
        }
      ],
      "stateMutability": "view",
      "type": "function",
      "constant": true
    },
    {
      "inputs": [],
      "name": "PATIENT_ROLE",
      "outputs": [
        {
          "internalType": "bytes32",
          "name": "",
          "type": "bytes32"
        }
      ],
      "stateMutability": "view",
      "type": "function",
      "constant": true
    },
    {
      "inputs": [
        {
          "internalType": "bytes32",
          "name": "role",
          "type": "bytes32"
        }
      ],
      "name": "getRoleAdmin",
      "outputs": [
        {
          "internalType": "bytes32",
          "name": "",
          "type": "bytes32"
        }
      ],
      "stateMutability": "view",
      "type": "function",
      "constant": true
    },
    {
      "inputs": [
        {
          "internalType": "bytes32",
          "name": "role",
          "type": "bytes32"
        },
        {
          "internalType": "address",
          "name": "account",
          "type": "address"
        }
      ],
      "name": "grantRole",
      "outputs": [],
      "stateMutability": "nonpayable",
      "type": "function"
    },
    {
      "inputs": [
        {
          "internalType": "bytes32",
          "name": "role",
          "type": "bytes32"
        },
        {
          "internalType": "address",
          "name": "account",
          "type": "address"
        }
      ],
      "name": "hasRole",
      "outputs": [
        {
          "internalType": "bool",
          "name": "",
          "type": "bool"
        }
      ],
      "stateMutability": "view",
      "type": "function",
      "constant": true
    },
    {
      "inputs": [
        {
          "internalType": "bytes32",
          "name": "role",
          "type": "bytes32"
        },
        {
          "internalType": "address",
          "name": "account",
          "type": "address"
        }
      ],
      "name": "renounceRole",
      "outputs": [],
      "stateMutability": "nonpayable",
      "type": "function"
    },
    {
      "inputs": [
        {
          "internalType": "uint256",
          "name": "",
          "type": "uint256"
        }
      ],
      "name": "requests",
      "outputs": [
        {
          "internalType": "uint256",
          "name": "id",
          "type": "uint256"
        },
        {
          "internalType": "address",
          "name": "from_doctor_addr",
          "type": "address"
        },
        {
          "internalType": "address",
          "name": "to_patients_addr",
          "type": "address"
        },
        {
          "internalType": "uint256",
          "name": "date",
          "type": "uint256"
        },
        {
          "internalType": "string",
          "name": "patient_name",
          "type": "string"
        },
        {
          "internalType": "string",
          "name": "doctor_name",
          "type": "string"
        }
      ],
      "stateMutability": "view",
      "type": "function",
      "constant": true
    },
    {
      "inputs": [
        {
          "internalType": "bytes32",
          "name": "role",
          "type": "bytes32"
        },
        {
          "internalType": "address",
          "name": "account",
          "type": "address"
        }
      ],
      "name": "revokeRole",
      "outputs": [],
      "stateMutability": "nonpayable",
      "type": "function"
    },
    {
      "inputs": [
        {
          "internalType": "bytes4",
          "name": "interfaceId",
          "type": "bytes4"
        }
      ],
      "name": "supportsInterface",
      "outputs": [
        {
          "internalType": "bool",
          "name": "",
          "type": "bool"
        }
      ],
      "stateMutability": "view",
      "type": "function",
      "constant": true
    },
    {
      "inputs": [],
      "name": "logg",
      "outputs": [
        {
          "internalType": "uint256",
          "name": "role",
          "type": "uint256"
        }
      ],
      "stateMutability": "view",
      "type": "function",
      "constant": true
    },
    {
      "inputs": [
        {
          "internalType": "string",
          "name": "_name",
          "type": "string"
        },
        {
          "internalType": "address",
          "name": "_address",
          "type": "address"
        },
        {
          "internalType": "string",
          "name": "_place",
          "type": "string"
        },
        {
          "internalType": "uint256",
          "name": "_phone",
          "type": "uint256"
        }
      ],
      "name": "addhospital",
      "outputs": [
        {
          "internalType": "bool",
          "name": "success",
          "type": "bool"
        }
      ],
      "stateMutability": "nonpayable",
      "type": "function"
    },
    {
      "inputs": [
        {
          "internalType": "address",
          "name": "_hosAddress",
          "type": "address"
        }
      ],
      "name": "removeitem_hos",
      "outputs": [],
      "stateMutability": "nonpayable",
      "type": "function"
    },
    {
      "inputs": [
        {
          "internalType": "address",
          "name": "_address",
          "type": "address"
        }
      ],
      "name": "removehospital",
      "outputs": [
        {
          "internalType": "bool",
          "name": "success",
          "type": "bool"
        }
      ],
      "stateMutability": "nonpayable",
      "type": "function"
    },
    {
      "inputs": [],
      "name": "get_all_hospitals",
      "outputs": [
        {
          "components": [
            {
              "internalType": "uint256",
              "name": "id",
              "type": "uint256"
            },
            {
              "internalType": "string",
              "name": "name",
              "type": "string"
            },
            {
              "internalType": "address",
              "name": "addr",
              "type": "address"
            },
            {
              "internalType": "string",
              "name": "place",
              "type": "string"
            },
            {
              "internalType": "uint256",
              "name": "phone",
              "type": "uint256"
            }
          ],
          "internalType": "struct MedRecChain.Hospital[]",
          "name": "",
          "type": "tuple[]"
        }
      ],
      "stateMutability": "view",
      "type": "function",
      "constant": true
    },
    {
      "inputs": [
        {
          "internalType": "string",
          "name": "_name",
          "type": "string"
        },
        {
          "internalType": "address",
          "name": "_hospital_addr",
          "type": "address"
        },
        {
          "internalType": "uint256",
          "name": "_phone",
          "type": "uint256"
        },
        {
          "internalType": "string",
          "name": "_email",
          "type": "string"
        },
        {
          "internalType": "uint256",
          "name": "_age",
          "type": "uint256"
        },
        {
          "internalType": "string",
          "name": "_place",
          "type": "string"
        },
        {
          "internalType": "string",
          "name": "_Medical_specialty",
          "type": "string"
        },
        {
          "internalType": "address",
          "name": "_docAddress",
          "type": "address"
        }
      ],
      "name": "addDoctor",
      "outputs": [
        {
          "internalType": "bool",
          "name": "success",
          "type": "bool"
        }
      ],
      "stateMutability": "nonpayable",
      "type": "function"
    },
    {
      "inputs": [
        {
          "internalType": "address",
          "name": "_docAddress",
          "type": "address"
        }
      ],
      "name": "removeitem_doc",
      "outputs": [],
      "stateMutability": "nonpayable",
      "type": "function"
    },
    {
      "inputs": [
        {
          "internalType": "address",
          "name": "_docAddress",
          "type": "address"
        }
      ],
      "name": "removeDoctor",
      "outputs": [
        {
          "internalType": "bool",
          "name": "success",
          "type": "bool"
        }
      ],
      "stateMutability": "nonpayable",
      "type": "function"
    },
    {
      "inputs": [],
      "name": "get_all_Doctors",
      "outputs": [
        {
          "components": [
            {
              "internalType": "uint256",
              "name": "id",
              "type": "uint256"
            },
            {
              "internalType": "string",
              "name": "name",
              "type": "string"
            },
            {
              "internalType": "address",
              "name": "hospital_addr",
              "type": "address"
            },
            {
              "internalType": "uint256",
              "name": "phone",
              "type": "uint256"
            },
            {
              "internalType": "string",
              "name": "email",
              "type": "string"
            },
            {
              "internalType": "uint256",
              "name": "age",
              "type": "uint256"
            },
            {
              "internalType": "string",
              "name": "place",
              "type": "string"
            },
            {
              "internalType": "string",
              "name": "Medical_specialty",
              "type": "string"
            },
            {
              "internalType": "address",
              "name": "docAddress",
              "type": "address"
            }
          ],
          "internalType": "struct MedRecChain.doctor[]",
          "name": "",
          "type": "tuple[]"
        }
      ],
      "stateMutability": "view",
      "type": "function",
      "constant": true
    },
    {
      "inputs": [],
      "name": "get_record_number",
      "outputs": [
        {
          "internalType": "uint256",
          "name": "i",
          "type": "uint256"
        }
      ],
      "stateMutability": "view",
      "type": "function",
      "constant": true
    },
    {
      "inputs": [
        {
          "internalType": "address",
          "name": "_addr",
          "type": "address"
        }
      ],
      "name": "get_hospita_by_address",
      "outputs": [
        {
          "components": [
            {
              "internalType": "uint256",
              "name": "id",
              "type": "uint256"
            },
            {
              "internalType": "string",
              "name": "name",
              "type": "string"
            },
            {
              "internalType": "address",
              "name": "addr",
              "type": "address"
            },
            {
              "internalType": "string",
              "name": "place",
              "type": "string"
            },
            {
              "internalType": "uint256",
              "name": "phone",
              "type": "uint256"
            }
          ],
          "internalType": "struct MedRecChain.Hospital",
          "name": "",
          "type": "tuple"
        }
      ],
      "stateMutability": "view",
      "type": "function",
      "constant": true
    },
    {
      "inputs": [
        {
          "internalType": "string",
          "name": "_name",
          "type": "string"
        },
        {
          "internalType": "string",
          "name": "_email",
          "type": "string"
        },
        {
          "internalType": "string",
          "name": "_National_Addr",
          "type": "string"
        },
        {
          "internalType": "uint256",
          "name": "_National_id",
          "type": "uint256"
        },
        {
          "internalType": "uint256",
          "name": "_age",
          "type": "uint256"
        },
        {
          "internalType": "address",
          "name": "_PatientAddress",
          "type": "address"
        },
        {
          "internalType": "uint256",
          "name": "_phone",
          "type": "uint256"
        },
        {
          "internalType": "string",
          "name": "_Blood_Type",
          "type": "string"
        },
        {
          "internalType": "string",
          "name": "_marital_status",
          "type": "string"
        },
        {
          "internalType": "string",
          "name": "_gender",
          "type": "string"
        }
      ],
      "name": "addPatient",
      "outputs": [
        {
          "internalType": "bool",
          "name": "success",
          "type": "bool"
        }
      ],
      "stateMutability": "nonpayable",
      "type": "function"
    },
    {
      "inputs": [],
      "name": "get_all_Patients",
      "outputs": [
        {
          "components": [
            {
              "internalType": "uint256",
              "name": "id",
              "type": "uint256"
            },
            {
              "internalType": "string",
              "name": "name",
              "type": "string"
            },
            {
              "internalType": "string",
              "name": "email",
              "type": "string"
            },
            {
              "internalType": "string",
              "name": "National_Addr",
              "type": "string"
            },
            {
              "internalType": "uint256",
              "name": "National_id",
              "type": "uint256"
            },
            {
              "internalType": "uint256",
              "name": "age",
              "type": "uint256"
            },
            {
              "internalType": "address",
              "name": "PatientAddress",
              "type": "address"
            },
            {
              "internalType": "uint256",
              "name": "phone",
              "type": "uint256"
            },
            {
              "internalType": "string",
              "name": "Blood_Type",
              "type": "string"
            },
            {
              "internalType": "string",
              "name": "marital_status",
              "type": "string"
            },
            {
              "internalType": "string",
              "name": "gender",
              "type": "string"
            },
            {
              "internalType": "address",
              "name": "hospital_addr",
              "type": "address"
            },
            {
              "components": [
                {
                  "internalType": "uint256",
                  "name": "Medical_id",
                  "type": "uint256"
                },
                {
                  "internalType": "string",
                  "name": "category",
                  "type": "string"
                },
                {
                  "internalType": "string",
                  "name": "patient_name",
                  "type": "string"
                },
                {
                  "internalType": "string",
                  "name": "rec_name",
                  "type": "string"
                },
                {
                  "internalType": "string",
                  "name": "Created_at",
                  "type": "string"
                },
                {
                  "internalType": "address",
                  "name": "patient_addr",
                  "type": "address"
                },
                {
                  "internalType": "address",
                  "name": "doctor_addr",
                  "type": "address"
                },
                {
                  "internalType": "string",
                  "name": "hex_ipfs",
                  "type": "string"
                },
                {
                  "internalType": "string",
                  "name": "notes",
                  "type": "string"
                }
              ],
              "internalType": "struct MedRecChain.record[]",
              "name": "Records",
              "type": "tuple[]"
            }
          ],
          "internalType": "struct MedRecChain.patient[]",
          "name": "",
          "type": "tuple[]"
        }
      ],
      "stateMutability": "view",
      "type": "function",
      "constant": true
    },
    {
      "inputs": [
        {
          "internalType": "address",
          "name": "_addr",
          "type": "address"
        }
      ],
      "name": "get_doctor_by_address",
      "outputs": [
        {
          "components": [
            {
              "internalType": "uint256",
              "name": "id",
              "type": "uint256"
            },
            {
              "internalType": "string",
              "name": "name",
              "type": "string"
            },
            {
              "internalType": "address",
              "name": "hospital_addr",
              "type": "address"
            },
            {
              "internalType": "uint256",
              "name": "phone",
              "type": "uint256"
            },
            {
              "internalType": "string",
              "name": "email",
              "type": "string"
            },
            {
              "internalType": "uint256",
              "name": "age",
              "type": "uint256"
            },
            {
              "internalType": "string",
              "name": "place",
              "type": "string"
            },
            {
              "internalType": "string",
              "name": "Medical_specialty",
              "type": "string"
            },
            {
              "internalType": "address",
              "name": "docAddress",
              "type": "address"
            }
          ],
          "internalType": "struct MedRecChain.doctor",
          "name": "",
          "type": "tuple"
        }
      ],
      "stateMutability": "view",
      "type": "function",
      "constant": true
    },
    {
      "inputs": [
        {
          "internalType": "address",
          "name": "_from_doctor_addr",
          "type": "address"
        },
        {
          "internalType": "address",
          "name": "_to_patients_addr",
          "type": "address"
        }
      ],
      "name": "checkRequestExists",
      "outputs": [
        {
          "internalType": "bool",
          "name": "",
          "type": "bool"
        }
      ],
      "stateMutability": "view",
      "type": "function",
      "constant": true
    },
    {
      "inputs": [
        {
          "internalType": "address",
          "name": "_patient",
          "type": "address"
        },
        {
          "internalType": "address",
          "name": "_doctor",
          "type": "address"
        }
      ],
      "name": "send_request_Access",
      "outputs": [
        {
          "internalType": "bool",
          "name": "success",
          "type": "bool"
        }
      ],
      "stateMutability": "nonpayable",
      "type": "function"
    },
    {
      "inputs": [],
      "name": "get_all_requests",
      "outputs": [
        {
          "components": [
            {
              "internalType": "uint256",
              "name": "id",
              "type": "uint256"
            },
            {
              "internalType": "address",
              "name": "from_doctor_addr",
              "type": "address"
            },
            {
              "internalType": "address",
              "name": "to_patients_addr",
              "type": "address"
            },
            {
              "internalType": "uint256",
              "name": "date",
              "type": "uint256"
            },
            {
              "internalType": "string",
              "name": "patient_name",
              "type": "string"
            },
            {
              "internalType": "string",
              "name": "doctor_name",
              "type": "string"
            }
          ],
          "internalType": "struct MedRecChain.request[]",
          "name": "",
          "type": "tuple[]"
        }
      ],
      "stateMutability": "view",
      "type": "function",
      "constant": true
    },
    {
      "inputs": [
        {
          "internalType": "string",
          "name": "_category",
          "type": "string"
        },
        {
          "internalType": "string",
          "name": "_patient_name",
          "type": "string"
        },
        {
          "internalType": "string",
          "name": "_rec_name",
          "type": "string"
        },
        {
          "internalType": "string",
          "name": "_Created_at",
          "type": "string"
        },
        {
          "internalType": "address",
          "name": "_patientAddr",
          "type": "address"
        },
        {
          "internalType": "address",
          "name": "_doctor_addr",
          "type": "address"
        },
        {
          "internalType": "string",
          "name": "_hex_ipfs",
          "type": "string"
        },
        {
          "internalType": "string",
          "name": "_notes",
          "type": "string"
        }
      ],
      "name": "addRecord",
      "outputs": [
        {
          "internalType": "bool",
          "name": "",
          "type": "bool"
        }
      ],
      "stateMutability": "nonpayable",
      "type": "function"
    },
    {
      "inputs": [
        {
          "internalType": "address",
          "name": "_patientAddr",
          "type": "address"
        }
      ],
      "name": "See_Record_for_Doctor",
      "outputs": [
        {
          "components": [
            {
              "internalType": "uint256",
              "name": "Medical_id",
              "type": "uint256"
            },
            {
              "internalType": "string",
              "name": "category",
              "type": "string"
            },
            {
              "internalType": "string",
              "name": "patient_name",
              "type": "string"
            },
            {
              "internalType": "string",
              "name": "rec_name",
              "type": "string"
            },
            {
              "internalType": "string",
              "name": "Created_at",
              "type": "string"
            },
            {
              "internalType": "address",
              "name": "patient_addr",
              "type": "address"
            },
            {
              "internalType": "address",
              "name": "doctor_addr",
              "type": "address"
            },
            {
              "internalType": "string",
              "name": "hex_ipfs",
              "type": "string"
            },
            {
              "internalType": "string",
              "name": "notes",
              "type": "string"
            }
          ],
          "internalType": "struct MedRecChain.record[]",
          "name": "",
          "type": "tuple[]"
        }
      ],
      "stateMutability": "view",
      "type": "function",
      "constant": true
    },
    {
      "inputs": [
        {
          "internalType": "address",
          "name": "_addr",
          "type": "address"
        }
      ],
      "name": "get_patient_by_address",
      "outputs": [
        {
          "components": [
            {
              "internalType": "uint256",
              "name": "id",
              "type": "uint256"
            },
            {
              "internalType": "string",
              "name": "name",
              "type": "string"
            },
            {
              "internalType": "string",
              "name": "email",
              "type": "string"
            },
            {
              "internalType": "string",
              "name": "National_Addr",
              "type": "string"
            },
            {
              "internalType": "uint256",
              "name": "National_id",
              "type": "uint256"
            },
            {
              "internalType": "uint256",
              "name": "age",
              "type": "uint256"
            },
            {
              "internalType": "address",
              "name": "PatientAddress",
              "type": "address"
            },
            {
              "internalType": "uint256",
              "name": "phone",
              "type": "uint256"
            },
            {
              "internalType": "string",
              "name": "Blood_Type",
              "type": "string"
            },
            {
              "internalType": "string",
              "name": "marital_status",
              "type": "string"
            },
            {
              "internalType": "string",
              "name": "gender",
              "type": "string"
            },
            {
              "internalType": "address",
              "name": "hospital_addr",
              "type": "address"
            },
            {
              "components": [
                {
                  "internalType": "uint256",
                  "name": "Medical_id",
                  "type": "uint256"
                },
                {
                  "internalType": "string",
                  "name": "category",
                  "type": "string"
                },
                {
                  "internalType": "string",
                  "name": "patient_name",
                  "type": "string"
                },
                {
                  "internalType": "string",
                  "name": "rec_name",
                  "type": "string"
                },
                {
                  "internalType": "string",
                  "name": "Created_at",
                  "type": "string"
                },
                {
                  "internalType": "address",
                  "name": "patient_addr",
                  "type": "address"
                },
                {
                  "internalType": "address",
                  "name": "doctor_addr",
                  "type": "address"
                },
                {
                  "internalType": "string",
                  "name": "hex_ipfs",
                  "type": "string"
                },
                {
                  "internalType": "string",
                  "name": "notes",
                  "type": "string"
                }
              ],
              "internalType": "struct MedRecChain.record[]",
              "name": "Records",
              "type": "tuple[]"
            }
          ],
          "internalType": "struct MedRecChain.patient",
          "name": "",
          "type": "tuple"
        }
      ],
      "stateMutability": "view",
      "type": "function",
      "constant": true
    },
    {
      "inputs": [],
      "name": "See_Record_for_Patient",
      "outputs": [
        {
          "components": [
            {
              "internalType": "uint256",
              "name": "Medical_id",
              "type": "uint256"
            },
            {
              "internalType": "string",
              "name": "category",
              "type": "string"
            },
            {
              "internalType": "string",
              "name": "patient_name",
              "type": "string"
            },
            {
              "internalType": "string",
              "name": "rec_name",
              "type": "string"
            },
            {
              "internalType": "string",
              "name": "Created_at",
              "type": "string"
            },
            {
              "internalType": "address",
              "name": "patient_addr",
              "type": "address"
            },
            {
              "internalType": "address",
              "name": "doctor_addr",
              "type": "address"
            },
            {
              "internalType": "string",
              "name": "hex_ipfs",
              "type": "string"
            },
            {
              "internalType": "string",
              "name": "notes",
              "type": "string"
            }
          ],
          "internalType": "struct MedRecChain.record[]",
          "name": "",
          "type": "tuple[]"
        }
      ],
      "stateMutability": "view",
      "type": "function",
      "constant": true
    },
    {
      "inputs": [
        {
          "internalType": "address",
          "name": "_doctor",
          "type": "address"
        }
      ],
      "name": "approveAccess",
      "outputs": [],
      "stateMutability": "nonpayable",
      "type": "function"
    },
    {
      "inputs": [
        {
          "internalType": "address",
          "name": "_doctor",
          "type": "address"
        },
        {
          "internalType": "address",
          "name": "_patient",
          "type": "address"
        }
      ],
      "name": "check_approve_Access",
      "outputs": [
        {
          "internalType": "bool",
          "name": "",
          "type": "bool"
        }
      ],
      "stateMutability": "view",
      "type": "function",
      "constant": true
    },
    {
      "inputs": [
        {
          "internalType": "address",
          "name": "doc",
          "type": "address"
        },
        {
          "internalType": "address",
          "name": "pat",
          "type": "address"
        }
      ],
      "name": "DeleteRequest",
      "outputs": [],
      "stateMutability": "nonpayable",
      "type": "function"
    },
    {
      "inputs": [
        {
          "internalType": "address",
          "name": "_doctor",
          "type": "address"
        }
      ],
      "name": "rejectAccess",
      "outputs": [],
      "stateMutability": "nonpayable",
      "type": "function"
    }
  ],
  "bytecode": "0x6080604052600180546001600160a01b031916734e15105d84a095b7f3b5c8f0514a0df150e13f9e1790553480156200003757600080fd5b5060015462000071907fa49807205ce4d355092ef5a8a18f56e8913cf4a201fbe287825b095693c21775906001600160a01b031662000077565b62000127565b62000083828262000087565b5050565b6000828152602081815260408083206001600160a01b038516845290915290205460ff1662000083576000828152602081815260408083206001600160a01b03851684529091529020805460ff19166001179055620000e33390565b6001600160a01b0316816001600160a01b0316837f2f8788117e7eff1d82e926ec794901d17c78024a50270940304540a733656f0d60405160405180910390a45050565b615e6c80620001376000396000f3fe608060405234801561001057600080fd5b50600436106101cd5760003560e01c806301ffc9a7146101d2578063217e16f7146101fa57806321ea00a91461020f57806323654cc414610225578063248a9ca3146102385780632f2ff15d1461024b5780633141172c1461026057806336568abe14610273578063432d62741461028657806353bbcf03146102b1578063705211f4146102b957806375b238fc146102cc57806381d12c58146102e157806385b5f7fc146103065780638f333d7014610319578063905e03ba1461032e57806391d148541461034157806393ac6177146103545780639474c8e51461037457806398fc90e914610387578063a217fddf1461039a578063a2cdceda146103a2578063aa836ed2146103b5578063ac5cb97d146103c8578063aefae3b1146103dd578063bb5bfd66146103f0578063c10f761114610405578063c1b325711461041a578063c5f3a65a1461042d578063c821f07f14610440578063d15258d114610460578063d547741f14610475578063d8b070fa14610488578063f2b62d931461049b578063f6ba6678146104ae578063fd6ecf0b146104c3578063fe7ac90d146104e3578063fec331f2146104f6578063ff1b636d1461050b575b600080fd5b6101e56101e0366004614daf565b61051e565b60405190151581526020015b60405180910390f35b610202610555565b6040516101f19190614e97565b6102176107df565b6040519081526020016101f1565b6101e5610233366004614f10565b610873565b610217610246366004614f43565b610ae3565b61025e610259366004614f5c565b610af8565b005b61025e61026e366004614f7f565b610b19565b61025e610281366004614f5c565b610bf6565b610299610294366004614f43565b610c74565b6040516001600160a01b0390911681526020016101f1565b610217610c9e565b61025e6102c7366004614f7f565b610d0b565b610217600080516020615df783398151915281565b6102f46102ef366004614f43565b610e55565b6040516101f196959493929190614f9a565b61025e610314366004614f10565b610fbd565b610321611426565b6040516101f19190615111565b6101e561033c3660046151c6565b61185b565b6101e561034f366004614f5c565b611a84565b610367610362366004614f7f565b611aad565b6040516101f19190615241565b610321610382366004614f7f565b611c2e565b6101e5610395366004614f7f565b61211d565b610217600081565b61025e6103b0366004614f7f565b612265565b6101e56103c3366004614f10565b612407565b610217600080516020615db783398151915281565b6101e56103eb366004614f10565b61246d565b6103f8612524565b6040516101f19190615254565b61040d6126d8565b6040516101f19190615427565b61025e610428366004614f7f565b612f88565b6101e561043b36600461547c565b613100565b61045361044e366004614f7f565b6133fd565b6040516101f19190615612565b6104686136c1565b6040516101f19190615625565b61025e610483366004614f5c565b613a4f565b6101e561049636600461567a565b613a6b565b6101e56104a936600461579f565b613d8d565b610217600080516020615e1783398151915281565b6104d66104d1366004614f7f565b61404e565b6040516101f191906158b6565b6101e56104f1366004614f7f565b614836565b610217600080516020615dd783398151915281565b600154610299906001600160a01b031681565b60006001600160e01b03198216637965db0b60e01b148061054f57506301ffc9a760e01b6001600160e01b03198316145b92915050565b606061056f600080516020615df783398151915233611a84565b6105945760405162461bcd60e51b815260040161058b906158c9565b60405180910390fd5b6004546000906001600160401b038111156105b1576105b1615124565b6040519080825280602002602001820160405280156105ea57816020015b6105d7614c4c565b8152602001906001900390816105cf5790505b50905060005b6004548110156107d957600360006004838154811061061157610611615919565b9060005260206000200160009054906101000a90046001600160a01b03166001600160a01b03166001600160a01b031681526020019081526020016000206040518060a0016040529081600082015481526020016001820180546106749061592f565b80601f01602080910402602001604051908101604052809291908181526020018280546106a09061592f565b80156106ed5780601f106106c2576101008083540402835291602001916106ed565b820191906000526020600020905b8154815290600101906020018083116106d057829003601f168201915b505050918352505060028201546001600160a01b0316602082015260038201805460409092019161071d9061592f565b80601f01602080910402602001604051908101604052809291908181526020018280546107499061592f565b80156107965780601f1061076b57610100808354040283529160200191610796565b820191906000526020600020905b81548152906001019060200180831161077957829003601f168201915b505050505081526020016004820154815250508282815181106107bb576107bb615919565b602002602001018190525080806107d19061597f565b9150506105f0565b50905090565b60006107f9600080516020615df783398151915233611a84565b156108045750600190565b61081c600080516020615e1783398151915233611a84565b156108275750600290565b61083f600080516020615dd783398151915233611a84565b1561084a5750600390565b610862600080516020615db783398151915233611a84565b1561086d5750600490565b50600090565b600061088d600080516020615db783398151915284611a84565b6108fa5760405162461bcd60e51b815260206004820152603860248201527f54686520706572736f6e20796f75206172652072657175657374696e6720616360448201527718d95cdcc81d1bc81a5cc81b9bdd08184814185d1a595b9d60421b606482015260840161058b565b610904828461246d565b1561094a5760405162461bcd60e51b8152602060048201526016602482015275185b1c9958591e481cd95b990818481c995c5d595cdd60521b604482015260640161058b565b600d54610958906001615998565b600d5560006109668461404e565b90506000610973846133fd565b6040805160c081018252600d5481526001600160a01b0380881660208084019182528a8316948401948552426060850190815288820151608086019081529187015160a0860152600e8054600181018255600091909152855160069091027fbb7b4a454dc3493923482f07822329ed19e8244eff582cc204f8554c3620c3fd810191825593517fbb7b4a454dc3493923482f07822329ed19e8244eff582cc204f8554c3620c3fe850180549187166001600160a01b031992831617905596517fbb7b4a454dc3493923482f07822329ed19e8244eff582cc204f8554c3620c3ff850180549190961697169690961790935591517fbb7b4a454dc3493923482f07822329ed19e8244eff582cc204f8554c3620c400820155905193945090927fbb7b4a454dc3493923482f07822329ed19e8244eff582cc204f8554c3620c40190910190610ac090826159f9565b5060a08201516005820190610ad590826159f9565b506001979650505050505050565b60009081526020819052604090206001015490565b610b0182610ae3565b610b0a81614942565b610b14838361494c565b505050565b610b31600080516020615db783398151915233611a84565b610b4d5760405162461bcd60e51b815260040161058b90615ab8565b610b65600080516020615dd783398151915282611a84565b610bbd5760405162461bcd60e51b8152602060048201526024808201527f446f63746f7220646f6573206e6f7420686176652074686520646f63746f7220604482015263726f6c6560e01b606482015260840161058b565b3360008181526002602090815260408083206001600160a01b03861684529091529020805460ff19169055610bf3908290610fbd565b50565b6001600160a01b0381163314610c665760405162461bcd60e51b815260206004820152602f60248201527f416363657373436f6e74726f6c3a2063616e206f6e6c792072656e6f756e636560448201526e103937b632b9903337b91039b2b63360891b606482015260840161058b565b610c7082826149d0565b5050565b60048181548110610c8457600080fd5b6000918252602090912001546001600160a01b0316905081565b60008060005b6006548110156107d9576005600060068381548110610cc557610cc5615919565b60009182526020808320909101546001600160a01b031683528201929092526040019020600c0154610cf79083615998565b915080610d038161597f565b915050610ca4565b610d23600080516020615db783398151915233611a84565b610d3f5760405162461bcd60e51b815260040161058b90615ab8565b610d57600080516020615dd783398151915282611a84565b610da25760405162461bcd60e51b815260206004820152601c60248201527b03a3434b99030b1b7bab73a1034b9903737ba1030903237b1ba37b9160251b604482015260640161058b565b3360009081526002602090815260408083206001600160a01b038516845290915290205460ff1615610e245760405162461bcd60e51b815260206004820152602560248201527f54686973205265717565737420616c7261656479206265656e20417070726f76604482015264032b21090960dd1b606482015260840161058b565b3360009081526002602090815260408083206001600160a01b0394909416835292905220805460ff19166001179055565b600e8181548110610e6557600080fd5b6000918252602090912060069091020180546001820154600283015460038401546004850180549496506001600160a01b03938416959290931693909290610eac9061592f565b80601f0160208091040260200160405190810160405280929190818152602001828054610ed89061592f565b8015610f255780601f10610efa57610100808354040283529160200191610f25565b820191906000526020600020905b815481529060010190602001808311610f0857829003601f168201915b505050505090806005018054610f3a9061592f565b80601f0160208091040260200160405190810160405280929190818152602001828054610f669061592f565b8015610fb35780601f10610f8857610100808354040283529160200191610fb3565b820191906000526020600020905b815481529060010190602001808311610f9657829003601f168201915b5050505050905086565b600e54610fdc5760405162461bcd60e51b815260040161058b90615aed565b60005b600e54811015610b145782604051602001610ffa9190615b17565b60405160208183030381529060405280519060200120600e828154811061102357611023615919565b600091825260209182902060016006909202010154604051611051926001600160a01b039092169101615b17565b604051602081830303815290604052805190602001201480156110ef5750816040516020016110809190615b17565b60405160208183030381529060405280519060200120600e82815481106110a9576110a9615919565b6000918252602091829020600260069092020101546040516110d7926001600160a01b039092169101615b17565b60405160208183030381529060405280519060200120145b1561141457600e818154811061110757611107615919565b6000918252602082206006909102018181556001810180546001600160a01b03199081169091556002820180549091169055600381018290559061114e6004830182614c84565b61115c600583016000614c84565b5050600e5460009061117090600190615b2f565b90506000600e828154811061118757611187615919565b60009182526020918290206040805160c08101825260069093029091018054835260018101546001600160a01b0390811694840194909452600281015490931690820152600382015460608201526004820180549192916080840191906111ed9061592f565b80601f01602080910402602001604051908101604052809291908181526020018280546112199061592f565b80156112665780601f1061123b57610100808354040283529160200191611266565b820191906000526020600020905b81548152906001019060200180831161124957829003601f168201915b5050505050815260200160058201805461127f9061592f565b80601f01602080910402602001604051908101604052809291908181526020018280546112ab9061592f565b80156112f85780601f106112cd576101008083540402835291602001916112f8565b820191906000526020600020905b8154815290600101906020018083116112db57829003601f168201915b505050505081525050905080600e848154811061131757611317615919565b60009182526020918290208351600690920201908155908201516001820180546001600160a01b039283166001600160a01b0319918216179091556040840151600284018054919093169116179055606082015160038201556080820151600482019061138490826159f9565b5060a0820151600582019061139990826159f9565b50905050600e8054806113ae576113ae615b42565b6000828152602081206006600019909301928302018181556001810180546001600160a01b0319908116909155600282018054909116905560038101829055906113fb6004830182614c84565b611409600583016000614c84565b505090555050505050565b8061141e8161597f565b915050610fdf565b336000908152600560205260409020600c01546060906114585760405162461bcd60e51b815260040161058b90615b58565b336000908152600560209081526040808320600c0180548251818502810185019093528083529193909284015b82821015611852578382906000526020600020906009020160405180610120016040529081600082015481526020016001820180546114c39061592f565b80601f01602080910402602001604051908101604052809291908181526020018280546114ef9061592f565b801561153c5780601f106115115761010080835404028352916020019161153c565b820191906000526020600020905b81548152906001019060200180831161151f57829003601f168201915b505050505081526020016002820180546115559061592f565b80601f01602080910402602001604051908101604052809291908181526020018280546115819061592f565b80156115ce5780601f106115a3576101008083540402835291602001916115ce565b820191906000526020600020905b8154815290600101906020018083116115b157829003601f168201915b505050505081526020016003820180546115e79061592f565b80601f01602080910402602001604051908101604052809291908181526020018280546116139061592f565b80156116605780601f1061163557610100808354040283529160200191611660565b820191906000526020600020905b81548152906001019060200180831161164357829003601f168201915b505050505081526020016004820180546116799061592f565b80601f01602080910402602001604051908101604052809291908181526020018280546116a59061592f565b80156116f25780601f106116c7576101008083540402835291602001916116f2565b820191906000526020600020905b8154815290600101906020018083116116d557829003601f168201915b505050918352505060058201546001600160a01b039081166020830152600683015416604082015260078201805460609092019161172f9061592f565b80601f016020809104026020016040519081016040528092919081815260200182805461175b9061592f565b80156117a85780601f1061177d576101008083540402835291602001916117a8565b820191906000526020600020905b81548152906001019060200180831161178b57829003601f168201915b505050505081526020016008820180546117c19061592f565b80601f01602080910402602001604051908101604052809291908181526020018280546117ed9061592f565b801561183a5780601f1061180f5761010080835404028352916020019161183a565b820191906000526020600020905b81548152906001019060200180831161181d57829003601f168201915b50505050508152505081526020019060010190611485565b50505050905090565b6000611875600080516020615df783398151915233611a84565b6118915760405162461bcd60e51b815260040161058b906158c9565b6118a9600080516020615e1783398151915285611a84565b156118c65760405162461bcd60e51b815260040161058b90615b8e565b6118de600080516020615df783398151915285611a84565b156118fb5760405162461bcd60e51b815260040161058b90615bcf565b611913600080516020615dd783398151915285611a84565b156119305760405162461bcd60e51b815260040161058b90615c01565b611948600080516020615db783398151915285611a84565b156119655760405162461bcd60e51b815260040161058b90615c34565b61197d600080516020615e1783398151915285614a35565b60095461198b906001615998565b60098190556040805160a08101825291825260208083018881526001600160a01b03881684840181905260608501889052608085018790526000908152600390925291902082518155905160018201906119e590826159f9565b5060408201516002820180546001600160a01b0319166001600160a01b0390921691909117905560608201516003820190611a2090826159f9565b50608091909101516004918201558054600181810183556000929092527f8a35acfbc15ff81a39ae7d344fd709f28e8600b4aa8c65c6b64bfe7fe36bd19b0180546001600160a01b0387166001600160a01b03199091161790559050949350505050565b6000918252602082815260408084206001600160a01b0393909316845291905290205460ff1690565b611ab5614c4c565b6001600160a01b038216600090815260036020908152604091829020825160a08101909352805483526001810180549192840191611af29061592f565b80601f0160208091040260200160405190810160405280929190818152602001828054611b1e9061592f565b8015611b6b5780601f10611b4057610100808354040283529160200191611b6b565b820191906000526020600020905b815481529060010190602001808311611b4e57829003601f168201915b505050918352505060028201546001600160a01b03166020820152600382018054604090920191611b9b9061592f565b80601f0160208091040260200160405190810160405280929190818152602001828054611bc79061592f565b8015611c145780601f10611be957610100808354040283529160200191611c14565b820191906000526020600020905b815481529060010190602001808311611bf757829003601f168201915b505050505081526020016004820154815250509050919050565b6001600160a01b038116600090815260026020908152604080832033845290915290205460609060ff16611ca35760405162461bcd60e51b815260206004820152601c60248201527b4e6f207065726d697373696f6e20746f20676574205265636f72647360201b604482015260640161058b565b611cbb600080516020615db783398151915283611a84565b611cd75760405162461bcd60e51b815260040161058b90615c68565b6001600160a01b0382166000908152600560205260409020600c0154611d0f5760405162461bcd60e51b815260040161058b90615b58565b6001600160a01b0382166000908152600560209081526040808320600c0180548251818502810185019093528083529193909284015b8282101561211257838290600052602060002090600902016040518061012001604052908160008201548152602001600182018054611d839061592f565b80601f0160208091040260200160405190810160405280929190818152602001828054611daf9061592f565b8015611dfc5780601f10611dd157610100808354040283529160200191611dfc565b820191906000526020600020905b815481529060010190602001808311611ddf57829003601f168201915b50505050508152602001600282018054611e159061592f565b80601f0160208091040260200160405190810160405280929190818152602001828054611e419061592f565b8015611e8e5780601f10611e6357610100808354040283529160200191611e8e565b820191906000526020600020905b815481529060010190602001808311611e7157829003601f168201915b50505050508152602001600382018054611ea79061592f565b80601f0160208091040260200160405190810160405280929190818152602001828054611ed39061592f565b8015611f205780601f10611ef557610100808354040283529160200191611f20565b820191906000526020600020905b815481529060010190602001808311611f0357829003601f168201915b50505050508152602001600482018054611f399061592f565b80601f0160208091040260200160405190810160405280929190818152602001828054611f659061592f565b8015611fb25780601f10611f8757610100808354040283529160200191611fb2565b820191906000526020600020905b815481529060010190602001808311611f9557829003601f168201915b505050918352505060058201546001600160a01b0390811660208301526006830154166040820152600782018054606090920191611fef9061592f565b80601f016020809104026020016040519081016040528092919081815260200182805461201b9061592f565b80156120685780601f1061203d57610100808354040283529160200191612068565b820191906000526020600020905b81548152906001019060200180831161204b57829003601f168201915b505050505081526020016008820180546120819061592f565b80601f01602080910402602001604051908101604052809291908181526020018280546120ad9061592f565b80156120fa5780601f106120cf576101008083540402835291602001916120fa565b820191906000526020600020905b8154815290600101906020018083116120dd57829003601f168201915b50505050508152505081526020019060010190611d45565b505050509050919050565b6000612137600080516020615df783398151915233611a84565b6121535760405162461bcd60e51b815260040161058b906158c9565b61216b600080516020615dd783398151915283611a84565b6121b15760405162461bcd60e51b8152602060048201526017602482015276151a1a5cc81858d8dbdd5b9d081b9bdd08195e1a5cda5d604a1b604482015260640161058b565b6001600160a01b0382166000908152600760205260408120818155906121da6001830182614c84565b6002820180546001600160a01b0319169055600060038301819055612203906004840190614c84565b600582016000905560068201600061221b9190614c84565b612229600783016000614c84565b5060080180546001600160a01b0319169055612253600080516020615dd7833981519152836149d0565b61225c82612265565b5060015b919050565b6008546122845760405162461bcd60e51b815260040161058b90615aed565b60005b600854811015610c7057816040516020016122a29190615b17565b60405160208183030381529060405280519060200120600882815481106122cb576122cb615919565b600091825260209182902001546040516122f1926001600160a01b039092169101615b17565b60405160208183030381529060405280519060200120036123f5576008818154811061231f5761231f615919565b6000918252602082200180546001600160a01b031916905560085461234690600190615b2f565b905060006008828154811061235d5761235d615919565b600091825260209091200154600880546001600160a01b03909216925082918590811061238c5761238c615919565b9060005260206000200160006101000a8154816001600160a01b0302191690836001600160a01b0316021790555060088054806123cb576123cb615b42565b600082815260209020810160001990810180546001600160a01b031916905501905550610c709050565b806123ff8161597f565b915050612287565b6000612421600080516020615dd783398151915233611a84565b61243d5760405162461bcd60e51b815260040161058b90615c9d565b506001600160a01b0380821660009081526002602090815260408083209386168352929052205460ff1692915050565b6000805b600e5481101561251a57836001600160a01b0316600e828154811061249857612498615919565b60009182526020909120600160069092020101546001600160a01b03161480156124f95750826001600160a01b0316600e82815481106124da576124da615919565b60009182526020909120600260069092020101546001600160a01b0316145b1561250857600191505061054f565b806125128161597f565b915050612471565b5060009392505050565b6060600e805480602002602001604051908101604052809291908181526020016000905b828210156118525760008481526020908190206040805160c081018252600686029092018054835260018101546001600160a01b0390811694840194909452600281015490931690820152600382015460608201526004820180549192916080840191906125b59061592f565b80601f01602080910402602001604051908101604052809291908181526020018280546125e19061592f565b801561262e5780601f106126035761010080835404028352916020019161262e565b820191906000526020600020905b81548152906001019060200180831161261157829003601f168201915b505050505081526020016005820180546126479061592f565b80601f01602080910402602001604051908101604052809291908181526020018280546126739061592f565b80156126c05780601f10612695576101008083540402835291602001916126c0565b820191906000526020600020905b8154815290600101906020018083116126a357829003601f168201915b50505050508152505081526020019060010190612548565b6006546060906000906001600160401b038111156126f8576126f8615124565b60405190808252806020026020018201604052801561273157816020015b61271e614cbe565b8152602001906001900390816127165790505b50905060005b6006548110156107d957600560006006838154811061275857612758615919565b9060005260206000200160009054906101000a90046001600160a01b03166001600160a01b03166001600160a01b03168152602001908152602001600020604051806101a0016040529081600082015481526020016001820180546127bc9061592f565b80601f01602080910402602001604051908101604052809291908181526020018280546127e89061592f565b80156128355780601f1061280a57610100808354040283529160200191612835565b820191906000526020600020905b81548152906001019060200180831161281857829003601f168201915b5050505050815260200160028201805461284e9061592f565b80601f016020809104026020016040519081016040528092919081815260200182805461287a9061592f565b80156128c75780601f1061289c576101008083540402835291602001916128c7565b820191906000526020600020905b8154815290600101906020018083116128aa57829003601f168201915b505050505081526020016003820180546128e09061592f565b80601f016020809104026020016040519081016040528092919081815260200182805461290c9061592f565b80156129595780601f1061292e57610100808354040283529160200191612959565b820191906000526020600020905b81548152906001019060200180831161293c57829003601f168201915b5050509183525050600482015460208201526005820154604082015260068201546001600160a01b031660608201526007820154608082015260088201805460a0909201916129a79061592f565b80601f01602080910402602001604051908101604052809291908181526020018280546129d39061592f565b8015612a205780601f106129f557610100808354040283529160200191612a20565b820191906000526020600020905b815481529060010190602001808311612a0357829003601f168201915b50505050508152602001600982018054612a399061592f565b80601f0160208091040260200160405190810160405280929190818152602001828054612a659061592f565b8015612ab25780601f10612a8757610100808354040283529160200191612ab2565b820191906000526020600020905b815481529060010190602001808311612a9557829003601f168201915b50505050508152602001600a82018054612acb9061592f565b80601f0160208091040260200160405190810160405280929190818152602001828054612af79061592f565b8015612b445780601f10612b1957610100808354040283529160200191612b44565b820191906000526020600020905b815481529060010190602001808311612b2757829003601f168201915b5050509183525050600b8201546001600160a01b0316602080830191909152600c83018054604080518285028101850182528281529401939260009084015b82821015612f5057838290600052602060002090600902016040518061012001604052908160008201548152602001600182018054612bc19061592f565b80601f0160208091040260200160405190810160405280929190818152602001828054612bed9061592f565b8015612c3a5780601f10612c0f57610100808354040283529160200191612c3a565b820191906000526020600020905b815481529060010190602001808311612c1d57829003601f168201915b50505050508152602001600282018054612c539061592f565b80601f0160208091040260200160405190810160405280929190818152602001828054612c7f9061592f565b8015612ccc5780601f10612ca157610100808354040283529160200191612ccc565b820191906000526020600020905b815481529060010190602001808311612caf57829003601f168201915b50505050508152602001600382018054612ce59061592f565b80601f0160208091040260200160405190810160405280929190818152602001828054612d119061592f565b8015612d5e5780601f10612d3357610100808354040283529160200191612d5e565b820191906000526020600020905b815481529060010190602001808311612d4157829003601f168201915b50505050508152602001600482018054612d779061592f565b80601f0160208091040260200160405190810160405280929190818152602001828054612da39061592f565b8015612df05780601f10612dc557610100808354040283529160200191612df0565b820191906000526020600020905b815481529060010190602001808311612dd357829003601f168201915b505050918352505060058201546001600160a01b0390811660208301526006830154166040820152600782018054606090920191612e2d9061592f565b80601f0160208091040260200160405190810160405280929190818152602001828054612e599061592f565b8015612ea65780601f10612e7b57610100808354040283529160200191612ea6565b820191906000526020600020905b815481529060010190602001808311612e8957829003601f168201915b50505050508152602001600882018054612ebf9061592f565b80601f0160208091040260200160405190810160405280929190818152602001828054612eeb9061592f565b8015612f385780601f10612f0d57610100808354040283529160200191612f38565b820191906000526020600020905b815481529060010190602001808311612f1b57829003601f168201915b50505050508152505081526020019060010190612b83565b5050505081525050828281518110612f6a57612f6a615919565b60200260200101819052508080612f809061597f565b915050612737565b600454612fa75760405162461bcd60e51b815260040161058b90615aed565b60005b600454811015610c705781604051602001612fc59190615b17565b6040516020818303038152906040528051906020012060048281548110612fee57612fee615919565b60009182526020918290200154604051613014926001600160a01b039092169101615b17565b60405160208183030381529060405280519060200120036130ee576004818154811061304257613042615919565b6000918252602082200180546001600160a01b031916905560045461306990600190615b2f565b905060006004828154811061308057613080615919565b600091825260209091200154600480546001600160a01b0390921692508291859081106130af576130af615919565b9060005260206000200160006101000a8154816001600160a01b0302191690836001600160a01b0316021790555060048054806123cb576123cb615b42565b806130f88161597f565b915050612faa565b600061311a600080516020615df783398151915233611a84565b6131365760405162461bcd60e51b815260040161058b906158c9565b61314e600080516020615dd783398151915283611a84565b1561319b5760405162461bcd60e51b815260206004820152601d60248201527f54686973206163636f756e7420616c7265616479206120646f63746f72000000604482015260640161058b565b6131b3600080516020615df783398151915283611a84565b156131d05760405162461bcd60e51b815260040161058b90615bcf565b6131e8600080516020615e1783398151915283611a84565b156132055760405162461bcd60e51b815260040161058b90615cd1565b61321d600080516020615db783398151915283611a84565b1561323a5760405162461bcd60e51b815260040161058b90615c34565b613252600080516020615e1783398151915289611a84565b61326e5760405162461bcd60e51b815260040161058b90615b8e565b613286600080516020615dd783398151915283614a35565b600a54613294906001615998565b600a819055604080516101208101825291825260208083018c81526001600160a01b03808d1685850152606085018c9052608085018b905260a085018a905260c0850189905260e085018890528616610100850181905260009081526007909252919020825181559051600182019061330d90826159f9565b5060408201516002820180546001600160a01b0319166001600160a01b03909216919091179055606082015160038201556080820151600482019061335290826159f9565b5060a0820151600582015560c0820151600682019061337190826159f9565b5060e0820151600782019061338690826159f9565b506101009190910151600891820180546001600160a01b039283166001600160a01b0319918216179091558254600181810185556000949094527ff3f7a9fe364faab93b216da50a3214154f22a0a2b415b23a84c8169e8b636ee30180549590921694169390931790925550979650505050505050565b613405614d38565b6001600160a01b038216600090815260076020908152604091829020825161012081019093528054835260018101805491928401916134439061592f565b80601f016020809104026020016040519081016040528092919081815260200182805461346f9061592f565b80156134bc5780601f10613491576101008083540402835291602001916134bc565b820191906000526020600020905b81548152906001019060200180831161349f57829003601f168201915b505050918352505060028201546001600160a01b03166020820152600382015460408201526004820180546060909201916134f69061592f565b80601f01602080910402602001604051908101604052809291908181526020018280546135229061592f565b801561356f5780601f106135445761010080835404028352916020019161356f565b820191906000526020600020905b81548152906001019060200180831161355257829003601f168201915b50505050508152602001600582015481526020016006820180546135929061592f565b80601f01602080910402602001604051908101604052809291908181526020018280546135be9061592f565b801561360b5780601f106135e05761010080835404028352916020019161360b565b820191906000526020600020905b8154815290600101906020018083116135ee57829003601f168201915b505050505081526020016007820180546136249061592f565b80601f01602080910402602001604051908101604052809291908181526020018280546136509061592f565b801561369d5780601f106136725761010080835404028352916020019161369d565b820191906000526020600020905b81548152906001019060200180831161368057829003601f168201915b5050509183525050600891909101546001600160a01b031660209091015292915050565b6008546060906000906001600160401b038111156136e1576136e1615124565b60405190808252806020026020018201604052801561371a57816020015b613707614d38565b8152602001906001900390816136ff5790505b50905060005b6008548110156107d957600760006008838154811061374157613741615919565b9060005260206000200160009054906101000a90046001600160a01b03166001600160a01b03166001600160a01b0316815260200190815260200160002060405180610120016040529081600082015481526020016001820180546137a59061592f565b80601f01602080910402602001604051908101604052809291908181526020018280546137d19061592f565b801561381e5780601f106137f35761010080835404028352916020019161381e565b820191906000526020600020905b81548152906001019060200180831161380157829003601f168201915b505050918352505060028201546001600160a01b03166020820152600382015460408201526004820180546060909201916138589061592f565b80601f01602080910402602001604051908101604052809291908181526020018280546138849061592f565b80156138d15780601f106138a6576101008083540402835291602001916138d1565b820191906000526020600020905b8154815290600101906020018083116138b457829003601f168201915b50505050508152602001600582015481526020016006820180546138f49061592f565b80601f01602080910402602001604051908101604052809291908181526020018280546139209061592f565b801561396d5780601f106139425761010080835404028352916020019161396d565b820191906000526020600020905b81548152906001019060200180831161395057829003601f168201915b505050505081526020016007820180546139869061592f565b80601f01602080910402602001604051908101604052809291908181526020018280546139b29061592f565b80156139ff5780601f106139d4576101008083540402835291602001916139ff565b820191906000526020600020905b8154815290600101906020018083116139e257829003601f168201915b5050509183525050600891909101546001600160a01b03166020909101528251839083908110613a3157613a31615919565b60200260200101819052508080613a479061597f565b915050613720565b613a5882610ae3565b613a6181614942565b610b1483836149d0565b6000613a85600080516020615e1783398151915233611a84565b613ad05760405162461bcd60e51b815260206004820152601c60248201527b151a1a5cc81858d8dbdd5b9d081a5cc81b9bdd08121bdcdc1a5d185b60221b604482015260640161058b565b613ae8600080516020615db783398151915287611a84565b15613b355760405162461bcd60e51b815260206004820152601e60248201527f54686973206163636f756e7420616c726561647920612070617469656e740000604482015260640161058b565b613b4d600080516020615df783398151915287611a84565b15613b6a5760405162461bcd60e51b815260040161058b90615bcf565b613b82600080516020615dd783398151915287611a84565b15613b9f5760405162461bcd60e51b815260040161058b90615c01565b613bb7600080516020615e1783398151915287611a84565b15613bd45760405162461bcd60e51b815260040161058b90615cd1565b613bec600080516020615db783398151915287614a35565b600b54613bfa906001615998565b600b8190556001600160a01b03871660008181526005602052604090209182556006820180546001600160a01b0319169091179055600101613c3c8c826159f9565b506001600160a01b0386166000908152600560205260409020600201613c628b826159f9565b506001600160a01b0386166000908152600560205260409020600301613c888a826159f9565b506001600160a01b0386166000908152600560208190526040909120600481018a905590810188905560078101869055600801613cc585826159f9565b506001600160a01b0386166000908152600560205260409020600901613ceb84826159f9565b506001600160a01b0386166000908152600560205260409020600a01613d1183826159f9565b50506001600160a01b0385166000818152600560205260408120600b0180546001600160a01b031990811633179091556006805460018181018355919093527ff652222313e28459528d920b65115c16c04f3efc82aaedc97be59f3f377c0d3f90920180549091169092179091559a9950505050505050505050565b6000613da7600080516020615dd783398151915233611a84565b613dc35760405162461bcd60e51b815260040161058b90615c9d565b613ddb600080516020615db783398151915286611a84565b613df75760405162461bcd60e51b815260040161058b90615c68565b6001600160a01b038516600090815260026020908152604080832033845290915290205460ff16613e695760405162461bcd60e51b815260206004820152601c60248201527b4e6f207065726d697373696f6e20746f20616464205265636f72647360201b604482015260640161058b565b6001600160a01b0384163314613ec05760405162461bcd60e51b815260206004820152601c60248201527b2737903832b936b4b9b9b4b7b7103a37903a3434b9902237b1ba37b960211b604482015260640161058b565b600c54613ece906001615998565b600c8190555060056000866001600160a01b03166001600160a01b03168152602001908152602001600020600c01604051806101200160405280600c5481526020018b81526020018a8152602001898152602001888152602001876001600160a01b03168152602001866001600160a01b03168152602001858152602001848152509080600181540180825580915050600190039060005260206000209060090201600090919091909150600082015181600001556020820151816001019081613f9891906159f9565b5060408201516002820190613fad90826159f9565b5060608201516003820190613fc290826159f9565b5060808201516004820190613fd790826159f9565b5060a08201516005820180546001600160a01b039283166001600160a01b03199182161790915560c084015160068401805491909316911617905560e0820151600782019061402690826159f9565b50610100820151600882019061403c90826159f9565b5060019b9a5050505050505050505050565b614056614cbe565b6001600160a01b03821660009081526005602090815260409182902082516101a081019093528054835260018101805491928401916140949061592f565b80601f01602080910402602001604051908101604052809291908181526020018280546140c09061592f565b801561410d5780601f106140e25761010080835404028352916020019161410d565b820191906000526020600020905b8154815290600101906020018083116140f057829003601f168201915b505050505081526020016002820180546141269061592f565b80601f01602080910402602001604051908101604052809291908181526020018280546141529061592f565b801561419f5780601f106141745761010080835404028352916020019161419f565b820191906000526020600020905b81548152906001019060200180831161418257829003601f168201915b505050505081526020016003820180546141b89061592f565b80601f01602080910402602001604051908101604052809291908181526020018280546141e49061592f565b80156142315780601f1061420657610100808354040283529160200191614231565b820191906000526020600020905b81548152906001019060200180831161421457829003601f168201915b5050509183525050600482015460208201526005820154604082015260068201546001600160a01b031660608201526007820154608082015260088201805460a09092019161427f9061592f565b80601f01602080910402602001604051908101604052809291908181526020018280546142ab9061592f565b80156142f85780601f106142cd576101008083540402835291602001916142f8565b820191906000526020600020905b8154815290600101906020018083116142db57829003601f168201915b505050505081526020016009820180546143119061592f565b80601f016020809104026020016040519081016040528092919081815260200182805461433d9061592f565b801561438a5780601f1061435f5761010080835404028352916020019161438a565b820191906000526020600020905b81548152906001019060200180831161436d57829003601f168201915b50505050508152602001600a820180546143a39061592f565b80601f01602080910402602001604051908101604052809291908181526020018280546143cf9061592f565b801561441c5780601f106143f15761010080835404028352916020019161441c565b820191906000526020600020905b8154815290600101906020018083116143ff57829003601f168201915b5050509183525050600b8201546001600160a01b0316602080830191909152600c83018054604080518285028101850182528281529401939260009084015b82821015614828578382906000526020600020906009020160405180610120016040529081600082015481526020016001820180546144999061592f565b80601f01602080910402602001604051908101604052809291908181526020018280546144c59061592f565b80156145125780601f106144e757610100808354040283529160200191614512565b820191906000526020600020905b8154815290600101906020018083116144f557829003601f168201915b5050505050815260200160028201805461452b9061592f565b80601f01602080910402602001604051908101604052809291908181526020018280546145579061592f565b80156145a45780601f10614579576101008083540402835291602001916145a4565b820191906000526020600020905b81548152906001019060200180831161458757829003601f168201915b505050505081526020016003820180546145bd9061592f565b80601f01602080910402602001604051908101604052809291908181526020018280546145e99061592f565b80156146365780601f1061460b57610100808354040283529160200191614636565b820191906000526020600020905b81548152906001019060200180831161461957829003601f168201915b5050505050815260200160048201805461464f9061592f565b80601f016020809104026020016040519081016040528092919081815260200182805461467b9061592f565b80156146c85780601f1061469d576101008083540402835291602001916146c8565b820191906000526020600020905b8154815290600101906020018083116146ab57829003601f168201915b505050918352505060058201546001600160a01b03908116602083015260068301541660408201526007820180546060909201916147059061592f565b80601f01602080910402602001604051908101604052809291908181526020018280546147319061592f565b801561477e5780601f106147535761010080835404028352916020019161477e565b820191906000526020600020905b81548152906001019060200180831161476157829003601f168201915b505050505081526020016008820180546147979061592f565b80601f01602080910402602001604051908101604052809291908181526020018280546147c39061592f565b80156148105780601f106147e557610100808354040283529160200191614810565b820191906000526020600020905b8154815290600101906020018083116147f357829003601f168201915b5050505050815250508152602001906001019061445b565b505050915250909392505050565b6000614850600080516020615df783398151915233611a84565b61486c5760405162461bcd60e51b815260040161058b906158c9565b614884600080516020615e1783398151915283611a84565b6148ce5760405162461bcd60e51b815260206004820152601b60248201527a151a1a5cc81a1bdcdc1a5d185b081a5cc81b9bdd08195e1a5cda5d602a1b604482015260640161058b565b6148e6600080516020615e17833981519152836149d0565b6001600160a01b03821660009081526003602052604081208181559061490f6001830182614c84565b6002820180546001600160a01b031916905561492f600383016000614c84565b6004820160009055505061225c82612f88565b610bf38133614a3f565b6149568282611a84565b610c70576000828152602081815260408083206001600160a01b03851684529091529020805460ff1916600117905561498c3390565b6001600160a01b0316816001600160a01b0316837f2f8788117e7eff1d82e926ec794901d17c78024a50270940304540a733656f0d60405160405180910390a45050565b6149da8282611a84565b15610c70576000828152602081815260408083206001600160a01b0385168085529252808320805460ff1916905551339285917ff6391f5c32d9c69d2a47ea670b442974b53935d1edc7fd64eb21e047a839171b9190a45050565b610c70828261494c565b614a498282611a84565b610c7057614a5681614a98565b614a61836020614aaa565b604051602001614a72929190615d06565b60408051601f198184030181529082905262461bcd60e51b825261058b91600401615d75565b606061054f6001600160a01b03831660145b60606000614ab9836002615d88565b614ac4906002615998565b6001600160401b03811115614adb57614adb615124565b6040519080825280601f01601f191660200182016040528015614b05576020820181803683370190505b509050600360fc1b81600081518110614b2057614b20615919565b60200101906001600160f81b031916908160001a905350600f60fb1b81600181518110614b4f57614b4f615919565b60200101906001600160f81b031916908160001a9053506000614b73846002615d88565b614b7e906001615998565b90505b6001811115614bf6576f181899199a1a9b1b9c1cb0b131b232b360811b85600f1660108110614bb257614bb2615919565b1a60f81b828281518110614bc857614bc8615919565b60200101906001600160f81b031916908160001a90535060049490941c93614bef81615d9f565b9050614b81565b508315614c455760405162461bcd60e51b815260206004820181905260248201527f537472696e67733a20686578206c656e67746820696e73756666696369656e74604482015260640161058b565b9392505050565b6040518060a00160405280600081526020016060815260200160006001600160a01b0316815260200160608152602001600081525090565b508054614c909061592f565b6000825580601f10614ca0575050565b601f016020900490600052602060002090810190610bf39190614d96565b604051806101a0016040528060008152602001606081526020016060815260200160608152602001600081526020016000815260200160006001600160a01b031681526020016000815260200160608152602001606081526020016060815260200160006001600160a01b03168152602001606081525090565b604051806101200160405280600081526020016060815260200160006001600160a01b03168152602001600081526020016060815260200160008152602001606081526020016060815260200160006001600160a01b031681525090565b5b80821115614dab5760008155600101614d97565b5090565b600060208284031215614dc157600080fd5b81356001600160e01b031981168114614c4557600080fd5b60005b83811015614df4578181015183820152602001614ddc565b50506000910152565b60008151808452614e15816020860160208601614dd9565b601f01601f19169290920160200192915050565b6001600160a01b03169052565b805182526000602082015160a06020850152614e5560a0850182614dfd565b905060018060a01b03604084015116604085015260608301518482036060860152614e808282614dfd565b915050608083015160808501528091505092915050565b6000602080830181845280855180835260408601915060408160051b870101925083870160005b82811015614eec57603f19888603018452614eda858351614e36565b94509285019290850190600101614ebe565b5092979650505050505050565b80356001600160a01b038116811461226057600080fd5b60008060408385031215614f2357600080fd5b614f2c83614ef9565b9150614f3a60208401614ef9565b90509250929050565b600060208284031215614f5557600080fd5b5035919050565b60008060408385031215614f6f57600080fd5b82359150614f3a60208401614ef9565b600060208284031215614f9157600080fd5b614c4582614ef9565b8681526001600160a01b038681166020830152851660408201526060810184905260c060808201819052600090614fd390830185614dfd565b82810360a0840152614fe58185614dfd565b9998505050505050505050565b600082825180855260208086019550808260051b84010181860160005b8481101561510457601f1986840301895281516101208151855285820151818787015261503e82870182614dfd565b915050604080830151868303828801526150588382614dfd565b92505050606080830151868303828801526150738382614dfd565b925050506080808301518683038288015261508e8382614dfd565b9250505060a0808301516150a482880182614e29565b505060c0808301516150b882880182614e29565b505060e080830151868303828801526150d18382614dfd565b9250505061010080830151925085820381870152506150f08183614dfd565b9a86019a945050509083019060010161500f565b5090979650505050505050565b602081526000614c456020830184614ff2565b634e487b7160e01b600052604160045260246000fd5b600082601f83011261514b57600080fd5b81356001600160401b038082111561516557615165615124565b604051601f8301601f19908116603f0116810190828211818310171561518d5761518d615124565b816040528381528660208588010111156151a657600080fd5b836020870160208301376000602085830101528094505050505092915050565b600080600080608085870312156151dc57600080fd5b84356001600160401b03808211156151f357600080fd5b6151ff8883890161513a565b955061520d60208801614ef9565b9450604087013591508082111561522357600080fd5b506152308782880161513a565b949793965093946060013593505050565b602081526000614c456020830184614e36565b60006020808301818452808551808352604092508286019150828160051b87010184880160005b8381101561530657888303603f19018552815180518452878101516001600160a01b03908116898601528782015116878501526060808201519085015260808082015160c082870181905291906152d483880182614dfd565b9250505060a080830151925085820381870152506152f28183614dfd565b96890196945050509086019060010161527b565b509098975050505050505050565b60006101a082518452602083015181602086015261533482860182614dfd565b9150506040830151848203604086015261534e8282614dfd565b915050606083015184820360608601526153688282614dfd565b9150506080830151608085015260a083015160a085015260c083015161539160c0860182614e29565b5060e083015160e085015261010080840151858303828701526153b48382614dfd565b9250505061012080840151858303828701526153d08382614dfd565b9250505061014080840151858303828701526153ec8382614dfd565b925050506101608084015161540382870182614e29565b5050610180808401518583038287015261541d8382614ff2565b9695505050505050565b6000602080830181845280855180835260408601915060408160051b870101925083870160005b82811015614eec57603f1988860301845261546a858351615314565b9450928501929085019060010161544e565b600080600080600080600080610100898b03121561549957600080fd5b88356001600160401b03808211156154b057600080fd5b6154bc8c838d0161513a565b99506154ca60208c01614ef9565b985060408b0135975060608b01359150808211156154e757600080fd5b6154f38c838d0161513a565b965060808b0135955060a08b013591508082111561551057600080fd5b61551c8c838d0161513a565b945060c08b013591508082111561553257600080fd5b5061553f8b828c0161513a565b92505061554e60e08a01614ef9565b90509295985092959890939650565b600061012082518452602083015181602086015261557d82860182614dfd565b91505060408301516155926040860182614e29565b5060608301516060850152608083015184820360808601526155b48282614dfd565b91505060a083015160a085015260c083015184820360c08601526155d88282614dfd565b91505060e083015184820360e08601526155f28282614dfd565b9150506101008084015161560882870182614e29565b5090949350505050565b602081526000614c45602083018461555d565b6000602080830181845280855180835260408601915060408160051b870101925083870160005b82811015614eec57603f1988860301845261566885835161555d565b9450928501929085019060010161564c565b6000806000806000806000806000806101408b8d03121561569a57600080fd5b8a356001600160401b03808211156156b157600080fd5b6156bd8e838f0161513a565b9b5060208d01359150808211156156d357600080fd5b6156df8e838f0161513a565b9a5060408d01359150808211156156f557600080fd5b6157018e838f0161513a565b995060608d0135985060808d0135975061571d60a08e01614ef9565b965060c08d0135955060e08d013591508082111561573a57600080fd5b6157468e838f0161513a565b94506101008d013591508082111561575d57600080fd5b6157698e838f0161513a565b93506101208d013591508082111561578057600080fd5b5061578d8d828e0161513a565b9150509295989b9194979a5092959850565b600080600080600080600080610100898b0312156157bc57600080fd5b88356001600160401b03808211156157d357600080fd5b6157df8c838d0161513a565b995060208b01359150808211156157f557600080fd5b6158018c838d0161513a565b985060408b013591508082111561581757600080fd5b6158238c838d0161513a565b975060608b013591508082111561583957600080fd5b6158458c838d0161513a565b965061585360808c01614ef9565b955061586160a08c01614ef9565b945060c08b013591508082111561587757600080fd5b6158838c838d0161513a565b935060e08b013591508082111561589957600080fd5b506158a68b828c0161513a565b9150509295985092959890939650565b602081526000614c456020830184615314565b60208082526030908201527f4f6e6c7920737570657241646d696e20686173207065726d697373696f6e207460408201526f37903237903a3430ba1030b1ba34b7b760811b606082015260800190565b634e487b7160e01b600052603260045260246000fd5b600181811c9082168061594357607f821691505b60208210810361596357634e487b7160e01b600052602260045260246000fd5b50919050565b634e487b7160e01b600052601160045260246000fd5b60006001820161599157615991615969565b5060010190565b8082018082111561054f5761054f615969565b601f821115610b1457600081815260208120601f850160051c810160208610156159d25750805b601f850160051c820191505b818110156159f1578281556001016159de565b505050505050565b81516001600160401b03811115615a1257615a12615124565b615a2681615a20845461592f565b846159ab565b602080601f831160018114615a5b5760008415615a435750858301515b600019600386901b1c1916600185901b1785556159f1565b600085815260208120601f198616915b82811015615a8a57888601518255948401946001909101908401615a6b565b5085821015615aa85787850151600019600388901b60f8161c191681555b5050505050600190811b01905550565b6020808252601b908201527a151a1a5cc81858d8dbdd5b9d081a5cc81b9bdd081c185d1a595b9d602a1b604082015260600190565b60208082526010908201526f4e6f206b65797320696e20617272617960801b604082015260600190565b60609190911b6001600160601b031916815260140190565b8181038181111561054f5761054f615969565b634e487b7160e01b600052603160045260246000fd5b6020808252601c908201527b1c185d1a595b9d081c9958dbdc9908191bd95cdb89dd08195e1a5cdd60221b604082015260600190565b60208082526021908201527f5468697320686f73706974616c206973207265616c6c792065786973697421216040820152600160fd1b606082015260800190565b60208082526018908201527702a3434b99020b1b1b7bab73a1034b99020b236b4b71090960451b604082015260600190565b60208082526019908201527802a3434b99020b1b1b7bab73a1034b9902237b1ba37b910909603d1b604082015260600190565b6020808252601a908201527902a3434b99020b1b1b7bab73a1034b9902830ba34b2b73a1090960351b604082015260600190565b6020808252601b908201527a151a1a5cc81c185d1a595b9d1cc81a5cc81b9bdd08195e1a5cda5d602a1b604082015260600190565b6020808252601a90820152792a3434b99030b1b1b7bab73a1034b9903737ba102237b1ba37b960311b604082015260600190565b6020808252601b908201527a02a3434b99020b1b1b7bab73a1034b9902437b9b834ba30b610909602d1b604082015260600190565b76020b1b1b2b9b9a1b7b73a3937b61d1030b1b1b7bab73a1604d1b815260008351615d38816017850160208801614dd9565b7001034b99036b4b9b9b4b733903937b6329607d1b6017918401918201528351615d69816028840160208801614dd9565b01602801949350505050565b602081526000614c456020830184614dfd565b808202811582820484141761054f5761054f615969565b600081615dae57615dae615969565b50600019019056fe72606200fac42b7dc86b75901d61ecfab2a4a1a6eded478b97a428094891abed0af1dac7dea2fd7f7738119cec7df099dfad49aa9d2e7d17ba6b60f63ae7411fa49807205ce4d355092ef5a8a18f56e8913cf4a201fbe287825b095693c21775c8f5b4140cca307cd927e59cbeea8291bffeee228fc677f0fa059aef7b4dd8d5a26469706673582212200399cf1fb2dcd151034ab5f95333856aa2679cd16a893499ae7a5b5c640f077f64736f6c63430008130033",
  "immutableReferences": {},
  "source": "// SPDX-License-Identifier: GPL-3.0\r\npragma solidity ^0.8.0;\r\n\r\n\r\nimport \"@openzeppelin/contracts/access/AccessControl.sol\";\r\n\r\ncontract MedRecChain is AccessControl {\r\n\r\n    //ROLES\r\n    bytes32 public constant ADMIN_ROLE= keccak256(\"ADMIN_ROLE\");\r\n    bytes32 public constant HOSPITAL_ROLE= keccak256(\"HOSPITAL_ROLE\");\r\n    bytes32 public constant DOCTOR_ROLE= keccak256(\"DOCTOR_ROLE\");\r\n    bytes32 public constant PATIENT_ROLE= keccak256(\"PATIENT_ROLE\");\r\n\r\n    \r\n    // Admin refers to government, It hard coded by us.\r\n    address public Admin = 0x4e15105D84a095B7F3b5C8f0514A0DF150e13F9e;\r\n    \r\n    // [_patient][_doctor] = bool\r\n    mapping (address=>mapping (address =>bool)) isAuth;\r\n\r\n\r\n    struct Hospital\r\n    {\r\n        uint256 id;\r\n        string name;\r\n        address addr;\r\n        string place;\r\n        uint256 phone;\r\n\r\n        \r\n    }\r\n\r\n    mapping(address=>Hospital) Hospitals;\r\n    address[] public Hospitals_keys;\r\n    \r\n\r\n    struct patient\r\n    {\r\n\r\n        uint256 id;\r\n        string name;\r\n        string email;\r\n        string National_Addr;\r\n        uint256 National_id;\r\n        uint256 age;\r\n        address PatientAddress;\r\n        uint256 phone;\r\n        string Blood_Type;\r\n        string marital_status;\r\n        string gender;\r\n        address hospital_addr;\r\n        \r\n        record[] Records;\r\n        \r\n    }\r\n\r\n    mapping(address=>patient) patients;\r\n    address[] private patients_keys;\r\n\r\n    struct doctor{\r\n\r\n        uint256 id;\r\n        string name;\r\n        address hospital_addr;\r\n        uint256 phone;\r\n        string email;\r\n        uint256 age;\r\n        string place;\r\n        string Medical_specialty;\r\n        address docAddress;\r\n    \r\n    }\r\n\r\n    mapping(address=>doctor) doctors;\r\n    address[] private doctors_keys;\r\n\r\n\r\n    struct record {\r\n\r\n        uint Medical_id;\r\n\r\n        string category;\r\n        string patient_name;\r\n        string rec_name;\r\n        string Created_at;\r\n        address patient_addr;\r\n        address doctor_addr;\r\n        string hex_ipfs;  // file, image date\r\n        string notes;\r\n    }\r\n\r\n \r\n    // for Ids\r\n    uint256 Hospital_index;\r\n    uint256 Doctor_index;\r\n    uint256 Patient_index;\r\n    uint256 Record_index;\r\n    uint256 Request_index;\r\n     \r\n\r\n    \r\n    constructor() {\r\n         _setupRole(ADMIN_ROLE,Admin);\r\n    }\r\n\r\n    // function to know who logg in\r\n     function logg() public view returns(uint  role){\r\n        if(hasRole(ADMIN_ROLE, msg.sender))\r\n        {return 1;}\r\n        else if(hasRole(HOSPITAL_ROLE, msg.sender))\r\n        {return 2;} \r\n        else if(hasRole(DOCTOR_ROLE, msg.sender))\r\n        {return 3;} \r\n        else if(hasRole(PATIENT_ROLE, msg.sender))\r\n        {return 4;}\r\n        else\r\n        {return 0;}\r\n     \r\n    }\r\n\r\n    //To check the role of who deploye the contract. \r\n    modifier onlyAdmin(){ \r\n        require(hasRole(ADMIN_ROLE, msg.sender),\"Only superAdmin has permission to do that action\");\r\n        _;\r\n    }\r\n\r\n    modifier onlyHospital(){\r\n        require(hasRole(HOSPITAL_ROLE, msg.sender), \"This account is not Hospital\");\r\n        _;\r\n    }\r\n    modifier onlydoctors(){\r\n        require(hasRole(DOCTOR_ROLE, msg.sender), \"This account is not Doctor\");\r\n        _;\r\n    }\r\n    modifier onlypatient(){\r\n         require(hasRole(PATIENT_ROLE, msg.sender), \"This account is not patient\");\r\n        _;\r\n    \r\n    }\r\n\r\n//////////////////////////////////////\r\n\r\n    //Tasks done by Admin (defult exisit)\r\n    //1. add hospital\r\n    //2. delete hospital\r\n    //3. add doctor\r\n    //4. delete doctor\r\n    //5. see all hospital in system\r\n    //6. see all doctors in system\r\n\r\n\r\n    function addhospital(string memory _name, address _address, string memory _place, uint256 _phone) public onlyAdmin returns(bool success){\r\n        require(!hasRole(HOSPITAL_ROLE, _address), \"This hospital is really exisit!! \");\r\n        require(!hasRole(ADMIN_ROLE, _address), \"This Account is Admin!! \");\r\n        require(!hasRole(DOCTOR_ROLE, _address), \"This Account is Doctor!! \");\r\n        require(!hasRole(PATIENT_ROLE, _address), \"This Account is Patient!! \");\r\n\r\n         _setupRole(HOSPITAL_ROLE, _address);\r\n        Hospital_index= Hospital_index+1;\r\n        Hospitals[_address]=Hospital(Hospital_index, _name, _address, _place, _phone); \r\n        Hospitals_keys.push(_address);\r\n        return true;\r\n    }\r\n\r\n    function removeitem_hos(address _hosAddress ) public  {\r\n    require(Hospitals_keys.length > 0, \"No keys in array\");\r\n        for (uint i = 0; i < Hospitals_keys.length; i++) {\r\n            if (keccak256(abi.encodePacked(Hospitals_keys[i])) == keccak256(abi.encodePacked(_hosAddress))) {\r\n                delete Hospitals_keys[i];\r\n                uint lastIndex =Hospitals_keys.length-1;\r\n                address  lastId = Hospitals_keys[lastIndex];\r\n                Hospitals_keys[i]=lastId;\r\n                Hospitals_keys.pop();\r\n                break;\r\n            }\r\n        }\r\n    }\r\n\r\n    function removehospital(address _address) public onlyAdmin returns(bool success){\r\n        require(hasRole(HOSPITAL_ROLE, _address), \"This hospital is not exisit\");\r\n        _revokeRole(HOSPITAL_ROLE,_address);\r\n        delete Hospitals[_address];\r\n        removeitem_hos(_address);\r\n        return true;\r\n    }\r\n\r\n    function get_all_hospitals() public view onlyAdmin returns(Hospital[] memory){\r\n        Hospital[] memory hos = new Hospital[](Hospitals_keys.length);\r\n        for (uint256 i = 0; i < Hospitals_keys.length; i++) {\r\n            hos[i] = Hospitals[Hospitals_keys[i]];\r\n        }\r\n        return hos;\r\n    }\r\n\r\n  ///////////////\r\n\r\n    function addDoctor(string memory _name, address _hospital_addr, uint256  _phone, string memory _email, uint256  _age, string memory _place, string memory _Medical_specialty, address  _docAddress) public onlyAdmin returns(bool success){\r\n        require(!hasRole(DOCTOR_ROLE, _docAddress), \"This account already a doctor\");\r\n        require(!hasRole(ADMIN_ROLE, _docAddress), \"This Account is Admin!! \");\r\n        require(!hasRole(HOSPITAL_ROLE, _docAddress), \"This Account is Hospital!! \");\r\n        require(!hasRole(PATIENT_ROLE, _docAddress), \"This Account is Patient!! \");\r\n        require(hasRole(HOSPITAL_ROLE, _hospital_addr), \"This hospital is really exisit!! \");\r\n        _setupRole(DOCTOR_ROLE, _docAddress);\r\n        Doctor_index= Doctor_index+1;\r\n        doctors[_docAddress]=doctor(Doctor_index, _name, _hospital_addr, _phone,  _email,  _age,  _place,  _Medical_specialty, _docAddress); \r\n        doctors_keys.push(_docAddress);\r\n        return true;\r\n    }\r\n\r\n\r\n   function removeitem_doc(address _docAddress ) public {\r\n    require(doctors_keys.length > 0, \"No keys in array\");\r\n        for (uint i = 0; i < doctors_keys.length; i++) {\r\n            if (keccak256(abi.encodePacked(doctors_keys[i])) == keccak256(abi.encodePacked(_docAddress))) {\r\n                delete doctors_keys[i];\r\n                uint lastIndex =doctors_keys.length-1;\r\n                address  lastId = doctors_keys[lastIndex];\r\n                doctors_keys[i]=lastId;\r\n                doctors_keys.pop();\r\n                break;\r\n            }\r\n        }\r\n    }\r\n    \r\n    function removeDoctor(address _docAddress) public onlyAdmin returns(bool success){\r\n        require(hasRole(DOCTOR_ROLE, _docAddress),\"This account not exisit\");\r\n        delete doctors[_docAddress];\r\n        _revokeRole(DOCTOR_ROLE,_docAddress);\r\n        removeitem_doc(_docAddress);\r\n        return true;\r\n    }\r\n\r\n    function get_all_Doctors() public view  returns(doctor[] memory){\r\n        doctor[] memory doc = new doctor[](doctors_keys.length);\r\n        for (uint256 i = 0; i < doctors_keys.length; i++) {\r\n            doc[i] = doctors[doctors_keys[i]];\r\n        }\r\n        return doc;\r\n    }\r\n\r\n    function get_record_number() public view  returns(uint256 i){\r\n        uint256 total;\r\n        for (uint256 a = 0; a < patients_keys.length; a++) {\r\n        total += patients[patients_keys[a]].Records.length;\r\n    }\r\n    return total;\r\n    }\r\n\r\n///////////////////////////////////////////\r\n\r\n    // Tasks done by Hospitals (sign in )\r\n    //1. add patient\r\n    //2.See his profile\r\n    //3.see all patients\r\n   \r\n\r\n   function get_hospita_by_address(address _addr) view public returns(Hospital memory) {\r\n    return (Hospitals[_addr]);\r\n    }\r\n\r\n    \r\n       \r\n\r\n\r\n    function addPatient(string memory _name, string memory _email, string memory _National_Addr, uint256  _National_id, uint256  _age, address _PatientAddress, uint256 _phone, string memory _Blood_Type, string memory _marital_status, string memory _gender) public onlyHospital returns(bool success){\r\n        require(!hasRole(PATIENT_ROLE, _PatientAddress), \"This account already a patient\");\r\n        require(!hasRole(ADMIN_ROLE, _PatientAddress), \"This Account is Admin!! \");\r\n        require(!hasRole(DOCTOR_ROLE, _PatientAddress), \"This Account is Doctor!! \");\r\n        require(!hasRole(HOSPITAL_ROLE, _PatientAddress), \"This Account is Hospital!! \");\r\n        _setupRole(PATIENT_ROLE, _PatientAddress);\r\n        Patient_index= Patient_index+1;\r\n        patients[_PatientAddress].id=Patient_index;\r\n        patients[_PatientAddress].PatientAddress=_PatientAddress;\r\n        patients[_PatientAddress].name=_name;\r\n        patients[_PatientAddress].email=_email;\r\n        patients[_PatientAddress].National_Addr=_National_Addr;\r\n        patients[_PatientAddress].National_id=_National_id;\r\n        patients[_PatientAddress].age=_age;\r\n        patients[_PatientAddress].phone=_phone;\r\n        patients[_PatientAddress].Blood_Type=_Blood_Type;\r\n        patients[_PatientAddress].marital_status=_marital_status;\r\n        patients[_PatientAddress].gender=_gender;\r\n        patients[_PatientAddress].hospital_addr=msg.sender;\r\n\r\n        patients_keys.push(_PatientAddress);\r\n        return true;\r\n    }\r\n\r\n    function get_all_Patients() public view returns(patient[] memory){\r\n        patient[] memory pat = new patient[](patients_keys.length);\r\n        for (uint256 i = 0; i < patients_keys.length; i++) {\r\n            pat[i] = patients[patients_keys[i]];\r\n        }\r\n        return pat;\r\n    }\r\n\r\n//////////////////////////////////////////////\r\n\r\n    // Tasks done by Doctor (sign in)\r\n\r\n    // 1. send request to patient\r\n    // 2. see record (has be accepted)\r\n    // 3. add record (has be accepted)\r\n    // 4.view his profile info\r\n    // 5.show requests by id & show their status\r\n\r\n\r\n    function get_doctor_by_address(address _addr) view public  returns(doctor memory) {\r\n    return (doctors[_addr]);\r\n    }\r\n\r\n\r\n    \r\n    struct request\r\n    {\r\n        uint id;\r\n        address from_doctor_addr;\r\n        address to_patients_addr;\r\n        uint256 date;\r\n        string patient_name;\r\n        string doctor_name;\r\n    }\r\n      \r\n    request[] public requests;\r\n\r\n    function checkRequestExists(address _from_doctor_addr ,address _to_patients_addr) public view returns (bool) {\r\n        for (uint i = 0; i < requests.length; i++) {\r\n            if ( ((requests[i].from_doctor_addr) == (_from_doctor_addr)) && ((requests[i].to_patients_addr)==(_to_patients_addr)) ) {\r\n                return true;\r\n                }\r\n        }\r\n    return false;\r\n    }\r\n\r\n\r\n\r\n    function send_request_Access(address _patient,address _doctor) public returns(bool success) {\r\n        require(hasRole(PATIENT_ROLE, _patient), \"The person you are requesting access to is not a Patient\");\r\n        require(!checkRequestExists(_doctor,_patient),\"already send a request\");\r\n        Request_index=Request_index+1;\r\n        patient memory pati = get_patient_by_address(_patient);\r\n        doctor memory doc = get_doctor_by_address(_doctor);\r\n        requests.push(request(Request_index,_doctor,_patient,block.timestamp,pati.name,doc.name));\r\n        return true;\r\n    }\r\n\r\n     function get_all_requests() view public returns(request[] memory) {\r\n        //IN JS convert a Unix timestamp to a human-readable\r\n        // const unixTimestamp = date.currentTimestamp();\r\n        // const date = new Date(unixTimestamp * 1000);\r\n        // const humanReadableDate = date.toLocaleString();\r\n\r\n        // Also, be handled, cause it show all requests at blockchain NOT whose patient's requests \r\n        // it will be solved by check\r\n        // for (i=0 ; i<requests.lenght;i++ ){\r\n        // \"if (requests.to_patients_addr == accounts[0]){....}\" \r\n        //}\r\n        return (requests);\r\n\r\n    }\r\n\r\n        \r\n    function addRecord( string memory _category, string  memory _patient_name, string memory _rec_name, string  memory _Created_at, address _patientAddr, address _doctor_addr, string memory _hex_ipfs, string memory _notes) onlydoctors public returns(bool){\r\n        require(hasRole(PATIENT_ROLE, _patientAddr),\"This patients is not exisit\");\r\n        require(isAuth[_patientAddr][msg.sender],\"No permission to add Records\");\r\n        require(_doctor_addr == msg.sender, \"No permission to this Doctor\" );\r\n        Record_index=Record_index+1;\r\n        patients[_patientAddr].Records.push(record(Record_index, _category, _patient_name, _rec_name, _Created_at, _patientAddr, _doctor_addr, _hex_ipfs, _notes));\r\n        return true;\r\n    }\r\n\r\n    \r\n\r\n\r\n    function See_Record_for_Doctor(address _patientAddr)  view public returns(record[] memory){\r\n       require(isAuth[_patientAddr][msg.sender],\"No permission to get Records\");\r\n        require(hasRole(PATIENT_ROLE, _patientAddr),\"This patients is not exisit\");\r\n        require(patients[_patientAddr].Records.length>0,\"patient record doesn't exist\");\r\n        return (patients[_patientAddr].Records);\r\n\r\n    }\r\n\r\n\r\n\r\n///////////////////////////////////\r\n\r\n    //Tasks done by Patient (sign in)\r\n\r\n    //1.view his all records\r\n    //2.accept request sended by doctor\r\n    //3.rejected request sended by doctor\r\n    //4.give permission to doctor bt himself\r\n    //5.see requestes from doctors\r\n    //6.view his profile info\r\n\r\n\r\n\r\n    function get_patient_by_address(address _addr) view public  returns(patient memory) {\r\n    return (patients[_addr]);\r\n    }\r\n\r\n\r\n\r\n     function See_Record_for_Patient()  view public returns(record[] memory){\r\n        require(patients[msg.sender].Records.length > 0,\"patient record doesn't exist\");\r\n        return (patients[msg.sender].Records);\r\n\r\n    }\r\n\r\n    function approveAccess(address _doctor) onlypatient  public {   \r\n        require(hasRole(DOCTOR_ROLE, _doctor), \"this acount is not a doctor \");\r\n        require((isAuth[msg.sender][_doctor]) == false, \"This Request alraedy been Approved!! \");\r\n        isAuth[msg.sender][_doctor] = true;\r\n    }\r\n\r\n    function check_approve_Access(address _doctor, address _patient) view onlydoctors public returns(bool ) {\r\n            return(isAuth[_patient][_doctor]);\r\n        }\r\n\r\n\r\n   function DeleteRequest(address doc, address pat ) public  {\r\n    require(requests.length > 0, \"No keys in array\");\r\n        for (uint i = 0; i < requests.length; i++) {\r\n            if( (keccak256(abi.encodePacked(requests[i].from_doctor_addr)) == keccak256(abi.encodePacked(doc))) && (keccak256(abi.encodePacked(requests[i].to_patients_addr)) == keccak256(abi.encodePacked(pat)))) {\r\n                delete requests[i];\r\n                uint lastIndex =requests.length-1;\r\n                request memory lastId = requests[lastIndex];\r\n                requests[i]=lastId;\r\n                requests.pop();\r\n                break;\r\n            }\r\n        }\r\n    }\r\n\r\n\r\n\r\n    function rejectAccess(address _doctor) onlypatient public {\r\n        require(hasRole(DOCTOR_ROLE, _doctor), \"Doctor does not have the doctor role\");\r\n     //   require((isAuth[msg.sender][_doctor]) == true, \"This Request alraedy been Reject!! \");\r\n        isAuth[msg.sender][_doctor] = false;\r\n        DeleteRequest(_doctor,msg.sender);\r\n    }\r\n\r\n   \r\n\r\n}",
  "sourcePath": "D:\\graduationPro\\penultimate-modification\\contracts\\MedRecChain.sol",
  "compiler": {
    "name": "solc",
    "version": "0.8.19+commit.7dd6d404.Emscripten.clang"
  },
  "schemaVersion": "3.4.14",
  "updatedAt": "2023-05-23T15:51:26.871Z",
  "networkType": "ethereum",
  "devdoc": {
    "events": {
      "RoleAdminChanged(bytes32,bytes32,bytes32)": {
        "details": "Emitted when `newAdminRole` is set as ``role``'s admin role, replacing `previousAdminRole` `DEFAULT_ADMIN_ROLE` is the starting admin for all roles, despite {RoleAdminChanged} not being emitted signaling this. _Available since v3.1._"
      },
      "RoleGranted(bytes32,address,address)": {
        "details": "Emitted when `account` is granted `role`. `sender` is the account that originated the contract call, an admin role bearer except when using {AccessControl-_setupRole}."
      },
      "RoleRevoked(bytes32,address,address)": {
        "details": "Emitted when `account` is revoked `role`. `sender` is the account that originated the contract call:   - if using `revokeRole`, it is the admin role bearer   - if using `renounceRole`, it is the role bearer (i.e. `account`)"
      }
    },
    "kind": "dev",
    "methods": {
      "getRoleAdmin(bytes32)": {
        "details": "Returns the admin role that controls `role`. See {grantRole} and {revokeRole}. To change a role's admin, use {_setRoleAdmin}."
      },
      "grantRole(bytes32,address)": {
        "details": "Grants `role` to `account`. If `account` had not been already granted `role`, emits a {RoleGranted} event. Requirements: - the caller must have ``role``'s admin role. May emit a {RoleGranted} event."
      },
      "hasRole(bytes32,address)": {
        "details": "Returns `true` if `account` has been granted `role`."
      },
      "renounceRole(bytes32,address)": {
        "details": "Revokes `role` from the calling account. Roles are often managed via {grantRole} and {revokeRole}: this function's purpose is to provide a mechanism for accounts to lose their privileges if they are compromised (such as when a trusted device is misplaced). If the calling account had been revoked `role`, emits a {RoleRevoked} event. Requirements: - the caller must be `account`. May emit a {RoleRevoked} event."
      },
      "revokeRole(bytes32,address)": {
        "details": "Revokes `role` from `account`. If `account` had been granted `role`, emits a {RoleRevoked} event. Requirements: - the caller must have ``role``'s admin role. May emit a {RoleRevoked} event."
      },
      "supportsInterface(bytes4)": {
        "details": "See {IERC165-supportsInterface}."
      }
    },
    "version": 1
  },
  "userdoc": {
    "kind": "user",
    "methods": {},
    "version": 1
  }
}