{
  "contractName": "MedRecChain",
  "abi": [
    {
      "inputs": [],
      "stateMutability": "nonpayable",
      "type": "constructor"
    },
    {
      "anonymous": false,
      "inputs": [
        {
          "indexed": true,
          "internalType": "address",
          "name": "Doctor_Address",
          "type": "address"
        },
        {
          "indexed": true,
          "internalType": "address",
          "name": "Patient_Address",
          "type": "address"
        }
      ],
      "name": "AccessGranted",
      "type": "event"
    },
    {
      "anonymous": false,
      "inputs": [
        {
          "indexed": true,
          "internalType": "address",
          "name": "Doctor_Address",
          "type": "address"
        },
        {
          "indexed": true,
          "internalType": "address",
          "name": "Patient_Address",
          "type": "address"
        }
      ],
      "name": "AccessRejected",
      "type": "event"
    },
    {
      "anonymous": false,
      "inputs": [
        {
          "indexed": true,
          "internalType": "address",
          "name": "Doctor_Address",
          "type": "address"
        }
      ],
      "name": "DoctorAdded",
      "type": "event"
    },
    {
      "anonymous": false,
      "inputs": [
        {
          "indexed": true,
          "internalType": "address",
          "name": "Doctor_Address",
          "type": "address"
        }
      ],
      "name": "DoctorRemoved",
      "type": "event"
    },
    {
      "anonymous": false,
      "inputs": [
        {
          "indexed": true,
          "internalType": "address",
          "name": "Doctor_Address",
          "type": "address"
        }
      ],
      "name": "DoctorUpdata",
      "type": "event"
    },
    {
      "anonymous": false,
      "inputs": [
        {
          "indexed": true,
          "internalType": "address",
          "name": "Hospital_Address",
          "type": "address"
        }
      ],
      "name": "HospitalAdded",
      "type": "event"
    },
    {
      "anonymous": false,
      "inputs": [
        {
          "indexed": true,
          "internalType": "address",
          "name": "Hospital_Address",
          "type": "address"
        }
      ],
      "name": "HospitalRemoved",
      "type": "event"
    },
    {
      "anonymous": false,
      "inputs": [
        {
          "indexed": true,
          "internalType": "address",
          "name": "Patient_Address",
          "type": "address"
        }
      ],
      "name": "PatientAdded",
      "type": "event"
    },
    {
      "anonymous": false,
      "inputs": [
        {
          "indexed": true,
          "internalType": "address",
          "name": "Patient_Address",
          "type": "address"
        }
      ],
      "name": "PatientUpdated",
      "type": "event"
    },
    {
      "anonymous": false,
      "inputs": [
        {
          "indexed": true,
          "internalType": "address",
          "name": "requester",
          "type": "address"
        },
        {
          "indexed": true,
          "internalType": "address",
          "name": "patient",
          "type": "address"
        }
      ],
      "name": "RequestAccess",
      "type": "event"
    },
    {
      "anonymous": false,
      "inputs": [
        {
          "indexed": true,
          "internalType": "bytes32",
          "name": "role",
          "type": "bytes32"
        },
        {
          "indexed": true,
          "internalType": "bytes32",
          "name": "previousAdminRole",
          "type": "bytes32"
        },
        {
          "indexed": true,
          "internalType": "bytes32",
          "name": "newAdminRole",
          "type": "bytes32"
        }
      ],
      "name": "RoleAdminChanged",
      "type": "event"
    },
    {
      "anonymous": false,
      "inputs": [
        {
          "indexed": true,
          "internalType": "bytes32",
          "name": "role",
          "type": "bytes32"
        },
        {
          "indexed": true,
          "internalType": "address",
          "name": "account",
          "type": "address"
        },
        {
          "indexed": true,
          "internalType": "address",
          "name": "sender",
          "type": "address"
        }
      ],
      "name": "RoleGranted",
      "type": "event"
    },
    {
      "anonymous": false,
      "inputs": [
        {
          "indexed": true,
          "internalType": "bytes32",
          "name": "role",
          "type": "bytes32"
        },
        {
          "indexed": true,
          "internalType": "address",
          "name": "account",
          "type": "address"
        },
        {
          "indexed": true,
          "internalType": "address",
          "name": "sender",
          "type": "address"
        }
      ],
      "name": "RoleRevoked",
      "type": "event"
    },
    {
      "inputs": [],
      "name": "ADMIN_ROLE",
      "outputs": [
        {
          "internalType": "bytes32",
          "name": "",
          "type": "bytes32"
        }
      ],
      "stateMutability": "view",
      "type": "function",
      "constant": true
    },
    {
      "inputs": [],
      "name": "Admin",
      "outputs": [
        {
          "internalType": "address",
          "name": "",
          "type": "address"
        }
      ],
      "stateMutability": "view",
      "type": "function",
      "constant": true
    },
    {
      "inputs": [],
      "name": "DEFAULT_ADMIN_ROLE",
      "outputs": [
        {
          "internalType": "bytes32",
          "name": "",
          "type": "bytes32"
        }
      ],
      "stateMutability": "view",
      "type": "function",
      "constant": true
    },
    {
      "inputs": [],
      "name": "DOCTOR_ROLE",
      "outputs": [
        {
          "internalType": "bytes32",
          "name": "",
          "type": "bytes32"
        }
      ],
      "stateMutability": "view",
      "type": "function",
      "constant": true
    },
    {
      "inputs": [],
      "name": "HOSPITAL_ROLE",
      "outputs": [
        {
          "internalType": "bytes32",
          "name": "",
          "type": "bytes32"
        }
      ],
      "stateMutability": "view",
      "type": "function",
      "constant": true
    },
    {
      "inputs": [],
      "name": "PATIENT_ROLE",
      "outputs": [
        {
          "internalType": "bytes32",
          "name": "",
          "type": "bytes32"
        }
      ],
      "stateMutability": "view",
      "type": "function",
      "constant": true
    },
    {
      "inputs": [
        {
          "internalType": "bytes32",
          "name": "role",
          "type": "bytes32"
        }
      ],
      "name": "getRoleAdmin",
      "outputs": [
        {
          "internalType": "bytes32",
          "name": "",
          "type": "bytes32"
        }
      ],
      "stateMutability": "view",
      "type": "function",
      "constant": true
    },
    {
      "inputs": [
        {
          "internalType": "bytes32",
          "name": "role",
          "type": "bytes32"
        },
        {
          "internalType": "address",
          "name": "account",
          "type": "address"
        }
      ],
      "name": "grantRole",
      "outputs": [],
      "stateMutability": "nonpayable",
      "type": "function"
    },
    {
      "inputs": [
        {
          "internalType": "bytes32",
          "name": "role",
          "type": "bytes32"
        },
        {
          "internalType": "address",
          "name": "account",
          "type": "address"
        }
      ],
      "name": "hasRole",
      "outputs": [
        {
          "internalType": "bool",
          "name": "",
          "type": "bool"
        }
      ],
      "stateMutability": "view",
      "type": "function",
      "constant": true
    },
    {
      "inputs": [
        {
          "internalType": "bytes32",
          "name": "role",
          "type": "bytes32"
        },
        {
          "internalType": "address",
          "name": "account",
          "type": "address"
        }
      ],
      "name": "renounceRole",
      "outputs": [],
      "stateMutability": "nonpayable",
      "type": "function"
    },
    {
      "inputs": [
        {
          "internalType": "uint256",
          "name": "",
          "type": "uint256"
        }
      ],
      "name": "requests",
      "outputs": [
        {
          "internalType": "uint256",
          "name": "id",
          "type": "uint256"
        },
        {
          "internalType": "address",
          "name": "from_doctor_addr",
          "type": "address"
        },
        {
          "internalType": "address",
          "name": "to_patients_addr",
          "type": "address"
        },
        {
          "internalType": "uint256",
          "name": "date",
          "type": "uint256"
        }
      ],
      "stateMutability": "view",
      "type": "function",
      "constant": true
    },
    {
      "inputs": [
        {
          "internalType": "bytes32",
          "name": "role",
          "type": "bytes32"
        },
        {
          "internalType": "address",
          "name": "account",
          "type": "address"
        }
      ],
      "name": "revokeRole",
      "outputs": [],
      "stateMutability": "nonpayable",
      "type": "function"
    },
    {
      "inputs": [
        {
          "internalType": "bytes4",
          "name": "interfaceId",
          "type": "bytes4"
        }
      ],
      "name": "supportsInterface",
      "outputs": [
        {
          "internalType": "bool",
          "name": "",
          "type": "bool"
        }
      ],
      "stateMutability": "view",
      "type": "function",
      "constant": true
    },
    {
      "inputs": [],
      "name": "logg",
      "outputs": [
        {
          "internalType": "uint256",
          "name": "role",
          "type": "uint256"
        }
      ],
      "stateMutability": "view",
      "type": "function",
      "constant": true
    },
    {
      "inputs": [
        {
          "internalType": "string",
          "name": "_name",
          "type": "string"
        },
        {
          "internalType": "address",
          "name": "_address",
          "type": "address"
        },
        {
          "internalType": "string",
          "name": "_place",
          "type": "string"
        },
        {
          "internalType": "uint256",
          "name": "_phone",
          "type": "uint256"
        }
      ],
      "name": "addhospital",
      "outputs": [
        {
          "internalType": "bool",
          "name": "success",
          "type": "bool"
        }
      ],
      "stateMutability": "nonpayable",
      "type": "function"
    },
    {
      "inputs": [
        {
          "internalType": "address",
          "name": "_hosAddress",
          "type": "address"
        }
      ],
      "name": "removeitem_hos",
      "outputs": [],
      "stateMutability": "nonpayable",
      "type": "function"
    },
    {
      "inputs": [
        {
          "internalType": "address",
          "name": "_address",
          "type": "address"
        }
      ],
      "name": "removehospital",
      "outputs": [
        {
          "internalType": "bool",
          "name": "success",
          "type": "bool"
        }
      ],
      "stateMutability": "nonpayable",
      "type": "function"
    },
    {
      "inputs": [],
      "name": "get_all_hospitals",
      "outputs": [
        {
          "components": [
            {
              "internalType": "uint256",
              "name": "id",
              "type": "uint256"
            },
            {
              "internalType": "string",
              "name": "name",
              "type": "string"
            },
            {
              "internalType": "address",
              "name": "addr",
              "type": "address"
            },
            {
              "internalType": "string",
              "name": "place",
              "type": "string"
            },
            {
              "internalType": "uint256",
              "name": "phone",
              "type": "uint256"
            }
          ],
          "internalType": "struct MedRecChain.Hospital[]",
          "name": "",
          "type": "tuple[]"
        }
      ],
      "stateMutability": "view",
      "type": "function",
      "constant": true
    },
    {
      "inputs": [
        {
          "internalType": "string",
          "name": "_name",
          "type": "string"
        },
        {
          "internalType": "string",
          "name": "_hospital_name",
          "type": "string"
        },
        {
          "internalType": "uint256",
          "name": "_phone",
          "type": "uint256"
        },
        {
          "internalType": "string",
          "name": "_email",
          "type": "string"
        },
        {
          "internalType": "uint256",
          "name": "_age",
          "type": "uint256"
        },
        {
          "internalType": "string",
          "name": "_place",
          "type": "string"
        },
        {
          "internalType": "string",
          "name": "_Medical_specialty",
          "type": "string"
        },
        {
          "internalType": "address",
          "name": "_docAddress",
          "type": "address"
        }
      ],
      "name": "addDoctor",
      "outputs": [
        {
          "internalType": "bool",
          "name": "success",
          "type": "bool"
        }
      ],
      "stateMutability": "nonpayable",
      "type": "function"
    },
    {
      "inputs": [
        {
          "internalType": "address",
          "name": "_docAddress",
          "type": "address"
        }
      ],
      "name": "removeitem_doc",
      "outputs": [],
      "stateMutability": "nonpayable",
      "type": "function"
    },
    {
      "inputs": [
        {
          "internalType": "address",
          "name": "_docAddress",
          "type": "address"
        }
      ],
      "name": "removeDoctor",
      "outputs": [
        {
          "internalType": "bool",
          "name": "success",
          "type": "bool"
        }
      ],
      "stateMutability": "nonpayable",
      "type": "function"
    },
    {
      "inputs": [],
      "name": "get_all_Doctors",
      "outputs": [
        {
          "components": [
            {
              "internalType": "uint256",
              "name": "id",
              "type": "uint256"
            },
            {
              "internalType": "string",
              "name": "name",
              "type": "string"
            },
            {
              "internalType": "string",
              "name": "hospital_name",
              "type": "string"
            },
            {
              "internalType": "uint256",
              "name": "phone",
              "type": "uint256"
            },
            {
              "internalType": "string",
              "name": "email",
              "type": "string"
            },
            {
              "internalType": "uint256",
              "name": "age",
              "type": "uint256"
            },
            {
              "internalType": "string",
              "name": "place",
              "type": "string"
            },
            {
              "internalType": "string",
              "name": "Medical_specialty",
              "type": "string"
            },
            {
              "internalType": "address",
              "name": "docAddress",
              "type": "address"
            }
          ],
          "internalType": "struct MedRecChain.doctor[]",
          "name": "",
          "type": "tuple[]"
        }
      ],
      "stateMutability": "view",
      "type": "function",
      "constant": true
    },
    {
      "inputs": [],
      "name": "get_record_number",
      "outputs": [
        {
          "internalType": "uint256",
          "name": "i",
          "type": "uint256"
        }
      ],
      "stateMutability": "view",
      "type": "function",
      "constant": true
    },
    {
      "inputs": [
        {
          "internalType": "address",
          "name": "_addr",
          "type": "address"
        }
      ],
      "name": "get_hospita_by_address",
      "outputs": [
        {
          "components": [
            {
              "internalType": "uint256",
              "name": "id",
              "type": "uint256"
            },
            {
              "internalType": "string",
              "name": "name",
              "type": "string"
            },
            {
              "internalType": "address",
              "name": "addr",
              "type": "address"
            },
            {
              "internalType": "string",
              "name": "place",
              "type": "string"
            },
            {
              "internalType": "uint256",
              "name": "phone",
              "type": "uint256"
            }
          ],
          "internalType": "struct MedRecChain.Hospital",
          "name": "",
          "type": "tuple"
        }
      ],
      "stateMutability": "view",
      "type": "function",
      "constant": true
    },
    {
      "inputs": [
        {
          "internalType": "string",
          "name": "_name",
          "type": "string"
        },
        {
          "internalType": "string",
          "name": "_email",
          "type": "string"
        },
        {
          "internalType": "string",
          "name": "_National_Addr",
          "type": "string"
        },
        {
          "internalType": "uint256",
          "name": "_National_id",
          "type": "uint256"
        },
        {
          "internalType": "uint256",
          "name": "_age",
          "type": "uint256"
        },
        {
          "internalType": "address",
          "name": "_PatientAddress",
          "type": "address"
        },
        {
          "internalType": "uint256",
          "name": "_phone",
          "type": "uint256"
        },
        {
          "internalType": "string",
          "name": "_Blood_Type",
          "type": "string"
        },
        {
          "internalType": "string",
          "name": "_marital_status",
          "type": "string"
        },
        {
          "internalType": "string",
          "name": "_gender",
          "type": "string"
        }
      ],
      "name": "addPatient",
      "outputs": [
        {
          "internalType": "bool",
          "name": "success",
          "type": "bool"
        }
      ],
      "stateMutability": "nonpayable",
      "type": "function"
    },
    {
      "inputs": [],
      "name": "get_all_Patients",
      "outputs": [
        {
          "components": [
            {
              "internalType": "uint256",
              "name": "id",
              "type": "uint256"
            },
            {
              "internalType": "string",
              "name": "name",
              "type": "string"
            },
            {
              "internalType": "string",
              "name": "email",
              "type": "string"
            },
            {
              "internalType": "string",
              "name": "National_Addr",
              "type": "string"
            },
            {
              "internalType": "uint256",
              "name": "National_id",
              "type": "uint256"
            },
            {
              "internalType": "uint256",
              "name": "age",
              "type": "uint256"
            },
            {
              "internalType": "address",
              "name": "PatientAddress",
              "type": "address"
            },
            {
              "internalType": "uint256",
              "name": "phone",
              "type": "uint256"
            },
            {
              "internalType": "string",
              "name": "Blood_Type",
              "type": "string"
            },
            {
              "internalType": "string",
              "name": "marital_status",
              "type": "string"
            },
            {
              "internalType": "string",
              "name": "gender",
              "type": "string"
            },
            {
              "components": [
                {
                  "internalType": "uint256",
                  "name": "Medical_id",
                  "type": "uint256"
                },
                {
                  "internalType": "string",
                  "name": "category",
                  "type": "string"
                },
                {
                  "internalType": "string",
                  "name": "patient_name",
                  "type": "string"
                },
                {
                  "internalType": "string",
                  "name": "rec_name",
                  "type": "string"
                },
                {
                  "internalType": "string",
                  "name": "Created_at",
                  "type": "string"
                },
                {
                  "internalType": "address",
                  "name": "patient_addr",
                  "type": "address"
                },
                {
                  "internalType": "address",
                  "name": "doctor_addr",
                  "type": "address"
                },
                {
                  "internalType": "string",
                  "name": "hex_ipfs",
                  "type": "string"
                }
              ],
              "internalType": "struct MedRecChain.record[]",
              "name": "Records",
              "type": "tuple[]"
            }
          ],
          "internalType": "struct MedRecChain.patient[]",
          "name": "",
          "type": "tuple[]"
        }
      ],
      "stateMutability": "view",
      "type": "function",
      "constant": true
    },
    {
      "inputs": [
        {
          "internalType": "address",
          "name": "_addr",
          "type": "address"
        }
      ],
      "name": "get_doctor_by_address",
      "outputs": [
        {
          "components": [
            {
              "internalType": "uint256",
              "name": "id",
              "type": "uint256"
            },
            {
              "internalType": "string",
              "name": "name",
              "type": "string"
            },
            {
              "internalType": "string",
              "name": "hospital_name",
              "type": "string"
            },
            {
              "internalType": "uint256",
              "name": "phone",
              "type": "uint256"
            },
            {
              "internalType": "string",
              "name": "email",
              "type": "string"
            },
            {
              "internalType": "uint256",
              "name": "age",
              "type": "uint256"
            },
            {
              "internalType": "string",
              "name": "place",
              "type": "string"
            },
            {
              "internalType": "string",
              "name": "Medical_specialty",
              "type": "string"
            },
            {
              "internalType": "address",
              "name": "docAddress",
              "type": "address"
            }
          ],
          "internalType": "struct MedRecChain.doctor",
          "name": "",
          "type": "tuple"
        }
      ],
      "stateMutability": "view",
      "type": "function",
      "constant": true
    },
    {
      "inputs": [
        {
          "internalType": "address",
          "name": "_from_doctor_addr",
          "type": "address"
        },
        {
          "internalType": "address",
          "name": "_to_patients_addr",
          "type": "address"
        }
      ],
      "name": "checkRequestExists",
      "outputs": [
        {
          "internalType": "bool",
          "name": "",
          "type": "bool"
        }
      ],
      "stateMutability": "view",
      "type": "function",
      "constant": true
    },
    {
      "inputs": [
        {
          "internalType": "address",
          "name": "_patient",
          "type": "address"
        }
      ],
      "name": "send_request_Access",
      "outputs": [
        {
          "internalType": "bool",
          "name": "success",
          "type": "bool"
        }
      ],
      "stateMutability": "nonpayable",
      "type": "function"
    },
    {
      "inputs": [],
      "name": "get_all_requests",
      "outputs": [
        {
          "components": [
            {
              "internalType": "uint256",
              "name": "id",
              "type": "uint256"
            },
            {
              "internalType": "address",
              "name": "from_doctor_addr",
              "type": "address"
            },
            {
              "internalType": "address",
              "name": "to_patients_addr",
              "type": "address"
            },
            {
              "internalType": "uint256",
              "name": "date",
              "type": "uint256"
            }
          ],
          "internalType": "struct MedRecChain.request[]",
          "name": "",
          "type": "tuple[]"
        }
      ],
      "stateMutability": "view",
      "type": "function",
      "constant": true
    },
    {
      "inputs": [
        {
          "internalType": "string",
          "name": "_category",
          "type": "string"
        },
        {
          "internalType": "string",
          "name": "_patient_name",
          "type": "string"
        },
        {
          "internalType": "string",
          "name": "_rec_name",
          "type": "string"
        },
        {
          "internalType": "string",
          "name": "_Created_at",
          "type": "string"
        },
        {
          "internalType": "address",
          "name": "_patientAddr",
          "type": "address"
        },
        {
          "internalType": "address",
          "name": "_doctor_addr",
          "type": "address"
        },
        {
          "internalType": "string",
          "name": "_hex_ipfs",
          "type": "string"
        }
      ],
      "name": "addRecord",
      "outputs": [
        {
          "internalType": "bool",
          "name": "",
          "type": "bool"
        }
      ],
      "stateMutability": "nonpayable",
      "type": "function"
    },
    {
      "inputs": [
        {
          "internalType": "address",
          "name": "_patientAddr",
          "type": "address"
        }
      ],
      "name": "See_Record_for_Doctor",
      "outputs": [
        {
          "components": [
            {
              "internalType": "uint256",
              "name": "Medical_id",
              "type": "uint256"
            },
            {
              "internalType": "string",
              "name": "category",
              "type": "string"
            },
            {
              "internalType": "string",
              "name": "patient_name",
              "type": "string"
            },
            {
              "internalType": "string",
              "name": "rec_name",
              "type": "string"
            },
            {
              "internalType": "string",
              "name": "Created_at",
              "type": "string"
            },
            {
              "internalType": "address",
              "name": "patient_addr",
              "type": "address"
            },
            {
              "internalType": "address",
              "name": "doctor_addr",
              "type": "address"
            },
            {
              "internalType": "string",
              "name": "hex_ipfs",
              "type": "string"
            }
          ],
          "internalType": "struct MedRecChain.record[]",
          "name": "",
          "type": "tuple[]"
        }
      ],
      "stateMutability": "view",
      "type": "function",
      "constant": true
    },
    {
      "inputs": [
        {
          "internalType": "address",
          "name": "_addr",
          "type": "address"
        }
      ],
      "name": "get_patient_by_address",
      "outputs": [
        {
          "components": [
            {
              "internalType": "uint256",
              "name": "id",
              "type": "uint256"
            },
            {
              "internalType": "string",
              "name": "name",
              "type": "string"
            },
            {
              "internalType": "string",
              "name": "email",
              "type": "string"
            },
            {
              "internalType": "string",
              "name": "National_Addr",
              "type": "string"
            },
            {
              "internalType": "uint256",
              "name": "National_id",
              "type": "uint256"
            },
            {
              "internalType": "uint256",
              "name": "age",
              "type": "uint256"
            },
            {
              "internalType": "address",
              "name": "PatientAddress",
              "type": "address"
            },
            {
              "internalType": "uint256",
              "name": "phone",
              "type": "uint256"
            },
            {
              "internalType": "string",
              "name": "Blood_Type",
              "type": "string"
            },
            {
              "internalType": "string",
              "name": "marital_status",
              "type": "string"
            },
            {
              "internalType": "string",
              "name": "gender",
              "type": "string"
            },
            {
              "components": [
                {
                  "internalType": "uint256",
                  "name": "Medical_id",
                  "type": "uint256"
                },
                {
                  "internalType": "string",
                  "name": "category",
                  "type": "string"
                },
                {
                  "internalType": "string",
                  "name": "patient_name",
                  "type": "string"
                },
                {
                  "internalType": "string",
                  "name": "rec_name",
                  "type": "string"
                },
                {
                  "internalType": "string",
                  "name": "Created_at",
                  "type": "string"
                },
                {
                  "internalType": "address",
                  "name": "patient_addr",
                  "type": "address"
                },
                {
                  "internalType": "address",
                  "name": "doctor_addr",
                  "type": "address"
                },
                {
                  "internalType": "string",
                  "name": "hex_ipfs",
                  "type": "string"
                }
              ],
              "internalType": "struct MedRecChain.record[]",
              "name": "Records",
              "type": "tuple[]"
            }
          ],
          "internalType": "struct MedRecChain.patient",
          "name": "",
          "type": "tuple"
        }
      ],
      "stateMutability": "view",
      "type": "function",
      "constant": true
    },
    {
      "inputs": [],
      "name": "See_Record_for_Patient",
      "outputs": [
        {
          "components": [
            {
              "internalType": "uint256",
              "name": "Medical_id",
              "type": "uint256"
            },
            {
              "internalType": "string",
              "name": "category",
              "type": "string"
            },
            {
              "internalType": "string",
              "name": "patient_name",
              "type": "string"
            },
            {
              "internalType": "string",
              "name": "rec_name",
              "type": "string"
            },
            {
              "internalType": "string",
              "name": "Created_at",
              "type": "string"
            },
            {
              "internalType": "address",
              "name": "patient_addr",
              "type": "address"
            },
            {
              "internalType": "address",
              "name": "doctor_addr",
              "type": "address"
            },
            {
              "internalType": "string",
              "name": "hex_ipfs",
              "type": "string"
            }
          ],
          "internalType": "struct MedRecChain.record[]",
          "name": "",
          "type": "tuple[]"
        }
      ],
      "stateMutability": "view",
      "type": "function",
      "constant": true
    },
    {
      "inputs": [
        {
          "internalType": "address",
          "name": "_doctor",
          "type": "address"
        }
      ],
      "name": "approveAccess",
      "outputs": [],
      "stateMutability": "nonpayable",
      "type": "function"
    },
    {
      "inputs": [
        {
          "internalType": "address",
          "name": "_doctor",
          "type": "address"
        },
        {
          "internalType": "address",
          "name": "_patient",
          "type": "address"
        }
      ],
      "name": "check_approve_Access",
      "outputs": [
        {
          "internalType": "bool",
          "name": "",
          "type": "bool"
        }
      ],
      "stateMutability": "view",
      "type": "function",
      "constant": true
    },
    {
      "inputs": [
        {
          "internalType": "address",
          "name": "_doctor",
          "type": "address"
        }
      ],
      "name": "rejectAccess",
      "outputs": [],
      "stateMutability": "nonpayable",
      "type": "function"
    }
  ],
  "bytecode": "0x6080604052600180546001600160a01b03191673c577e31a2a01564b662c57b115c86af62f7e528a1790553480156200003757600080fd5b5060015462000071907fa49807205ce4d355092ef5a8a18f56e8913cf4a201fbe287825b095693c21775906001600160a01b031662000077565b62000127565b62000083828262000087565b5050565b6000828152602081815260408083206001600160a01b038516845290915290205460ff1662000083576000828152602081815260408083206001600160a01b03851684529091529020805460ff19166001179055620000e33390565b6001600160a01b0316816001600160a01b0316837f2f8788117e7eff1d82e926ec794901d17c78024a50270940304540a733656f0d60405160405180910390a45050565b61597d80620001376000396000f3fe608060405234801561001057600080fd5b50600436106102275760003560e01c806398fc90e911610130578063c1b32571116100b8578063f6ba66781161007c578063f6ba6678146104f8578063fd6ecf0b1461050d578063fe7ac90d1461052d578063fec331f214610540578063ff1b636d1461055557600080fd5b8063c1b325711461048a578063c821f07f1461049d578063d15258d1146104bd578063d547741f146104d2578063d8b070fa146104e557600080fd5b8063ac5cb97d116100ff578063ac5cb97d14610425578063ad182efe1461043a578063aefae3b11461044d578063bb5bfd6614610460578063c10f76111461047557600080fd5b806398fc90e9146103e4578063a217fddf146103f7578063a2cdceda146103ff578063aa836ed21461041257600080fd5b8063705211f4116101b35780638f333d70116101825780638f333d7014610376578063905e03ba1461038b57806391d148541461039e57806393ac6177146103b15780639474c8e5146103d157600080fd5b8063705211f4146102f857806375b238fc1461030b57806381d12c5814610320578063892e19ef1461036357600080fd5b8063248a9ca3116101fa578063248a9ca3146102925780632f2ff15d146102b55780633141172c146102ca57806336568abe146102dd57806353bbcf03146102f057600080fd5b806301ffc9a71461022c578063217e16f71461025457806321ea00a91461026957806322cf9d3d1461027f575b600080fd5b61023f61023a366004614ac9565b610580565b60405190151581526020015b60405180910390f35b61025c6105b7565b60405161024b9190614ba4565b610271610842565b60405190815260200161024b565b61023f61028d366004614c1d565b6108d6565b6102716102a0366004614c38565b60009081526020819052604090206001015490565b6102c86102c3366004614c51565b610b2a565b005b6102c86102d8366004614c1d565b610b54565b6102c86102eb366004614c51565b610cd1565b610271610d4f565b6102c8610306366004614c1d565b610df0565b61027160008051602061590883398151915281565b61033361032e366004614c38565b610f62565b60405161024b94939291909384526001600160a01b03928316602085015291166040830152606082015260800190565b61023f610371366004614d20565b610fa8565b61037e6112e6565b60405161024b9190614f1d565b61023f610399366004614f30565b6116ec565b61023f6103ac366004614c51565b6119d3565b6103c46103bf366004614c1d565b6119fc565b60405161024b9190614fac565b61037e6103df366004614c1d565b611c09565b61023f6103f2366004614c1d565b6120fa565b610271600081565b6102c861040d366004614c1d565b612278565b61023f610420366004614fbf565b61243d565b6102716000805160206158c883398151915281565b61023f610448366004614fe9565b6124a3565b61023f61045b366004614fbf565b612744565b6104686127fb565b60405161024b91906150dc565b61047d61287f565b60405161024b9190615245565b6102c8610498366004614c1d565b6130c0565b6104b06104ab366004614c1d565b61325b565b60405161024b919061535e565b6104c5613626565b60405161024b9190615371565b6102c86104e0366004614c51565b613a63565b61023f6104f33660046153c6565b613a88565b61027160008051602061592883398151915281565b61052061051b366004614c1d565b613de2565b60405161024b91906154ec565b61023f61053b366004614c1d565b614527565b6102716000805160206158e883398151915281565b600154610568906001600160a01b031681565b6040516001600160a01b03909116815260200161024b565b60006001600160e01b03198216637965db0b60e01b14806105b157506301ffc9a760e01b6001600160e01b03198316145b92915050565b60606105d1600080516020615908833981519152336119d3565b6105f65760405162461bcd60e51b81526004016105ed906154ff565b60405180910390fd5b60045460009067ffffffffffffffff81111561061457610614614c7d565b60405190808252806020026020018201604052801561064d57816020015b61063a61497f565b8152602001906001900390816106325790505b50905060005b60045481101561083c5760036000600483815481106106745761067461554f565b9060005260206000200160009054906101000a90046001600160a01b03166001600160a01b03166001600160a01b031681526020019081526020016000206040518060a0016040529081600082015481526020016001820180546106d790615565565b80601f016020809104026020016040519081016040528092919081815260200182805461070390615565565b80156107505780601f1061072557610100808354040283529160200191610750565b820191906000526020600020905b81548152906001019060200180831161073357829003601f168201915b505050918352505060028201546001600160a01b0316602082015260038201805460409092019161078090615565565b80601f01602080910402602001604051908101604052809291908181526020018280546107ac90615565565b80156107f95780601f106107ce576101008083540402835291602001916107f9565b820191906000526020600020905b8154815290600101906020018083116107dc57829003601f168201915b5050505050815260200160048201548152505082828151811061081e5761081e61554f565b60200260200101819052508080610834906155b5565b915050610653565b50905090565b600061085c600080516020615908833981519152336119d3565b156108675750600190565b61087f600080516020615928833981519152336119d3565b1561088a5750600290565b6108a26000805160206158e8833981519152336119d3565b156108ad5750600390565b6108c56000805160206158c8833981519152336119d3565b156108d05750600490565b50600090565b60006108f06000805160206158e8833981519152336119d3565b61090c5760405162461bcd60e51b81526004016105ed906155ce565b6109246000805160206158c8833981519152836119d3565b6109965760405162461bcd60e51b815260206004820152603860248201527f54686520706572736f6e20796f75206172652072657175657374696e6720616360448201527f6365737320746f206973206e6f7420612050617469656e74000000000000000060648201526084016105ed565b6109a03383612744565b156109e65760405162461bcd60e51b8152602060048201526016602482015275185b1c9958591e481cd95b990818481c995c5d595cdd60521b60448201526064016105ed565b600d546109f4906001615605565b600d8190556040805160808101825291825233602083018181526001600160a01b038681168585018181524260608801908152600e8054600181018255600091825298517fbb7b4a454dc3493923482f07822329ed19e8244eff582cc204f8554c3620c3fd6004909a02998a015594517fbb7b4a454dc3493923482f07822329ed19e8244eff582cc204f8554c3620c3fe890180546001600160a01b031990811692871692909217905591517fbb7b4a454dc3493923482f07822329ed19e8244eff582cc204f8554c3620c3ff89018054909316941693909317905590517fbb7b4a454dc3493923482f07822329ed19e8244eff582cc204f8554c3620c40090950194909455915190917fb8a82050b8f8de806a462f9a2bce72609174b2fc51d96606de7735fb6a6a236691a35060015b919050565b600082815260208190526040902060010154610b4581614671565b610b4f838361467e565b505050565b610b6c6000805160206158c8833981519152336119d3565b610b885760405162461bcd60e51b81526004016105ed90615618565b610ba06000805160206158e8833981519152826119d3565b610bf85760405162461bcd60e51b8152602060048201526024808201527f446f63746f7220646f6573206e6f7420686176652074686520646f63746f7220604482015263726f6c6560e01b60648201526084016105ed565b3360009081526002602090815260408083206001600160a01b038516845290915290205460ff161515600114610c7c5760405162461bcd60e51b815260206004820152602360248201527f54686973205265717565737420616c7261656479206265656e2052656a65637460448201526201090960ed1b60648201526084016105ed565b3360008181526002602090815260408083206001600160a01b0386168085529252808320805460ff191690555190917f6586985f73a63d005b52bd5a5791732c40ec70b8fc067ab89f5c402185f0c6ea91a350565b6001600160a01b0381163314610d415760405162461bcd60e51b815260206004820152602f60248201527f416363657373436f6e74726f6c3a2063616e206f6e6c792072656e6f756e636560448201526e103937b632b9903337b91039b2b63360891b60648201526084016105ed565b610d4b8282614702565b5050565b6000610d69600080516020615908833981519152336119d3565b610d855760405162461bcd60e51b81526004016105ed906154ff565b6000805b60065481101561083c576005600060068381548110610daa57610daa61554f565b60009182526020808320909101546001600160a01b031683528201929092526040019020600b0154610ddc9083615605565b915080610de8816155b5565b915050610d89565b610e086000805160206158c8833981519152336119d3565b610e245760405162461bcd60e51b81526004016105ed90615618565b610e3c6000805160206158e8833981519152826119d3565b610e885760405162461bcd60e51b815260206004820152601c60248201527f746869732061636f756e74206973206e6f74206120646f63746f72200000000060448201526064016105ed565b3360009081526002602090815260408083206001600160a01b038516845290915290205460ff1615610f0a5760405162461bcd60e51b815260206004820152602560248201527f54686973205265717565737420616c7261656479206265656e20417070726f76604482015264032b21090960dd1b60648201526084016105ed565b3360008181526002602090815260408083206001600160a01b0386168085529252808320805460ff191660011790555190917f9f520b3bfc56d06f7065d10b4683b3f57ac8895d5026cd176dee95ce1454cb8d91a350565b600e8181548110610f7257600080fd5b600091825260209091206004909102018054600182015460028301546003909301549193506001600160a01b0390811692169084565b6000610fc2600080516020615908833981519152336119d3565b610fde5760405162461bcd60e51b81526004016105ed906154ff565b610ff66000805160206158e8833981519152836119d3565b156110435760405162461bcd60e51b815260206004820152601d60248201527f54686973206163636f756e7420616c7265616479206120646f63746f7200000060448201526064016105ed565b61105b600080516020615908833981519152836119d3565b156110785760405162461bcd60e51b81526004016105ed9061564f565b611090600080516020615928833981519152836119d3565b156110dd5760405162461bcd60e51b815260206004820152601b60248201527f54686973204163636f756e7420697320486f73706974616c212120000000000060448201526064016105ed565b6110f56000805160206158c8833981519152836119d3565b156111425760405162461bcd60e51b815260206004820152601a60248201527f54686973204163636f756e742069732050617469656e7421212000000000000060448201526064016105ed565b61115a6000805160206158e883398151915283614767565b600a54611168906001615605565b600a819055604080516101208101825291825260208083018c81528383018c9052606084018b9052608084018a905260a0840189905260c0840188905260e084018790526001600160a01b03861661010085018190526000908152600790925291902082518155905160018201906111e090826156d4565b50604082015160028201906111f590826156d4565b50606082015160038201556080820151600482019061121490826156d4565b5060a0820151600582015560c0820151600682019061123390826156d4565b5060e0820151600782019061124890826156d4565b506101009190910151600891820180546001600160a01b039283166001600160a01b031991821617909155825460018101845560009384527ff3f7a9fe364faab93b216da50a3214154f22a0a2b415b23a84c8169e8b636ee3018054928616929091168217905560405190917f69908b2e63170aa89ef89719bbe3b4c92cccc38653968ab25f4464eff7c28ac891a250600198975050505050505050565b60606113006000805160206158c8833981519152336119d3565b61131c5760405162461bcd60e51b81526004016105ed90615618565b336000908152600560205260409020600b015461137b5760405162461bcd60e51b815260206004820152601c60248201527f70617469656e74207265636f726420646f65736e27742065786973740000000060448201526064016105ed565b336000908152600560209081526040808320600b0180548251818502810185019093528083529193909284015b828210156116e3578382906000526020600020906008020160405180610100016040529081600082015481526020016001820180546113e690615565565b80601f016020809104026020016040519081016040528092919081815260200182805461141290615565565b801561145f5780601f106114345761010080835404028352916020019161145f565b820191906000526020600020905b81548152906001019060200180831161144257829003601f168201915b5050505050815260200160028201805461147890615565565b80601f01602080910402602001604051908101604052809291908181526020018280546114a490615565565b80156114f15780601f106114c6576101008083540402835291602001916114f1565b820191906000526020600020905b8154815290600101906020018083116114d457829003601f168201915b5050505050815260200160038201805461150a90615565565b80601f016020809104026020016040519081016040528092919081815260200182805461153690615565565b80156115835780601f1061155857610100808354040283529160200191611583565b820191906000526020600020905b81548152906001019060200180831161156657829003601f168201915b5050505050815260200160048201805461159c90615565565b80601f01602080910402602001604051908101604052809291908181526020018280546115c890615565565b80156116155780601f106115ea57610100808354040283529160200191611615565b820191906000526020600020905b8154815290600101906020018083116115f857829003601f168201915b505050918352505060058201546001600160a01b039081166020830152600683015416604082015260078201805460609092019161165290615565565b80601f016020809104026020016040519081016040528092919081815260200182805461167e90615565565b80156116cb5780601f106116a0576101008083540402835291602001916116cb565b820191906000526020600020905b8154815290600101906020018083116116ae57829003601f168201915b505050505081525050815260200190600101906113a8565b50505050905090565b6000611706600080516020615908833981519152336119d3565b6117225760405162461bcd60e51b81526004016105ed906154ff565b61173a600080516020615928833981519152856119d3565b156117915760405162461bcd60e51b815260206004820152602160248201527f5468697320686f73706974616c206973207265616c6c792065786973697421216044820152600160fd1b60648201526084016105ed565b6117a9600080516020615908833981519152856119d3565b156117c65760405162461bcd60e51b81526004016105ed9061564f565b6117de6000805160206158e8833981519152856119d3565b156118275760405162461bcd60e51b815260206004820152601960248201527802a3434b99020b1b1b7bab73a1034b9902237b1ba37b910909603d1b60448201526064016105ed565b61183f6000805160206158c8833981519152856119d3565b1561188c5760405162461bcd60e51b815260206004820152601a60248201527f54686973204163636f756e742069732050617469656e7421212000000000000060448201526064016105ed565b6118a460008051602061592883398151915285614767565b6009546118b2906001615605565b60098190556040805160a08101825291825260208083018881526001600160a01b038816848401819052606085018890526080850187905260009081526003909252919020825181559051600182019061190c90826156d4565b5060408201516002820180546001600160a01b0319166001600160a01b039092169190911790556060820151600382019061194790826156d4565b5060809190910151600491820155805460018101825560009182527f8a35acfbc15ff81a39ae7d344fd709f28e8600b4aa8c65c6b64bfe7fe36bd19b0180546001600160a01b0319166001600160a01b03871690811790915560405190917f98b422b4248851ae9e727f5fd491b255462f5872bd0493c1ddf7308ccedfa1a291a2506001949350505050565b6000918252602082815260408084206001600160a01b0393909316845291905290205460ff1690565b611a0461497f565b611a1c600080516020615928833981519152336119d3565b611a385760405162461bcd60e51b81526004016105ed90615794565b6001600160a01b0382163314611a905760405162461bcd60e51b815260206004820152601d60248201527f4e6f74205468652053616d65205369676e6564204163636f756e74212100000060448201526064016105ed565b6001600160a01b038216600090815260036020908152604091829020825160a08101909352805483526001810180549192840191611acd90615565565b80601f0160208091040260200160405190810160405280929190818152602001828054611af990615565565b8015611b465780601f10611b1b57610100808354040283529160200191611b46565b820191906000526020600020905b815481529060010190602001808311611b2957829003601f168201915b505050918352505060028201546001600160a01b03166020820152600382018054604090920191611b7690615565565b80601f0160208091040260200160405190810160405280929190818152602001828054611ba290615565565b8015611bef5780601f10611bc457610100808354040283529160200191611bef565b820191906000526020600020905b815481529060010190602001808311611bd257829003601f168201915b505050505081526020016004820154815250509050919050565b6060611c236000805160206158e8833981519152336119d3565b611c3f5760405162461bcd60e51b81526004016105ed906155ce565b6001600160a01b038216600090815260026020908152604080832033845290915290205460ff16611cb25760405162461bcd60e51b815260206004820152601c60248201527f4e6f207065726d697373696f6e20746f20676574205265636f7264730000000060448201526064016105ed565b611cca6000805160206158c8833981519152836119d3565b611d165760405162461bcd60e51b815260206004820152601b60248201527f546869732070617469656e7473206973206e6f7420657869736974000000000060448201526064016105ed565b6001600160a01b0382166000908152600560205260409020600b0154611d7e5760405162461bcd60e51b815260206004820152601c60248201527f70617469656e74207265636f726420646f65736e27742065786973740000000060448201526064016105ed565b6001600160a01b0382166000908152600560209081526040808320600b0180548251818502810185019093528083529193909284015b828210156120ef57838290600052602060002090600802016040518061010001604052908160008201548152602001600182018054611df290615565565b80601f0160208091040260200160405190810160405280929190818152602001828054611e1e90615565565b8015611e6b5780601f10611e4057610100808354040283529160200191611e6b565b820191906000526020600020905b815481529060010190602001808311611e4e57829003601f168201915b50505050508152602001600282018054611e8490615565565b80601f0160208091040260200160405190810160405280929190818152602001828054611eb090615565565b8015611efd5780601f10611ed257610100808354040283529160200191611efd565b820191906000526020600020905b815481529060010190602001808311611ee057829003601f168201915b50505050508152602001600382018054611f1690615565565b80601f0160208091040260200160405190810160405280929190818152602001828054611f4290615565565b8015611f8f5780601f10611f6457610100808354040283529160200191611f8f565b820191906000526020600020905b815481529060010190602001808311611f7257829003601f168201915b50505050508152602001600482018054611fa890615565565b80601f0160208091040260200160405190810160405280929190818152602001828054611fd490615565565b80156120215780601f10611ff657610100808354040283529160200191612021565b820191906000526020600020905b81548152906001019060200180831161200457829003601f168201915b505050918352505060058201546001600160a01b039081166020830152600683015416604082015260078201805460609092019161205e90615565565b80601f016020809104026020016040519081016040528092919081815260200182805461208a90615565565b80156120d75780601f106120ac576101008083540402835291602001916120d7565b820191906000526020600020905b8154815290600101906020018083116120ba57829003601f168201915b50505050508152505081526020019060010190611db4565b505050509050919050565b6000612114600080516020615908833981519152336119d3565b6121305760405162461bcd60e51b81526004016105ed906154ff565b6121486000805160206158e8833981519152836119d3565b6121945760405162461bcd60e51b815260206004820152601760248201527f54686973206163636f756e74206e6f742065786973697400000000000000000060448201526064016105ed565b6001600160a01b0382166000908152600760205260408120818155906121bd60018301826149b7565b6121cb6002830160006149b7565b60038201600090556004820160006121e391906149b7565b60058201600090556006820160006121fb91906149b7565b6122096007830160006149b7565b5060080180546001600160a01b03191690556122336000805160206158e883398151915283614702565b61223c82612278565b6040516001600160a01b038316907f493d7cf6a7c880406a55654d6727464ea088bd01d40498e1987a327e68961ab890600090a2506001919050565b6008546122ba5760405162461bcd60e51b815260206004820152601060248201526f4e6f206b65797320696e20617272617960801b60448201526064016105ed565b60005b600854811015610d4b57816040516020016122d891906157cb565b60405160208183030381529060405280519060200120600882815481106123015761230161554f565b60009182526020918290200154604051612327926001600160a01b0390921691016157cb565b604051602081830303815290604052805190602001200361242b57600881815481106123555761235561554f565b6000918252602082200180546001600160a01b031916905560085461237c906001906157e8565b90506000600882815481106123935761239361554f565b600091825260209091200154600880546001600160a01b0390921692508291859081106123c2576123c261554f565b9060005260206000200160006101000a8154816001600160a01b0302191690836001600160a01b031602179055506008805480612401576124016157fb565b600082815260209020810160001990810180546001600160a01b031916905501905550610d4b9050565b80612435816155b5565b9150506122bd565b60006124576000805160206158e8833981519152336119d3565b6124735760405162461bcd60e51b81526004016105ed906155ce565b506001600160a01b0380821660009081526002602090815260408083209386168352929052205460ff1692915050565b60006124bd6000805160206158e8833981519152336119d3565b6124d95760405162461bcd60e51b81526004016105ed906155ce565b6124f16000805160206158c8833981519152856119d3565b61253d5760405162461bcd60e51b815260206004820152601b60248201527f546869732070617469656e7473206973206e6f7420657869736974000000000060448201526064016105ed565b6001600160a01b038416600090815260026020908152604080832033845290915290205460ff166125b05760405162461bcd60e51b815260206004820152601c60248201527f4e6f207065726d697373696f6e20746f20616464205265636f7264730000000060448201526064016105ed565b6001600160a01b03831633146126085760405162461bcd60e51b815260206004820152601c60248201527f4e6f207065726d697373696f6e20746f207468697320446f63746f720000000060448201526064016105ed565b600c54612616906001615605565b600c8190556001600160a01b0380861660008181526005602090815260408083208151610100810183529687528683018f81529187018e9052606087018d9052608087018c905260a087019490945293881660c086015260e08501879052600b909201805460018181018355918352929091208451600890930201918255915190918201906126a590826156d4565b50604082015160028201906126ba90826156d4565b50606082015160038201906126cf90826156d4565b50608082015160048201906126e490826156d4565b5060a08201516005820180546001600160a01b039283166001600160a01b03199182161790915560c084015160068401805491909316911617905560e0820151600782019061273390826156d4565b5060019a9950505050505050505050565b6000805b600e548110156127f157836001600160a01b0316600e828154811061276f5761276f61554f565b60009182526020909120600160049092020101546001600160a01b03161480156127d05750826001600160a01b0316600e82815481106127b1576127b161554f565b60009182526020909120600260049092020101546001600160a01b0316145b156127df5760019150506105b1565b806127e9816155b5565b915050612748565b5060009392505050565b6060600e805480602002602001604051908101604052809291908181526020016000905b828210156116e35760008481526020908190206040805160808101825260048602909201805483526001808201546001600160a01b039081168587015260028301541692840192909252600301546060830152908352909201910161281f565b6060612899600080516020615928833981519152336119d3565b6128b55760405162461bcd60e51b81526004016105ed90615794565b60065460009067ffffffffffffffff8111156128d3576128d3614c7d565b60405190808252806020026020018201604052801561290c57816020015b6128f96149f1565b8152602001906001900390816128f15790505b50905060005b60065481101561083c5760056000600683815481106129335761293361554f565b9060005260206000200160009054906101000a90046001600160a01b03166001600160a01b03166001600160a01b03168152602001908152602001600020604051806101800160405290816000820154815260200160018201805461299790615565565b80601f01602080910402602001604051908101604052809291908181526020018280546129c390615565565b8015612a105780601f106129e557610100808354040283529160200191612a10565b820191906000526020600020905b8154815290600101906020018083116129f357829003601f168201915b50505050508152602001600282018054612a2990615565565b80601f0160208091040260200160405190810160405280929190818152602001828054612a5590615565565b8015612aa25780601f10612a7757610100808354040283529160200191612aa2565b820191906000526020600020905b815481529060010190602001808311612a8557829003601f168201915b50505050508152602001600382018054612abb90615565565b80601f0160208091040260200160405190810160405280929190818152602001828054612ae790615565565b8015612b345780601f10612b0957610100808354040283529160200191612b34565b820191906000526020600020905b815481529060010190602001808311612b1757829003601f168201915b5050509183525050600482015460208201526005820154604082015260068201546001600160a01b031660608201526007820154608082015260088201805460a090920191612b8290615565565b80601f0160208091040260200160405190810160405280929190818152602001828054612bae90615565565b8015612bfb5780601f10612bd057610100808354040283529160200191612bfb565b820191906000526020600020905b815481529060010190602001808311612bde57829003601f168201915b50505050508152602001600982018054612c1490615565565b80601f0160208091040260200160405190810160405280929190818152602001828054612c4090615565565b8015612c8d5780601f10612c6257610100808354040283529160200191612c8d565b820191906000526020600020905b815481529060010190602001808311612c7057829003601f168201915b50505050508152602001600a82018054612ca690615565565b80601f0160208091040260200160405190810160405280929190818152602001828054612cd290615565565b8015612d1f5780601f10612cf457610100808354040283529160200191612d1f565b820191906000526020600020905b815481529060010190602001808311612d0257829003601f168201915b50505050508152602001600b8201805480602002602001604051908101604052809291908181526020016000905b8282101561308857838290600052602060002090600802016040518061010001604052908160008201548152602001600182018054612d8b90615565565b80601f0160208091040260200160405190810160405280929190818152602001828054612db790615565565b8015612e045780601f10612dd957610100808354040283529160200191612e04565b820191906000526020600020905b815481529060010190602001808311612de757829003601f168201915b50505050508152602001600282018054612e1d90615565565b80601f0160208091040260200160405190810160405280929190818152602001828054612e4990615565565b8015612e965780601f10612e6b57610100808354040283529160200191612e96565b820191906000526020600020905b815481529060010190602001808311612e7957829003601f168201915b50505050508152602001600382018054612eaf90615565565b80601f0160208091040260200160405190810160405280929190818152602001828054612edb90615565565b8015612f285780601f10612efd57610100808354040283529160200191612f28565b820191906000526020600020905b815481529060010190602001808311612f0b57829003601f168201915b50505050508152602001600482018054612f4190615565565b80601f0160208091040260200160405190810160405280929190818152602001828054612f6d90615565565b8015612fba5780601f10612f8f57610100808354040283529160200191612fba565b820191906000526020600020905b815481529060010190602001808311612f9d57829003601f168201915b505050918352505060058201546001600160a01b0390811660208301526006830154166040820152600782018054606090920191612ff790615565565b80601f016020809104026020016040519081016040528092919081815260200182805461302390615565565b80156130705780601f1061304557610100808354040283529160200191613070565b820191906000526020600020905b81548152906001019060200180831161305357829003601f168201915b50505050508152505081526020019060010190612d4d565b50505050815250508282815181106130a2576130a261554f565b602002602001018190525080806130b8906155b5565b915050612912565b6004546131025760405162461bcd60e51b815260206004820152601060248201526f4e6f206b65797320696e20617272617960801b60448201526064016105ed565b60005b600454811015610d4b578160405160200161312091906157cb565b60405160208183030381529060405280519060200120600482815481106131495761314961554f565b6000918252602091829020015460405161316f926001600160a01b0390921691016157cb565b6040516020818303038152906040528051906020012003613249576004818154811061319d5761319d61554f565b6000918252602082200180546001600160a01b03191690556004546131c4906001906157e8565b90506000600482815481106131db576131db61554f565b600091825260209091200154600480546001600160a01b03909216925082918590811061320a5761320a61554f565b9060005260206000200160006101000a8154816001600160a01b0302191690836001600160a01b031602179055506004805480612401576124016157fb565b80613253816155b5565b915050613105565b613263614a5b565b61327b6000805160206158e8833981519152336119d3565b6132975760405162461bcd60e51b81526004016105ed906155ce565b6001600160a01b03821633146132ef5760405162461bcd60e51b815260206004820152601d60248201527f4e6f74205468652053616d65205369676e6564204163636f756e74212100000060448201526064016105ed565b6001600160a01b0382166000908152600760209081526040918290208251610120810190935280548352600181018054919284019161332d90615565565b80601f016020809104026020016040519081016040528092919081815260200182805461335990615565565b80156133a65780601f1061337b576101008083540402835291602001916133a6565b820191906000526020600020905b81548152906001019060200180831161338957829003601f168201915b505050505081526020016002820180546133bf90615565565b80601f01602080910402602001604051908101604052809291908181526020018280546133eb90615565565b80156134385780601f1061340d57610100808354040283529160200191613438565b820191906000526020600020905b81548152906001019060200180831161341b57829003601f168201915b505050505081526020016003820154815260200160048201805461345b90615565565b80601f016020809104026020016040519081016040528092919081815260200182805461348790615565565b80156134d45780601f106134a9576101008083540402835291602001916134d4565b820191906000526020600020905b8154815290600101906020018083116134b757829003601f168201915b50505050508152602001600582015481526020016006820180546134f790615565565b80601f016020809104026020016040519081016040528092919081815260200182805461352390615565565b80156135705780601f1061354557610100808354040283529160200191613570565b820191906000526020600020905b81548152906001019060200180831161355357829003601f168201915b5050505050815260200160078201805461358990615565565b80601f01602080910402602001604051908101604052809291908181526020018280546135b590615565565b80156136025780601f106135d757610100808354040283529160200191613602565b820191906000526020600020905b8154815290600101906020018083116135e557829003601f168201915b5050509183525050600891909101546001600160a01b031660209091015292915050565b6060613640600080516020615908833981519152336119d3565b61365c5760405162461bcd60e51b81526004016105ed906154ff565b60085460009067ffffffffffffffff81111561367a5761367a614c7d565b6040519080825280602002602001820160405280156136b357816020015b6136a0614a5b565b8152602001906001900390816136985790505b50905060005b60085481101561083c5760076000600883815481106136da576136da61554f565b9060005260206000200160009054906101000a90046001600160a01b03166001600160a01b03166001600160a01b03168152602001908152602001600020604051806101200160405290816000820154815260200160018201805461373e90615565565b80601f016020809104026020016040519081016040528092919081815260200182805461376a90615565565b80156137b75780601f1061378c576101008083540402835291602001916137b7565b820191906000526020600020905b81548152906001019060200180831161379a57829003601f168201915b505050505081526020016002820180546137d090615565565b80601f01602080910402602001604051908101604052809291908181526020018280546137fc90615565565b80156138495780601f1061381e57610100808354040283529160200191613849565b820191906000526020600020905b81548152906001019060200180831161382c57829003601f168201915b505050505081526020016003820154815260200160048201805461386c90615565565b80601f016020809104026020016040519081016040528092919081815260200182805461389890615565565b80156138e55780601f106138ba576101008083540402835291602001916138e5565b820191906000526020600020905b8154815290600101906020018083116138c857829003601f168201915b505050505081526020016005820154815260200160068201805461390890615565565b80601f016020809104026020016040519081016040528092919081815260200182805461393490615565565b80156139815780601f1061395657610100808354040283529160200191613981565b820191906000526020600020905b81548152906001019060200180831161396457829003601f168201915b5050505050815260200160078201805461399a90615565565b80601f01602080910402602001604051908101604052809291908181526020018280546139c690615565565b8015613a135780601f106139e857610100808354040283529160200191613a13565b820191906000526020600020905b8154815290600101906020018083116139f657829003601f168201915b5050509183525050600891909101546001600160a01b03166020909101528251839083908110613a4557613a4561554f565b60200260200101819052508080613a5b906155b5565b9150506136b9565b600082815260208190526040902060010154613a7e81614671565b610b4f8383614702565b6000613aa2600080516020615928833981519152336119d3565b613abe5760405162461bcd60e51b81526004016105ed90615794565b613ad66000805160206158c8833981519152876119d3565b15613b235760405162461bcd60e51b815260206004820152601e60248201527f54686973206163636f756e7420616c726561647920612070617469656e74000060448201526064016105ed565b613b3b600080516020615908833981519152876119d3565b15613b585760405162461bcd60e51b81526004016105ed9061564f565b613b706000805160206158e8833981519152876119d3565b15613bb95760405162461bcd60e51b815260206004820152601960248201527802a3434b99020b1b1b7bab73a1034b9902237b1ba37b910909603d1b60448201526064016105ed565b613bd1600080516020615928833981519152876119d3565b15613c1e5760405162461bcd60e51b815260206004820152601b60248201527f54686973204163636f756e7420697320486f73706974616c212120000000000060448201526064016105ed565b613c366000805160206158c883398151915287614767565b600b54613c44906001615605565b600b8190556001600160a01b03871660008181526005602052604090209182556006820180546001600160a01b0319169091179055600101613c868c826156d4565b506001600160a01b0386166000908152600560205260409020600201613cac8b826156d4565b506001600160a01b0386166000908152600560205260409020600301613cd28a826156d4565b506001600160a01b0386166000908152600560208190526040909120600481018a905590810188905560078101869055600801613d0f85826156d4565b506001600160a01b0386166000908152600560205260409020600901613d3584826156d4565b506001600160a01b0386166000908152600560205260409020600a01613d5b83826156d4565b506006805460018101825560009182527ff652222313e28459528d920b65115c16c04f3efc82aaedc97be59f3f377c0d3f0180546001600160a01b0319166001600160a01b03891690811790915560405190917fa58cff07db0adda3ab7a40bd2f18ab57210bf38391a52ffd2e8eee6b8bdec71a91a25060019a9950505050505050505050565b613dea6149f1565b6001600160a01b03821660009081526005602090815260409182902082516101808101909352805483526001810180549192840191613e2890615565565b80601f0160208091040260200160405190810160405280929190818152602001828054613e5490615565565b8015613ea15780601f10613e7657610100808354040283529160200191613ea1565b820191906000526020600020905b815481529060010190602001808311613e8457829003601f168201915b50505050508152602001600282018054613eba90615565565b80601f0160208091040260200160405190810160405280929190818152602001828054613ee690615565565b8015613f335780601f10613f0857610100808354040283529160200191613f33565b820191906000526020600020905b815481529060010190602001808311613f1657829003601f168201915b50505050508152602001600382018054613f4c90615565565b80601f0160208091040260200160405190810160405280929190818152602001828054613f7890615565565b8015613fc55780601f10613f9a57610100808354040283529160200191613fc5565b820191906000526020600020905b815481529060010190602001808311613fa857829003601f168201915b5050509183525050600482015460208201526005820154604082015260068201546001600160a01b031660608201526007820154608082015260088201805460a09092019161401390615565565b80601f016020809104026020016040519081016040528092919081815260200182805461403f90615565565b801561408c5780601f106140615761010080835404028352916020019161408c565b820191906000526020600020905b81548152906001019060200180831161406f57829003601f168201915b505050505081526020016009820180546140a590615565565b80601f01602080910402602001604051908101604052809291908181526020018280546140d190615565565b801561411e5780601f106140f35761010080835404028352916020019161411e565b820191906000526020600020905b81548152906001019060200180831161410157829003601f168201915b50505050508152602001600a8201805461413790615565565b80601f016020809104026020016040519081016040528092919081815260200182805461416390615565565b80156141b05780601f10614185576101008083540402835291602001916141b0565b820191906000526020600020905b81548152906001019060200180831161419357829003601f168201915b50505050508152602001600b8201805480602002602001604051908101604052809291908181526020016000905b828210156145195783829060005260206000209060080201604051806101000160405290816000820154815260200160018201805461421c90615565565b80601f016020809104026020016040519081016040528092919081815260200182805461424890615565565b80156142955780601f1061426a57610100808354040283529160200191614295565b820191906000526020600020905b81548152906001019060200180831161427857829003601f168201915b505050505081526020016002820180546142ae90615565565b80601f01602080910402602001604051908101604052809291908181526020018280546142da90615565565b80156143275780601f106142fc57610100808354040283529160200191614327565b820191906000526020600020905b81548152906001019060200180831161430a57829003601f168201915b5050505050815260200160038201805461434090615565565b80601f016020809104026020016040519081016040528092919081815260200182805461436c90615565565b80156143b95780601f1061438e576101008083540402835291602001916143b9565b820191906000526020600020905b81548152906001019060200180831161439c57829003601f168201915b505050505081526020016004820180546143d290615565565b80601f01602080910402602001604051908101604052809291908181526020018280546143fe90615565565b801561444b5780601f106144205761010080835404028352916020019161444b565b820191906000526020600020905b81548152906001019060200180831161442e57829003601f168201915b505050918352505060058201546001600160a01b039081166020830152600683015416604082015260078201805460609092019161448890615565565b80601f01602080910402602001604051908101604052809291908181526020018280546144b490615565565b80156145015780601f106144d657610100808354040283529160200191614501565b820191906000526020600020905b8154815290600101906020018083116144e457829003601f168201915b505050505081525050815260200190600101906141de565b505050915250909392505050565b6000614541600080516020615908833981519152336119d3565b61455d5760405162461bcd60e51b81526004016105ed906154ff565b614575600080516020615928833981519152836119d3565b6145c15760405162461bcd60e51b815260206004820152601b60248201527f5468697320686f73706974616c206973206e6f7420657869736974000000000060448201526064016105ed565b6145d960008051602061592883398151915283614702565b6001600160a01b03821660009081526003602052604081208181559061460260018301826149b7565b6002820180546001600160a01b03191690556146226003830160006149b7565b60048201600090555050614635826130c0565b6040516001600160a01b038316907f69a39b7bc440b31579fb2876c17901a8f474eb78a453540cfe1208d1367dd6a890600090a2506001919050565b61467b8133614771565b50565b61468882826119d3565b610d4b576000828152602081815260408083206001600160a01b03851684529091529020805460ff191660011790556146be3390565b6001600160a01b0316816001600160a01b0316837f2f8788117e7eff1d82e926ec794901d17c78024a50270940304540a733656f0d60405160405180910390a45050565b61470c82826119d3565b15610d4b576000828152602081815260408083206001600160a01b0385168085529252808320805460ff1916905551339285917ff6391f5c32d9c69d2a47ea670b442974b53935d1edc7fd64eb21e047a839171b9190a45050565b610d4b828261467e565b61477b82826119d3565b610d4b57614788816147ca565b6147938360206147dc565b6040516020016147a4929190615811565b60408051601f198184030181529082905262461bcd60e51b82526105ed91600401615886565b60606105b16001600160a01b03831660145b606060006147eb836002615899565b6147f6906002615605565b67ffffffffffffffff81111561480e5761480e614c7d565b6040519080825280601f01601f191660200182016040528015614838576020820181803683370190505b509050600360fc1b816000815181106148535761485361554f565b60200101906001600160f81b031916908160001a905350600f60fb1b816001815181106148825761488261554f565b60200101906001600160f81b031916908160001a90535060006148a6846002615899565b6148b1906001615605565b90505b6001811115614929576f181899199a1a9b1b9c1cb0b131b232b360811b85600f16601081106148e5576148e561554f565b1a60f81b8282815181106148fb576148fb61554f565b60200101906001600160f81b031916908160001a90535060049490941c93614922816158b0565b90506148b4565b5083156149785760405162461bcd60e51b815260206004820181905260248201527f537472696e67733a20686578206c656e67746820696e73756666696369656e7460448201526064016105ed565b9392505050565b6040518060a00160405280600081526020016060815260200160006001600160a01b0316815260200160608152602001600081525090565b5080546149c390615565565b6000825580601f106149d3575050565b601f01602090049060005260206000209081019061467b9190614ab0565b60405180610180016040528060008152602001606081526020016060815260200160608152602001600081526020016000815260200160006001600160a01b0316815260200160008152602001606081526020016060815260200160608152602001606081525090565b604051806101200160405280600081526020016060815260200160608152602001600081526020016060815260200160008152602001606081526020016060815260200160006001600160a01b031681525090565b5b80821115614ac55760008155600101614ab1565b5090565b600060208284031215614adb57600080fd5b81356001600160e01b03198116811461497857600080fd5b60005b83811015614b0e578181015183820152602001614af6565b50506000910152565b60008151808452614b2f816020860160208601614af3565b601f01601f19169290920160200192915050565b805182526000602082015160a06020850152614b6260a0850182614b17565b905060018060a01b03604084015116604085015260608301518482036060860152614b8d8282614b17565b915050608083015160808501528091505092915050565b6000602080830181845280855180835260408601915060408160051b870101925083870160005b82811015614bf957603f19888603018452614be7858351614b43565b94509285019290850190600101614bcb565b5092979650505050505050565b80356001600160a01b0381168114610b2557600080fd5b600060208284031215614c2f57600080fd5b61497882614c06565b600060208284031215614c4a57600080fd5b5035919050565b60008060408385031215614c6457600080fd5b82359150614c7460208401614c06565b90509250929050565b634e487b7160e01b600052604160045260246000fd5b600082601f830112614ca457600080fd5b813567ffffffffffffffff80821115614cbf57614cbf614c7d565b604051601f8301601f19908116603f01168101908282118183101715614ce757614ce7614c7d565b81604052838152866020858801011115614d0057600080fd5b836020870160208301376000602085830101528094505050505092915050565b600080600080600080600080610100898b031215614d3d57600080fd5b883567ffffffffffffffff80821115614d5557600080fd5b614d618c838d01614c93565b995060208b0135915080821115614d7757600080fd5b614d838c838d01614c93565b985060408b0135975060608b0135915080821115614da057600080fd5b614dac8c838d01614c93565b965060808b0135955060a08b0135915080821115614dc957600080fd5b614dd58c838d01614c93565b945060c08b0135915080821115614deb57600080fd5b50614df88b828c01614c93565b925050614e0760e08a01614c06565b90509295985092959890939650565b600081518084526020808501808196508360051b8101915082860160005b85811015614f10578284038952815161010081518652868201518188880152614e5f82880182614b17565b91505060408083015187830382890152614e798382614b17565b9250505060608083015187830382890152614e948382614b17565b9250505060808083015187830382890152614eaf8382614b17565b9250505060a080830151614ecd828901826001600160a01b03169052565b505060c0828101516001600160a01b03169087015260e09182015186820392870192909252614efc8183614b17565b9a87019a9550505090840190600101614e34565b5091979650505050505050565b6020815260006149786020830184614e16565b60008060008060808587031215614f4657600080fd5b843567ffffffffffffffff80821115614f5e57600080fd5b614f6a88838901614c93565b9550614f7860208801614c06565b94506040870135915080821115614f8e57600080fd5b50614f9b87828801614c93565b949793965093946060013593505050565b6020815260006149786020830184614b43565b60008060408385031215614fd257600080fd5b614fdb83614c06565b9150614c7460208401614c06565b600080600080600080600060e0888a03121561500457600080fd5b873567ffffffffffffffff8082111561501c57600080fd5b6150288b838c01614c93565b985060208a013591508082111561503e57600080fd5b61504a8b838c01614c93565b975060408a013591508082111561506057600080fd5b61506c8b838c01614c93565b965060608a013591508082111561508257600080fd5b61508e8b838c01614c93565b955061509c60808b01614c06565b94506150aa60a08b01614c06565b935060c08a01359150808211156150c057600080fd5b506150cd8a828b01614c93565b91505092959891949750929550565b602080825282518282018190526000919060409081850190868401855b82811015614f1057815180518552868101516001600160a01b039081168887015286820151168686015260609081015190850152608090930192908501906001016150f9565b600061018082518452602083015181602086015261515f82860182614b17565b915050604083015184820360408601526151798282614b17565b915050606083015184820360608601526151938282614b17565b9150506080830151608085015260a083015160a085015260c08301516151c460c08601826001600160a01b03169052565b5060e083015160e085015261010080840151858303828701526151e78382614b17565b9250505061012080840151858303828701526152038382614b17565b92505050610140808401518583038287015261521f8382614b17565b92505050610160808401518583038287015261523b8382614e16565b9695505050505050565b6000602080830181845280855180835260408601915060408160051b870101925083870160005b82811015614bf957603f1988860301845261528885835161513f565b9450928501929085019060010161526c565b60006101208251845260208301518160208601526152ba82860182614b17565b915050604083015184820360408601526152d48282614b17565b91505060608301516060850152608083015184820360808601526152f88282614b17565b91505060a083015160a085015260c083015184820360c086015261531c8282614b17565b91505060e083015184820360e08601526153368282614b17565b91505061010080840151615354828701826001600160a01b03169052565b5090949350505050565b602081526000614978602083018461529a565b6000602080830181845280855180835260408601915060408160051b870101925083870160005b82811015614bf957603f198886030184526153b485835161529a565b94509285019290850190600101615398565b6000806000806000806000806000806101408b8d0312156153e657600080fd5b8a3567ffffffffffffffff808211156153fe57600080fd5b61540a8e838f01614c93565b9b5060208d013591508082111561542057600080fd5b61542c8e838f01614c93565b9a5060408d013591508082111561544257600080fd5b61544e8e838f01614c93565b995060608d0135985060808d0135975061546a60a08e01614c06565b965060c08d0135955060e08d013591508082111561548757600080fd5b6154938e838f01614c93565b94506101008d01359150808211156154aa57600080fd5b6154b68e838f01614c93565b93506101208d01359150808211156154cd57600080fd5b506154da8d828e01614c93565b9150509295989b9194979a5092959850565b602081526000614978602083018461513f565b60208082526030908201527f4f6e6c7920737570657241646d696e20686173207065726d697373696f6e207460408201526f37903237903a3430ba1030b1ba34b7b760811b606082015260800190565b634e487b7160e01b600052603260045260246000fd5b600181811c9082168061557957607f821691505b60208210810361559957634e487b7160e01b600052602260045260246000fd5b50919050565b634e487b7160e01b600052601160045260246000fd5b6000600182016155c7576155c761559f565b5060010190565b6020808252601a908201527f54686973206163636f756e74206973206e6f7420446f63746f72000000000000604082015260600190565b808201808211156105b1576105b161559f565b6020808252601b908201527f54686973206163636f756e74206973206e6f742070617469656e740000000000604082015260600190565b60208082526018908201527f54686973204163636f756e742069732041646d696e2121200000000000000000604082015260600190565b601f821115610b4f57600081815260208120601f850160051c810160208610156156ad5750805b601f850160051c820191505b818110156156cc578281556001016156b9565b505050505050565b815167ffffffffffffffff8111156156ee576156ee614c7d565b615702816156fc8454615565565b84615686565b602080601f831160018114615737576000841561571f5750858301515b600019600386901b1c1916600185901b1785556156cc565b600085815260208120601f198616915b8281101561576657888601518255948401946001909101908401615747565b50858210156157845787850151600019600388901b60f8161c191681555b5050505050600190811b01905550565b6020808252601c908201527f54686973206163636f756e74206973206e6f7420486f73706974616c00000000604082015260600190565b60609190911b6bffffffffffffffffffffffff1916815260140190565b818103818111156105b1576105b161559f565b634e487b7160e01b600052603160045260246000fd5b7f416363657373436f6e74726f6c3a206163636f756e7420000000000000000000815260008351615849816017850160208801614af3565b7001034b99036b4b9b9b4b733903937b6329607d1b601791840191820152835161587a816028840160208801614af3565b01602801949350505050565b6020815260006149786020830184614b17565b80820281158282048414176105b1576105b161559f565b6000816158bf576158bf61559f565b50600019019056fe72606200fac42b7dc86b75901d61ecfab2a4a1a6eded478b97a428094891abed0af1dac7dea2fd7f7738119cec7df099dfad49aa9d2e7d17ba6b60f63ae7411fa49807205ce4d355092ef5a8a18f56e8913cf4a201fbe287825b095693c21775c8f5b4140cca307cd927e59cbeea8291bffeee228fc677f0fa059aef7b4dd8d5a26469706673582212200e81dcd2c8e430b71dd33bbbfe84e0533826c6d9fe21dde23ae822f99dc4cee764736f6c63430008130033",
  "immutableReferences": {},
  "source": "// SPDX-License-Identifier: GPL-3.0\r\npragma solidity ^0.8.4;\r\n\r\n\r\nimport \"@openzeppelin/contracts/access/AccessControl.sol\";\r\n\r\ncontract MedRecChain is AccessControl {\r\n\r\n    //ROLES\r\n    bytes32 public constant ADMIN_ROLE= keccak256(\"ADMIN_ROLE\");\r\n    bytes32 public constant HOSPITAL_ROLE= keccak256(\"HOSPITAL_ROLE\");\r\n    bytes32 public constant DOCTOR_ROLE= keccak256(\"DOCTOR_ROLE\");\r\n    bytes32 public constant PATIENT_ROLE= keccak256(\"PATIENT_ROLE\");\r\n\r\n    \r\n    // Admin refers to government, It hard coded by us.\r\n    address public Admin = 0xC577E31A2A01564b662C57B115C86Af62f7E528A;\r\n    \r\n    // [_patient][_doctor] = bool\r\n    mapping (address=>mapping (address =>bool)) isAuth;\r\n\r\n\r\n    struct Hospital\r\n    {\r\n        uint256 id;\r\n        string name;\r\n        address addr;\r\n        string place;\r\n        uint256 phone;\r\n\r\n        \r\n    }\r\n\r\n    mapping(address=>Hospital) Hospitals;\r\n    address[] private Hospitals_keys;\r\n    \r\n\r\n    struct patient\r\n    {\r\n\r\n        uint256 id;\r\n        string name;\r\n        string email;\r\n        string National_Addr;\r\n        uint256 National_id;\r\n        uint256 age;\r\n        address PatientAddress;\r\n        uint256 phone;\r\n        string Blood_Type;\r\n        string marital_status;\r\n        string gender;\r\n        \r\n        record[] Records;\r\n        \r\n    }\r\n\r\n    mapping(address=>patient) patients;\r\n    address[] private patients_keys;\r\n\r\n    struct doctor{\r\n\r\n        uint256 id;\r\n        string name;\r\n        string hospital_name;\r\n        uint256 phone;\r\n        string email;\r\n        uint256 age;\r\n        string place;\r\n        string Medical_specialty;\r\n        address docAddress;\r\n    \r\n    }\r\n\r\n    mapping(address=>doctor) doctors;\r\n    address[] private doctors_keys;\r\n\r\n\r\n    struct record {\r\n\r\n        uint Medical_id;\r\n\r\n        string category;\r\n        string patient_name;\r\n        string rec_name;\r\n        string Created_at;\r\n        address patient_addr;\r\n        address doctor_addr;\r\n        string hex_ipfs;  // file, image date\r\n    }\r\n\r\n \r\n    // for Ids\r\n    uint256 Hospital_index;\r\n    uint256 Doctor_index;\r\n    uint256 Patient_index;\r\n    uint256 Record_index;\r\n    uint256 Request_index;\r\n     \r\n\r\n    //EVENTS\r\n    event HospitalAdded(address indexed Hospital_Address); //by admin\r\n    event HospitalRemoved(address indexed Hospital_Address); //by admin\r\n    event DoctorAdded(address indexed Doctor_Address); //by hospital\r\n    event DoctorRemoved(address indexed Doctor_Address);  //by hospital\r\n    event DoctorUpdata(address indexed Doctor_Address);  //by hospital\r\n    event PatientAdded(address indexed Patient_Address);  //by hospital\r\n    event PatientUpdated(address indexed Patient_Address); //by patient\r\n    event AccessGranted(address indexed Doctor_Address, address indexed Patient_Address); //by patient \r\n    event AccessRejected(address indexed Doctor_Address, address indexed Patient_Address); //by patient\r\n    event RequestAccess(address indexed requester, address indexed patient); //by doctor or (patient) \r\n\r\n    constructor() {\r\n         _setupRole(ADMIN_ROLE,Admin);\r\n    }\r\n\r\n    // function to know who logg in\r\n\r\n     function logg() public view returns(uint  role){\r\n        if(hasRole(ADMIN_ROLE, msg.sender))\r\n        {return 1;}\r\n        else if(hasRole(HOSPITAL_ROLE, msg.sender))\r\n        {return 2;} \r\n        else if(hasRole(DOCTOR_ROLE, msg.sender))\r\n        {return 3;} \r\n        else if(hasRole(PATIENT_ROLE, msg.sender))\r\n        {return 4;}\r\n        else\r\n        {return 0;}\r\n     \r\n    }\r\n\r\n    //To check the role of who deploye the contract. \r\n    modifier onlyAdmin(){ \r\n        require(hasRole(ADMIN_ROLE, msg.sender),\"Only superAdmin has permission to do that action\");\r\n        _;\r\n    }\r\n\r\n    modifier onlyHospital(){\r\n        require(hasRole(HOSPITAL_ROLE, msg.sender), \"This account is not Hospital\");\r\n        _;\r\n    }\r\n    modifier onlydoctors(){\r\n        require(hasRole(DOCTOR_ROLE, msg.sender), \"This account is not Doctor\");\r\n        _;\r\n    }\r\n    modifier onlypatient(){\r\n         require(hasRole(PATIENT_ROLE, msg.sender), \"This account is not patient\");\r\n        _;\r\n    \r\n    }\r\n\r\n//////////////////////////////////////\r\n\r\n    //Tasks done by Admin (defult exisit)\r\n    //1. add hospital\r\n    //2. delete hospital\r\n    //3. add doctor\r\n    //4. delete doctor\r\n    //5. see all hospital in system\r\n    //6. see all doctors in system\r\n\r\n\r\n    function addhospital(string memory _name, address _address, string memory _place, uint256 _phone) public onlyAdmin returns(bool success){\r\n        require(!hasRole(HOSPITAL_ROLE, _address), \"This hospital is really exisit!! \");\r\n        require(!hasRole(ADMIN_ROLE, _address), \"This Account is Admin!! \");\r\n        require(!hasRole(DOCTOR_ROLE, _address), \"This Account is Doctor!! \");\r\n        require(!hasRole(PATIENT_ROLE, _address), \"This Account is Patient!! \");\r\n\r\n         _setupRole(HOSPITAL_ROLE, _address);\r\n        Hospital_index= Hospital_index+1;\r\n        Hospitals[_address]=Hospital(Hospital_index, _name, _address, _place, _phone); \r\n        Hospitals_keys.push(_address);\r\n        emit HospitalAdded(_address);\r\n        return true;\r\n    }\r\n\r\n    function removeitem_hos(address _hosAddress ) public  {\r\n    require(Hospitals_keys.length > 0, \"No keys in array\");\r\n        for (uint i = 0; i < Hospitals_keys.length; i++) {\r\n            if (keccak256(abi.encodePacked(Hospitals_keys[i])) == keccak256(abi.encodePacked(_hosAddress))) {\r\n                delete Hospitals_keys[i];\r\n                uint lastIndex =Hospitals_keys.length-1;\r\n                address  lastId = Hospitals_keys[lastIndex];\r\n                Hospitals_keys[i]=lastId;\r\n                Hospitals_keys.pop();\r\n                break;\r\n            }\r\n        }\r\n    }\r\n\r\n    function removehospital(address _address) public onlyAdmin returns(bool success){\r\n        require(hasRole(HOSPITAL_ROLE, _address), \"This hospital is not exisit\");\r\n        _revokeRole(HOSPITAL_ROLE,_address);\r\n        delete Hospitals[_address];\r\n        removeitem_hos(_address);\r\n        emit HospitalRemoved(_address);\r\n        return true;\r\n    }\r\n\r\n    function get_all_hospitals() public view onlyAdmin returns(Hospital[] memory){\r\n        Hospital[] memory hos = new Hospital[](Hospitals_keys.length);\r\n        for (uint256 i = 0; i < Hospitals_keys.length; i++) {\r\n            hos[i] = Hospitals[Hospitals_keys[i]];\r\n        }\r\n        return hos;\r\n    }\r\n\r\n  ///////////////\r\n\r\n    function addDoctor(string memory _name, string memory _hospital_name, uint256  _phone, string memory _email, uint256  _age, string memory _place, string memory _Medical_specialty, address  _docAddress) public onlyAdmin returns(bool success){\r\n        require(!hasRole(DOCTOR_ROLE, _docAddress), \"This account already a doctor\");\r\n        require(!hasRole(ADMIN_ROLE, _docAddress), \"This Account is Admin!! \");\r\n        require(!hasRole(HOSPITAL_ROLE, _docAddress), \"This Account is Hospital!! \");\r\n        require(!hasRole(PATIENT_ROLE, _docAddress), \"This Account is Patient!! \");\r\n        _setupRole(DOCTOR_ROLE, _docAddress);\r\n        Doctor_index= Doctor_index+1;\r\n        doctors[_docAddress]=doctor(Doctor_index, _name, _hospital_name, _phone,  _email,  _age,  _place,  _Medical_specialty, _docAddress); \r\n        doctors_keys.push(_docAddress);\r\n        emit DoctorAdded(_docAddress);\r\n        return true;\r\n    }\r\n\r\n\r\n   function removeitem_doc(address _docAddress ) public {\r\n    require(doctors_keys.length > 0, \"No keys in array\");\r\n        for (uint i = 0; i < doctors_keys.length; i++) {\r\n            if (keccak256(abi.encodePacked(doctors_keys[i])) == keccak256(abi.encodePacked(_docAddress))) {\r\n                delete doctors_keys[i];\r\n                uint lastIndex =doctors_keys.length-1;\r\n                address  lastId = doctors_keys[lastIndex];\r\n                doctors_keys[i]=lastId;\r\n                doctors_keys.pop();\r\n                break;\r\n            }\r\n        }\r\n    }\r\n    \r\n    function removeDoctor(address _docAddress) public onlyAdmin returns(bool success){\r\n        require(hasRole(DOCTOR_ROLE, _docAddress),\"This account not exisit\");\r\n        delete doctors[_docAddress];\r\n        _revokeRole(DOCTOR_ROLE,_docAddress);\r\n        removeitem_doc(_docAddress);\r\n        emit DoctorRemoved(_docAddress);\r\n        return true;\r\n    }\r\n\r\n    function get_all_Doctors() public view  onlyAdmin returns(doctor[] memory){\r\n        doctor[] memory doc = new doctor[](doctors_keys.length);\r\n        for (uint256 i = 0; i < doctors_keys.length; i++) {\r\n            doc[i] = doctors[doctors_keys[i]];\r\n        }\r\n        return doc;\r\n    }\r\n\r\nfunction get_record_number() public view onlyAdmin returns(uint256 i){\r\n        uint256 total;\r\n        for (uint256 a = 0; a < patients_keys.length; a++) {\r\n        total += patients[patients_keys[a]].Records.length;\r\n    }\r\n    return total;\r\n    }\r\n\r\n///////////////////////////////////////////\r\n\r\n    // Tasks done by Hospitals (sign in )\r\n    //1. add patient\r\n    //2.See his profile\r\n    //3.see all patients\r\n   \r\n\r\n   function get_hospita_by_address(address _addr) view public onlyHospital returns(Hospital memory) {\r\n    require( _addr == msg.sender, \"Not The Same Signed Account!!\");   \r\n    return (Hospitals[_addr]);\r\n    }\r\n\r\n    \r\n       \r\n\r\n\r\n    function addPatient(string memory _name, string memory _email, string memory _National_Addr, uint256  _National_id, uint256  _age, address _PatientAddress, uint256 _phone, string memory _Blood_Type, string memory _marital_status, string memory _gender) public onlyHospital returns(bool success){\r\n        require(!hasRole(PATIENT_ROLE, _PatientAddress), \"This account already a patient\");\r\n        require(!hasRole(ADMIN_ROLE, _PatientAddress), \"This Account is Admin!! \");\r\n        require(!hasRole(DOCTOR_ROLE, _PatientAddress), \"This Account is Doctor!! \");\r\n        require(!hasRole(HOSPITAL_ROLE, _PatientAddress), \"This Account is Hospital!! \");\r\n        _setupRole(PATIENT_ROLE, _PatientAddress);\r\n        Patient_index= Patient_index+1;\r\n        patients[_PatientAddress].id=Patient_index;\r\n        patients[_PatientAddress].PatientAddress=_PatientAddress;\r\n        patients[_PatientAddress].name=_name;\r\n        patients[_PatientAddress].email=_email;\r\n        patients[_PatientAddress].National_Addr=_National_Addr;\r\n        patients[_PatientAddress].National_id=_National_id;\r\n        patients[_PatientAddress].age=_age;\r\n        patients[_PatientAddress].phone=_phone;\r\n        patients[_PatientAddress].Blood_Type=_Blood_Type;\r\n        patients[_PatientAddress].marital_status=_marital_status;\r\n        patients[_PatientAddress].gender=_gender;\r\n\r\n\r\n        patients_keys.push(_PatientAddress);\r\n        emit PatientAdded(_PatientAddress);\r\n        return true;\r\n    }\r\n\r\n    function get_all_Patients() public view onlyHospital returns(patient[] memory){\r\n        patient[] memory pat = new patient[](patients_keys.length);\r\n        for (uint256 i = 0; i < patients_keys.length; i++) {\r\n            pat[i] = patients[patients_keys[i]];\r\n        }\r\n        return pat;\r\n    }\r\n\r\n//////////////////////////////////////////////\r\n\r\n    // Tasks done by Doctor (sign in)\r\n\r\n    // 1. send request to patient\r\n    // 2. see record (has be accepted)\r\n    // 3. add record (has be accepted)\r\n    // 4.view his profile info\r\n    // 5.show requests by id & show their status\r\n\r\n\r\n    function get_doctor_by_address(address _addr) view public onlydoctors returns(doctor memory) {\r\n    require( _addr == msg.sender, \"Not The Same Signed Account!!\");  \r\n    return (doctors[_addr]);\r\n    }\r\n\r\n\r\n    \r\n    struct request\r\n    {\r\n        uint id;\r\n        address from_doctor_addr;\r\n        address to_patients_addr;\r\n        uint256 date;\r\n    }\r\n      \r\n    request[] public requests;\r\n\r\n    function checkRequestExists(address _from_doctor_addr ,address _to_patients_addr) public view returns (bool) {\r\n        for (uint i = 0; i < requests.length; i++) {\r\n            if ( ((requests[i].from_doctor_addr) == (_from_doctor_addr)) && ((requests[i].to_patients_addr)==(_to_patients_addr)) ) {\r\n                return true;\r\n                }\r\n        }\r\n    return false;\r\n}\r\n\r\n\r\n\r\n    function send_request_Access(address _patient) public onlydoctors returns(bool success) {\r\n        require(hasRole(PATIENT_ROLE, _patient), \"The person you are requesting access to is not a Patient\");\r\n        require(!checkRequestExists(msg.sender,_patient),\"already send a request\");\r\n        Request_index=Request_index+1;\r\n        requests.push(request(Request_index,msg.sender,_patient,block.timestamp));\r\n        emit RequestAccess(msg.sender, _patient);\r\n        return true;\r\n    }\r\n\r\n     function get_all_requests() view public returns(request[] memory) {\r\n        //IN JS convert a Unix timestamp to a human-readable\r\n        // const unixTimestamp = date.currentTimestamp();\r\n        // const date = new Date(unixTimestamp * 1000);\r\n        // const humanReadableDate = date.toLocaleString();\r\n\r\n        // Also, be handled, cause it show all requests at blockchain NOT whose patient's requests \r\n        // it will be solved by check\r\n        // for (i=0 ; i<requests.lenght;i++ ){\r\n        // \"if (requests.to_patients_addr == accounts[0]){....}\" \r\n        //}\r\n        return (requests);\r\n\r\n    }\r\n\r\n        \r\n    function addRecord( string memory _category, string  memory _patient_name, string memory _rec_name, string  memory _Created_at, address _patientAddr, address _doctor_addr, string memory _hex_ipfs) onlydoctors public returns(bool){\r\n        require(hasRole(PATIENT_ROLE, _patientAddr),\"This patients is not exisit\");\r\n        require(isAuth[_patientAddr][msg.sender],\"No permission to add Records\");\r\n        require(_doctor_addr == msg.sender, \"No permission to this Doctor\" );\r\n        Record_index=Record_index+1;\r\n        patients[_patientAddr].Records.push(record(Record_index, _category, _patient_name, _rec_name, _Created_at, _patientAddr, _doctor_addr, _hex_ipfs));\r\n        return true;\r\n    }\r\n\r\n    \r\n\r\n\r\n    function See_Record_for_Doctor(address _patientAddr) onlydoctors view public returns(record[] memory){\r\n       require(isAuth[_patientAddr][msg.sender],\"No permission to get Records\");\r\n        require(hasRole(PATIENT_ROLE, _patientAddr),\"This patients is not exisit\");\r\n        require(patients[_patientAddr].Records.length>0,\"patient record doesn't exist\");\r\n        return (patients[_patientAddr].Records);\r\n\r\n    }\r\n\r\n\r\n\r\n///////////////////////////////////\r\n\r\n    //Tasks done by Patient (sign in)\r\n\r\n    //1.view his all records\r\n    //2.accept request sended by doctor\r\n    //3.rejected request sended by doctor\r\n    //4.give permission to doctor bt himself\r\n    //5.see requestes from doctors\r\n    //6.view his profile info\r\n\r\n\r\n\r\n    // function get_patient_by_address(address _addr) view public onlypatient returns(patient memory) {\r\n    // require( _addr == msg.sender, \"Not The Same Signed Account!!\");  \r\n    // return (patients[_addr]);\r\n    // }\r\n\r\n    function get_patient_by_address(address _addr) view public  returns(patient memory) {\r\n   // require( _addr == msg.sender, \"Not The Same Signed Account!!\");  \r\n    return (patients[_addr]);\r\n    }\r\n\r\n\r\n\r\n     function See_Record_for_Patient() onlypatient view public returns(record[] memory){\r\n        require(patients[msg.sender].Records.length > 0,\"patient record doesn't exist\");\r\n        return (patients[msg.sender].Records);\r\n\r\n    }\r\n\r\n    function approveAccess(address _doctor) onlypatient  public {\r\n        require(hasRole(DOCTOR_ROLE, _doctor), \"this acount is not a doctor \");\r\n        require((isAuth[msg.sender][_doctor]) == false, \"This Request alraedy been Approved!! \");\r\n        isAuth[msg.sender][_doctor] = true;\r\n        emit AccessGranted(_doctor, msg.sender);\r\n    }\r\n\r\n    function check_approve_Access(address _doctor, address _patient) view onlydoctors public returns(bool ) {\r\n            return(isAuth[_patient][_doctor]);\r\n        }\r\n\r\n\r\n    function rejectAccess(address _doctor) onlypatient public {\r\n        require(hasRole(DOCTOR_ROLE, _doctor), \"Doctor does not have the doctor role\");\r\n        require((isAuth[msg.sender][_doctor]) == true, \"This Request alraedy been Reject!! \");\r\n        isAuth[msg.sender][_doctor] = false;\r\n        emit AccessRejected(_doctor, msg.sender);\r\n    }\r\n\r\n   \r\n\r\n}",
  "sourcePath": "G:\\BFCAI\\project\\penultimate-modification\\contracts\\MedRecChain.sol",
  "compiler": {
    "name": "solc",
    "version": "0.8.19+commit.7dd6d404.Emscripten.clang"
  },
  "schemaVersion": "3.4.13",
  "updatedAt": "2023-05-10T19:38:11.599Z",
  "networkType": "ethereum",
  "devdoc": {
    "events": {
      "RoleAdminChanged(bytes32,bytes32,bytes32)": {
        "details": "Emitted when `newAdminRole` is set as ``role``'s admin role, replacing `previousAdminRole` `DEFAULT_ADMIN_ROLE` is the starting admin for all roles, despite {RoleAdminChanged} not being emitted signaling this. _Available since v3.1._"
      },
      "RoleGranted(bytes32,address,address)": {
        "details": "Emitted when `account` is granted `role`. `sender` is the account that originated the contract call, an admin role bearer except when using {AccessControl-_setupRole}."
      },
      "RoleRevoked(bytes32,address,address)": {
        "details": "Emitted when `account` is revoked `role`. `sender` is the account that originated the contract call:   - if using `revokeRole`, it is the admin role bearer   - if using `renounceRole`, it is the role bearer (i.e. `account`)"
      }
    },
    "kind": "dev",
    "methods": {
      "getRoleAdmin(bytes32)": {
        "details": "Returns the admin role that controls `role`. See {grantRole} and {revokeRole}. To change a role's admin, use {_setRoleAdmin}."
      },
      "grantRole(bytes32,address)": {
        "details": "Grants `role` to `account`. If `account` had not been already granted `role`, emits a {RoleGranted} event. Requirements: - the caller must have ``role``'s admin role. May emit a {RoleGranted} event."
      },
      "hasRole(bytes32,address)": {
        "details": "Returns `true` if `account` has been granted `role`."
      },
      "renounceRole(bytes32,address)": {
        "details": "Revokes `role` from the calling account. Roles are often managed via {grantRole} and {revokeRole}: this function's purpose is to provide a mechanism for accounts to lose their privileges if they are compromised (such as when a trusted device is misplaced). If the calling account had been revoked `role`, emits a {RoleRevoked} event. Requirements: - the caller must be `account`. May emit a {RoleRevoked} event."
      },
      "revokeRole(bytes32,address)": {
        "details": "Revokes `role` from `account`. If `account` had been granted `role`, emits a {RoleRevoked} event. Requirements: - the caller must have ``role``'s admin role. May emit a {RoleRevoked} event."
      },
      "supportsInterface(bytes4)": {
        "details": "See {IERC165-supportsInterface}."
      }
    },
    "version": 1
  },
  "userdoc": {
    "kind": "user",
    "methods": {},
    "version": 1
  }
}