{
  "contractName": "MedRecChain",
  "abi": [
    {
      "inputs": [],
      "stateMutability": "nonpayable",
      "type": "constructor"
    },
    {
      "anonymous": false,
      "inputs": [
        {
          "indexed": true,
          "internalType": "address",
          "name": "Doctor_Address",
          "type": "address"
        },
        {
          "indexed": true,
          "internalType": "address",
          "name": "Patient_Address",
          "type": "address"
        }
      ],
      "name": "AccessGranted",
      "type": "event"
    },
    {
      "anonymous": false,
      "inputs": [
        {
          "indexed": true,
          "internalType": "address",
          "name": "Doctor_Address",
          "type": "address"
        },
        {
          "indexed": true,
          "internalType": "address",
          "name": "Patient_Address",
          "type": "address"
        }
      ],
      "name": "AccessRejected",
      "type": "event"
    },
    {
      "anonymous": false,
      "inputs": [
        {
          "indexed": true,
          "internalType": "address",
          "name": "requester",
          "type": "address"
        },
        {
          "indexed": true,
          "internalType": "address",
          "name": "patient",
          "type": "address"
        }
      ],
      "name": "RequestAccess",
      "type": "event"
    },
    {
      "anonymous": false,
      "inputs": [
        {
          "indexed": true,
          "internalType": "bytes32",
          "name": "role",
          "type": "bytes32"
        },
        {
          "indexed": true,
          "internalType": "bytes32",
          "name": "previousAdminRole",
          "type": "bytes32"
        },
        {
          "indexed": true,
          "internalType": "bytes32",
          "name": "newAdminRole",
          "type": "bytes32"
        }
      ],
      "name": "RoleAdminChanged",
      "type": "event"
    },
    {
      "anonymous": false,
      "inputs": [
        {
          "indexed": true,
          "internalType": "bytes32",
          "name": "role",
          "type": "bytes32"
        },
        {
          "indexed": true,
          "internalType": "address",
          "name": "account",
          "type": "address"
        },
        {
          "indexed": true,
          "internalType": "address",
          "name": "sender",
          "type": "address"
        }
      ],
      "name": "RoleGranted",
      "type": "event"
    },
    {
      "anonymous": false,
      "inputs": [
        {
          "indexed": true,
          "internalType": "bytes32",
          "name": "role",
          "type": "bytes32"
        },
        {
          "indexed": true,
          "internalType": "address",
          "name": "account",
          "type": "address"
        },
        {
          "indexed": true,
          "internalType": "address",
          "name": "sender",
          "type": "address"
        }
      ],
      "name": "RoleRevoked",
      "type": "event"
    },
    {
      "inputs": [],
      "name": "ADMIN_ROLE",
      "outputs": [
        {
          "internalType": "bytes32",
          "name": "",
          "type": "bytes32"
        }
      ],
      "stateMutability": "view",
      "type": "function",
      "constant": true
    },
    {
      "inputs": [],
      "name": "Admin",
      "outputs": [
        {
          "internalType": "address",
          "name": "",
          "type": "address"
        }
      ],
      "stateMutability": "view",
      "type": "function",
      "constant": true
    },
    {
      "inputs": [],
      "name": "DEFAULT_ADMIN_ROLE",
      "outputs": [
        {
          "internalType": "bytes32",
          "name": "",
          "type": "bytes32"
        }
      ],
      "stateMutability": "view",
      "type": "function",
      "constant": true
    },
    {
      "inputs": [],
      "name": "DOCTOR_ROLE",
      "outputs": [
        {
          "internalType": "bytes32",
          "name": "",
          "type": "bytes32"
        }
      ],
      "stateMutability": "view",
      "type": "function",
      "constant": true
    },
    {
      "inputs": [],
      "name": "HOSPITAL_ROLE",
      "outputs": [
        {
          "internalType": "bytes32",
          "name": "",
          "type": "bytes32"
        }
      ],
      "stateMutability": "view",
      "type": "function",
      "constant": true
    },
    {
      "inputs": [
        {
          "internalType": "uint256",
          "name": "",
          "type": "uint256"
        }
      ],
      "name": "Hospitals_keys",
      "outputs": [
        {
          "internalType": "address",
          "name": "",
          "type": "address"
        }
      ],
      "stateMutability": "view",
      "type": "function",
      "constant": true
    },
    {
      "inputs": [],
      "name": "PATIENT_ROLE",
      "outputs": [
        {
          "internalType": "bytes32",
          "name": "",
          "type": "bytes32"
        }
      ],
      "stateMutability": "view",
      "type": "function",
      "constant": true
    },
    {
      "inputs": [
        {
          "internalType": "bytes32",
          "name": "role",
          "type": "bytes32"
        }
      ],
      "name": "getRoleAdmin",
      "outputs": [
        {
          "internalType": "bytes32",
          "name": "",
          "type": "bytes32"
        }
      ],
      "stateMutability": "view",
      "type": "function",
      "constant": true
    },
    {
      "inputs": [
        {
          "internalType": "bytes32",
          "name": "role",
          "type": "bytes32"
        },
        {
          "internalType": "address",
          "name": "account",
          "type": "address"
        }
      ],
      "name": "grantRole",
      "outputs": [],
      "stateMutability": "nonpayable",
      "type": "function"
    },
    {
      "inputs": [
        {
          "internalType": "bytes32",
          "name": "role",
          "type": "bytes32"
        },
        {
          "internalType": "address",
          "name": "account",
          "type": "address"
        }
      ],
      "name": "hasRole",
      "outputs": [
        {
          "internalType": "bool",
          "name": "",
          "type": "bool"
        }
      ],
      "stateMutability": "view",
      "type": "function",
      "constant": true
    },
    {
      "inputs": [
        {
          "internalType": "bytes32",
          "name": "role",
          "type": "bytes32"
        },
        {
          "internalType": "address",
          "name": "account",
          "type": "address"
        }
      ],
      "name": "renounceRole",
      "outputs": [],
      "stateMutability": "nonpayable",
      "type": "function"
    },
    {
      "inputs": [
        {
          "internalType": "uint256",
          "name": "",
          "type": "uint256"
        }
      ],
      "name": "requests",
      "outputs": [
        {
          "internalType": "uint256",
          "name": "id",
          "type": "uint256"
        },
        {
          "internalType": "address",
          "name": "from_doctor_addr",
          "type": "address"
        },
        {
          "internalType": "address",
          "name": "to_patients_addr",
          "type": "address"
        },
        {
          "internalType": "uint256",
          "name": "date",
          "type": "uint256"
        },
        {
          "internalType": "string",
          "name": "patient_name",
          "type": "string"
        },
        {
          "internalType": "string",
          "name": "doctor_name",
          "type": "string"
        }
      ],
      "stateMutability": "view",
      "type": "function",
      "constant": true
    },
    {
      "inputs": [
        {
          "internalType": "bytes32",
          "name": "role",
          "type": "bytes32"
        },
        {
          "internalType": "address",
          "name": "account",
          "type": "address"
        }
      ],
      "name": "revokeRole",
      "outputs": [],
      "stateMutability": "nonpayable",
      "type": "function"
    },
    {
      "inputs": [
        {
          "internalType": "bytes4",
          "name": "interfaceId",
          "type": "bytes4"
        }
      ],
      "name": "supportsInterface",
      "outputs": [
        {
          "internalType": "bool",
          "name": "",
          "type": "bool"
        }
      ],
      "stateMutability": "view",
      "type": "function",
      "constant": true
    },
    {
      "inputs": [],
      "name": "logg",
      "outputs": [
        {
          "internalType": "uint256",
          "name": "role",
          "type": "uint256"
        }
      ],
      "stateMutability": "view",
      "type": "function",
      "constant": true
    },
    {
      "inputs": [
        {
          "internalType": "string",
          "name": "_name",
          "type": "string"
        },
        {
          "internalType": "address",
          "name": "_address",
          "type": "address"
        },
        {
          "internalType": "string",
          "name": "_place",
          "type": "string"
        },
        {
          "internalType": "uint256",
          "name": "_phone",
          "type": "uint256"
        }
      ],
      "name": "addhospital",
      "outputs": [
        {
          "internalType": "bool",
          "name": "success",
          "type": "bool"
        }
      ],
      "stateMutability": "nonpayable",
      "type": "function"
    },
    {
      "inputs": [
        {
          "internalType": "address",
          "name": "_hosAddress",
          "type": "address"
        }
      ],
      "name": "removeitem_hos",
      "outputs": [],
      "stateMutability": "nonpayable",
      "type": "function"
    },
    {
      "inputs": [
        {
          "internalType": "address",
          "name": "_address",
          "type": "address"
        }
      ],
      "name": "removehospital",
      "outputs": [
        {
          "internalType": "bool",
          "name": "success",
          "type": "bool"
        }
      ],
      "stateMutability": "nonpayable",
      "type": "function"
    },
    {
      "inputs": [],
      "name": "get_all_hospitals",
      "outputs": [
        {
          "components": [
            {
              "internalType": "uint256",
              "name": "id",
              "type": "uint256"
            },
            {
              "internalType": "string",
              "name": "name",
              "type": "string"
            },
            {
              "internalType": "address",
              "name": "addr",
              "type": "address"
            },
            {
              "internalType": "string",
              "name": "place",
              "type": "string"
            },
            {
              "internalType": "uint256",
              "name": "phone",
              "type": "uint256"
            }
          ],
          "internalType": "struct MedRecChain.Hospital[]",
          "name": "",
          "type": "tuple[]"
        }
      ],
      "stateMutability": "view",
      "type": "function",
      "constant": true
    },
    {
      "inputs": [
        {
          "internalType": "string",
          "name": "_name",
          "type": "string"
        },
        {
          "internalType": "string",
          "name": "_hospital_name",
          "type": "string"
        },
        {
          "internalType": "address",
          "name": "_hospital_addr",
          "type": "address"
        },
        {
          "internalType": "uint256",
          "name": "_phone",
          "type": "uint256"
        },
        {
          "internalType": "string",
          "name": "_email",
          "type": "string"
        },
        {
          "internalType": "uint256",
          "name": "_age",
          "type": "uint256"
        },
        {
          "internalType": "string",
          "name": "_place",
          "type": "string"
        },
        {
          "internalType": "string",
          "name": "_Medical_specialty",
          "type": "string"
        },
        {
          "internalType": "address",
          "name": "_docAddress",
          "type": "address"
        }
      ],
      "name": "addDoctor",
      "outputs": [
        {
          "internalType": "bool",
          "name": "success",
          "type": "bool"
        }
      ],
      "stateMutability": "nonpayable",
      "type": "function"
    },
    {
      "inputs": [
        {
          "internalType": "address",
          "name": "_docAddress",
          "type": "address"
        }
      ],
      "name": "removeitem_doc",
      "outputs": [],
      "stateMutability": "nonpayable",
      "type": "function"
    },
    {
      "inputs": [
        {
          "internalType": "address",
          "name": "_docAddress",
          "type": "address"
        }
      ],
      "name": "removeDoctor",
      "outputs": [
        {
          "internalType": "bool",
          "name": "success",
          "type": "bool"
        }
      ],
      "stateMutability": "nonpayable",
      "type": "function"
    },
    {
      "inputs": [],
      "name": "get_all_Doctors",
      "outputs": [
        {
          "components": [
            {
              "internalType": "uint256",
              "name": "id",
              "type": "uint256"
            },
            {
              "internalType": "string",
              "name": "name",
              "type": "string"
            },
            {
              "internalType": "string",
              "name": "hospital_name",
              "type": "string"
            },
            {
              "internalType": "address",
              "name": "hospital_addr",
              "type": "address"
            },
            {
              "internalType": "uint256",
              "name": "phone",
              "type": "uint256"
            },
            {
              "internalType": "string",
              "name": "email",
              "type": "string"
            },
            {
              "internalType": "uint256",
              "name": "age",
              "type": "uint256"
            },
            {
              "internalType": "string",
              "name": "place",
              "type": "string"
            },
            {
              "internalType": "string",
              "name": "Medical_specialty",
              "type": "string"
            },
            {
              "internalType": "address",
              "name": "docAddress",
              "type": "address"
            }
          ],
          "internalType": "struct MedRecChain.doctor[]",
          "name": "",
          "type": "tuple[]"
        }
      ],
      "stateMutability": "view",
      "type": "function",
      "constant": true
    },
    {
      "inputs": [],
      "name": "get_record_number",
      "outputs": [
        {
          "internalType": "uint256",
          "name": "i",
          "type": "uint256"
        }
      ],
      "stateMutability": "view",
      "type": "function",
      "constant": true
    },
    {
      "inputs": [
        {
          "internalType": "address",
          "name": "_addr",
          "type": "address"
        }
      ],
      "name": "get_hospita_by_address",
      "outputs": [
        {
          "components": [
            {
              "internalType": "uint256",
              "name": "id",
              "type": "uint256"
            },
            {
              "internalType": "string",
              "name": "name",
              "type": "string"
            },
            {
              "internalType": "address",
              "name": "addr",
              "type": "address"
            },
            {
              "internalType": "string",
              "name": "place",
              "type": "string"
            },
            {
              "internalType": "uint256",
              "name": "phone",
              "type": "uint256"
            }
          ],
          "internalType": "struct MedRecChain.Hospital",
          "name": "",
          "type": "tuple"
        }
      ],
      "stateMutability": "view",
      "type": "function",
      "constant": true
    },
    {
      "inputs": [
        {
          "internalType": "string",
          "name": "_name",
          "type": "string"
        },
        {
          "internalType": "string",
          "name": "_email",
          "type": "string"
        },
        {
          "internalType": "string",
          "name": "_National_Addr",
          "type": "string"
        },
        {
          "internalType": "uint256",
          "name": "_National_id",
          "type": "uint256"
        },
        {
          "internalType": "uint256",
          "name": "_age",
          "type": "uint256"
        },
        {
          "internalType": "address",
          "name": "_PatientAddress",
          "type": "address"
        },
        {
          "internalType": "uint256",
          "name": "_phone",
          "type": "uint256"
        },
        {
          "internalType": "string",
          "name": "_Blood_Type",
          "type": "string"
        },
        {
          "internalType": "string",
          "name": "_marital_status",
          "type": "string"
        },
        {
          "internalType": "string",
          "name": "_gender",
          "type": "string"
        }
      ],
      "name": "addPatient",
      "outputs": [
        {
          "internalType": "bool",
          "name": "success",
          "type": "bool"
        }
      ],
      "stateMutability": "nonpayable",
      "type": "function"
    },
    {
      "inputs": [],
      "name": "get_all_Patients",
      "outputs": [
        {
          "components": [
            {
              "internalType": "uint256",
              "name": "id",
              "type": "uint256"
            },
            {
              "internalType": "string",
              "name": "name",
              "type": "string"
            },
            {
              "internalType": "string",
              "name": "email",
              "type": "string"
            },
            {
              "internalType": "string",
              "name": "National_Addr",
              "type": "string"
            },
            {
              "internalType": "uint256",
              "name": "National_id",
              "type": "uint256"
            },
            {
              "internalType": "uint256",
              "name": "age",
              "type": "uint256"
            },
            {
              "internalType": "address",
              "name": "PatientAddress",
              "type": "address"
            },
            {
              "internalType": "uint256",
              "name": "phone",
              "type": "uint256"
            },
            {
              "internalType": "string",
              "name": "Blood_Type",
              "type": "string"
            },
            {
              "internalType": "string",
              "name": "marital_status",
              "type": "string"
            },
            {
              "internalType": "string",
              "name": "gender",
              "type": "string"
            },
            {
              "internalType": "address",
              "name": "hospital_addr",
              "type": "address"
            },
            {
              "components": [
                {
                  "internalType": "uint256",
                  "name": "Medical_id",
                  "type": "uint256"
                },
                {
                  "internalType": "string",
                  "name": "category",
                  "type": "string"
                },
                {
                  "internalType": "string",
                  "name": "patient_name",
                  "type": "string"
                },
                {
                  "internalType": "string",
                  "name": "rec_name",
                  "type": "string"
                },
                {
                  "internalType": "string",
                  "name": "Created_at",
                  "type": "string"
                },
                {
                  "internalType": "address",
                  "name": "patient_addr",
                  "type": "address"
                },
                {
                  "internalType": "address",
                  "name": "doctor_addr",
                  "type": "address"
                },
                {
                  "internalType": "string",
                  "name": "hex_ipfs",
                  "type": "string"
                },
                {
                  "internalType": "string",
                  "name": "notes",
                  "type": "string"
                }
              ],
              "internalType": "struct MedRecChain.record[]",
              "name": "Records",
              "type": "tuple[]"
            }
          ],
          "internalType": "struct MedRecChain.patient[]",
          "name": "",
          "type": "tuple[]"
        }
      ],
      "stateMutability": "view",
      "type": "function",
      "constant": true
    },
    {
      "inputs": [
        {
          "internalType": "address",
          "name": "_addr",
          "type": "address"
        }
      ],
      "name": "get_doctor_by_address",
      "outputs": [
        {
          "components": [
            {
              "internalType": "uint256",
              "name": "id",
              "type": "uint256"
            },
            {
              "internalType": "string",
              "name": "name",
              "type": "string"
            },
            {
              "internalType": "string",
              "name": "hospital_name",
              "type": "string"
            },
            {
              "internalType": "address",
              "name": "hospital_addr",
              "type": "address"
            },
            {
              "internalType": "uint256",
              "name": "phone",
              "type": "uint256"
            },
            {
              "internalType": "string",
              "name": "email",
              "type": "string"
            },
            {
              "internalType": "uint256",
              "name": "age",
              "type": "uint256"
            },
            {
              "internalType": "string",
              "name": "place",
              "type": "string"
            },
            {
              "internalType": "string",
              "name": "Medical_specialty",
              "type": "string"
            },
            {
              "internalType": "address",
              "name": "docAddress",
              "type": "address"
            }
          ],
          "internalType": "struct MedRecChain.doctor",
          "name": "",
          "type": "tuple"
        }
      ],
      "stateMutability": "view",
      "type": "function",
      "constant": true
    },
    {
      "inputs": [
        {
          "internalType": "address",
          "name": "_from_doctor_addr",
          "type": "address"
        },
        {
          "internalType": "address",
          "name": "_to_patients_addr",
          "type": "address"
        }
      ],
      "name": "checkRequestExists",
      "outputs": [
        {
          "internalType": "bool",
          "name": "",
          "type": "bool"
        }
      ],
      "stateMutability": "view",
      "type": "function",
      "constant": true
    },
    {
      "inputs": [
        {
          "internalType": "address",
          "name": "_patient",
          "type": "address"
        },
        {
          "internalType": "address",
          "name": "_doctor",
          "type": "address"
        }
      ],
      "name": "send_request_Access",
      "outputs": [
        {
          "internalType": "bool",
          "name": "success",
          "type": "bool"
        }
      ],
      "stateMutability": "nonpayable",
      "type": "function"
    },
    {
      "inputs": [],
      "name": "get_all_requests",
      "outputs": [
        {
          "components": [
            {
              "internalType": "uint256",
              "name": "id",
              "type": "uint256"
            },
            {
              "internalType": "address",
              "name": "from_doctor_addr",
              "type": "address"
            },
            {
              "internalType": "address",
              "name": "to_patients_addr",
              "type": "address"
            },
            {
              "internalType": "uint256",
              "name": "date",
              "type": "uint256"
            },
            {
              "internalType": "string",
              "name": "patient_name",
              "type": "string"
            },
            {
              "internalType": "string",
              "name": "doctor_name",
              "type": "string"
            }
          ],
          "internalType": "struct MedRecChain.request[]",
          "name": "",
          "type": "tuple[]"
        }
      ],
      "stateMutability": "view",
      "type": "function",
      "constant": true
    },
    {
      "inputs": [
        {
          "internalType": "string",
          "name": "_category",
          "type": "string"
        },
        {
          "internalType": "string",
          "name": "_patient_name",
          "type": "string"
        },
        {
          "internalType": "string",
          "name": "_rec_name",
          "type": "string"
        },
        {
          "internalType": "string",
          "name": "_Created_at",
          "type": "string"
        },
        {
          "internalType": "address",
          "name": "_patientAddr",
          "type": "address"
        },
        {
          "internalType": "address",
          "name": "_doctor_addr",
          "type": "address"
        },
        {
          "internalType": "string",
          "name": "_hex_ipfs",
          "type": "string"
        },
        {
          "internalType": "string",
          "name": "_notes",
          "type": "string"
        }
      ],
      "name": "addRecord",
      "outputs": [
        {
          "internalType": "bool",
          "name": "",
          "type": "bool"
        }
      ],
      "stateMutability": "nonpayable",
      "type": "function"
    },
    {
      "inputs": [
        {
          "internalType": "address",
          "name": "_addr",
          "type": "address"
        }
      ],
      "name": "get_patient_by_address",
      "outputs": [
        {
          "components": [
            {
              "internalType": "uint256",
              "name": "id",
              "type": "uint256"
            },
            {
              "internalType": "string",
              "name": "name",
              "type": "string"
            },
            {
              "internalType": "string",
              "name": "email",
              "type": "string"
            },
            {
              "internalType": "string",
              "name": "National_Addr",
              "type": "string"
            },
            {
              "internalType": "uint256",
              "name": "National_id",
              "type": "uint256"
            },
            {
              "internalType": "uint256",
              "name": "age",
              "type": "uint256"
            },
            {
              "internalType": "address",
              "name": "PatientAddress",
              "type": "address"
            },
            {
              "internalType": "uint256",
              "name": "phone",
              "type": "uint256"
            },
            {
              "internalType": "string",
              "name": "Blood_Type",
              "type": "string"
            },
            {
              "internalType": "string",
              "name": "marital_status",
              "type": "string"
            },
            {
              "internalType": "string",
              "name": "gender",
              "type": "string"
            },
            {
              "internalType": "address",
              "name": "hospital_addr",
              "type": "address"
            },
            {
              "components": [
                {
                  "internalType": "uint256",
                  "name": "Medical_id",
                  "type": "uint256"
                },
                {
                  "internalType": "string",
                  "name": "category",
                  "type": "string"
                },
                {
                  "internalType": "string",
                  "name": "patient_name",
                  "type": "string"
                },
                {
                  "internalType": "string",
                  "name": "rec_name",
                  "type": "string"
                },
                {
                  "internalType": "string",
                  "name": "Created_at",
                  "type": "string"
                },
                {
                  "internalType": "address",
                  "name": "patient_addr",
                  "type": "address"
                },
                {
                  "internalType": "address",
                  "name": "doctor_addr",
                  "type": "address"
                },
                {
                  "internalType": "string",
                  "name": "hex_ipfs",
                  "type": "string"
                },
                {
                  "internalType": "string",
                  "name": "notes",
                  "type": "string"
                }
              ],
              "internalType": "struct MedRecChain.record[]",
              "name": "Records",
              "type": "tuple[]"
            }
          ],
          "internalType": "struct MedRecChain.patient",
          "name": "",
          "type": "tuple"
        }
      ],
      "stateMutability": "view",
      "type": "function",
      "constant": true
    },
    {
      "inputs": [],
      "name": "See_Record_for_Patient",
      "outputs": [
        {
          "components": [
            {
              "internalType": "uint256",
              "name": "Medical_id",
              "type": "uint256"
            },
            {
              "internalType": "string",
              "name": "category",
              "type": "string"
            },
            {
              "internalType": "string",
              "name": "patient_name",
              "type": "string"
            },
            {
              "internalType": "string",
              "name": "rec_name",
              "type": "string"
            },
            {
              "internalType": "string",
              "name": "Created_at",
              "type": "string"
            },
            {
              "internalType": "address",
              "name": "patient_addr",
              "type": "address"
            },
            {
              "internalType": "address",
              "name": "doctor_addr",
              "type": "address"
            },
            {
              "internalType": "string",
              "name": "hex_ipfs",
              "type": "string"
            },
            {
              "internalType": "string",
              "name": "notes",
              "type": "string"
            }
          ],
          "internalType": "struct MedRecChain.record[]",
          "name": "",
          "type": "tuple[]"
        }
      ],
      "stateMutability": "view",
      "type": "function",
      "constant": true
    },
    {
      "inputs": [
        {
          "internalType": "address",
          "name": "_doctor",
          "type": "address"
        }
      ],
      "name": "approveAccess",
      "outputs": [],
      "stateMutability": "nonpayable",
      "type": "function"
    },
    {
      "inputs": [
        {
          "internalType": "address",
          "name": "_doctor",
          "type": "address"
        },
        {
          "internalType": "address",
          "name": "_patient",
          "type": "address"
        }
      ],
      "name": "check_approve_Access",
      "outputs": [
        {
          "internalType": "bool",
          "name": "",
          "type": "bool"
        }
      ],
      "stateMutability": "view",
      "type": "function",
      "constant": true
    },
    {
      "inputs": [
        {
          "internalType": "address",
          "name": "doc",
          "type": "address"
        },
        {
          "internalType": "address",
          "name": "pat",
          "type": "address"
        }
      ],
      "name": "DeleteRequest",
      "outputs": [],
      "stateMutability": "nonpayable",
      "type": "function"
    },
    {
      "inputs": [
        {
          "internalType": "address",
          "name": "_doctor",
          "type": "address"
        }
      ],
      "name": "rejectAccess",
      "outputs": [],
      "stateMutability": "nonpayable",
      "type": "function"
    }
  ],
  "bytecode": "0x6080604052600180546001600160a01b03191673e374d964318b4a333db68c776674c6788092660a1790553480156200003757600080fd5b5060015462000071907fa49807205ce4d355092ef5a8a18f56e8913cf4a201fbe287825b095693c21775906001600160a01b031662000077565b62000127565b62000083828262000087565b5050565b6000828152602081815260408083206001600160a01b038516845290915290205460ff1662000083576000828152602081815260408083206001600160a01b03851684529091529020805460ff19166001179055620000e33390565b6001600160a01b0316816001600160a01b0316837f2f8788117e7eff1d82e926ec794901d17c78024a50270940304540a733656f0d60405160405180910390a45050565b615b4380620001376000396000f3fe608060405234801561001057600080fd5b50600436106101c25760003560e01c806301ffc9a7146101c7578063217e16f7146101ef57806321ea00a91461020457806323654cc41461021a578063248a9ca31461022d57806324ca3b35146102405780632f2ff15d146102535780633141172c1461026857806336568abe1461027b578063432d62741461028e57806353bbcf03146102b9578063705211f4146102c157806375b238fc146102d457806381d12c58146102e957806385b5f7fc1461030e5780638f333d7014610321578063905e03ba1461033657806391d148541461034957806393ac61771461035c57806398fc90e91461037c578063a217fddf1461038f578063a2cdceda14610397578063aa836ed2146103aa578063ac5cb97d146103bd578063aefae3b1146103d2578063bb5bfd66146103e5578063c10f7611146103fa578063c1b325711461040f578063c821f07f14610422578063d15258d114610442578063d547741f14610457578063d8b070fa1461046a578063f2b62d931461047d578063f6ba667814610490578063fd6ecf0b146104a5578063fe7ac90d146104c5578063fec331f2146104d8578063ff1b636d146104ed575b600080fd5b6101da6101d5366004614ab9565b610500565b60405190151581526020015b60405180910390f35b6101f7610537565b6040516101e69190614ba1565b61020c610785565b6040519081526020016101e6565b6101da610228366004614c1a565b610819565b61020c61023b366004614c4d565b610ac4565b6101da61024e366004614d08565b610ad9565b610266610261366004614e0e565b610df8565b005b610266610276366004614e31565b610e19565b610266610289366004614e0e565b610f2c565b6102a161029c366004614c4d565b610faa565b6040516001600160a01b0390911681526020016101e6565b61020c610fd4565b6102666102cf366004614e31565b611041565b61020c600080516020615ace83398151915281565b6102fc6102f7366004614c4d565b6111b2565b6040516101e696959493929190614e4c565b61026661031c366004614c1a565b61131a565b610329611783565b6040516101e69190614fc0565b6101da610344366004614fd3565b611be7565b6101da610357366004614e0e565b611e10565b61036f61036a366004614e31565b611e39565b6040516101e6919061504e565b6101da61038a366004614e31565b611fba565b61020c600081565b6102666103a5366004614e31565b612110565b6101da6103b8366004614c1a565b6122b2565b61020c600080516020615a8e83398151915281565b6101da6103e0366004614c1a565b612318565b6103ed6123cf565b6040516101e69190615061565b610402612583565b6040516101e69190615234565b61026661041d366004614e31565b612e33565b610435610430366004614e31565b612fab565b6040516101e6919061535a565b61044a613301565b6040516101e6919061536d565b610266610465366004614e0e565b613721565b6101da6104783660046153c2565b61373d565b6101da61048b3660046154e7565b613a5f565b61020c600080516020615aee83398151915281565b6104b86104b3366004614e31565b613d4e565b6040516101e691906155fe565b6101da6104d3366004614e31565b614536565b61020c600080516020615aae83398151915281565b6001546102a1906001600160a01b031681565b60006001600160e01b03198216637965db0b60e01b148061053157506301ffc9a760e01b6001600160e01b03198316145b92915050565b6004546060906000906001600160401b0381111561055757610557614c66565b60405190808252806020026020018201604052801561059057816020015b61057d61494f565b8152602001906001900390816105755790505b50905060005b60045481101561077f5760036000600483815481106105b7576105b7615611565b9060005260206000200160009054906101000a90046001600160a01b03166001600160a01b03166001600160a01b031681526020019081526020016000206040518060a00160405290816000820154815260200160018201805461061a90615627565b80601f016020809104026020016040519081016040528092919081815260200182805461064690615627565b80156106935780601f1061066857610100808354040283529160200191610693565b820191906000526020600020905b81548152906001019060200180831161067657829003601f168201915b505050918352505060028201546001600160a01b031660208201526003820180546040909201916106c390615627565b80601f01602080910402602001604051908101604052809291908181526020018280546106ef90615627565b801561073c5780601f106107115761010080835404028352916020019161073c565b820191906000526020600020905b81548152906001019060200180831161071f57829003601f168201915b5050505050815260200160048201548152505082828151811061076157610761615611565b6020026020010181905250808061077790615671565b915050610596565b50919050565b600061079f600080516020615ace83398151915233611e10565b156107aa5750600190565b6107c2600080516020615aee83398151915233611e10565b156107cd5750600290565b6107e5600080516020615aae83398151915233611e10565b156107f05750600390565b610808600080516020615a8e83398151915233611e10565b156108135750600490565b50600090565b6000610833600080516020615a8e83398151915284611e10565b6108a55760405162461bcd60e51b815260206004820152603860248201527f54686520706572736f6e20796f75206172652072657175657374696e6720616360448201527718d95cdcc81d1bc81a5cc81b9bdd08184814185d1a595b9d60421b60648201526084015b60405180910390fd5b6108af8284612318565b156108f55760405162461bcd60e51b8152602060048201526016602482015275185b1c9958591e481cd95b990818481c995c5d595cdd60521b604482015260640161089c565b600d5461090390600161568a565b600d55600061091184613d4e565b9050600061091e84612fab565b6040805160c081018252600d5481526001600160a01b0380881660208084019182528a8316948401948552426060850190815288820151608086019081529187015160a0860152600e8054600181018255600091909152855160069091027fbb7b4a454dc3493923482f07822329ed19e8244eff582cc204f8554c3620c3fd810191825593517fbb7b4a454dc3493923482f07822329ed19e8244eff582cc204f8554c3620c3fe850180549187166001600160a01b031992831617905596517fbb7b4a454dc3493923482f07822329ed19e8244eff582cc204f8554c3620c3ff850180549190961697169690961790935591517fbb7b4a454dc3493923482f07822329ed19e8244eff582cc204f8554c3620c400820155905193945090927fbb7b4a454dc3493923482f07822329ed19e8244eff582cc204f8554c3620c40190910190610a6b90826156eb565b5060a08201516005820190610a8090826156eb565b50506040516001600160a01b038716915033907fb8a82050b8f8de806a462f9a2bce72609174b2fc51d96606de7735fb6a6a236690600090a3506001949350505050565b60009081526020819052604090206001015490565b6000610af3600080516020615ace83398151915233611e10565b610b0f5760405162461bcd60e51b815260040161089c906157aa565b610b27600080516020615aae83398151915283611e10565b15610b745760405162461bcd60e51b815260206004820152601d60248201527f54686973206163636f756e7420616c7265616479206120646f63746f72000000604482015260640161089c565b610b8c600080516020615ace83398151915283611e10565b15610ba95760405162461bcd60e51b815260040161089c906157fa565b610bc1600080516020615aee83398151915283611e10565b15610bde5760405162461bcd60e51b815260040161089c9061582c565b610bf6600080516020615a8e83398151915283611e10565b15610c135760405162461bcd60e51b815260040161089c90615861565b610c2b600080516020615aee83398151915289611e10565b610c475760405162461bcd60e51b815260040161089c90615895565b610c5f600080516020615aae83398151915283614642565b600a54610c6d90600161568a565b600a819055604080516101408101825291825260208083018d81528383018d90526001600160a01b03808d166060860152608085018c905260a085018b905260c085018a905260e08501899052610100850188905286166101208501819052600090815260079092529190208251815590516001820190610cee90826156eb565b5060408201516002820190610d0390826156eb565b5060608201516003820180546001600160a01b0319166001600160a01b039092169190911790556080820151600482015560a08201516005820190610d4890826156eb565b5060c0820151600682015560e08201516007820190610d6790826156eb565b506101008201516008820190610d7d90826156eb565b506101209190910151600990910180546001600160a01b03199081166001600160a01b039384161790915560088054600181810183556000929092527ff3f7a9fe364faab93b216da50a3214154f22a0a2b415b23a84c8169e8b636ee301805490921694909216939093179092555098975050505050505050565b610e0182610ac4565b610e0a8161464c565b610e148383614659565b505050565b610e31600080516020615a8e83398151915233611e10565b610e4d5760405162461bcd60e51b815260040161089c906158d6565b610e65600080516020615aae83398151915282611e10565b610ebd5760405162461bcd60e51b8152602060048201526024808201527f446f63746f7220646f6573206e6f7420686176652074686520646f63746f7220604482015263726f6c6560e01b606482015260840161089c565b3360008181526002602090815260408083206001600160a01b03861684529091529020805460ff19169055610ef390829061131a565b60405133906001600160a01b038316907f6586985f73a63d005b52bd5a5791732c40ec70b8fc067ab89f5c402185f0c6ea90600090a350565b6001600160a01b0381163314610f9c5760405162461bcd60e51b815260206004820152602f60248201527f416363657373436f6e74726f6c3a2063616e206f6e6c792072656e6f756e636560448201526e103937b632b9903337b91039b2b63360891b606482015260840161089c565b610fa682826146dd565b5050565b60048181548110610fba57600080fd5b6000918252602090912001546001600160a01b0316905081565b60008060005b60065481101561077f576005600060068381548110610ffb57610ffb615611565b60009182526020808320909101546001600160a01b031683528201929092526040019020600c015461102d908361568a565b91508061103981615671565b915050610fda565b611059600080516020615a8e83398151915233611e10565b6110755760405162461bcd60e51b815260040161089c906158d6565b61108d600080516020615aae83398151915282611e10565b6110d85760405162461bcd60e51b815260206004820152601c60248201527b03a3434b99030b1b7bab73a1034b9903737ba1030903237b1ba37b9160251b604482015260640161089c565b3360009081526002602090815260408083206001600160a01b038516845290915290205460ff161561115a5760405162461bcd60e51b815260206004820152602560248201527f54686973205265717565737420616c7261656479206265656e20417070726f76604482015264032b21090960dd1b606482015260840161089c565b3360008181526002602090815260408083206001600160a01b0386168085529252808320805460ff191660011790555190917f9f520b3bfc56d06f7065d10b4683b3f57ac8895d5026cd176dee95ce1454cb8d91a350565b600e81815481106111c257600080fd5b6000918252602090912060069091020180546001820154600283015460038401546004850180549496506001600160a01b0393841695929093169390929061120990615627565b80601f016020809104026020016040519081016040528092919081815260200182805461123590615627565b80156112825780601f1061125757610100808354040283529160200191611282565b820191906000526020600020905b81548152906001019060200180831161126557829003601f168201915b50505050509080600501805461129790615627565b80601f01602080910402602001604051908101604052809291908181526020018280546112c390615627565b80156113105780601f106112e557610100808354040283529160200191611310565b820191906000526020600020905b8154815290600101906020018083116112f357829003601f168201915b5050505050905086565b600e546113395760405162461bcd60e51b815260040161089c9061590b565b60005b600e54811015610e1457826040516020016113579190615935565b60405160208183030381529060405280519060200120600e828154811061138057611380615611565b6000918252602091829020600160069092020101546040516113ae926001600160a01b039092169101615935565b6040516020818303038152906040528051906020012014801561144c5750816040516020016113dd9190615935565b60405160208183030381529060405280519060200120600e828154811061140657611406615611565b600091825260209182902060026006909202010154604051611434926001600160a01b039092169101615935565b60405160208183030381529060405280519060200120145b1561177157600e818154811061146457611464615611565b6000918252602082206006909102018181556001810180546001600160a01b0319908116909155600282018054909116905560038101829055906114ab6004830182614987565b6114b9600583016000614987565b5050600e546000906114cd9060019061594d565b90506000600e82815481106114e4576114e4615611565b60009182526020918290206040805160c08101825260069093029091018054835260018101546001600160a01b03908116948401949094526002810154909316908201526003820154606082015260048201805491929160808401919061154a90615627565b80601f016020809104026020016040519081016040528092919081815260200182805461157690615627565b80156115c35780601f10611598576101008083540402835291602001916115c3565b820191906000526020600020905b8154815290600101906020018083116115a657829003601f168201915b505050505081526020016005820180546115dc90615627565b80601f016020809104026020016040519081016040528092919081815260200182805461160890615627565b80156116555780601f1061162a57610100808354040283529160200191611655565b820191906000526020600020905b81548152906001019060200180831161163857829003601f168201915b505050505081525050905080600e848154811061167457611674615611565b60009182526020918290208351600690920201908155908201516001820180546001600160a01b039283166001600160a01b031991821617909155604084015160028401805491909316911617905560608201516003820155608082015160048201906116e190826156eb565b5060a082015160058201906116f690826156eb565b50905050600e80548061170b5761170b615960565b6000828152602081206006600019909301928302018181556001810180546001600160a01b0319908116909155600282018054909116905560038101829055906117586004830182614987565b611766600583016000614987565b505090555050505050565b8061177b81615671565b91505061133c565b336000908152600560205260409020600c01546060906117e45760405162461bcd60e51b815260206004820152601c60248201527b1c185d1a595b9d081c9958dbdc9908191bd95cdb89dd08195e1a5cdd60221b604482015260640161089c565b336000908152600560209081526040808320600c0180548251818502810185019093528083529193909284015b82821015611bde5783829060005260206000209060090201604051806101200160405290816000820154815260200160018201805461184f90615627565b80601f016020809104026020016040519081016040528092919081815260200182805461187b90615627565b80156118c85780601f1061189d576101008083540402835291602001916118c8565b820191906000526020600020905b8154815290600101906020018083116118ab57829003601f168201915b505050505081526020016002820180546118e190615627565b80601f016020809104026020016040519081016040528092919081815260200182805461190d90615627565b801561195a5780601f1061192f5761010080835404028352916020019161195a565b820191906000526020600020905b81548152906001019060200180831161193d57829003601f168201915b5050505050815260200160038201805461197390615627565b80601f016020809104026020016040519081016040528092919081815260200182805461199f90615627565b80156119ec5780601f106119c1576101008083540402835291602001916119ec565b820191906000526020600020905b8154815290600101906020018083116119cf57829003601f168201915b50505050508152602001600482018054611a0590615627565b80601f0160208091040260200160405190810160405280929190818152602001828054611a3190615627565b8015611a7e5780601f10611a5357610100808354040283529160200191611a7e565b820191906000526020600020905b815481529060010190602001808311611a6157829003601f168201915b505050918352505060058201546001600160a01b0390811660208301526006830154166040820152600782018054606090920191611abb90615627565b80601f0160208091040260200160405190810160405280929190818152602001828054611ae790615627565b8015611b345780601f10611b0957610100808354040283529160200191611b34565b820191906000526020600020905b815481529060010190602001808311611b1757829003601f168201915b50505050508152602001600882018054611b4d90615627565b80601f0160208091040260200160405190810160405280929190818152602001828054611b7990615627565b8015611bc65780601f10611b9b57610100808354040283529160200191611bc6565b820191906000526020600020905b815481529060010190602001808311611ba957829003601f168201915b50505050508152505081526020019060010190611811565b50505050905090565b6000611c01600080516020615ace83398151915233611e10565b611c1d5760405162461bcd60e51b815260040161089c906157aa565b611c35600080516020615aee83398151915285611e10565b15611c525760405162461bcd60e51b815260040161089c90615895565b611c6a600080516020615ace83398151915285611e10565b15611c875760405162461bcd60e51b815260040161089c906157fa565b611c9f600080516020615aae83398151915285611e10565b15611cbc5760405162461bcd60e51b815260040161089c90615976565b611cd4600080516020615a8e83398151915285611e10565b15611cf15760405162461bcd60e51b815260040161089c90615861565b611d09600080516020615aee83398151915285614642565b600954611d1790600161568a565b60098190556040805160a08101825291825260208083018881526001600160a01b0388168484018190526060850188905260808501879052600090815260039092529190208251815590516001820190611d7190826156eb565b5060408201516002820180546001600160a01b0319166001600160a01b0390921691909117905560608201516003820190611dac90826156eb565b50608091909101516004918201558054600181810183556000929092527f8a35acfbc15ff81a39ae7d344fd709f28e8600b4aa8c65c6b64bfe7fe36bd19b0180546001600160a01b0387166001600160a01b03199091161790559050949350505050565b6000918252602082815260408084206001600160a01b0393909316845291905290205460ff1690565b611e4161494f565b6001600160a01b038216600090815260036020908152604091829020825160a08101909352805483526001810180549192840191611e7e90615627565b80601f0160208091040260200160405190810160405280929190818152602001828054611eaa90615627565b8015611ef75780601f10611ecc57610100808354040283529160200191611ef7565b820191906000526020600020905b815481529060010190602001808311611eda57829003601f168201915b505050918352505060028201546001600160a01b03166020820152600382018054604090920191611f2790615627565b80601f0160208091040260200160405190810160405280929190818152602001828054611f5390615627565b8015611fa05780601f10611f7557610100808354040283529160200191611fa0565b820191906000526020600020905b815481529060010190602001808311611f8357829003601f168201915b505050505081526020016004820154815250509050919050565b6000611fd4600080516020615ace83398151915233611e10565b611ff05760405162461bcd60e51b815260040161089c906157aa565b612008600080516020615aae83398151915283611e10565b61204e5760405162461bcd60e51b8152602060048201526017602482015276151a1a5cc81858d8dbdd5b9d081b9bdd08195e1a5cda5d604a1b604482015260640161089c565b6001600160a01b0382166000908152600760205260408120818155906120776001830182614987565b612085600283016000614987565b6003820180546001600160a01b03191690556000600483018190556120ae906005840190614987565b60068201600090556007820160006120c69190614987565b6120d4600883016000614987565b5060090180546001600160a01b03191690556120fe600080516020615aae833981519152836146dd565b61210782612110565b5060015b919050565b60085461212f5760405162461bcd60e51b815260040161089c9061590b565b60005b600854811015610fa6578160405160200161214d9190615935565b604051602081830303815290604052805190602001206008828154811061217657612176615611565b6000918252602091829020015460405161219c926001600160a01b039092169101615935565b60405160208183030381529060405280519060200120036122a057600881815481106121ca576121ca615611565b6000918252602082200180546001600160a01b03191690556008546121f19060019061594d565b905060006008828154811061220857612208615611565b600091825260209091200154600880546001600160a01b03909216925082918590811061223757612237615611565b9060005260206000200160006101000a8154816001600160a01b0302191690836001600160a01b03160217905550600880548061227657612276615960565b600082815260209020810160001990810180546001600160a01b031916905501905550610fa69050565b806122aa81615671565b915050612132565b60006122cc600080516020615aae83398151915233611e10565b6122e85760405162461bcd60e51b815260040161089c906159a9565b506001600160a01b0380821660009081526002602090815260408083209386168352929052205460ff1692915050565b6000805b600e548110156123c557836001600160a01b0316600e828154811061234357612343615611565b60009182526020909120600160069092020101546001600160a01b03161480156123a45750826001600160a01b0316600e828154811061238557612385615611565b60009182526020909120600260069092020101546001600160a01b0316145b156123b3576001915050610531565b806123bd81615671565b91505061231c565b5060009392505050565b6060600e805480602002602001604051908101604052809291908181526020016000905b82821015611bde5760008481526020908190206040805160c081018252600686029092018054835260018101546001600160a01b03908116948401949094526002810154909316908201526003820154606082015260048201805491929160808401919061246090615627565b80601f016020809104026020016040519081016040528092919081815260200182805461248c90615627565b80156124d95780601f106124ae576101008083540402835291602001916124d9565b820191906000526020600020905b8154815290600101906020018083116124bc57829003601f168201915b505050505081526020016005820180546124f290615627565b80601f016020809104026020016040519081016040528092919081815260200182805461251e90615627565b801561256b5780601f106125405761010080835404028352916020019161256b565b820191906000526020600020905b81548152906001019060200180831161254e57829003601f168201915b505050505081525050815260200190600101906123f3565b6006546060906000906001600160401b038111156125a3576125a3614c66565b6040519080825280602002602001820160405280156125dc57816020015b6125c96149c1565b8152602001906001900390816125c15790505b50905060005b60065481101561077f57600560006006838154811061260357612603615611565b9060005260206000200160009054906101000a90046001600160a01b03166001600160a01b03166001600160a01b03168152602001908152602001600020604051806101a00160405290816000820154815260200160018201805461266790615627565b80601f016020809104026020016040519081016040528092919081815260200182805461269390615627565b80156126e05780601f106126b5576101008083540402835291602001916126e0565b820191906000526020600020905b8154815290600101906020018083116126c357829003601f168201915b505050505081526020016002820180546126f990615627565b80601f016020809104026020016040519081016040528092919081815260200182805461272590615627565b80156127725780601f1061274757610100808354040283529160200191612772565b820191906000526020600020905b81548152906001019060200180831161275557829003601f168201915b5050505050815260200160038201805461278b90615627565b80601f01602080910402602001604051908101604052809291908181526020018280546127b790615627565b80156128045780601f106127d957610100808354040283529160200191612804565b820191906000526020600020905b8154815290600101906020018083116127e757829003601f168201915b5050509183525050600482015460208201526005820154604082015260068201546001600160a01b031660608201526007820154608082015260088201805460a09092019161285290615627565b80601f016020809104026020016040519081016040528092919081815260200182805461287e90615627565b80156128cb5780601f106128a0576101008083540402835291602001916128cb565b820191906000526020600020905b8154815290600101906020018083116128ae57829003601f168201915b505050505081526020016009820180546128e490615627565b80601f016020809104026020016040519081016040528092919081815260200182805461291090615627565b801561295d5780601f106129325761010080835404028352916020019161295d565b820191906000526020600020905b81548152906001019060200180831161294057829003601f168201915b50505050508152602001600a8201805461297690615627565b80601f01602080910402602001604051908101604052809291908181526020018280546129a290615627565b80156129ef5780601f106129c4576101008083540402835291602001916129ef565b820191906000526020600020905b8154815290600101906020018083116129d257829003601f168201915b5050509183525050600b8201546001600160a01b0316602080830191909152600c83018054604080518285028101850182528281529401939260009084015b82821015612dfb57838290600052602060002090600902016040518061012001604052908160008201548152602001600182018054612a6c90615627565b80601f0160208091040260200160405190810160405280929190818152602001828054612a9890615627565b8015612ae55780601f10612aba57610100808354040283529160200191612ae5565b820191906000526020600020905b815481529060010190602001808311612ac857829003601f168201915b50505050508152602001600282018054612afe90615627565b80601f0160208091040260200160405190810160405280929190818152602001828054612b2a90615627565b8015612b775780601f10612b4c57610100808354040283529160200191612b77565b820191906000526020600020905b815481529060010190602001808311612b5a57829003601f168201915b50505050508152602001600382018054612b9090615627565b80601f0160208091040260200160405190810160405280929190818152602001828054612bbc90615627565b8015612c095780601f10612bde57610100808354040283529160200191612c09565b820191906000526020600020905b815481529060010190602001808311612bec57829003601f168201915b50505050508152602001600482018054612c2290615627565b80601f0160208091040260200160405190810160405280929190818152602001828054612c4e90615627565b8015612c9b5780601f10612c7057610100808354040283529160200191612c9b565b820191906000526020600020905b815481529060010190602001808311612c7e57829003601f168201915b505050918352505060058201546001600160a01b0390811660208301526006830154166040820152600782018054606090920191612cd890615627565b80601f0160208091040260200160405190810160405280929190818152602001828054612d0490615627565b8015612d515780601f10612d2657610100808354040283529160200191612d51565b820191906000526020600020905b815481529060010190602001808311612d3457829003601f168201915b50505050508152602001600882018054612d6a90615627565b80601f0160208091040260200160405190810160405280929190818152602001828054612d9690615627565b8015612de35780601f10612db857610100808354040283529160200191612de3565b820191906000526020600020905b815481529060010190602001808311612dc657829003601f168201915b50505050508152505081526020019060010190612a2e565b5050505081525050828281518110612e1557612e15615611565b60200260200101819052508080612e2b90615671565b9150506125e2565b600454612e525760405162461bcd60e51b815260040161089c9061590b565b60005b600454811015610fa65781604051602001612e709190615935565b6040516020818303038152906040528051906020012060048281548110612e9957612e99615611565b60009182526020918290200154604051612ebf926001600160a01b039092169101615935565b6040516020818303038152906040528051906020012003612f995760048181548110612eed57612eed615611565b6000918252602082200180546001600160a01b0319169055600454612f149060019061594d565b9050600060048281548110612f2b57612f2b615611565b600091825260209091200154600480546001600160a01b039092169250829185908110612f5a57612f5a615611565b9060005260206000200160006101000a8154816001600160a01b0302191690836001600160a01b03160217905550600480548061227657612276615960565b80612fa381615671565b915050612e55565b612fb3614a3b565b6001600160a01b03821660009081526007602090815260409182902082516101408101909352805483526001810180549192840191612ff190615627565b80601f016020809104026020016040519081016040528092919081815260200182805461301d90615627565b801561306a5780601f1061303f5761010080835404028352916020019161306a565b820191906000526020600020905b81548152906001019060200180831161304d57829003601f168201915b5050505050815260200160028201805461308390615627565b80601f01602080910402602001604051908101604052809291908181526020018280546130af90615627565b80156130fc5780601f106130d1576101008083540402835291602001916130fc565b820191906000526020600020905b8154815290600101906020018083116130df57829003601f168201915b505050918352505060038201546001600160a01b031660208201526004820154604082015260058201805460609092019161313690615627565b80601f016020809104026020016040519081016040528092919081815260200182805461316290615627565b80156131af5780601f10613184576101008083540402835291602001916131af565b820191906000526020600020905b81548152906001019060200180831161319257829003601f168201915b50505050508152602001600682015481526020016007820180546131d290615627565b80601f01602080910402602001604051908101604052809291908181526020018280546131fe90615627565b801561324b5780601f106132205761010080835404028352916020019161324b565b820191906000526020600020905b81548152906001019060200180831161322e57829003601f168201915b5050505050815260200160088201805461326490615627565b80601f016020809104026020016040519081016040528092919081815260200182805461329090615627565b80156132dd5780601f106132b2576101008083540402835291602001916132dd565b820191906000526020600020905b8154815290600101906020018083116132c057829003601f168201915b5050509183525050600991909101546001600160a01b031660209091015292915050565b6008546060906000906001600160401b0381111561332157613321614c66565b60405190808252806020026020018201604052801561335a57816020015b613347614a3b565b81526020019060019003908161333f5790505b50905060005b60085481101561077f57600760006008838154811061338157613381615611565b9060005260206000200160009054906101000a90046001600160a01b03166001600160a01b03166001600160a01b0316815260200190815260200160002060405180610140016040529081600082015481526020016001820180546133e590615627565b80601f016020809104026020016040519081016040528092919081815260200182805461341190615627565b801561345e5780601f106134335761010080835404028352916020019161345e565b820191906000526020600020905b81548152906001019060200180831161344157829003601f168201915b5050505050815260200160028201805461347790615627565b80601f01602080910402602001604051908101604052809291908181526020018280546134a390615627565b80156134f05780601f106134c5576101008083540402835291602001916134f0565b820191906000526020600020905b8154815290600101906020018083116134d357829003601f168201915b505050918352505060038201546001600160a01b031660208201526004820154604082015260058201805460609092019161352a90615627565b80601f016020809104026020016040519081016040528092919081815260200182805461355690615627565b80156135a35780601f10613578576101008083540402835291602001916135a3565b820191906000526020600020905b81548152906001019060200180831161358657829003601f168201915b50505050508152602001600682015481526020016007820180546135c690615627565b80601f01602080910402602001604051908101604052809291908181526020018280546135f290615627565b801561363f5780601f106136145761010080835404028352916020019161363f565b820191906000526020600020905b81548152906001019060200180831161362257829003601f168201915b5050505050815260200160088201805461365890615627565b80601f016020809104026020016040519081016040528092919081815260200182805461368490615627565b80156136d15780601f106136a6576101008083540402835291602001916136d1565b820191906000526020600020905b8154815290600101906020018083116136b457829003601f168201915b5050509183525050600991909101546001600160a01b0316602090910152825183908390811061370357613703615611565b6020026020010181905250808061371990615671565b915050613360565b61372a82610ac4565b6137338161464c565b610e1483836146dd565b6000613757600080516020615aee83398151915233611e10565b6137a25760405162461bcd60e51b815260206004820152601c60248201527b151a1a5cc81858d8dbdd5b9d081a5cc81b9bdd08121bdcdc1a5d185b60221b604482015260640161089c565b6137ba600080516020615a8e83398151915287611e10565b156138075760405162461bcd60e51b815260206004820152601e60248201527f54686973206163636f756e7420616c726561647920612070617469656e740000604482015260640161089c565b61381f600080516020615ace83398151915287611e10565b1561383c5760405162461bcd60e51b815260040161089c906157fa565b613854600080516020615aae83398151915287611e10565b156138715760405162461bcd60e51b815260040161089c90615976565b613889600080516020615aee83398151915287611e10565b156138a65760405162461bcd60e51b815260040161089c9061582c565b6138be600080516020615a8e83398151915287614642565b600b546138cc90600161568a565b600b8190556001600160a01b03871660008181526005602052604090209182556006820180546001600160a01b031916909117905560010161390e8c826156eb565b506001600160a01b03861660009081526005602052604090206002016139348b826156eb565b506001600160a01b038616600090815260056020526040902060030161395a8a826156eb565b506001600160a01b0386166000908152600560208190526040909120600481018a90559081018890556007810186905560080161399785826156eb565b506001600160a01b03861660009081526005602052604090206009016139bd84826156eb565b506001600160a01b0386166000908152600560205260409020600a016139e383826156eb565b50506001600160a01b0385166000818152600560205260408120600b0180546001600160a01b031990811633179091556006805460018181018355919093527ff652222313e28459528d920b65115c16c04f3efc82aaedc97be59f3f377c0d3f90920180549091169092179091559a9950505050505050505050565b6000613a79600080516020615aae83398151915233611e10565b613a955760405162461bcd60e51b815260040161089c906159a9565b613aad600080516020615a8e83398151915286611e10565b613af75760405162461bcd60e51b815260206004820152601b60248201527a151a1a5cc81c185d1a595b9d1cc81a5cc81b9bdd08195e1a5cda5d602a1b604482015260640161089c565b6001600160a01b038516600090815260026020908152604080832033845290915290205460ff16613b695760405162461bcd60e51b815260206004820152601c60248201527b4e6f207065726d697373696f6e20746f20616464205265636f72647360201b604482015260640161089c565b6001600160a01b0384163314613bc05760405162461bcd60e51b815260206004820152601c60248201527b2737903832b936b4b9b9b4b7b7103a37903a3434b9902237b1ba37b960211b604482015260640161089c565b600c54613bce90600161568a565b600c8190555060056000866001600160a01b03166001600160a01b03168152602001908152602001600020600c01604051806101200160405280600c5481526020018b81526020018a8152602001898152602001888152602001876001600160a01b03168152602001866001600160a01b03168152602001858152602001848152509080600181540180825580915050600190039060005260206000209060090201600090919091909150600082015181600001556020820151816001019081613c9891906156eb565b5060408201516002820190613cad90826156eb565b5060608201516003820190613cc290826156eb565b5060808201516004820190613cd790826156eb565b5060a08201516005820180546001600160a01b039283166001600160a01b03199182161790915560c084015160068401805491909316911617905560e08201516007820190613d2690826156eb565b506101008201516008820190613d3c90826156eb565b5060019b9a5050505050505050505050565b613d566149c1565b6001600160a01b03821660009081526005602090815260409182902082516101a08101909352805483526001810180549192840191613d9490615627565b80601f0160208091040260200160405190810160405280929190818152602001828054613dc090615627565b8015613e0d5780601f10613de257610100808354040283529160200191613e0d565b820191906000526020600020905b815481529060010190602001808311613df057829003601f168201915b50505050508152602001600282018054613e2690615627565b80601f0160208091040260200160405190810160405280929190818152602001828054613e5290615627565b8015613e9f5780601f10613e7457610100808354040283529160200191613e9f565b820191906000526020600020905b815481529060010190602001808311613e8257829003601f168201915b50505050508152602001600382018054613eb890615627565b80601f0160208091040260200160405190810160405280929190818152602001828054613ee490615627565b8015613f315780601f10613f0657610100808354040283529160200191613f31565b820191906000526020600020905b815481529060010190602001808311613f1457829003601f168201915b5050509183525050600482015460208201526005820154604082015260068201546001600160a01b031660608201526007820154608082015260088201805460a090920191613f7f90615627565b80601f0160208091040260200160405190810160405280929190818152602001828054613fab90615627565b8015613ff85780601f10613fcd57610100808354040283529160200191613ff8565b820191906000526020600020905b815481529060010190602001808311613fdb57829003601f168201915b5050505050815260200160098201805461401190615627565b80601f016020809104026020016040519081016040528092919081815260200182805461403d90615627565b801561408a5780601f1061405f5761010080835404028352916020019161408a565b820191906000526020600020905b81548152906001019060200180831161406d57829003601f168201915b50505050508152602001600a820180546140a390615627565b80601f01602080910402602001604051908101604052809291908181526020018280546140cf90615627565b801561411c5780601f106140f15761010080835404028352916020019161411c565b820191906000526020600020905b8154815290600101906020018083116140ff57829003601f168201915b5050509183525050600b8201546001600160a01b0316602080830191909152600c83018054604080518285028101850182528281529401939260009084015b828210156145285783829060005260206000209060090201604051806101200160405290816000820154815260200160018201805461419990615627565b80601f01602080910402602001604051908101604052809291908181526020018280546141c590615627565b80156142125780601f106141e757610100808354040283529160200191614212565b820191906000526020600020905b8154815290600101906020018083116141f557829003601f168201915b5050505050815260200160028201805461422b90615627565b80601f016020809104026020016040519081016040528092919081815260200182805461425790615627565b80156142a45780601f10614279576101008083540402835291602001916142a4565b820191906000526020600020905b81548152906001019060200180831161428757829003601f168201915b505050505081526020016003820180546142bd90615627565b80601f01602080910402602001604051908101604052809291908181526020018280546142e990615627565b80156143365780601f1061430b57610100808354040283529160200191614336565b820191906000526020600020905b81548152906001019060200180831161431957829003601f168201915b5050505050815260200160048201805461434f90615627565b80601f016020809104026020016040519081016040528092919081815260200182805461437b90615627565b80156143c85780601f1061439d576101008083540402835291602001916143c8565b820191906000526020600020905b8154815290600101906020018083116143ab57829003601f168201915b505050918352505060058201546001600160a01b039081166020830152600683015416604082015260078201805460609092019161440590615627565b80601f016020809104026020016040519081016040528092919081815260200182805461443190615627565b801561447e5780601f106144535761010080835404028352916020019161447e565b820191906000526020600020905b81548152906001019060200180831161446157829003601f168201915b5050505050815260200160088201805461449790615627565b80601f01602080910402602001604051908101604052809291908181526020018280546144c390615627565b80156145105780601f106144e557610100808354040283529160200191614510565b820191906000526020600020905b8154815290600101906020018083116144f357829003601f168201915b5050505050815250508152602001906001019061415b565b505050915250909392505050565b6000614550600080516020615ace83398151915233611e10565b61456c5760405162461bcd60e51b815260040161089c906157aa565b614584600080516020615aee83398151915283611e10565b6145ce5760405162461bcd60e51b815260206004820152601b60248201527a151a1a5cc81a1bdcdc1a5d185b081a5cc81b9bdd08195e1a5cda5d602a1b604482015260640161089c565b6145e6600080516020615aee833981519152836146dd565b6001600160a01b03821660009081526003602052604081208181559061460f6001830182614987565b6002820180546001600160a01b031916905561462f600383016000614987565b6004820160009055505061210782612e33565b610fa68282614659565b6146568133614742565b50565b6146638282611e10565b610fa6576000828152602081815260408083206001600160a01b03851684529091529020805460ff191660011790556146993390565b6001600160a01b0316816001600160a01b0316837f2f8788117e7eff1d82e926ec794901d17c78024a50270940304540a733656f0d60405160405180910390a45050565b6146e78282611e10565b15610fa6576000828152602081815260408083206001600160a01b0385168085529252808320805460ff1916905551339285917ff6391f5c32d9c69d2a47ea670b442974b53935d1edc7fd64eb21e047a839171b9190a45050565b61474c8282611e10565b610fa6576147598161479b565b6147648360206147ad565b6040516020016147759291906159dd565b60408051601f198184030181529082905262461bcd60e51b825261089c91600401615a4c565b60606105316001600160a01b03831660145b606060006147bc836002615a5f565b6147c790600261568a565b6001600160401b038111156147de576147de614c66565b6040519080825280601f01601f191660200182016040528015614808576020820181803683370190505b509050600360fc1b8160008151811061482357614823615611565b60200101906001600160f81b031916908160001a905350600f60fb1b8160018151811061485257614852615611565b60200101906001600160f81b031916908160001a9053506000614876846002615a5f565b61488190600161568a565b90505b60018111156148f9576f181899199a1a9b1b9c1cb0b131b232b360811b85600f16601081106148b5576148b5615611565b1a60f81b8282815181106148cb576148cb615611565b60200101906001600160f81b031916908160001a90535060049490941c936148f281615a76565b9050614884565b5083156149485760405162461bcd60e51b815260206004820181905260248201527f537472696e67733a20686578206c656e67746820696e73756666696369656e74604482015260640161089c565b9392505050565b6040518060a00160405280600081526020016060815260200160006001600160a01b0316815260200160608152602001600081525090565b50805461499390615627565b6000825580601f106149a3575050565b601f0160209004906000526020600020908101906146569190614aa0565b604051806101a0016040528060008152602001606081526020016060815260200160608152602001600081526020016000815260200160006001600160a01b031681526020016000815260200160608152602001606081526020016060815260200160006001600160a01b03168152602001606081525090565b60405180610140016040528060008152602001606081526020016060815260200160006001600160a01b03168152602001600081526020016060815260200160008152602001606081526020016060815260200160006001600160a01b031681525090565b5b80821115614ab55760008155600101614aa1565b5090565b600060208284031215614acb57600080fd5b81356001600160e01b03198116811461494857600080fd5b60005b83811015614afe578181015183820152602001614ae6565b50506000910152565b60008151808452614b1f816020860160208601614ae3565b601f01601f19169290920160200192915050565b6001600160a01b03169052565b805182526000602082015160a06020850152614b5f60a0850182614b07565b905060018060a01b03604084015116604085015260608301518482036060860152614b8a8282614b07565b915050608083015160808501528091505092915050565b6000602080830181845280855180835260408601915060408160051b870101925083870160005b82811015614bf657603f19888603018452614be4858351614b40565b94509285019290850190600101614bc8565b5092979650505050505050565b80356001600160a01b038116811461210b57600080fd5b60008060408385031215614c2d57600080fd5b614c3683614c03565b9150614c4460208401614c03565b90509250929050565b600060208284031215614c5f57600080fd5b5035919050565b634e487b7160e01b600052604160045260246000fd5b600082601f830112614c8d57600080fd5b81356001600160401b0380821115614ca757614ca7614c66565b604051601f8301601f19908116603f01168101908282118183101715614ccf57614ccf614c66565b81604052838152866020858801011115614ce857600080fd5b836020870160208301376000602085830101528094505050505092915050565b60008060008060008060008060006101208a8c031215614d2757600080fd5b89356001600160401b0380821115614d3e57600080fd5b614d4a8d838e01614c7c565b9a5060208c0135915080821115614d6057600080fd5b614d6c8d838e01614c7c565b9950614d7a60408d01614c03565b985060608c0135975060808c0135915080821115614d9757600080fd5b614da38d838e01614c7c565b965060a08c0135955060c08c0135915080821115614dc057600080fd5b614dcc8d838e01614c7c565b945060e08c0135915080821115614de257600080fd5b50614def8c828d01614c7c565b925050614dff6101008b01614c03565b90509295985092959850929598565b60008060408385031215614e2157600080fd5b82359150614c4460208401614c03565b600060208284031215614e4357600080fd5b61494882614c03565b8681526001600160a01b038681166020830152851660408201526060810184905260c060808201819052600090614e8590830185614b07565b82810360a0840152614e978185614b07565b9998505050505050505050565b600081518084526020808501808196508360051b8101915082860160005b85811015614fb3578284038952815161012081518652868201518188880152614eed82880182614b07565b91505060408083015187830382890152614f078382614b07565b9250505060608083015187830382890152614f228382614b07565b9250505060808083015187830382890152614f3d8382614b07565b9250505060a080830151614f5382890182614b33565b505060c080830151614f6782890182614b33565b505060e08083015187830382890152614f808382614b07565b925050506101008083015192508682038188015250614f9f8183614b07565b9a87019a9550505090840190600101614ec2565b5091979650505050505050565b6020815260006149486020830184614ea4565b60008060008060808587031215614fe957600080fd5b84356001600160401b038082111561500057600080fd5b61500c88838901614c7c565b955061501a60208801614c03565b9450604087013591508082111561503057600080fd5b5061503d87828801614c7c565b949793965093946060013593505050565b6020815260006149486020830184614b40565b60006020808301818452808551808352604092508286019150828160051b87010184880160005b8381101561511357888303603f19018552815180518452878101516001600160a01b03908116898601528782015116878501526060808201519085015260808082015160c082870181905291906150e183880182614b07565b9250505060a080830151925085820381870152506150ff8183614b07565b968901969450505090860190600101615088565b509098975050505050505050565b60006101a082518452602083015181602086015261514182860182614b07565b9150506040830151848203604086015261515b8282614b07565b915050606083015184820360608601526151758282614b07565b9150506080830151608085015260a083015160a085015260c083015161519e60c0860182614b33565b5060e083015160e085015261010080840151858303828701526151c18382614b07565b9250505061012080840151858303828701526151dd8382614b07565b9250505061014080840151858303828701526151f98382614b07565b925050506101608084015161521082870182614b33565b5050610180808401518583038287015261522a8382614ea4565b9695505050505050565b6000602080830181845280855180835260408601915060408160051b870101925083870160005b82811015614bf657603f19888603018452615277858351615121565b9450928501929085019060010161525b565b60006101408251845260208301518160208601526152a982860182614b07565b915050604083015184820360408601526152c38282614b07565b91505060608301516152d86060860182614b33565b506080830151608085015260a083015184820360a08601526152fa8282614b07565b91505060c083015160c085015260e083015184820360e086015261531e8282614b07565b91505061010080840151858303828701526153398382614b07565b925050506101208084015161535082870182614b33565b5090949350505050565b6020815260006149486020830184615289565b6000602080830181845280855180835260408601915060408160051b870101925083870160005b82811015614bf657603f198886030184526153b0858351615289565b94509285019290850190600101615394565b6000806000806000806000806000806101408b8d0312156153e257600080fd5b8a356001600160401b03808211156153f957600080fd5b6154058e838f01614c7c565b9b5060208d013591508082111561541b57600080fd5b6154278e838f01614c7c565b9a5060408d013591508082111561543d57600080fd5b6154498e838f01614c7c565b995060608d0135985060808d0135975061546560a08e01614c03565b965060c08d0135955060e08d013591508082111561548257600080fd5b61548e8e838f01614c7c565b94506101008d01359150808211156154a557600080fd5b6154b18e838f01614c7c565b93506101208d01359150808211156154c857600080fd5b506154d58d828e01614c7c565b9150509295989b9194979a5092959850565b600080600080600080600080610100898b03121561550457600080fd5b88356001600160401b038082111561551b57600080fd5b6155278c838d01614c7c565b995060208b013591508082111561553d57600080fd5b6155498c838d01614c7c565b985060408b013591508082111561555f57600080fd5b61556b8c838d01614c7c565b975060608b013591508082111561558157600080fd5b61558d8c838d01614c7c565b965061559b60808c01614c03565b95506155a960a08c01614c03565b945060c08b01359150808211156155bf57600080fd5b6155cb8c838d01614c7c565b935060e08b01359150808211156155e157600080fd5b506155ee8b828c01614c7c565b9150509295985092959890939650565b6020815260006149486020830184615121565b634e487b7160e01b600052603260045260246000fd5b600181811c9082168061563b57607f821691505b60208210810361077f57634e487b7160e01b600052602260045260246000fd5b634e487b7160e01b600052601160045260246000fd5b6000600182016156835761568361565b565b5060010190565b808201808211156105315761053161565b565b601f821115610e1457600081815260208120601f850160051c810160208610156156c45750805b601f850160051c820191505b818110156156e3578281556001016156d0565b505050505050565b81516001600160401b0381111561570457615704614c66565b615718816157128454615627565b8461569d565b602080601f83116001811461574d57600084156157355750858301515b600019600386901b1c1916600185901b1785556156e3565b600085815260208120601f198616915b8281101561577c5788860151825594840194600190910190840161575d565b508582101561579a5787850151600019600388901b60f8161c191681555b5050505050600190811b01905550565b60208082526030908201527f4f6e6c7920737570657241646d696e20686173207065726d697373696f6e207460408201526f37903237903a3430ba1030b1ba34b7b760811b606082015260800190565b60208082526018908201527702a3434b99020b1b1b7bab73a1034b99020b236b4b71090960451b604082015260600190565b6020808252601b908201527a02a3434b99020b1b1b7bab73a1034b9902437b9b834ba30b610909602d1b604082015260600190565b6020808252601a908201527902a3434b99020b1b1b7bab73a1034b9902830ba34b2b73a1090960351b604082015260600190565b60208082526021908201527f5468697320686f73706974616c206973207265616c6c792065786973697421216040820152600160fd1b606082015260800190565b6020808252601b908201527a151a1a5cc81858d8dbdd5b9d081a5cc81b9bdd081c185d1a595b9d602a1b604082015260600190565b60208082526010908201526f4e6f206b65797320696e20617272617960801b604082015260600190565b60609190911b6001600160601b031916815260140190565b818103818111156105315761053161565b565b634e487b7160e01b600052603160045260246000fd5b60208082526019908201527802a3434b99020b1b1b7bab73a1034b9902237b1ba37b910909603d1b604082015260600190565b6020808252601a90820152792a3434b99030b1b1b7bab73a1034b9903737ba102237b1ba37b960311b604082015260600190565b76020b1b1b2b9b9a1b7b73a3937b61d1030b1b1b7bab73a1604d1b815260008351615a0f816017850160208801614ae3565b7001034b99036b4b9b9b4b733903937b6329607d1b6017918401918201528351615a40816028840160208801614ae3565b01602801949350505050565b6020815260006149486020830184614b07565b80820281158282048414176105315761053161565b565b600081615a8557615a8561565b565b50600019019056fe72606200fac42b7dc86b75901d61ecfab2a4a1a6eded478b97a428094891abed0af1dac7dea2fd7f7738119cec7df099dfad49aa9d2e7d17ba6b60f63ae7411fa49807205ce4d355092ef5a8a18f56e8913cf4a201fbe287825b095693c21775c8f5b4140cca307cd927e59cbeea8291bffeee228fc677f0fa059aef7b4dd8d5a264697066735822122016d27f2b4e64adf13f011f4d1ffad70c4e06f6c6e8b086656d63b66b00808e6464736f6c63430008130033",
  "immutableReferences": {},
  "source": "// SPDX-License-Identifier: GPL-3.0\r\npragma solidity ^0.8.0;\r\n\r\nimport \"@openzeppelin/contracts/access/AccessControl.sol\";\r\n\r\ncontract MedRecChain is AccessControl {\r\n    //ROLES\r\n    bytes32 public constant ADMIN_ROLE = keccak256(\"ADMIN_ROLE\");\r\n    bytes32 public constant HOSPITAL_ROLE = keccak256(\"HOSPITAL_ROLE\");\r\n    bytes32 public constant DOCTOR_ROLE = keccak256(\"DOCTOR_ROLE\");\r\n    bytes32 public constant PATIENT_ROLE = keccak256(\"PATIENT_ROLE\");\r\n\r\n    // Admin refers to government, It hard coded by us.\r\n    address public Admin = 0xe374D964318B4A333dB68C776674C6788092660A;\r\n\r\n    // event\r\n    event AccessGranted(\r\n        address indexed Doctor_Address,\r\n        address indexed Patient_Address\r\n    ); //by patient\r\n    event AccessRejected(\r\n        address indexed Doctor_Address,\r\n        address indexed Patient_Address\r\n    ); //by patient\r\n    event RequestAccess(address indexed requester, address indexed patient); //by doctor or (patient)\r\n\r\n    // [_patient][_doctor] = bool\r\n    mapping(address => mapping(address => bool)) isAuth;\r\n\r\n    struct Hospital {\r\n        uint256 id;\r\n        string name;\r\n        address addr;\r\n        string place;\r\n        uint256 phone;\r\n    }\r\n\r\n    mapping(address => Hospital) Hospitals;\r\n    address[] public Hospitals_keys;\r\n\r\n    struct patient {\r\n        uint256 id;\r\n        string name;\r\n        string email;\r\n        string National_Addr;\r\n        uint256 National_id;\r\n        uint256 age;\r\n        address PatientAddress;\r\n        uint256 phone;\r\n        string Blood_Type;\r\n        string marital_status;\r\n        string gender;\r\n        address hospital_addr;\r\n        record[] Records;\r\n    }\r\n\r\n    mapping(address => patient) patients;\r\n    address[] private patients_keys;\r\n\r\n    struct doctor {\r\n        uint256 id;\r\n        string name;\r\n        string hospital_name;\r\n        address hospital_addr;\r\n        uint256 phone;\r\n        string email;\r\n        uint256 age;\r\n        string place;\r\n        string Medical_specialty;\r\n        address docAddress;\r\n    }\r\n\r\n    mapping(address => doctor) doctors;\r\n    address[] private doctors_keys;\r\n\r\n    struct record {\r\n        uint Medical_id;\r\n        string category;\r\n        string patient_name;\r\n        string rec_name;\r\n        string Created_at;\r\n        address patient_addr;\r\n        address doctor_addr;\r\n        string hex_ipfs; // file, image date\r\n        string notes;\r\n    }\r\n\r\n    // for Ids\r\n    uint256 Hospital_index;\r\n    uint256 Doctor_index;\r\n    uint256 Patient_index;\r\n\r\n    uint256 Record_index;\r\n    uint256 Request_index;\r\n\r\n    constructor() {\r\n        _setupRole(ADMIN_ROLE, Admin);\r\n    }\r\n\r\n    // function to know who logg in\r\n    function logg() public view returns (uint role) {\r\n        if (hasRole(ADMIN_ROLE, msg.sender)) {\r\n            return 1;\r\n        } else if (hasRole(HOSPITAL_ROLE, msg.sender)) {\r\n            return 2;\r\n        } else if (hasRole(DOCTOR_ROLE, msg.sender)) {\r\n            return 3;\r\n        } else if (hasRole(PATIENT_ROLE, msg.sender)) {\r\n            return 4;\r\n        } else {\r\n            return 0;\r\n        }\r\n    }\r\n\r\n    //To check the role of who deploye the contract.\r\n    modifier onlyAdmin() {\r\n        require(\r\n            hasRole(ADMIN_ROLE, msg.sender),\r\n            \"Only superAdmin has permission to do that action\"\r\n        );\r\n        _;\r\n    }\r\n\r\n    modifier onlyHospital() {\r\n        require(\r\n            hasRole(HOSPITAL_ROLE, msg.sender),\r\n            \"This account is not Hospital\"\r\n        );\r\n        _;\r\n    }\r\n    modifier onlydoctors() {\r\n        require(hasRole(DOCTOR_ROLE, msg.sender), \"This account is not Doctor\");\r\n        _;\r\n    }\r\n    modifier onlypatient() {\r\n        require(\r\n            hasRole(PATIENT_ROLE, msg.sender),\r\n            \"This account is not patient\"\r\n        );\r\n        _;\r\n    }\r\n\r\n    //////////////////////////////////////\r\n\r\n    //Tasks done by Admin (defult exisit)\r\n    //1. add hospital\r\n    //2. delete hospital\r\n    //3. add doctor\r\n    //4. delete doctor\r\n    //5. see all hospital in system\r\n    //6. see all doctors in system\r\n\r\n    function addhospital(\r\n        string memory _name,\r\n        address _address,\r\n        string memory _place,\r\n        uint256 _phone\r\n    ) public onlyAdmin returns (bool success) {\r\n        require(\r\n            !hasRole(HOSPITAL_ROLE, _address),\r\n            \"This hospital is really exisit!! \"\r\n        );\r\n        require(!hasRole(ADMIN_ROLE, _address), \"This Account is Admin!! \");\r\n        require(!hasRole(DOCTOR_ROLE, _address), \"This Account is Doctor!! \");\r\n        require(!hasRole(PATIENT_ROLE, _address), \"This Account is Patient!! \");\r\n\r\n        _setupRole(HOSPITAL_ROLE, _address);\r\n        Hospital_index = Hospital_index + 1;\r\n        Hospitals[_address] = Hospital(\r\n            Hospital_index,\r\n            _name,\r\n            _address,\r\n            _place,\r\n            _phone\r\n        );\r\n        Hospitals_keys.push(_address);\r\n        return true;\r\n    }\r\n\r\n    function removeitem_hos(address _hosAddress) public {\r\n        require(Hospitals_keys.length > 0, \"No keys in array\");\r\n        for (uint i = 0; i < Hospitals_keys.length; i++) {\r\n            if (\r\n                keccak256(abi.encodePacked(Hospitals_keys[i])) ==\r\n                keccak256(abi.encodePacked(_hosAddress))\r\n            ) {\r\n                delete Hospitals_keys[i];\r\n                uint lastIndex = Hospitals_keys.length - 1;\r\n                address lastId = Hospitals_keys[lastIndex];\r\n                Hospitals_keys[i] = lastId;\r\n                Hospitals_keys.pop();\r\n                break;\r\n            }\r\n        }\r\n    }\r\n\r\n    function removehospital(\r\n        address _address\r\n    ) public onlyAdmin returns (bool success) {\r\n        require(\r\n            hasRole(HOSPITAL_ROLE, _address),\r\n            \"This hospital is not exisit\"\r\n        );\r\n        _revokeRole(HOSPITAL_ROLE, _address);\r\n        delete Hospitals[_address];\r\n        removeitem_hos(_address);\r\n        return true;\r\n    }\r\n\r\n    function get_all_hospitals() public view returns (Hospital[] memory) {\r\n        Hospital[] memory hos = new Hospital[](Hospitals_keys.length);\r\n        for (uint256 i = 0; i < Hospitals_keys.length; i++) {\r\n            hos[i] = Hospitals[Hospitals_keys[i]];\r\n        }\r\n        return hos;\r\n    }\r\n\r\n    ///////////////\r\n\r\n    function addDoctor(\r\n        string memory _name,\r\n        string memory _hospital_name,\r\n        address _hospital_addr,\r\n        uint256 _phone,\r\n        string memory _email,\r\n        uint256 _age,\r\n        string memory _place,\r\n        string memory _Medical_specialty,\r\n        address _docAddress\r\n    ) public onlyAdmin returns (bool success) {\r\n        require(\r\n            !hasRole(DOCTOR_ROLE, _docAddress),\r\n            \"This account already a doctor\"\r\n        );\r\n        require(!hasRole(ADMIN_ROLE, _docAddress), \"This Account is Admin!! \");\r\n        require(\r\n            !hasRole(HOSPITAL_ROLE, _docAddress),\r\n            \"This Account is Hospital!! \"\r\n        );\r\n        require(\r\n            !hasRole(PATIENT_ROLE, _docAddress),\r\n            \"This Account is Patient!! \"\r\n        );\r\n        require(\r\n            hasRole(HOSPITAL_ROLE, _hospital_addr),\r\n            \"This hospital is really exisit!! \"\r\n        );\r\n        _setupRole(DOCTOR_ROLE, _docAddress);\r\n        Doctor_index = Doctor_index + 1;\r\n        doctors[_docAddress] = doctor(\r\n            Doctor_index,\r\n            _name,\r\n            _hospital_name,\r\n            _hospital_addr,\r\n            _phone,\r\n            _email,\r\n            _age,\r\n            _place,\r\n            _Medical_specialty,\r\n            _docAddress\r\n        );\r\n        doctors_keys.push(_docAddress);\r\n        return true;\r\n    }\r\n\r\n    function removeitem_doc(address _docAddress) public {\r\n        require(doctors_keys.length > 0, \"No keys in array\");\r\n        for (uint i = 0; i < doctors_keys.length; i++) {\r\n            if (\r\n                keccak256(abi.encodePacked(doctors_keys[i])) ==\r\n                keccak256(abi.encodePacked(_docAddress))\r\n            ) {\r\n                delete doctors_keys[i];\r\n                uint lastIndex = doctors_keys.length - 1;\r\n                address lastId = doctors_keys[lastIndex];\r\n                doctors_keys[i] = lastId;\r\n                doctors_keys.pop();\r\n                break;\r\n            }\r\n        }\r\n    }\r\n\r\n    function removeDoctor(\r\n        address _docAddress\r\n    ) public onlyAdmin returns (bool success) {\r\n        require(hasRole(DOCTOR_ROLE, _docAddress), \"This account not exisit\");\r\n        delete doctors[_docAddress];\r\n        _revokeRole(DOCTOR_ROLE, _docAddress);\r\n        removeitem_doc(_docAddress);\r\n        return true;\r\n    }\r\n\r\n    function get_all_Doctors() public view returns (doctor[] memory) {\r\n        doctor[] memory doc = new doctor[](doctors_keys.length);\r\n        for (uint256 i = 0; i < doctors_keys.length; i++) {\r\n            doc[i] = doctors[doctors_keys[i]];\r\n        }\r\n        return doc;\r\n    }\r\n\r\n    function get_record_number() public view returns (uint256 i) {\r\n        uint256 total;\r\n        for (uint256 a = 0; a < patients_keys.length; a++) {\r\n            total += patients[patients_keys[a]].Records.length;\r\n        }\r\n        return total;\r\n    }\r\n\r\n    ///////////////////////////////////////////\r\n\r\n    // Tasks done by Hospitals (sign in )\r\n    //1. add patient\r\n    //2.See his profile\r\n    //3.see all patients\r\n\r\n    function get_hospita_by_address(\r\n        address _addr\r\n    ) public view returns (Hospital memory) {\r\n        return (Hospitals[_addr]);\r\n    }\r\n\r\n    function addPatient(\r\n        string memory _name,\r\n        string memory _email,\r\n        string memory _National_Addr,\r\n        uint256 _National_id,\r\n        uint256 _age,\r\n        address _PatientAddress,\r\n        uint256 _phone,\r\n        string memory _Blood_Type,\r\n        string memory _marital_status,\r\n        string memory _gender\r\n    ) public onlyHospital returns (bool success) {\r\n        require(\r\n            !hasRole(PATIENT_ROLE, _PatientAddress),\r\n            \"This account already a patient\"\r\n        );\r\n        require(\r\n            !hasRole(ADMIN_ROLE, _PatientAddress),\r\n            \"This Account is Admin!! \"\r\n        );\r\n        require(\r\n            !hasRole(DOCTOR_ROLE, _PatientAddress),\r\n            \"This Account is Doctor!! \"\r\n        );\r\n        require(\r\n            !hasRole(HOSPITAL_ROLE, _PatientAddress),\r\n            \"This Account is Hospital!! \"\r\n        );\r\n        _setupRole(PATIENT_ROLE, _PatientAddress);\r\n        Patient_index = Patient_index + 1;\r\n        patients[_PatientAddress].id = Patient_index;\r\n        patients[_PatientAddress].PatientAddress = _PatientAddress;\r\n        patients[_PatientAddress].name = _name;\r\n        patients[_PatientAddress].email = _email;\r\n        patients[_PatientAddress].National_Addr = _National_Addr;\r\n        patients[_PatientAddress].National_id = _National_id;\r\n        patients[_PatientAddress].age = _age;\r\n        patients[_PatientAddress].phone = _phone;\r\n        patients[_PatientAddress].Blood_Type = _Blood_Type;\r\n        patients[_PatientAddress].marital_status = _marital_status;\r\n        patients[_PatientAddress].gender = _gender;\r\n        patients[_PatientAddress].hospital_addr = msg.sender;\r\n\r\n        patients_keys.push(_PatientAddress);\r\n        return true;\r\n    }\r\n\r\n    function get_all_Patients() public view returns (patient[] memory) {\r\n        patient[] memory pat = new patient[](patients_keys.length);\r\n        for (uint256 i = 0; i < patients_keys.length; i++) {\r\n            pat[i] = patients[patients_keys[i]];\r\n        }\r\n        return pat;\r\n    }\r\n\r\n    //////////////////////////////////////////////\r\n\r\n    // Tasks done by Doctor (sign in)\r\n    // 1. send request to patient\r\n    // 2. see record (has be accepted)\r\n    // 3. add record (has be accepted)\r\n    // 4.view his profile info\r\n    // 5.show requests by id & show their status\r\n\r\n    function get_doctor_by_address(\r\n        address _addr\r\n    ) public view returns (doctor memory) {\r\n        return (doctors[_addr]);\r\n    }\r\n\r\n    struct request {\r\n        uint id;\r\n        address from_doctor_addr;\r\n        address to_patients_addr;\r\n        uint256 date;\r\n        string patient_name;\r\n        string doctor_name;\r\n    }\r\n\r\n    request[] public requests;\r\n\r\n    function checkRequestExists(\r\n        address _from_doctor_addr,\r\n        address _to_patients_addr\r\n    ) public view returns (bool) {\r\n        for (uint i = 0; i < requests.length; i++) {\r\n            if (\r\n                ((requests[i].from_doctor_addr) == (_from_doctor_addr)) &&\r\n                ((requests[i].to_patients_addr) == (_to_patients_addr))\r\n            ) {\r\n                return true;\r\n            }\r\n        }\r\n        return false;\r\n    }\r\n\r\n    function send_request_Access(\r\n        address _patient,\r\n        address _doctor\r\n    ) public returns (bool success) {\r\n        require(\r\n            hasRole(PATIENT_ROLE, _patient),\r\n            \"The person you are requesting access to is not a Patient\"\r\n        );\r\n        require(\r\n            !checkRequestExists(_doctor, _patient),\r\n            \"already send a request\"\r\n        );\r\n        Request_index = Request_index + 1;\r\n        patient memory pati = get_patient_by_address(_patient);\r\n        doctor memory doc = get_doctor_by_address(_doctor);\r\n        requests.push(\r\n            request(\r\n                Request_index,\r\n                _doctor,\r\n                _patient,\r\n                block.timestamp,\r\n                pati.name,\r\n                doc.name\r\n            )\r\n        );\r\n        emit RequestAccess(msg.sender, _patient);\r\n\r\n        return true;\r\n    }\r\n\r\n    function get_all_requests() public view returns (request[] memory) {\r\n        //IN JS convert a Unix timestamp to a human-readable\r\n        // const unixTimestamp = date.currentTimestamp();\r\n        // const date = new Date(unixTimestamp * 1000);\r\n        // const humanReadableDate = date.toLocaleString();\r\n\r\n        // Also, be handled, cause it show all requests at blockchain NOT whose patient's requests\r\n        // it will be solved by check\r\n        // for (i=0 ; i<requests.lenght;i++ ){\r\n        // \"if (requests.to_patients_addr == accounts[0]){....}\"\r\n        //}\r\n        return (requests);\r\n    }\r\n\r\n    function addRecord(\r\n        string memory _category,\r\n        string memory _patient_name,\r\n        string memory _rec_name,\r\n        string memory _Created_at,\r\n        address _patientAddr,\r\n        address _doctor_addr,\r\n        string memory _hex_ipfs,\r\n        string memory _notes\r\n    ) public onlydoctors returns (bool) {\r\n        require(\r\n            hasRole(PATIENT_ROLE, _patientAddr),\r\n            \"This patients is not exisit\"\r\n        );\r\n        require(\r\n            isAuth[_patientAddr][msg.sender],\r\n            \"No permission to add Records\"\r\n        );\r\n        require(_doctor_addr == msg.sender, \"No permission to this Doctor\");\r\n        Record_index = Record_index + 1;\r\n        patients[_patientAddr].Records.push(\r\n            record(\r\n                Record_index,\r\n                _category,\r\n                _patient_name,\r\n                _rec_name,\r\n                _Created_at,\r\n                _patientAddr,\r\n                _doctor_addr,\r\n                _hex_ipfs,\r\n                _notes\r\n            )\r\n        );\r\n        return true;\r\n    }\r\n\r\n    // function See_Record_for_Doctor(address _patientAddr)  view public returns(record[] memory){\r\n    //    require(isAuth[_patientAddr][msg.sender],\"No permission to get Records\");\r\n    //     require(hasRole(PATIENT_ROLE, _patientAddr),\"This patients is not exisit\");\r\n    //     require(patients[_patientAddr].Records.length>0,\"patient record doesn't exist\");\r\n    //     return (patients[_patientAddr].Records);\r\n\r\n    // }\r\n\r\n    ///////////////////////////////////\r\n\r\n    //Tasks done by Patient (sign in)\r\n\r\n    //1.view his all records\r\n    //2.accept request sended by doctor\r\n    //3.rejected request sended by doctor\r\n    //4.give permission to doctor bt himself\r\n    //5.see requestes from doctors\r\n    //6.view his profile info\r\n\r\n    function get_patient_by_address(\r\n        address _addr\r\n    ) public view returns (patient memory) {\r\n        return (patients[_addr]);\r\n    }\r\n\r\n    function See_Record_for_Patient() public view returns (record[] memory) {\r\n        require(\r\n            patients[msg.sender].Records.length > 0,\r\n            \"patient record doesn't exist\"\r\n        );\r\n        return (patients[msg.sender].Records);\r\n    }\r\n\r\n    function approveAccess(address _doctor) public onlypatient {\r\n        require(hasRole(DOCTOR_ROLE, _doctor), \"this acount is not a doctor \");\r\n        require(\r\n            (isAuth[msg.sender][_doctor]) == false,\r\n            \"This Request alraedy been Approved!! \"\r\n        );\r\n        isAuth[msg.sender][_doctor] = true;\r\n        emit AccessGranted(_doctor, msg.sender);\r\n    }\r\n\r\n    function check_approve_Access(\r\n        address _doctor,\r\n        address _patient\r\n    ) public view onlydoctors returns (bool) {\r\n        return (isAuth[_patient][_doctor]);\r\n    }\r\n\r\n    function DeleteRequest(address doc, address pat) public {\r\n        require(requests.length > 0, \"No keys in array\");\r\n        for (uint i = 0; i < requests.length; i++) {\r\n            if (\r\n                (keccak256(abi.encodePacked(requests[i].from_doctor_addr)) ==\r\n                    keccak256(abi.encodePacked(doc))) &&\r\n                (keccak256(abi.encodePacked(requests[i].to_patients_addr)) ==\r\n                    keccak256(abi.encodePacked(pat)))\r\n            ) {\r\n                delete requests[i];\r\n                uint lastIndex = requests.length - 1;\r\n                request memory lastId = requests[lastIndex];\r\n                requests[i] = lastId;\r\n                requests.pop();\r\n                break;\r\n            }\r\n        }\r\n    }\r\n\r\n    function rejectAccess(address _doctor) public onlypatient {\r\n        require(\r\n            hasRole(DOCTOR_ROLE, _doctor),\r\n            \"Doctor does not have the doctor role\"\r\n        );\r\n        //   require((isAuth[msg.sender][_doctor]) == true, \"This Request alraedy been Reject!! \");\r\n        isAuth[msg.sender][_doctor] = false;\r\n        DeleteRequest(_doctor, msg.sender);\r\n        emit AccessRejected(_doctor, msg.sender);\r\n    }\r\n}\r\n",
  "sourcePath": "D:\\2-Graduation-Project\\penultimate-modification\\contracts\\MedRecChain.sol",
  "compiler": {
    "name": "solc",
    "version": "0.8.19+commit.7dd6d404.Emscripten.clang"
  },
  "schemaVersion": "3.4.14",
  "updatedAt": "2023-06-01T12:39:02.666Z",
  "networkType": "ethereum",
  "devdoc": {
    "events": {
      "RoleAdminChanged(bytes32,bytes32,bytes32)": {
        "details": "Emitted when `newAdminRole` is set as ``role``'s admin role, replacing `previousAdminRole` `DEFAULT_ADMIN_ROLE` is the starting admin for all roles, despite {RoleAdminChanged} not being emitted signaling this. _Available since v3.1._"
      },
      "RoleGranted(bytes32,address,address)": {
        "details": "Emitted when `account` is granted `role`. `sender` is the account that originated the contract call, an admin role bearer except when using {AccessControl-_setupRole}."
      },
      "RoleRevoked(bytes32,address,address)": {
        "details": "Emitted when `account` is revoked `role`. `sender` is the account that originated the contract call:   - if using `revokeRole`, it is the admin role bearer   - if using `renounceRole`, it is the role bearer (i.e. `account`)"
      }
    },
    "kind": "dev",
    "methods": {
      "getRoleAdmin(bytes32)": {
        "details": "Returns the admin role that controls `role`. See {grantRole} and {revokeRole}. To change a role's admin, use {_setRoleAdmin}."
      },
      "grantRole(bytes32,address)": {
        "details": "Grants `role` to `account`. If `account` had not been already granted `role`, emits a {RoleGranted} event. Requirements: - the caller must have ``role``'s admin role. May emit a {RoleGranted} event."
      },
      "hasRole(bytes32,address)": {
        "details": "Returns `true` if `account` has been granted `role`."
      },
      "renounceRole(bytes32,address)": {
        "details": "Revokes `role` from the calling account. Roles are often managed via {grantRole} and {revokeRole}: this function's purpose is to provide a mechanism for accounts to lose their privileges if they are compromised (such as when a trusted device is misplaced). If the calling account had been revoked `role`, emits a {RoleRevoked} event. Requirements: - the caller must be `account`. May emit a {RoleRevoked} event."
      },
      "revokeRole(bytes32,address)": {
        "details": "Revokes `role` from `account`. If `account` had been granted `role`, emits a {RoleRevoked} event. Requirements: - the caller must have ``role``'s admin role. May emit a {RoleRevoked} event."
      },
      "supportsInterface(bytes4)": {
        "details": "See {IERC165-supportsInterface}."
      }
    },
    "version": 1
  },
  "userdoc": {
    "kind": "user",
    "methods": {},
    "version": 1
  }
}