{
  "contractName": "MedRecChain",
  "abi": [
    {
      "inputs": [],
      "stateMutability": "nonpayable",
      "type": "constructor"
    },
    {
      "anonymous": false,
      "inputs": [
        {
          "indexed": true,
          "internalType": "address",
          "name": "Doctor_Address",
          "type": "address"
        },
        {
          "indexed": true,
          "internalType": "address",
          "name": "Patient_Address",
          "type": "address"
        }
      ],
      "name": "AccessGranted",
      "type": "event"
    },
    {
      "anonymous": false,
      "inputs": [
        {
          "indexed": true,
          "internalType": "address",
          "name": "Doctor_Address",
          "type": "address"
        },
        {
          "indexed": true,
          "internalType": "address",
          "name": "Patient_Address",
          "type": "address"
        }
      ],
      "name": "AccessRejected",
      "type": "event"
    },
    {
      "anonymous": false,
      "inputs": [
        {
          "indexed": true,
          "internalType": "address",
          "name": "Doctor_Address",
          "type": "address"
        }
      ],
      "name": "DoctorAdded",
      "type": "event"
    },
    {
      "anonymous": false,
      "inputs": [
        {
          "indexed": true,
          "internalType": "address",
          "name": "Doctor_Address",
          "type": "address"
        }
      ],
      "name": "DoctorRemoved",
      "type": "event"
    },
    {
      "anonymous": false,
      "inputs": [
        {
          "indexed": true,
          "internalType": "address",
          "name": "Doctor_Address",
          "type": "address"
        }
      ],
      "name": "DoctorUpdata",
      "type": "event"
    },
    {
      "anonymous": false,
      "inputs": [
        {
          "indexed": true,
          "internalType": "address",
          "name": "Hospital_Address",
          "type": "address"
        }
      ],
      "name": "HospitalAdded",
      "type": "event"
    },
    {
      "anonymous": false,
      "inputs": [
        {
          "indexed": true,
          "internalType": "address",
          "name": "Hospital_Address",
          "type": "address"
        }
      ],
      "name": "HospitalRemoved",
      "type": "event"
    },
    {
      "anonymous": false,
      "inputs": [
        {
          "indexed": true,
          "internalType": "address",
          "name": "Patient_Address",
          "type": "address"
        }
      ],
      "name": "PatientAdded",
      "type": "event"
    },
    {
      "anonymous": false,
      "inputs": [
        {
          "indexed": true,
          "internalType": "address",
          "name": "Patient_Address",
          "type": "address"
        }
      ],
      "name": "PatientUpdated",
      "type": "event"
    },
    {
      "anonymous": false,
      "inputs": [
        {
          "indexed": true,
          "internalType": "address",
          "name": "requester",
          "type": "address"
        },
        {
          "indexed": true,
          "internalType": "address",
          "name": "patient",
          "type": "address"
        }
      ],
      "name": "RequestAccess",
      "type": "event"
    },
    {
      "anonymous": false,
      "inputs": [
        {
          "indexed": true,
          "internalType": "bytes32",
          "name": "role",
          "type": "bytes32"
        },
        {
          "indexed": true,
          "internalType": "bytes32",
          "name": "previousAdminRole",
          "type": "bytes32"
        },
        {
          "indexed": true,
          "internalType": "bytes32",
          "name": "newAdminRole",
          "type": "bytes32"
        }
      ],
      "name": "RoleAdminChanged",
      "type": "event"
    },
    {
      "anonymous": false,
      "inputs": [
        {
          "indexed": true,
          "internalType": "bytes32",
          "name": "role",
          "type": "bytes32"
        },
        {
          "indexed": true,
          "internalType": "address",
          "name": "account",
          "type": "address"
        },
        {
          "indexed": true,
          "internalType": "address",
          "name": "sender",
          "type": "address"
        }
      ],
      "name": "RoleGranted",
      "type": "event"
    },
    {
      "anonymous": false,
      "inputs": [
        {
          "indexed": true,
          "internalType": "bytes32",
          "name": "role",
          "type": "bytes32"
        },
        {
          "indexed": true,
          "internalType": "address",
          "name": "account",
          "type": "address"
        },
        {
          "indexed": true,
          "internalType": "address",
          "name": "sender",
          "type": "address"
        }
      ],
      "name": "RoleRevoked",
      "type": "event"
    },
    {
      "inputs": [],
      "name": "ADMIN_ROLE",
      "outputs": [
        {
          "internalType": "bytes32",
          "name": "",
          "type": "bytes32"
        }
      ],
      "stateMutability": "view",
      "type": "function",
      "constant": true
    },
    {
      "inputs": [],
      "name": "Admin",
      "outputs": [
        {
          "internalType": "address",
          "name": "",
          "type": "address"
        }
      ],
      "stateMutability": "view",
      "type": "function",
      "constant": true
    },
    {
      "inputs": [],
      "name": "DEFAULT_ADMIN_ROLE",
      "outputs": [
        {
          "internalType": "bytes32",
          "name": "",
          "type": "bytes32"
        }
      ],
      "stateMutability": "view",
      "type": "function",
      "constant": true
    },
    {
      "inputs": [],
      "name": "DOCTOR_ROLE",
      "outputs": [
        {
          "internalType": "bytes32",
          "name": "",
          "type": "bytes32"
        }
      ],
      "stateMutability": "view",
      "type": "function",
      "constant": true
    },
    {
      "inputs": [],
      "name": "HOSPITAL_ROLE",
      "outputs": [
        {
          "internalType": "bytes32",
          "name": "",
          "type": "bytes32"
        }
      ],
      "stateMutability": "view",
      "type": "function",
      "constant": true
    },
    {
      "inputs": [],
      "name": "PATIENT_ROLE",
      "outputs": [
        {
          "internalType": "bytes32",
          "name": "",
          "type": "bytes32"
        }
      ],
      "stateMutability": "view",
      "type": "function",
      "constant": true
    },
    {
      "inputs": [
        {
          "internalType": "bytes32",
          "name": "role",
          "type": "bytes32"
        }
      ],
      "name": "getRoleAdmin",
      "outputs": [
        {
          "internalType": "bytes32",
          "name": "",
          "type": "bytes32"
        }
      ],
      "stateMutability": "view",
      "type": "function",
      "constant": true
    },
    {
      "inputs": [
        {
          "internalType": "bytes32",
          "name": "role",
          "type": "bytes32"
        },
        {
          "internalType": "address",
          "name": "account",
          "type": "address"
        }
      ],
      "name": "grantRole",
      "outputs": [],
      "stateMutability": "nonpayable",
      "type": "function"
    },
    {
      "inputs": [
        {
          "internalType": "bytes32",
          "name": "role",
          "type": "bytes32"
        },
        {
          "internalType": "address",
          "name": "account",
          "type": "address"
        }
      ],
      "name": "hasRole",
      "outputs": [
        {
          "internalType": "bool",
          "name": "",
          "type": "bool"
        }
      ],
      "stateMutability": "view",
      "type": "function",
      "constant": true
    },
    {
      "inputs": [
        {
          "internalType": "bytes32",
          "name": "role",
          "type": "bytes32"
        },
        {
          "internalType": "address",
          "name": "account",
          "type": "address"
        }
      ],
      "name": "renounceRole",
      "outputs": [],
      "stateMutability": "nonpayable",
      "type": "function"
    },
    {
      "inputs": [
        {
          "internalType": "uint256",
          "name": "",
          "type": "uint256"
        }
      ],
      "name": "requests",
      "outputs": [
        {
          "internalType": "uint256",
          "name": "id",
          "type": "uint256"
        },
        {
          "internalType": "address",
          "name": "from_doctor_addr",
          "type": "address"
        },
        {
          "internalType": "address",
          "name": "to_patients_addr",
          "type": "address"
        },
        {
          "internalType": "uint256",
          "name": "date",
          "type": "uint256"
        }
      ],
      "stateMutability": "view",
      "type": "function",
      "constant": true
    },
    {
      "inputs": [
        {
          "internalType": "bytes32",
          "name": "role",
          "type": "bytes32"
        },
        {
          "internalType": "address",
          "name": "account",
          "type": "address"
        }
      ],
      "name": "revokeRole",
      "outputs": [],
      "stateMutability": "nonpayable",
      "type": "function"
    },
    {
      "inputs": [
        {
          "internalType": "bytes4",
          "name": "interfaceId",
          "type": "bytes4"
        }
      ],
      "name": "supportsInterface",
      "outputs": [
        {
          "internalType": "bool",
          "name": "",
          "type": "bool"
        }
      ],
      "stateMutability": "view",
      "type": "function",
      "constant": true
    },
    {
      "inputs": [],
      "name": "logg",
      "outputs": [
        {
          "internalType": "uint256",
          "name": "role",
          "type": "uint256"
        }
      ],
      "stateMutability": "view",
      "type": "function",
      "constant": true
    },
    {
      "inputs": [
        {
          "internalType": "string",
          "name": "_name",
          "type": "string"
        },
        {
          "internalType": "address",
          "name": "_address",
          "type": "address"
        },
        {
          "internalType": "string",
          "name": "_place",
          "type": "string"
        },
        {
          "internalType": "uint256",
          "name": "_phone",
          "type": "uint256"
        }
      ],
      "name": "addhospital",
      "outputs": [
        {
          "internalType": "bool",
          "name": "success",
          "type": "bool"
        }
      ],
      "stateMutability": "nonpayable",
      "type": "function"
    },
    {
      "inputs": [
        {
          "internalType": "address",
          "name": "_hosAddress",
          "type": "address"
        }
      ],
      "name": "removeitem_hos",
      "outputs": [],
      "stateMutability": "nonpayable",
      "type": "function"
    },
    {
      "inputs": [
        {
          "internalType": "address",
          "name": "_address",
          "type": "address"
        }
      ],
      "name": "removehospital",
      "outputs": [
        {
          "internalType": "bool",
          "name": "success",
          "type": "bool"
        }
      ],
      "stateMutability": "nonpayable",
      "type": "function"
    },
    {
      "inputs": [],
      "name": "get_all_hospitals",
      "outputs": [
        {
          "components": [
            {
              "internalType": "uint256",
              "name": "id",
              "type": "uint256"
            },
            {
              "internalType": "string",
              "name": "name",
              "type": "string"
            },
            {
              "internalType": "address",
              "name": "addr",
              "type": "address"
            },
            {
              "internalType": "string",
              "name": "place",
              "type": "string"
            },
            {
              "internalType": "uint256",
              "name": "phone",
              "type": "uint256"
            }
          ],
          "internalType": "struct MedRecChain.Hospital[]",
          "name": "",
          "type": "tuple[]"
        }
      ],
      "stateMutability": "view",
      "type": "function",
      "constant": true
    },
    {
      "inputs": [
        {
          "internalType": "string",
          "name": "_name",
          "type": "string"
        },
        {
          "internalType": "string",
          "name": "_hospital_name",
          "type": "string"
        },
        {
          "internalType": "uint256",
          "name": "_phone",
          "type": "uint256"
        },
        {
          "internalType": "string",
          "name": "_email",
          "type": "string"
        },
        {
          "internalType": "uint256",
          "name": "_age",
          "type": "uint256"
        },
        {
          "internalType": "string",
          "name": "_place",
          "type": "string"
        },
        {
          "internalType": "string",
          "name": "_Medical_specialty",
          "type": "string"
        },
        {
          "internalType": "address",
          "name": "_docAddress",
          "type": "address"
        }
      ],
      "name": "addDoctor",
      "outputs": [
        {
          "internalType": "bool",
          "name": "success",
          "type": "bool"
        }
      ],
      "stateMutability": "nonpayable",
      "type": "function"
    },
    {
      "inputs": [
        {
          "internalType": "address",
          "name": "_docAddress",
          "type": "address"
        }
      ],
      "name": "removeitem_doc",
      "outputs": [],
      "stateMutability": "nonpayable",
      "type": "function"
    },
    {
      "inputs": [
        {
          "internalType": "address",
          "name": "_docAddress",
          "type": "address"
        }
      ],
      "name": "removeDoctor",
      "outputs": [
        {
          "internalType": "bool",
          "name": "success",
          "type": "bool"
        }
      ],
      "stateMutability": "nonpayable",
      "type": "function"
    },
    {
      "inputs": [],
      "name": "get_all_Doctors",
      "outputs": [
        {
          "components": [
            {
              "internalType": "uint256",
              "name": "id",
              "type": "uint256"
            },
            {
              "internalType": "string",
              "name": "name",
              "type": "string"
            },
            {
              "internalType": "string",
              "name": "hospital_name",
              "type": "string"
            },
            {
              "internalType": "uint256",
              "name": "phone",
              "type": "uint256"
            },
            {
              "internalType": "string",
              "name": "email",
              "type": "string"
            },
            {
              "internalType": "uint256",
              "name": "age",
              "type": "uint256"
            },
            {
              "internalType": "string",
              "name": "place",
              "type": "string"
            },
            {
              "internalType": "string",
              "name": "Medical_specialty",
              "type": "string"
            },
            {
              "internalType": "address",
              "name": "docAddress",
              "type": "address"
            }
          ],
          "internalType": "struct MedRecChain.doctor[]",
          "name": "",
          "type": "tuple[]"
        }
      ],
      "stateMutability": "view",
      "type": "function",
      "constant": true
    },
    {
      "inputs": [],
      "name": "get_record_number",
      "outputs": [
        {
          "internalType": "uint256",
          "name": "i",
          "type": "uint256"
        }
      ],
      "stateMutability": "view",
      "type": "function",
      "constant": true
    },
    {
      "inputs": [
        {
          "internalType": "address",
          "name": "_addr",
          "type": "address"
        }
      ],
      "name": "get_hospita_by_address",
      "outputs": [
        {
          "components": [
            {
              "internalType": "uint256",
              "name": "id",
              "type": "uint256"
            },
            {
              "internalType": "string",
              "name": "name",
              "type": "string"
            },
            {
              "internalType": "address",
              "name": "addr",
              "type": "address"
            },
            {
              "internalType": "string",
              "name": "place",
              "type": "string"
            },
            {
              "internalType": "uint256",
              "name": "phone",
              "type": "uint256"
            }
          ],
          "internalType": "struct MedRecChain.Hospital",
          "name": "",
          "type": "tuple"
        }
      ],
      "stateMutability": "view",
      "type": "function",
      "constant": true
    },
    {
      "inputs": [
        {
          "internalType": "string",
          "name": "_name",
          "type": "string"
        },
        {
          "internalType": "string",
          "name": "_email",
          "type": "string"
        },
        {
          "internalType": "string",
          "name": "_National_Addr",
          "type": "string"
        },
        {
          "internalType": "uint256",
          "name": "_National_id",
          "type": "uint256"
        },
        {
          "internalType": "uint256",
          "name": "_age",
          "type": "uint256"
        },
        {
          "internalType": "address",
          "name": "_PatientAddress",
          "type": "address"
        },
        {
          "internalType": "uint256",
          "name": "_phone",
          "type": "uint256"
        },
        {
          "internalType": "string",
          "name": "_Blood_Type",
          "type": "string"
        },
        {
          "internalType": "string",
          "name": "_marital_status",
          "type": "string"
        }
      ],
      "name": "addPatient",
      "outputs": [
        {
          "internalType": "bool",
          "name": "success",
          "type": "bool"
        }
      ],
      "stateMutability": "nonpayable",
      "type": "function"
    },
    {
      "inputs": [],
      "name": "get_all_Patients",
      "outputs": [
        {
          "components": [
            {
              "internalType": "uint256",
              "name": "id",
              "type": "uint256"
            },
            {
              "internalType": "string",
              "name": "name",
              "type": "string"
            },
            {
              "internalType": "string",
              "name": "email",
              "type": "string"
            },
            {
              "internalType": "string",
              "name": "National_Addr",
              "type": "string"
            },
            {
              "internalType": "uint256",
              "name": "National_id",
              "type": "uint256"
            },
            {
              "internalType": "uint256",
              "name": "age",
              "type": "uint256"
            },
            {
              "internalType": "address",
              "name": "PatientAddress",
              "type": "address"
            },
            {
              "internalType": "uint256",
              "name": "phone",
              "type": "uint256"
            },
            {
              "internalType": "string",
              "name": "Blood_Type",
              "type": "string"
            },
            {
              "internalType": "string",
              "name": "marital_status",
              "type": "string"
            },
            {
              "components": [
                {
                  "internalType": "uint256",
                  "name": "Medical_id",
                  "type": "uint256"
                },
                {
                  "internalType": "string",
                  "name": "category",
                  "type": "string"
                },
                {
                  "internalType": "string",
                  "name": "patient_name",
                  "type": "string"
                },
                {
                  "internalType": "string",
                  "name": "rec_name",
                  "type": "string"
                },
                {
                  "internalType": "string",
                  "name": "Created_at",
                  "type": "string"
                },
                {
                  "internalType": "address",
                  "name": "patient_addr",
                  "type": "address"
                },
                {
                  "internalType": "address",
                  "name": "doctor_addr",
                  "type": "address"
                },
                {
                  "internalType": "string",
                  "name": "hex_ipfs",
                  "type": "string"
                }
              ],
              "internalType": "struct MedRecChain.record[]",
              "name": "Records",
              "type": "tuple[]"
            }
          ],
          "internalType": "struct MedRecChain.patient[]",
          "name": "",
          "type": "tuple[]"
        }
      ],
      "stateMutability": "view",
      "type": "function",
      "constant": true
    },
    {
      "inputs": [
        {
          "internalType": "address",
          "name": "_addr",
          "type": "address"
        }
      ],
      "name": "get_doctor_by_address",
      "outputs": [
        {
          "components": [
            {
              "internalType": "uint256",
              "name": "id",
              "type": "uint256"
            },
            {
              "internalType": "string",
              "name": "name",
              "type": "string"
            },
            {
              "internalType": "string",
              "name": "hospital_name",
              "type": "string"
            },
            {
              "internalType": "uint256",
              "name": "phone",
              "type": "uint256"
            },
            {
              "internalType": "string",
              "name": "email",
              "type": "string"
            },
            {
              "internalType": "uint256",
              "name": "age",
              "type": "uint256"
            },
            {
              "internalType": "string",
              "name": "place",
              "type": "string"
            },
            {
              "internalType": "string",
              "name": "Medical_specialty",
              "type": "string"
            },
            {
              "internalType": "address",
              "name": "docAddress",
              "type": "address"
            }
          ],
          "internalType": "struct MedRecChain.doctor",
          "name": "",
          "type": "tuple"
        }
      ],
      "stateMutability": "view",
      "type": "function",
      "constant": true
    },
    {
      "inputs": [
        {
          "internalType": "address",
          "name": "_from_doctor_addr",
          "type": "address"
        },
        {
          "internalType": "address",
          "name": "_to_patients_addr",
          "type": "address"
        }
      ],
      "name": "checkRequestExists",
      "outputs": [
        {
          "internalType": "bool",
          "name": "",
          "type": "bool"
        }
      ],
      "stateMutability": "view",
      "type": "function",
      "constant": true
    },
    {
      "inputs": [
        {
          "internalType": "address",
          "name": "_patient",
          "type": "address"
        }
      ],
      "name": "send_request_Access",
      "outputs": [
        {
          "internalType": "bool",
          "name": "success",
          "type": "bool"
        }
      ],
      "stateMutability": "nonpayable",
      "type": "function"
    },
    {
      "inputs": [],
      "name": "get_all_requests",
      "outputs": [
        {
          "components": [
            {
              "internalType": "uint256",
              "name": "id",
              "type": "uint256"
            },
            {
              "internalType": "address",
              "name": "from_doctor_addr",
              "type": "address"
            },
            {
              "internalType": "address",
              "name": "to_patients_addr",
              "type": "address"
            },
            {
              "internalType": "uint256",
              "name": "date",
              "type": "uint256"
            }
          ],
          "internalType": "struct MedRecChain.request[]",
          "name": "",
          "type": "tuple[]"
        }
      ],
      "stateMutability": "view",
      "type": "function",
      "constant": true
    },
    {
      "inputs": [
        {
          "internalType": "string",
          "name": "_category",
          "type": "string"
        },
        {
          "internalType": "string",
          "name": "_patient_name",
          "type": "string"
        },
        {
          "internalType": "string",
          "name": "_rec_name",
          "type": "string"
        },
        {
          "internalType": "string",
          "name": "_Created_at",
          "type": "string"
        },
        {
          "internalType": "address",
          "name": "_patientAddr",
          "type": "address"
        },
        {
          "internalType": "address",
          "name": "_doctor_addr",
          "type": "address"
        },
        {
          "internalType": "string",
          "name": "_hex_ipfs",
          "type": "string"
        }
      ],
      "name": "addRecord",
      "outputs": [
        {
          "internalType": "bool",
          "name": "",
          "type": "bool"
        }
      ],
      "stateMutability": "nonpayable",
      "type": "function"
    },
    {
      "inputs": [
        {
          "internalType": "address",
          "name": "_patientAddr",
          "type": "address"
        }
      ],
      "name": "See_Record_for_Doctor",
      "outputs": [
        {
          "components": [
            {
              "internalType": "uint256",
              "name": "Medical_id",
              "type": "uint256"
            },
            {
              "internalType": "string",
              "name": "category",
              "type": "string"
            },
            {
              "internalType": "string",
              "name": "patient_name",
              "type": "string"
            },
            {
              "internalType": "string",
              "name": "rec_name",
              "type": "string"
            },
            {
              "internalType": "string",
              "name": "Created_at",
              "type": "string"
            },
            {
              "internalType": "address",
              "name": "patient_addr",
              "type": "address"
            },
            {
              "internalType": "address",
              "name": "doctor_addr",
              "type": "address"
            },
            {
              "internalType": "string",
              "name": "hex_ipfs",
              "type": "string"
            }
          ],
          "internalType": "struct MedRecChain.record[]",
          "name": "",
          "type": "tuple[]"
        }
      ],
      "stateMutability": "view",
      "type": "function",
      "constant": true
    },
    {
      "inputs": [
        {
          "internalType": "address",
          "name": "_addr",
          "type": "address"
        }
      ],
      "name": "get_patient_by_address",
      "outputs": [
        {
          "components": [
            {
              "internalType": "uint256",
              "name": "id",
              "type": "uint256"
            },
            {
              "internalType": "string",
              "name": "name",
              "type": "string"
            },
            {
              "internalType": "string",
              "name": "email",
              "type": "string"
            },
            {
              "internalType": "string",
              "name": "National_Addr",
              "type": "string"
            },
            {
              "internalType": "uint256",
              "name": "National_id",
              "type": "uint256"
            },
            {
              "internalType": "uint256",
              "name": "age",
              "type": "uint256"
            },
            {
              "internalType": "address",
              "name": "PatientAddress",
              "type": "address"
            },
            {
              "internalType": "uint256",
              "name": "phone",
              "type": "uint256"
            },
            {
              "internalType": "string",
              "name": "Blood_Type",
              "type": "string"
            },
            {
              "internalType": "string",
              "name": "marital_status",
              "type": "string"
            },
            {
              "components": [
                {
                  "internalType": "uint256",
                  "name": "Medical_id",
                  "type": "uint256"
                },
                {
                  "internalType": "string",
                  "name": "category",
                  "type": "string"
                },
                {
                  "internalType": "string",
                  "name": "patient_name",
                  "type": "string"
                },
                {
                  "internalType": "string",
                  "name": "rec_name",
                  "type": "string"
                },
                {
                  "internalType": "string",
                  "name": "Created_at",
                  "type": "string"
                },
                {
                  "internalType": "address",
                  "name": "patient_addr",
                  "type": "address"
                },
                {
                  "internalType": "address",
                  "name": "doctor_addr",
                  "type": "address"
                },
                {
                  "internalType": "string",
                  "name": "hex_ipfs",
                  "type": "string"
                }
              ],
              "internalType": "struct MedRecChain.record[]",
              "name": "Records",
              "type": "tuple[]"
            }
          ],
          "internalType": "struct MedRecChain.patient",
          "name": "",
          "type": "tuple"
        }
      ],
      "stateMutability": "view",
      "type": "function",
      "constant": true
    },
    {
      "inputs": [],
      "name": "See_Record_for_Patient",
      "outputs": [
        {
          "components": [
            {
              "internalType": "uint256",
              "name": "Medical_id",
              "type": "uint256"
            },
            {
              "internalType": "string",
              "name": "category",
              "type": "string"
            },
            {
              "internalType": "string",
              "name": "patient_name",
              "type": "string"
            },
            {
              "internalType": "string",
              "name": "rec_name",
              "type": "string"
            },
            {
              "internalType": "string",
              "name": "Created_at",
              "type": "string"
            },
            {
              "internalType": "address",
              "name": "patient_addr",
              "type": "address"
            },
            {
              "internalType": "address",
              "name": "doctor_addr",
              "type": "address"
            },
            {
              "internalType": "string",
              "name": "hex_ipfs",
              "type": "string"
            }
          ],
          "internalType": "struct MedRecChain.record[]",
          "name": "",
          "type": "tuple[]"
        }
      ],
      "stateMutability": "view",
      "type": "function",
      "constant": true
    },
    {
      "inputs": [
        {
          "internalType": "address",
          "name": "_doctor",
          "type": "address"
        }
      ],
      "name": "approveAccess",
      "outputs": [],
      "stateMutability": "nonpayable",
      "type": "function"
    },
    {
      "inputs": [
        {
          "internalType": "address",
          "name": "_doctor",
          "type": "address"
        }
      ],
      "name": "rejectAccess",
      "outputs": [],
      "stateMutability": "nonpayable",
      "type": "function"
    }
  ],
  "bytecode": "0x6080604052600180546001600160a01b03191673e7b5deb3da0e59ea8f46d497995433629c67501f1790553480156200003757600080fd5b5060015462000071907fa49807205ce4d355092ef5a8a18f56e8913cf4a201fbe287825b095693c21775906001600160a01b031662000077565b62000127565b62000083828262000087565b5050565b6000828152602081815260408083206001600160a01b038516845290915290205460ff1662000083576000828152602081815260408083206001600160a01b03851684529091529020805460ff19166001179055620000e33390565b6001600160a01b0316816001600160a01b0316837f2f8788117e7eff1d82e926ec794901d17c78024a50270940304540a733656f0d60405160405180910390a45050565b61579880620001376000396000f3fe608060405234801561001057600080fd5b506004361061021c5760003560e01c80639474c8e511610125578063c1b32571116100ad578063f6ba66781161007c578063f6ba6678146104da578063fd6ecf0b146104ef578063fe7ac90d1461050f578063fec331f214610522578063ff1b636d1461053757600080fd5b8063c1b325711461047f578063c821f07f14610492578063d15258d1146104b2578063d547741f146104c757600080fd5b8063ac5cb97d116100f4578063ac5cb97d1461041a578063ad182efe1461042f578063aefae3b114610442578063bb5bfd6614610455578063c10f76111461046a57600080fd5b80639474c8e5146103d957806398fc90e9146103ec578063a217fddf146103ff578063a2cdceda1461040757600080fd5b806353bbcf03116101a8578063892e19ef11610177578063892e19ef1461036b5780638f333d701461037e578063905e03ba1461039357806391d14854146103a657806393ac6177146103b957600080fd5b806353bbcf03146102f8578063705211f41461030057806375b238fc1461031357806381d12c581461032857600080fd5b806322cf9d3d116101ef57806322cf9d3d14610287578063248a9ca31461029a5780632f2ff15d146102bd5780633141172c146102d257806336568abe146102e557600080fd5b806301ffc9a714610221578063217e16f71461024957806321ea00a91461025e5780632246fb7714610274575b600080fd5b61023461022f3660046148ef565b610562565b60405190151581526020015b60405180910390f35b610251610599565b60405161024091906149ca565b610266610824565b604051908152602001610240565b610234610282366004614ae6565b6108b8565b610234610295366004614be6565b610beb565b6102666102a8366004614c01565b60009081526020819052604090206001015490565b6102d06102cb366004614c1a565b610e3f565b005b6102d06102e0366004614be6565b610e69565b6102d06102f3366004614c1a565b610fe6565b610266611064565b6102d061030e366004614be6565b611105565b61026660008051602061572383398151915281565b61033b610336366004614c01565b611277565b60405161024094939291909384526001600160a01b03928316602085015291166040830152606082015260800190565b610234610379366004614c46565b6112bd565b6103866115fb565b6040516102409190614e43565b6102346103a1366004614e56565b611a01565b6102346103b4366004614c1a565b611ce8565b6103cc6103c7366004614be6565b611d11565b6040516102409190614ed2565b6103866103e7366004614be6565b611eee565b6102346103fa366004614be6565b6123df565b610266600081565b6102d0610415366004614be6565b61255d565b6102666000805160206156e383398151915281565b61023461043d366004614ee5565b612722565b610234610450366004614fd8565b6129c3565b61045d612a7a565b6040516102409190615002565b610472612afe565b604051610240919061514f565b6102d061048d366004614be6565b6132ad565b6104a56104a0366004614be6565b613448565b6040516102409190615268565b6104ba6137e3565b604051610240919061527b565b6102d06104d5366004614c1a565b613c20565b61026660008051602061574383398151915281565b6105026104fd366004614be6565b613c45565b60405161024091906152d0565b61023461051d366004614be6565b614354565b61026660008051602061570383398151915281565b60015461054a906001600160a01b031681565b6040516001600160a01b039091168152602001610240565b60006001600160e01b03198216637965db0b60e01b148061059357506301ffc9a760e01b6001600160e01b03198316145b92915050565b60606105b360008051602061572383398151915233611ce8565b6105d85760405162461bcd60e51b81526004016105cf906152e3565b60405180910390fd5b60045460009067ffffffffffffffff8111156105f6576105f6614a2c565b60405190808252806020026020018201604052801561062f57816020015b61061c6147ac565b8152602001906001900390816106145790505b50905060005b60045481101561081e57600360006004838154811061065657610656615333565b9060005260206000200160009054906101000a90046001600160a01b03166001600160a01b03166001600160a01b031681526020019081526020016000206040518060a0016040529081600082015481526020016001820180546106b990615349565b80601f01602080910402602001604051908101604052809291908181526020018280546106e590615349565b80156107325780601f1061070757610100808354040283529160200191610732565b820191906000526020600020905b81548152906001019060200180831161071557829003601f168201915b505050918352505060028201546001600160a01b0316602082015260038201805460409092019161076290615349565b80601f016020809104026020016040519081016040528092919081815260200182805461078e90615349565b80156107db5780601f106107b0576101008083540402835291602001916107db565b820191906000526020600020905b8154815290600101906020018083116107be57829003601f168201915b5050505050815260200160048201548152505082828151811061080057610800615333565b6020026020010181905250808061081690615399565b915050610635565b50905090565b600061083e60008051602061572383398151915233611ce8565b156108495750600190565b61086160008051602061574383398151915233611ce8565b1561086c5750600290565b61088460008051602061570383398151915233611ce8565b1561088f5750600390565b6108a76000805160206156e383398151915233611ce8565b156108b25750600490565b50600090565b60006108d260008051602061574383398151915233611ce8565b6108ee5760405162461bcd60e51b81526004016105cf906153b2565b6109066000805160206156e383398151915286611ce8565b156109535760405162461bcd60e51b815260206004820152601e60248201527f54686973206163636f756e7420616c726561647920612070617469656e74000060448201526064016105cf565b61096b60008051602061572383398151915286611ce8565b156109885760405162461bcd60e51b81526004016105cf906153e9565b6109a060008051602061570383398151915286611ce8565b156109e95760405162461bcd60e51b815260206004820152601960248201527802a3434b99020b1b1b7bab73a1034b9902237b1ba37b910909603d1b60448201526064016105cf565b610a0160008051602061574383398151915286611ce8565b15610a4e5760405162461bcd60e51b815260206004820152601b60248201527f54686973204163636f756e7420697320486f73706974616c212120000000000060448201526064016105cf565b610a666000805160206156e38339815191528661449e565b600b54610a74906001615420565b600b8190556001600160a01b03861660008181526005602052604090209182556006820180546001600160a01b0319169091179055600101610ab68b82615481565b506001600160a01b0385166000908152600560205260409020600201610adc8a82615481565b506001600160a01b0385166000908152600560205260409020600301610b028982615481565b506001600160a01b03851660009081526005602081905260409091206004810189905590810187905560078101859055600801610b3f8482615481565b506001600160a01b0385166000908152600560205260409020600901610b658382615481565b506006805460018101825560009182527ff652222313e28459528d920b65115c16c04f3efc82aaedc97be59f3f377c0d3f0180546001600160a01b0319166001600160a01b03881690811790915560405190917fa58cff07db0adda3ab7a40bd2f18ab57210bf38391a52ffd2e8eee6b8bdec71a91a25060019998505050505050505050565b6000610c0560008051602061570383398151915233611ce8565b610c215760405162461bcd60e51b81526004016105cf90615541565b610c396000805160206156e383398151915283611ce8565b610cab5760405162461bcd60e51b815260206004820152603860248201527f54686520706572736f6e20796f75206172652072657175657374696e6720616360448201527f6365737320746f206973206e6f7420612050617469656e74000000000000000060648201526084016105cf565b610cb533836129c3565b15610cfb5760405162461bcd60e51b8152602060048201526016602482015275185b1c9958591e481cd95b990818481c995c5d595cdd60521b60448201526064016105cf565b600d54610d09906001615420565b600d8190556040805160808101825291825233602083018181526001600160a01b038681168585018181524260608801908152600e8054600181018255600091825298517fbb7b4a454dc3493923482f07822329ed19e8244eff582cc204f8554c3620c3fd6004909a02998a015594517fbb7b4a454dc3493923482f07822329ed19e8244eff582cc204f8554c3620c3fe890180546001600160a01b031990811692871692909217905591517fbb7b4a454dc3493923482f07822329ed19e8244eff582cc204f8554c3620c3ff89018054909316941693909317905590517fbb7b4a454dc3493923482f07822329ed19e8244eff582cc204f8554c3620c40090950194909455915190917fb8a82050b8f8de806a462f9a2bce72609174b2fc51d96606de7735fb6a6a236691a35060015b919050565b600082815260208190526040902060010154610e5a816144a8565b610e6483836144b5565b505050565b610e816000805160206156e383398151915233611ce8565b610e9d5760405162461bcd60e51b81526004016105cf90615578565b610eb560008051602061570383398151915282611ce8565b610f0d5760405162461bcd60e51b8152602060048201526024808201527f446f63746f7220646f6573206e6f7420686176652074686520646f63746f7220604482015263726f6c6560e01b60648201526084016105cf565b3360009081526002602090815260408083206001600160a01b038516845290915290205460ff161515600114610f915760405162461bcd60e51b815260206004820152602360248201527f54686973205265717565737420616c7261656479206265656e2052656a65637460448201526201090960ed1b60648201526084016105cf565b3360008181526002602090815260408083206001600160a01b0386168085529252808320805460ff191690555190917f6586985f73a63d005b52bd5a5791732c40ec70b8fc067ab89f5c402185f0c6ea91a350565b6001600160a01b03811633146110565760405162461bcd60e51b815260206004820152602f60248201527f416363657373436f6e74726f6c3a2063616e206f6e6c792072656e6f756e636560448201526e103937b632b9903337b91039b2b63360891b60648201526084016105cf565b6110608282614539565b5050565b600061107e60008051602061572383398151915233611ce8565b61109a5760405162461bcd60e51b81526004016105cf906152e3565b6000805b60065481101561081e5760056000600683815481106110bf576110bf615333565b60009182526020808320909101546001600160a01b031683528201929092526040019020600a01546110f19083615420565b9150806110fd81615399565b91505061109e565b61111d6000805160206156e383398151915233611ce8565b6111395760405162461bcd60e51b81526004016105cf90615578565b61115160008051602061570383398151915282611ce8565b61119d5760405162461bcd60e51b815260206004820152601c60248201527f746869732061636f756e74206973206e6f74206120646f63746f72200000000060448201526064016105cf565b3360009081526002602090815260408083206001600160a01b038516845290915290205460ff161561121f5760405162461bcd60e51b815260206004820152602560248201527f54686973205265717565737420616c7261656479206265656e20417070726f76604482015264032b21090960dd1b60648201526084016105cf565b3360008181526002602090815260408083206001600160a01b0386168085529252808320805460ff191660011790555190917f9f520b3bfc56d06f7065d10b4683b3f57ac8895d5026cd176dee95ce1454cb8d91a350565b600e818154811061128757600080fd5b600091825260209091206004909102018054600182015460028301546003909301549193506001600160a01b0390811692169084565b60006112d760008051602061572383398151915233611ce8565b6112f35760405162461bcd60e51b81526004016105cf906152e3565b61130b60008051602061570383398151915283611ce8565b156113585760405162461bcd60e51b815260206004820152601d60248201527f54686973206163636f756e7420616c7265616479206120646f63746f7200000060448201526064016105cf565b61137060008051602061572383398151915283611ce8565b1561138d5760405162461bcd60e51b81526004016105cf906153e9565b6113a560008051602061574383398151915283611ce8565b156113f25760405162461bcd60e51b815260206004820152601b60248201527f54686973204163636f756e7420697320486f73706974616c212120000000000060448201526064016105cf565b61140a6000805160206156e383398151915283611ce8565b156114575760405162461bcd60e51b815260206004820152601a60248201527f54686973204163636f756e742069732050617469656e7421212000000000000060448201526064016105cf565b61146f6000805160206157038339815191528361449e565b600a5461147d906001615420565b600a819055604080516101208101825291825260208083018c81528383018c9052606084018b9052608084018a905260a0840189905260c0840188905260e084018790526001600160a01b03861661010085018190526000908152600790925291902082518155905160018201906114f59082615481565b506040820151600282019061150a9082615481565b5060608201516003820155608082015160048201906115299082615481565b5060a0820151600582015560c082015160068201906115489082615481565b5060e0820151600782019061155d9082615481565b506101009190910151600891820180546001600160a01b039283166001600160a01b031991821617909155825460018101845560009384527ff3f7a9fe364faab93b216da50a3214154f22a0a2b415b23a84c8169e8b636ee3018054928616929091168217905560405190917f69908b2e63170aa89ef89719bbe3b4c92cccc38653968ab25f4464eff7c28ac891a250600198975050505050505050565b60606116156000805160206156e383398151915233611ce8565b6116315760405162461bcd60e51b81526004016105cf90615578565b336000908152600560205260409020600a01546116905760405162461bcd60e51b815260206004820152601c60248201527f70617469656e74207265636f726420646f65736e27742065786973740000000060448201526064016105cf565b336000908152600560209081526040808320600a0180548251818502810185019093528083529193909284015b828210156119f8578382906000526020600020906008020160405180610100016040529081600082015481526020016001820180546116fb90615349565b80601f016020809104026020016040519081016040528092919081815260200182805461172790615349565b80156117745780601f1061174957610100808354040283529160200191611774565b820191906000526020600020905b81548152906001019060200180831161175757829003601f168201915b5050505050815260200160028201805461178d90615349565b80601f01602080910402602001604051908101604052809291908181526020018280546117b990615349565b80156118065780601f106117db57610100808354040283529160200191611806565b820191906000526020600020905b8154815290600101906020018083116117e957829003601f168201915b5050505050815260200160038201805461181f90615349565b80601f016020809104026020016040519081016040528092919081815260200182805461184b90615349565b80156118985780601f1061186d57610100808354040283529160200191611898565b820191906000526020600020905b81548152906001019060200180831161187b57829003601f168201915b505050505081526020016004820180546118b190615349565b80601f01602080910402602001604051908101604052809291908181526020018280546118dd90615349565b801561192a5780601f106118ff5761010080835404028352916020019161192a565b820191906000526020600020905b81548152906001019060200180831161190d57829003601f168201915b505050918352505060058201546001600160a01b039081166020830152600683015416604082015260078201805460609092019161196790615349565b80601f016020809104026020016040519081016040528092919081815260200182805461199390615349565b80156119e05780601f106119b5576101008083540402835291602001916119e0565b820191906000526020600020905b8154815290600101906020018083116119c357829003601f168201915b505050505081525050815260200190600101906116bd565b50505050905090565b6000611a1b60008051602061572383398151915233611ce8565b611a375760405162461bcd60e51b81526004016105cf906152e3565b611a4f60008051602061574383398151915285611ce8565b15611aa65760405162461bcd60e51b815260206004820152602160248201527f5468697320686f73706974616c206973207265616c6c792065786973697421216044820152600160fd1b60648201526084016105cf565b611abe60008051602061572383398151915285611ce8565b15611adb5760405162461bcd60e51b81526004016105cf906153e9565b611af360008051602061570383398151915285611ce8565b15611b3c5760405162461bcd60e51b815260206004820152601960248201527802a3434b99020b1b1b7bab73a1034b9902237b1ba37b910909603d1b60448201526064016105cf565b611b546000805160206156e383398151915285611ce8565b15611ba15760405162461bcd60e51b815260206004820152601a60248201527f54686973204163636f756e742069732050617469656e7421212000000000000060448201526064016105cf565b611bb96000805160206157438339815191528561449e565b600954611bc7906001615420565b60098190556040805160a08101825291825260208083018881526001600160a01b0388168484018190526060850188905260808501879052600090815260039092529190208251815590516001820190611c219082615481565b5060408201516002820180546001600160a01b0319166001600160a01b0390921691909117905560608201516003820190611c5c9082615481565b5060809190910151600491820155805460018101825560009182527f8a35acfbc15ff81a39ae7d344fd709f28e8600b4aa8c65c6b64bfe7fe36bd19b0180546001600160a01b0319166001600160a01b03871690811790915560405190917f98b422b4248851ae9e727f5fd491b255462f5872bd0493c1ddf7308ccedfa1a291a2506001949350505050565b6000918252602082815260408084206001600160a01b0393909316845291905290205460ff1690565b611d196147ac565b611d3160008051602061574383398151915233611ce8565b611d4d5760405162461bcd60e51b81526004016105cf906153b2565b6001600160a01b0382163314611d755760405162461bcd60e51b81526004016105cf906155af565b6001600160a01b038216600090815260036020908152604091829020825160a08101909352805483526001810180549192840191611db290615349565b80601f0160208091040260200160405190810160405280929190818152602001828054611dde90615349565b8015611e2b5780601f10611e0057610100808354040283529160200191611e2b565b820191906000526020600020905b815481529060010190602001808311611e0e57829003601f168201915b505050918352505060028201546001600160a01b03166020820152600382018054604090920191611e5b90615349565b80601f0160208091040260200160405190810160405280929190818152602001828054611e8790615349565b8015611ed45780601f10611ea957610100808354040283529160200191611ed4565b820191906000526020600020905b815481529060010190602001808311611eb757829003601f168201915b505050505081526020016004820154815250509050919050565b6060611f0860008051602061570383398151915233611ce8565b611f245760405162461bcd60e51b81526004016105cf90615541565b6001600160a01b038216600090815260026020908152604080832033845290915290205460ff16611f975760405162461bcd60e51b815260206004820152601c60248201527f4e6f207065726d697373696f6e20746f20676574205265636f7264730000000060448201526064016105cf565b611faf6000805160206156e383398151915283611ce8565b611ffb5760405162461bcd60e51b815260206004820152601b60248201527f546869732070617469656e7473206973206e6f7420657869736974000000000060448201526064016105cf565b6001600160a01b0382166000908152600560205260409020600a01546120635760405162461bcd60e51b815260206004820152601c60248201527f70617469656e74207265636f726420646f65736e27742065786973740000000060448201526064016105cf565b6001600160a01b0382166000908152600560209081526040808320600a0180548251818502810185019093528083529193909284015b828210156123d4578382906000526020600020906008020160405180610100016040529081600082015481526020016001820180546120d790615349565b80601f016020809104026020016040519081016040528092919081815260200182805461210390615349565b80156121505780601f1061212557610100808354040283529160200191612150565b820191906000526020600020905b81548152906001019060200180831161213357829003601f168201915b5050505050815260200160028201805461216990615349565b80601f016020809104026020016040519081016040528092919081815260200182805461219590615349565b80156121e25780601f106121b7576101008083540402835291602001916121e2565b820191906000526020600020905b8154815290600101906020018083116121c557829003601f168201915b505050505081526020016003820180546121fb90615349565b80601f016020809104026020016040519081016040528092919081815260200182805461222790615349565b80156122745780601f1061224957610100808354040283529160200191612274565b820191906000526020600020905b81548152906001019060200180831161225757829003601f168201915b5050505050815260200160048201805461228d90615349565b80601f01602080910402602001604051908101604052809291908181526020018280546122b990615349565b80156123065780601f106122db57610100808354040283529160200191612306565b820191906000526020600020905b8154815290600101906020018083116122e957829003601f168201915b505050918352505060058201546001600160a01b039081166020830152600683015416604082015260078201805460609092019161234390615349565b80601f016020809104026020016040519081016040528092919081815260200182805461236f90615349565b80156123bc5780601f10612391576101008083540402835291602001916123bc565b820191906000526020600020905b81548152906001019060200180831161239f57829003601f168201915b50505050508152505081526020019060010190612099565b505050509050919050565b60006123f960008051602061572383398151915233611ce8565b6124155760405162461bcd60e51b81526004016105cf906152e3565b61242d60008051602061570383398151915283611ce8565b6124795760405162461bcd60e51b815260206004820152601760248201527f54686973206163636f756e74206e6f742065786973697400000000000000000060448201526064016105cf565b6001600160a01b0382166000908152600760205260408120818155906124a260018301826147e4565b6124b06002830160006147e4565b60038201600090556004820160006124c891906147e4565b60058201600090556006820160006124e091906147e4565b6124ee6007830160006147e4565b5060080180546001600160a01b031916905561251860008051602061570383398151915283614539565b6125218261255d565b6040516001600160a01b038316907f493d7cf6a7c880406a55654d6727464ea088bd01d40498e1987a327e68961ab890600090a2506001919050565b60085461259f5760405162461bcd60e51b815260206004820152601060248201526f4e6f206b65797320696e20617272617960801b60448201526064016105cf565b60005b60085481101561106057816040516020016125bd91906155e6565b60405160208183030381529060405280519060200120600882815481106125e6576125e6615333565b6000918252602091829020015460405161260c926001600160a01b0390921691016155e6565b6040516020818303038152906040528051906020012003612710576008818154811061263a5761263a615333565b6000918252602082200180546001600160a01b031916905560085461266190600190615603565b905060006008828154811061267857612678615333565b600091825260209091200154600880546001600160a01b0390921692508291859081106126a7576126a7615333565b9060005260206000200160006101000a8154816001600160a01b0302191690836001600160a01b0316021790555060088054806126e6576126e6615616565b600082815260209020810160001990810180546001600160a01b0319169055019055506110609050565b8061271a81615399565b9150506125a2565b600061273c60008051602061570383398151915233611ce8565b6127585760405162461bcd60e51b81526004016105cf90615541565b6127706000805160206156e383398151915285611ce8565b6127bc5760405162461bcd60e51b815260206004820152601b60248201527f546869732070617469656e7473206973206e6f7420657869736974000000000060448201526064016105cf565b6001600160a01b038416600090815260026020908152604080832033845290915290205460ff1661282f5760405162461bcd60e51b815260206004820152601c60248201527f4e6f207065726d697373696f6e20746f20616464205265636f7264730000000060448201526064016105cf565b6001600160a01b03831633146128875760405162461bcd60e51b815260206004820152601c60248201527f4e6f207065726d697373696f6e20746f207468697320446f63746f720000000060448201526064016105cf565b600c54612895906001615420565b600c8190556001600160a01b0380861660008181526005602090815260408083208151610100810183529687528683018f81529187018e9052606087018d9052608087018c905260a087019490945293881660c086015260e08501879052600a909201805460018181018355918352929091208451600890930201918255915190918201906129249082615481565b50604082015160028201906129399082615481565b506060820151600382019061294e9082615481565b50608082015160048201906129639082615481565b5060a08201516005820180546001600160a01b039283166001600160a01b03199182161790915560c084015160068401805491909316911617905560e082015160078201906129b29082615481565b5060019a9950505050505050505050565b6000805b600e54811015612a7057836001600160a01b0316600e82815481106129ee576129ee615333565b60009182526020909120600160049092020101546001600160a01b0316148015612a4f5750826001600160a01b0316600e8281548110612a3057612a30615333565b60009182526020909120600260049092020101546001600160a01b0316145b15612a5e576001915050610593565b80612a6881615399565b9150506129c7565b5060009392505050565b6060600e805480602002602001604051908101604052809291908181526020016000905b828210156119f85760008481526020908190206040805160808101825260048602909201805483526001808201546001600160a01b0390811685870152600283015416928401929092526003015460608301529083529092019101612a9e565b6060612b1860008051602061574383398151915233611ce8565b612b345760405162461bcd60e51b81526004016105cf906153b2565b60065460009067ffffffffffffffff811115612b5257612b52614a2c565b604051908082528060200260200182016040528015612b8b57816020015b612b7861481e565b815260200190600190039081612b705790505b50905060005b60065481101561081e576005600060068381548110612bb257612bb2615333565b9060005260206000200160009054906101000a90046001600160a01b03166001600160a01b03166001600160a01b031681526020019081526020016000206040518061016001604052908160008201548152602001600182018054612c1690615349565b80601f0160208091040260200160405190810160405280929190818152602001828054612c4290615349565b8015612c8f5780601f10612c6457610100808354040283529160200191612c8f565b820191906000526020600020905b815481529060010190602001808311612c7257829003601f168201915b50505050508152602001600282018054612ca890615349565b80601f0160208091040260200160405190810160405280929190818152602001828054612cd490615349565b8015612d215780601f10612cf657610100808354040283529160200191612d21565b820191906000526020600020905b815481529060010190602001808311612d0457829003601f168201915b50505050508152602001600382018054612d3a90615349565b80601f0160208091040260200160405190810160405280929190818152602001828054612d6690615349565b8015612db35780601f10612d8857610100808354040283529160200191612db3565b820191906000526020600020905b815481529060010190602001808311612d9657829003601f168201915b5050509183525050600482015460208201526005820154604082015260068201546001600160a01b031660608201526007820154608082015260088201805460a090920191612e0190615349565b80601f0160208091040260200160405190810160405280929190818152602001828054612e2d90615349565b8015612e7a5780601f10612e4f57610100808354040283529160200191612e7a565b820191906000526020600020905b815481529060010190602001808311612e5d57829003601f168201915b50505050508152602001600982018054612e9390615349565b80601f0160208091040260200160405190810160405280929190818152602001828054612ebf90615349565b8015612f0c5780601f10612ee157610100808354040283529160200191612f0c565b820191906000526020600020905b815481529060010190602001808311612eef57829003601f168201915b50505050508152602001600a8201805480602002602001604051908101604052809291908181526020016000905b8282101561327557838290600052602060002090600802016040518061010001604052908160008201548152602001600182018054612f7890615349565b80601f0160208091040260200160405190810160405280929190818152602001828054612fa490615349565b8015612ff15780601f10612fc657610100808354040283529160200191612ff1565b820191906000526020600020905b815481529060010190602001808311612fd457829003601f168201915b5050505050815260200160028201805461300a90615349565b80601f016020809104026020016040519081016040528092919081815260200182805461303690615349565b80156130835780601f1061305857610100808354040283529160200191613083565b820191906000526020600020905b81548152906001019060200180831161306657829003601f168201915b5050505050815260200160038201805461309c90615349565b80601f01602080910402602001604051908101604052809291908181526020018280546130c890615349565b80156131155780601f106130ea57610100808354040283529160200191613115565b820191906000526020600020905b8154815290600101906020018083116130f857829003601f168201915b5050505050815260200160048201805461312e90615349565b80601f016020809104026020016040519081016040528092919081815260200182805461315a90615349565b80156131a75780601f1061317c576101008083540402835291602001916131a7565b820191906000526020600020905b81548152906001019060200180831161318a57829003601f168201915b505050918352505060058201546001600160a01b03908116602083015260068301541660408201526007820180546060909201916131e490615349565b80601f016020809104026020016040519081016040528092919081815260200182805461321090615349565b801561325d5780601f106132325761010080835404028352916020019161325d565b820191906000526020600020905b81548152906001019060200180831161324057829003601f168201915b50505050508152505081526020019060010190612f3a565b505050508152505082828151811061328f5761328f615333565b602002602001018190525080806132a590615399565b915050612b91565b6004546132ef5760405162461bcd60e51b815260206004820152601060248201526f4e6f206b65797320696e20617272617960801b60448201526064016105cf565b60005b600454811015611060578160405160200161330d91906155e6565b604051602081830303815290604052805190602001206004828154811061333657613336615333565b6000918252602091829020015460405161335c926001600160a01b0390921691016155e6565b6040516020818303038152906040528051906020012003613436576004818154811061338a5761338a615333565b6000918252602082200180546001600160a01b03191690556004546133b190600190615603565b90506000600482815481106133c8576133c8615333565b600091825260209091200154600480546001600160a01b0390921692508291859081106133f7576133f7615333565b9060005260206000200160006101000a8154816001600160a01b0302191690836001600160a01b0316021790555060048054806126e6576126e6615616565b8061344081615399565b9150506132f2565b613450614881565b61346860008051602061570383398151915233611ce8565b6134845760405162461bcd60e51b81526004016105cf90615541565b6001600160a01b03821633146134ac5760405162461bcd60e51b81526004016105cf906155af565b6001600160a01b038216600090815260076020908152604091829020825161012081019093528054835260018101805491928401916134ea90615349565b80601f016020809104026020016040519081016040528092919081815260200182805461351690615349565b80156135635780601f1061353857610100808354040283529160200191613563565b820191906000526020600020905b81548152906001019060200180831161354657829003601f168201915b5050505050815260200160028201805461357c90615349565b80601f01602080910402602001604051908101604052809291908181526020018280546135a890615349565b80156135f55780601f106135ca576101008083540402835291602001916135f5565b820191906000526020600020905b8154815290600101906020018083116135d857829003601f168201915b505050505081526020016003820154815260200160048201805461361890615349565b80601f016020809104026020016040519081016040528092919081815260200182805461364490615349565b80156136915780601f1061366657610100808354040283529160200191613691565b820191906000526020600020905b81548152906001019060200180831161367457829003601f168201915b50505050508152602001600582015481526020016006820180546136b490615349565b80601f01602080910402602001604051908101604052809291908181526020018280546136e090615349565b801561372d5780601f106137025761010080835404028352916020019161372d565b820191906000526020600020905b81548152906001019060200180831161371057829003601f168201915b5050505050815260200160078201805461374690615349565b80601f016020809104026020016040519081016040528092919081815260200182805461377290615349565b80156137bf5780601f10613794576101008083540402835291602001916137bf565b820191906000526020600020905b8154815290600101906020018083116137a257829003601f168201915b5050509183525050600891909101546001600160a01b031660209091015292915050565b60606137fd60008051602061572383398151915233611ce8565b6138195760405162461bcd60e51b81526004016105cf906152e3565b60085460009067ffffffffffffffff81111561383757613837614a2c565b60405190808252806020026020018201604052801561387057816020015b61385d614881565b8152602001906001900390816138555790505b50905060005b60085481101561081e57600760006008838154811061389757613897615333565b9060005260206000200160009054906101000a90046001600160a01b03166001600160a01b03166001600160a01b0316815260200190815260200160002060405180610120016040529081600082015481526020016001820180546138fb90615349565b80601f016020809104026020016040519081016040528092919081815260200182805461392790615349565b80156139745780601f1061394957610100808354040283529160200191613974565b820191906000526020600020905b81548152906001019060200180831161395757829003601f168201915b5050505050815260200160028201805461398d90615349565b80601f01602080910402602001604051908101604052809291908181526020018280546139b990615349565b8015613a065780601f106139db57610100808354040283529160200191613a06565b820191906000526020600020905b8154815290600101906020018083116139e957829003601f168201915b5050505050815260200160038201548152602001600482018054613a2990615349565b80601f0160208091040260200160405190810160405280929190818152602001828054613a5590615349565b8015613aa25780601f10613a7757610100808354040283529160200191613aa2565b820191906000526020600020905b815481529060010190602001808311613a8557829003601f168201915b5050505050815260200160058201548152602001600682018054613ac590615349565b80601f0160208091040260200160405190810160405280929190818152602001828054613af190615349565b8015613b3e5780601f10613b1357610100808354040283529160200191613b3e565b820191906000526020600020905b815481529060010190602001808311613b2157829003601f168201915b50505050508152602001600782018054613b5790615349565b80601f0160208091040260200160405190810160405280929190818152602001828054613b8390615349565b8015613bd05780601f10613ba557610100808354040283529160200191613bd0565b820191906000526020600020905b815481529060010190602001808311613bb357829003601f168201915b5050509183525050600891909101546001600160a01b03166020909101528251839083908110613c0257613c02615333565b60200260200101819052508080613c1890615399565b915050613876565b600082815260208190526040902060010154613c3b816144a8565b610e648383614539565b613c4d61481e565b613c656000805160206156e383398151915233611ce8565b613c815760405162461bcd60e51b81526004016105cf90615578565b6001600160a01b0382163314613ca95760405162461bcd60e51b81526004016105cf906155af565b6001600160a01b03821660009081526005602090815260409182902082516101608101909352805483526001810180549192840191613ce790615349565b80601f0160208091040260200160405190810160405280929190818152602001828054613d1390615349565b8015613d605780601f10613d3557610100808354040283529160200191613d60565b820191906000526020600020905b815481529060010190602001808311613d4357829003601f168201915b50505050508152602001600282018054613d7990615349565b80601f0160208091040260200160405190810160405280929190818152602001828054613da590615349565b8015613df25780601f10613dc757610100808354040283529160200191613df2565b820191906000526020600020905b815481529060010190602001808311613dd557829003601f168201915b50505050508152602001600382018054613e0b90615349565b80601f0160208091040260200160405190810160405280929190818152602001828054613e3790615349565b8015613e845780601f10613e5957610100808354040283529160200191613e84565b820191906000526020600020905b815481529060010190602001808311613e6757829003601f168201915b5050509183525050600482015460208201526005820154604082015260068201546001600160a01b031660608201526007820154608082015260088201805460a090920191613ed290615349565b80601f0160208091040260200160405190810160405280929190818152602001828054613efe90615349565b8015613f4b5780601f10613f2057610100808354040283529160200191613f4b565b820191906000526020600020905b815481529060010190602001808311613f2e57829003601f168201915b50505050508152602001600982018054613f6490615349565b80601f0160208091040260200160405190810160405280929190818152602001828054613f9090615349565b8015613fdd5780601f10613fb257610100808354040283529160200191613fdd565b820191906000526020600020905b815481529060010190602001808311613fc057829003601f168201915b50505050508152602001600a8201805480602002602001604051908101604052809291908181526020016000905b828210156143465783829060005260206000209060080201604051806101000160405290816000820154815260200160018201805461404990615349565b80601f016020809104026020016040519081016040528092919081815260200182805461407590615349565b80156140c25780601f10614097576101008083540402835291602001916140c2565b820191906000526020600020905b8154815290600101906020018083116140a557829003601f168201915b505050505081526020016002820180546140db90615349565b80601f016020809104026020016040519081016040528092919081815260200182805461410790615349565b80156141545780601f1061412957610100808354040283529160200191614154565b820191906000526020600020905b81548152906001019060200180831161413757829003601f168201915b5050505050815260200160038201805461416d90615349565b80601f016020809104026020016040519081016040528092919081815260200182805461419990615349565b80156141e65780601f106141bb576101008083540402835291602001916141e6565b820191906000526020600020905b8154815290600101906020018083116141c957829003601f168201915b505050505081526020016004820180546141ff90615349565b80601f016020809104026020016040519081016040528092919081815260200182805461422b90615349565b80156142785780601f1061424d57610100808354040283529160200191614278565b820191906000526020600020905b81548152906001019060200180831161425b57829003601f168201915b505050918352505060058201546001600160a01b03908116602083015260068301541660408201526007820180546060909201916142b590615349565b80601f01602080910402602001604051908101604052809291908181526020018280546142e190615349565b801561432e5780601f106143035761010080835404028352916020019161432e565b820191906000526020600020905b81548152906001019060200180831161431157829003601f168201915b5050505050815250508152602001906001019061400b565b505050915250909392505050565b600061436e60008051602061572383398151915233611ce8565b61438a5760405162461bcd60e51b81526004016105cf906152e3565b6143a260008051602061574383398151915283611ce8565b6143ee5760405162461bcd60e51b815260206004820152601b60248201527f5468697320686f73706974616c206973206e6f7420657869736974000000000060448201526064016105cf565b61440660008051602061574383398151915283614539565b6001600160a01b03821660009081526003602052604081208181559061442f60018301826147e4565b6002820180546001600160a01b031916905561444f6003830160006147e4565b60048201600090555050614462826132ad565b6040516001600160a01b038316907f69a39b7bc440b31579fb2876c17901a8f474eb78a453540cfe1208d1367dd6a890600090a2506001919050565b61106082826144b5565b6144b2813361459e565b50565b6144bf8282611ce8565b611060576000828152602081815260408083206001600160a01b03851684529091529020805460ff191660011790556144f53390565b6001600160a01b0316816001600160a01b0316837f2f8788117e7eff1d82e926ec794901d17c78024a50270940304540a733656f0d60405160405180910390a45050565b6145438282611ce8565b15611060576000828152602081815260408083206001600160a01b0385168085529252808320805460ff1916905551339285917ff6391f5c32d9c69d2a47ea670b442974b53935d1edc7fd64eb21e047a839171b9190a45050565b6145a88282611ce8565b611060576145b5816145f7565b6145c0836020614609565b6040516020016145d192919061562c565b60408051601f198184030181529082905262461bcd60e51b82526105cf916004016156a1565b60606105936001600160a01b03831660145b606060006146188360026156b4565b614623906002615420565b67ffffffffffffffff81111561463b5761463b614a2c565b6040519080825280601f01601f191660200182016040528015614665576020820181803683370190505b509050600360fc1b8160008151811061468057614680615333565b60200101906001600160f81b031916908160001a905350600f60fb1b816001815181106146af576146af615333565b60200101906001600160f81b031916908160001a90535060006146d38460026156b4565b6146de906001615420565b90505b6001811115614756576f181899199a1a9b1b9c1cb0b131b232b360811b85600f166010811061471257614712615333565b1a60f81b82828151811061472857614728615333565b60200101906001600160f81b031916908160001a90535060049490941c9361474f816156cb565b90506146e1565b5083156147a55760405162461bcd60e51b815260206004820181905260248201527f537472696e67733a20686578206c656e67746820696e73756666696369656e7460448201526064016105cf565b9392505050565b6040518060a00160405280600081526020016060815260200160006001600160a01b0316815260200160608152602001600081525090565b5080546147f090615349565b6000825580601f10614800575050565b601f0160209004906000526020600020908101906144b291906148d6565b60405180610160016040528060008152602001606081526020016060815260200160608152602001600081526020016000815260200160006001600160a01b03168152602001600081526020016060815260200160608152602001606081525090565b604051806101200160405280600081526020016060815260200160608152602001600081526020016060815260200160008152602001606081526020016060815260200160006001600160a01b031681525090565b5b808211156148eb57600081556001016148d7565b5090565b60006020828403121561490157600080fd5b81356001600160e01b0319811681146147a557600080fd5b60005b8381101561493457818101518382015260200161491c565b50506000910152565b60008151808452614955816020860160208601614919565b601f01601f19169290920160200192915050565b805182526000602082015160a0602085015261498860a085018261493d565b905060018060a01b036040840151166040850152606083015184820360608601526149b3828261493d565b915050608083015160808501528091505092915050565b6000602080830181845280855180835260408601915060408160051b870101925083870160005b82811015614a1f57603f19888603018452614a0d858351614969565b945092850192908501906001016149f1565b5092979650505050505050565b634e487b7160e01b600052604160045260246000fd5b600082601f830112614a5357600080fd5b813567ffffffffffffffff80821115614a6e57614a6e614a2c565b604051601f8301601f19908116603f01168101908282118183101715614a9657614a96614a2c565b81604052838152866020858801011115614aaf57600080fd5b836020870160208301376000602085830101528094505050505092915050565b80356001600160a01b0381168114610e3a57600080fd5b60008060008060008060008060006101208a8c031215614b0557600080fd5b893567ffffffffffffffff80821115614b1d57600080fd5b614b298d838e01614a42565b9a5060208c0135915080821115614b3f57600080fd5b614b4b8d838e01614a42565b995060408c0135915080821115614b6157600080fd5b614b6d8d838e01614a42565b985060608c0135975060808c01359650614b8960a08d01614acf565b955060c08c0135945060e08c0135915080821115614ba657600080fd5b614bb28d838e01614a42565b93506101008c0135915080821115614bc957600080fd5b50614bd68c828d01614a42565b9150509295985092959850929598565b600060208284031215614bf857600080fd5b6147a582614acf565b600060208284031215614c1357600080fd5b5035919050565b60008060408385031215614c2d57600080fd5b82359150614c3d60208401614acf565b90509250929050565b600080600080600080600080610100898b031215614c6357600080fd5b883567ffffffffffffffff80821115614c7b57600080fd5b614c878c838d01614a42565b995060208b0135915080821115614c9d57600080fd5b614ca98c838d01614a42565b985060408b0135975060608b0135915080821115614cc657600080fd5b614cd28c838d01614a42565b965060808b0135955060a08b0135915080821115614cef57600080fd5b614cfb8c838d01614a42565b945060c08b0135915080821115614d1157600080fd5b50614d1e8b828c01614a42565b925050614d2d60e08a01614acf565b90509295985092959890939650565b600081518084526020808501808196508360051b8101915082860160005b85811015614e36578284038952815161010081518652868201518188880152614d858288018261493d565b91505060408083015187830382890152614d9f838261493d565b9250505060608083015187830382890152614dba838261493d565b9250505060808083015187830382890152614dd5838261493d565b9250505060a080830151614df3828901826001600160a01b03169052565b505060c0828101516001600160a01b03169087015260e09182015186820392870192909252614e22818361493d565b9a87019a9550505090840190600101614d5a565b5091979650505050505050565b6020815260006147a56020830184614d3c565b60008060008060808587031215614e6c57600080fd5b843567ffffffffffffffff80821115614e8457600080fd5b614e9088838901614a42565b9550614e9e60208801614acf565b94506040870135915080821115614eb457600080fd5b50614ec187828801614a42565b949793965093946060013593505050565b6020815260006147a56020830184614969565b600080600080600080600060e0888a031215614f0057600080fd5b873567ffffffffffffffff80821115614f1857600080fd5b614f248b838c01614a42565b985060208a0135915080821115614f3a57600080fd5b614f468b838c01614a42565b975060408a0135915080821115614f5c57600080fd5b614f688b838c01614a42565b965060608a0135915080821115614f7e57600080fd5b614f8a8b838c01614a42565b9550614f9860808b01614acf565b9450614fa660a08b01614acf565b935060c08a0135915080821115614fbc57600080fd5b50614fc98a828b01614a42565b91505092959891949750929550565b60008060408385031215614feb57600080fd5b614ff483614acf565b9150614c3d60208401614acf565b602080825282518282018190526000919060409081850190868401855b82811015614e3657815180518552868101516001600160a01b0390811688870152868201511686860152606090810151908501526080909301929085019060010161501f565b60006101608251845260208301518160208601526150858286018261493d565b9150506040830151848203604086015261509f828261493d565b915050606083015184820360608601526150b9828261493d565b9150506080830151608085015260a083015160a085015260c08301516150ea60c08601826001600160a01b03169052565b5060e083015160e0850152610100808401518583038287015261510d838261493d565b925050506101208084015185830382870152615129838261493d565b9250505061014080840151858303828701526151458382614d3c565b9695505050505050565b6000602080830181845280855180835260408601915060408160051b870101925083870160005b82811015614a1f57603f19888603018452615192858351615065565b94509285019290850190600101615176565b60006101208251845260208301518160208601526151c48286018261493d565b915050604083015184820360408601526151de828261493d565b9150506060830151606085015260808301518482036080860152615202828261493d565b91505060a083015160a085015260c083015184820360c0860152615226828261493d565b91505060e083015184820360e0860152615240828261493d565b9150506101008084015161525e828701826001600160a01b03169052565b5090949350505050565b6020815260006147a560208301846151a4565b6000602080830181845280855180835260408601915060408160051b870101925083870160005b82811015614a1f57603f198886030184526152be8583516151a4565b945092850192908501906001016152a2565b6020815260006147a56020830184615065565b60208082526030908201527f4f6e6c7920737570657241646d696e20686173207065726d697373696f6e207460408201526f37903237903a3430ba1030b1ba34b7b760811b606082015260800190565b634e487b7160e01b600052603260045260246000fd5b600181811c9082168061535d57607f821691505b60208210810361537d57634e487b7160e01b600052602260045260246000fd5b50919050565b634e487b7160e01b600052601160045260246000fd5b6000600182016153ab576153ab615383565b5060010190565b6020808252601c908201527f54686973206163636f756e74206973206e6f7420486f73706974616c00000000604082015260600190565b60208082526018908201527f54686973204163636f756e742069732041646d696e2121200000000000000000604082015260600190565b8082018082111561059357610593615383565b601f821115610e6457600081815260208120601f850160051c8101602086101561545a5750805b601f850160051c820191505b8181101561547957828155600101615466565b505050505050565b815167ffffffffffffffff81111561549b5761549b614a2c565b6154af816154a98454615349565b84615433565b602080601f8311600181146154e457600084156154cc5750858301515b600019600386901b1c1916600185901b178555615479565b600085815260208120601f198616915b82811015615513578886015182559484019460019091019084016154f4565b50858210156155315787850151600019600388901b60f8161c191681555b5050505050600190811b01905550565b6020808252601a908201527f54686973206163636f756e74206973206e6f7420446f63746f72000000000000604082015260600190565b6020808252601b908201527f54686973206163636f756e74206973206e6f742070617469656e740000000000604082015260600190565b6020808252601d908201527f4e6f74205468652053616d65205369676e6564204163636f756e742121000000604082015260600190565b60609190911b6bffffffffffffffffffffffff1916815260140190565b8181038181111561059357610593615383565b634e487b7160e01b600052603160045260246000fd5b7f416363657373436f6e74726f6c3a206163636f756e7420000000000000000000815260008351615664816017850160208801614919565b7001034b99036b4b9b9b4b733903937b6329607d1b6017918401918201528351615695816028840160208801614919565b01602801949350505050565b6020815260006147a5602083018461493d565b808202811582820484141761059357610593615383565b6000816156da576156da615383565b50600019019056fe72606200fac42b7dc86b75901d61ecfab2a4a1a6eded478b97a428094891abed0af1dac7dea2fd7f7738119cec7df099dfad49aa9d2e7d17ba6b60f63ae7411fa49807205ce4d355092ef5a8a18f56e8913cf4a201fbe287825b095693c21775c8f5b4140cca307cd927e59cbeea8291bffeee228fc677f0fa059aef7b4dd8d5a26469706673582212204a5563d6cb53112ee8ddd0fc9c29c7bdabdb4f157b821225ab952f8fd16e7fdc64736f6c63430008130033",
  "immutableReferences": {},
  "source": "// SPDX-License-Identifier: GPL-3.0\npragma solidity ^0.8.4;\n\nimport \"@openzeppelin/contracts/access/AccessControl.sol\";\n\ncontract MedRecChain is AccessControl {\n    //ROLES\n    bytes32 public constant ADMIN_ROLE = keccak256(\"ADMIN_ROLE\");\n    bytes32 public constant HOSPITAL_ROLE = keccak256(\"HOSPITAL_ROLE\");\n    bytes32 public constant DOCTOR_ROLE = keccak256(\"DOCTOR_ROLE\");\n    bytes32 public constant PATIENT_ROLE = keccak256(\"PATIENT_ROLE\");\n\n    // Admin refers to government, It hard coded by us.\n    address public Admin = 0xe7b5DEb3dA0e59Ea8F46d497995433629C67501f;\n\n    // [_patient][_doctor] = bool\n    mapping(address => mapping(address => bool)) isAuth;\n\n    struct Hospital {\n        uint256 id;\n        string name;\n        address addr;\n        string place;\n        uint256 phone;\n    }\n\n    mapping(address => Hospital) Hospitals;\n    address[] private Hospitals_keys;\n\n    struct patient {\n        uint256 id;\n        string name;\n        string email;\n        string National_Addr;\n        uint256 National_id;\n        uint256 age;\n        address PatientAddress;\n        uint256 phone;\n        string Blood_Type;\n        string marital_status;\n        record[] Records;\n    }\n\n    mapping(address => patient) patients;\n    address[] private patients_keys;\n\n    struct doctor {\n        uint256 id;\n        string name;\n        string hospital_name;\n        uint256 phone;\n        string email;\n        uint256 age;\n        string place;\n        string Medical_specialty;\n        address docAddress;\n    }\n\n    mapping(address => doctor) doctors;\n    address[] private doctors_keys;\n\n    struct record {\n        uint Medical_id;\n        string category;\n        string patient_name;\n        string rec_name;\n        string Created_at;\n        address patient_addr;\n        address doctor_addr;\n        string hex_ipfs; // file, image date\n    }\n\n    // for Ids\n    uint256 Hospital_index;\n    uint256 Doctor_index;\n    uint256 Patient_index;\n    uint256 Record_index;\n    uint256 Request_index;\n\n    //EVENTS\n    event HospitalAdded(address indexed Hospital_Address); //by admin\n    event HospitalRemoved(address indexed Hospital_Address); //by admin\n    event DoctorAdded(address indexed Doctor_Address); //by admin\n    event DoctorRemoved(address indexed Doctor_Address); //by admin\n    event DoctorUpdata(address indexed Doctor_Address); //by admin\n    event PatientAdded(address indexed Patient_Address); //by hospital\n    event PatientUpdated(address indexed Patient_Address); //by patient\n    event AccessGranted(\n        address indexed Doctor_Address,\n        address indexed Patient_Address\n    ); //by patient\n    event AccessRejected(\n        address indexed Doctor_Address,\n        address indexed Patient_Address\n    ); //by patient\n    event RequestAccess(address indexed requester, address indexed patient); //by doctor or (patient)\n\n    constructor() {\n        _setupRole(ADMIN_ROLE, Admin);\n    }\n\n    // function to know who logg in\n    function logg() public view returns (uint role) {\n        if (hasRole(ADMIN_ROLE, msg.sender)) {\n            return 1;\n        } else if (hasRole(HOSPITAL_ROLE, msg.sender)) {\n            return 2;\n        } else if (hasRole(DOCTOR_ROLE, msg.sender)) {\n            return 3;\n        } else if (hasRole(PATIENT_ROLE, msg.sender)) {\n            return 4;\n        } else {\n            return 0;\n        }\n    }\n\n    //To check the role of who deploye the contract.\n    modifier onlyAdmin() {\n        require(\n            hasRole(ADMIN_ROLE, msg.sender),\n            \"Only superAdmin has permission to do that action\"\n        );\n        _;\n    }\n\n    modifier onlyHospital() {\n        require(\n            hasRole(HOSPITAL_ROLE, msg.sender),\n            \"This account is not Hospital\"\n        );\n        _;\n    }\n    modifier onlydoctors() {\n        require(hasRole(DOCTOR_ROLE, msg.sender), \"This account is not Doctor\");\n        _;\n    }\n    modifier onlypatient() {\n        require(\n            hasRole(PATIENT_ROLE, msg.sender),\n            \"This account is not patient\"\n        );\n        _;\n    }\n\n    //////////////////////////////////////\n\n    //Tasks done by Admin (defult exisit)\n    //1. add hospital\n    //2. delete hospital\n    //3. add doctor\n    //4. delete doctor\n    //5. see all hospital in system\n    //6. see all doctors in system\n\n    function addhospital(\n        string memory _name,\n        address _address,\n        string memory _place,\n        uint256 _phone\n    ) public onlyAdmin returns (bool success) {\n        require(\n            !hasRole(HOSPITAL_ROLE, _address),\n            \"This hospital is really exisit!! \"\n        );\n        require(!hasRole(ADMIN_ROLE, _address), \"This Account is Admin!! \");\n        require(!hasRole(DOCTOR_ROLE, _address), \"This Account is Doctor!! \");\n        require(!hasRole(PATIENT_ROLE, _address), \"This Account is Patient!! \");\n\n        _setupRole(HOSPITAL_ROLE, _address);\n        Hospital_index = Hospital_index + 1;\n        Hospitals[_address] = Hospital(\n            Hospital_index,\n            _name,\n            _address,\n            _place,\n            _phone\n        );\n        Hospitals_keys.push(_address);\n        emit HospitalAdded(_address);\n        return true;\n    }\n\n    function removeitem_hos(address _hosAddress) public {\n        require(Hospitals_keys.length > 0, \"No keys in array\");\n        for (uint i = 0; i < Hospitals_keys.length; i++) {\n            if (\n                keccak256(abi.encodePacked(Hospitals_keys[i])) ==\n                keccak256(abi.encodePacked(_hosAddress))\n            ) {\n                delete Hospitals_keys[i];\n                uint lastIndex = Hospitals_keys.length - 1;\n                address lastId = Hospitals_keys[lastIndex];\n                Hospitals_keys[i] = lastId;\n                Hospitals_keys.pop();\n                break;\n            }\n        }\n    }\n\n    function removehospital(\n        address _address\n    ) public onlyAdmin returns (bool success) {\n        require(\n            hasRole(HOSPITAL_ROLE, _address),\n            \"This hospital is not exisit\"\n        );\n        _revokeRole(HOSPITAL_ROLE, _address);\n        delete Hospitals[_address];\n        removeitem_hos(_address);\n        emit HospitalRemoved(_address);\n        return true;\n    }\n\n    function get_all_hospitals()\n        public\n        view\n        onlyAdmin\n        returns (Hospital[] memory)\n    {\n        Hospital[] memory hos = new Hospital[](Hospitals_keys.length);\n        for (uint256 i = 0; i < Hospitals_keys.length; i++) {\n            hos[i] = Hospitals[Hospitals_keys[i]];\n        }\n        return hos;\n    }\n\n    ///////////////\n\n    function addDoctor(\n        string memory _name,\n        string memory _hospital_name,\n        uint256 _phone,\n        string memory _email,\n        uint256 _age,\n        string memory _place,\n        string memory _Medical_specialty,\n        address _docAddress\n    ) public onlyAdmin returns (bool success) {\n        require(\n            !hasRole(DOCTOR_ROLE, _docAddress),\n            \"This account already a doctor\"\n        );\n        require(!hasRole(ADMIN_ROLE, _docAddress), \"This Account is Admin!! \");\n        require(\n            !hasRole(HOSPITAL_ROLE, _docAddress),\n            \"This Account is Hospital!! \"\n        );\n        require(\n            !hasRole(PATIENT_ROLE, _docAddress),\n            \"This Account is Patient!! \"\n        );\n        _setupRole(DOCTOR_ROLE, _docAddress);\n        Doctor_index = Doctor_index + 1;\n        doctors[_docAddress] = doctor(\n            Doctor_index,\n            _name,\n            _hospital_name,\n            _phone,\n            _email,\n            _age,\n            _place,\n            _Medical_specialty,\n            _docAddress\n        );\n        doctors_keys.push(_docAddress);\n        emit DoctorAdded(_docAddress);\n        return true;\n    }\n\n    function removeitem_doc(address _docAddress) public {\n        require(doctors_keys.length > 0, \"No keys in array\");\n        for (uint i = 0; i < doctors_keys.length; i++) {\n            if (\n                keccak256(abi.encodePacked(doctors_keys[i])) ==\n                keccak256(abi.encodePacked(_docAddress))\n            ) {\n                delete doctors_keys[i];\n                uint lastIndex = doctors_keys.length - 1;\n                address lastId = doctors_keys[lastIndex];\n                doctors_keys[i] = lastId;\n                doctors_keys.pop();\n                break;\n            }\n        }\n    }\n\n    function removeDoctor(\n        address _docAddress\n    ) public onlyAdmin returns (bool success) {\n        require(hasRole(DOCTOR_ROLE, _docAddress), \"This account not exisit\");\n        delete doctors[_docAddress];\n        _revokeRole(DOCTOR_ROLE, _docAddress);\n        removeitem_doc(_docAddress);\n        emit DoctorRemoved(_docAddress);\n        return true;\n    }\n\n    function get_all_Doctors() public view onlyAdmin returns (doctor[] memory) {\n        doctor[] memory doc = new doctor[](doctors_keys.length);\n        for (uint256 i = 0; i < doctors_keys.length; i++) {\n            doc[i] = doctors[doctors_keys[i]];\n        }\n        return doc;\n    }\n\n    function get_record_number() public view onlyAdmin returns (uint256 i) {\n        uint256 total;\n        for (uint256 a = 0; a < patients_keys.length; a++) {\n            total += patients[patients_keys[a]].Records.length;\n        }\n        return total;\n    }\n\n    ///////////////////////////////////////////\n\n    // Tasks done by Hospitals (sign in )\n    //1. add patient\n    //2.See his profile\n    //3.see all patients\n\n    function get_hospita_by_address(\n        address _addr\n    ) public view onlyHospital returns (Hospital memory) {\n        require(_addr == msg.sender, \"Not The Same Signed Account!!\");\n        return (Hospitals[_addr]);\n    }\n\n    function addPatient(\n        string memory _name,\n        string memory _email,\n        string memory _National_Addr,\n        uint256 _National_id,\n        uint256 _age,\n        address _PatientAddress,\n        uint256 _phone,\n        string memory _Blood_Type,\n        string memory _marital_status\n    ) public onlyHospital returns (bool success) {\n        require(\n            !hasRole(PATIENT_ROLE, _PatientAddress),\n            \"This account already a patient\"\n        );\n        require(\n            !hasRole(ADMIN_ROLE, _PatientAddress),\n            \"This Account is Admin!! \"\n        );\n        require(\n            !hasRole(DOCTOR_ROLE, _PatientAddress),\n            \"This Account is Doctor!! \"\n        );\n        require(\n            !hasRole(HOSPITAL_ROLE, _PatientAddress),\n            \"This Account is Hospital!! \"\n        );\n        _setupRole(PATIENT_ROLE, _PatientAddress);\n        Patient_index = Patient_index + 1;\n        patients[_PatientAddress].id = Patient_index;\n        patients[_PatientAddress].PatientAddress = _PatientAddress;\n        patients[_PatientAddress].name = _name;\n        patients[_PatientAddress].email = _email;\n        patients[_PatientAddress].National_Addr = _National_Addr;\n        patients[_PatientAddress].National_id = _National_id;\n        patients[_PatientAddress].age = _age;\n        patients[_PatientAddress].phone = _phone;\n        patients[_PatientAddress].Blood_Type = _Blood_Type;\n        patients[_PatientAddress].marital_status = _marital_status;\n\n        patients_keys.push(_PatientAddress);\n        emit PatientAdded(_PatientAddress);\n        return true;\n    }\n\n    function get_all_Patients()\n        public\n        view\n        onlyHospital\n        returns (patient[] memory)\n    {\n        patient[] memory pat = new patient[](patients_keys.length);\n        for (uint256 i = 0; i < patients_keys.length; i++) {\n            pat[i] = patients[patients_keys[i]];\n        }\n        return pat;\n    }\n\n    //////////////////////////////////////////////\n\n    // Tasks done by Doctor (sign in)\n\n    // 1. send request to patient\n    // 2. see record (has be accepted)\n    // 3. add record (has be accepted)\n    // 4.view his profile info\n    // 5.show requests by id & show their status\n\n    function get_doctor_by_address(\n        address _addr\n    ) public view onlydoctors returns (doctor memory) {\n        require(_addr == msg.sender, \"Not The Same Signed Account!!\");\n        return (doctors[_addr]);\n    }\n\n    struct request {\n        uint id;\n        address from_doctor_addr;\n        address to_patients_addr;\n        uint256 date;\n    }\n\n    request[] public requests;\n\n    function checkRequestExists(\n        address _from_doctor_addr,\n        address _to_patients_addr\n    ) public view returns (bool) {\n        for (uint i = 0; i < requests.length; i++) {\n            if (\n                ((requests[i].from_doctor_addr) == (_from_doctor_addr)) &&\n                ((requests[i].to_patients_addr) == (_to_patients_addr))\n            ) {\n                return true;\n            }\n        }\n        return false;\n    }\n\n    function send_request_Access(\n        address _patient\n    ) public onlydoctors returns (bool success) {\n        require(\n            hasRole(PATIENT_ROLE, _patient),\n            \"The person you are requesting access to is not a Patient\"\n        );\n        require(\n            !checkRequestExists(msg.sender, _patient),\n            \"already send a request\"\n        );\n        Request_index = Request_index + 1;\n        requests.push(\n            request(Request_index, msg.sender, _patient, block.timestamp)\n        );\n        emit RequestAccess(msg.sender, _patient);\n        return true;\n    }\n\n    function get_all_requests() public view returns (request[] memory) {\n        //IN JS convert a Unix timestamp to a human-readable\n        // const unixTimestamp = date.currentTimestamp();\n        // const date = new Date(unixTimestamp * 1000);\n        // const humanReadableDate = date.toLocaleString();\n\n        // Also, be handled, cause it show all requests at blockchain NOT whose patient's requests\n        // it will be solved by check\n        // for (i=0 ; i<requests.lenght;i++ ){\n        // \"if (requests.to_patients_addr == accounts[0]){....}\"\n        //}\n        return (requests);\n    }\n\n    function addRecord(\n        string memory _category,\n        string memory _patient_name,\n        string memory _rec_name,\n        string memory _Created_at,\n        address _patientAddr,\n        address _doctor_addr,\n        string memory _hex_ipfs\n    ) public onlydoctors returns (bool) {\n        require(\n            hasRole(PATIENT_ROLE, _patientAddr),\n            \"This patients is not exisit\"\n        );\n        require(\n            isAuth[_patientAddr][msg.sender],\n            \"No permission to add Records\"\n        );\n        require(_doctor_addr == msg.sender, \"No permission to this Doctor\");\n        Record_index = Record_index + 1;\n        patients[_patientAddr].Records.push(\n            record(\n                Record_index,\n                _category,\n                _patient_name,\n                _rec_name,\n                _Created_at,\n                _patientAddr,\n                _doctor_addr,\n                _hex_ipfs\n            )\n        );\n        return true;\n    }\n\n    function See_Record_for_Doctor(\n        address _patientAddr\n    ) public view onlydoctors returns (record[] memory) {\n        require(\n            isAuth[_patientAddr][msg.sender],\n            \"No permission to get Records\"\n        );\n        require(\n            hasRole(PATIENT_ROLE, _patientAddr),\n            \"This patients is not exisit\"\n        );\n        require(\n            patients[_patientAddr].Records.length > 0,\n            \"patient record doesn't exist\"\n        );\n        return (patients[_patientAddr].Records);\n    }\n\n    ///////////////////////////////////\n\n    //Tasks done by Patient (sign in)\n\n    //1.view his all records\n    //2.accept request sended by doctor\n    //3.rejected request sended by doctor\n    //4.give permission to doctor bt himself\n    //5.see requestes from doctors\n    //6.view his profile info\n\n    function get_patient_by_address(\n        address _addr\n    ) public view onlypatient returns (patient memory) {\n        require(_addr == msg.sender, \"Not The Same Signed Account!!\");\n        return (patients[_addr]);\n    }\n\n    function See_Record_for_Patient()\n        public\n        view\n        onlypatient\n        returns (record[] memory)\n    {\n        require(\n            patients[msg.sender].Records.length > 0,\n            \"patient record doesn't exist\"\n        );\n        return (patients[msg.sender].Records);\n    }\n\n    function approveAccess(address _doctor) public onlypatient {\n        require(hasRole(DOCTOR_ROLE, _doctor), \"this acount is not a doctor \");\n        require(\n            (isAuth[msg.sender][_doctor]) == false,\n            \"This Request alraedy been Approved!! \"\n        );\n        isAuth[msg.sender][_doctor] = true;\n        emit AccessGranted(_doctor, msg.sender);\n    }\n\n    // Not important, cause from the first time it has been rejected!\n    function rejectAccess(address _doctor) public onlypatient {\n        require(\n            hasRole(DOCTOR_ROLE, _doctor),\n            \"Doctor does not have the doctor role\"\n        );\n        require(\n            (isAuth[msg.sender][_doctor]) == true,\n            \"This Request alraedy been Reject!! \"\n        );\n        isAuth[msg.sender][_doctor] = false;\n        emit AccessRejected(_doctor, msg.sender);\n    }\n}\n",
  "sourcePath": "D:\\My Files\\Grad Project\\MHR-React-main\\contracts\\MedRecChain.sol",
  "compiler": {
    "name": "solc",
    "version": "0.8.19+commit.7dd6d404.Emscripten.clang"
  },
  "schemaVersion": "3.4.13",
  "updatedAt": "2023-05-07T15:49:52.117Z",
  "networkType": "ethereum",
  "devdoc": {
    "events": {
      "RoleAdminChanged(bytes32,bytes32,bytes32)": {
        "details": "Emitted when `newAdminRole` is set as ``role``'s admin role, replacing `previousAdminRole` `DEFAULT_ADMIN_ROLE` is the starting admin for all roles, despite {RoleAdminChanged} not being emitted signaling this. _Available since v3.1._"
      },
      "RoleGranted(bytes32,address,address)": {
        "details": "Emitted when `account` is granted `role`. `sender` is the account that originated the contract call, an admin role bearer except when using {AccessControl-_setupRole}."
      },
      "RoleRevoked(bytes32,address,address)": {
        "details": "Emitted when `account` is revoked `role`. `sender` is the account that originated the contract call:   - if using `revokeRole`, it is the admin role bearer   - if using `renounceRole`, it is the role bearer (i.e. `account`)"
      }
    },
    "kind": "dev",
    "methods": {
      "getRoleAdmin(bytes32)": {
        "details": "Returns the admin role that controls `role`. See {grantRole} and {revokeRole}. To change a role's admin, use {_setRoleAdmin}."
      },
      "grantRole(bytes32,address)": {
        "details": "Grants `role` to `account`. If `account` had not been already granted `role`, emits a {RoleGranted} event. Requirements: - the caller must have ``role``'s admin role. May emit a {RoleGranted} event."
      },
      "hasRole(bytes32,address)": {
        "details": "Returns `true` if `account` has been granted `role`."
      },
      "renounceRole(bytes32,address)": {
        "details": "Revokes `role` from the calling account. Roles are often managed via {grantRole} and {revokeRole}: this function's purpose is to provide a mechanism for accounts to lose their privileges if they are compromised (such as when a trusted device is misplaced). If the calling account had been revoked `role`, emits a {RoleRevoked} event. Requirements: - the caller must be `account`. May emit a {RoleRevoked} event."
      },
      "revokeRole(bytes32,address)": {
        "details": "Revokes `role` from `account`. If `account` had been granted `role`, emits a {RoleRevoked} event. Requirements: - the caller must have ``role``'s admin role. May emit a {RoleRevoked} event."
      },
      "supportsInterface(bytes4)": {
        "details": "See {IERC165-supportsInterface}."
      }
    },
    "version": 1
  },
  "userdoc": {
    "kind": "user",
    "methods": {},
    "version": 1
  }
}