{
  "contractName": "MedRecChain",
  "abi": [
    {
      "inputs": [],
      "stateMutability": "nonpayable",
      "type": "constructor"
    },
    {
      "anonymous": false,
      "inputs": [
        {
          "indexed": true,
          "internalType": "bytes32",
          "name": "role",
          "type": "bytes32"
        },
        {
          "indexed": true,
          "internalType": "bytes32",
          "name": "previousAdminRole",
          "type": "bytes32"
        },
        {
          "indexed": true,
          "internalType": "bytes32",
          "name": "newAdminRole",
          "type": "bytes32"
        }
      ],
      "name": "RoleAdminChanged",
      "type": "event"
    },
    {
      "anonymous": false,
      "inputs": [
        {
          "indexed": true,
          "internalType": "bytes32",
          "name": "role",
          "type": "bytes32"
        },
        {
          "indexed": true,
          "internalType": "address",
          "name": "account",
          "type": "address"
        },
        {
          "indexed": true,
          "internalType": "address",
          "name": "sender",
          "type": "address"
        }
      ],
      "name": "RoleGranted",
      "type": "event"
    },
    {
      "anonymous": false,
      "inputs": [
        {
          "indexed": true,
          "internalType": "bytes32",
          "name": "role",
          "type": "bytes32"
        },
        {
          "indexed": true,
          "internalType": "address",
          "name": "account",
          "type": "address"
        },
        {
          "indexed": true,
          "internalType": "address",
          "name": "sender",
          "type": "address"
        }
      ],
      "name": "RoleRevoked",
      "type": "event"
    },
    {
      "inputs": [],
      "name": "ADMIN_ROLE",
      "outputs": [
        {
          "internalType": "bytes32",
          "name": "",
          "type": "bytes32"
        }
      ],
      "stateMutability": "view",
      "type": "function",
      "constant": true
    },
    {
      "inputs": [],
      "name": "Admin",
      "outputs": [
        {
          "internalType": "address",
          "name": "",
          "type": "address"
        }
      ],
      "stateMutability": "view",
      "type": "function",
      "constant": true
    },
    {
      "inputs": [],
      "name": "DEFAULT_ADMIN_ROLE",
      "outputs": [
        {
          "internalType": "bytes32",
          "name": "",
          "type": "bytes32"
        }
      ],
      "stateMutability": "view",
      "type": "function",
      "constant": true
    },
    {
      "inputs": [],
      "name": "DOCTOR_ROLE",
      "outputs": [
        {
          "internalType": "bytes32",
          "name": "",
          "type": "bytes32"
        }
      ],
      "stateMutability": "view",
      "type": "function",
      "constant": true
    },
    {
      "inputs": [],
      "name": "HOSPITAL_ROLE",
      "outputs": [
        {
          "internalType": "bytes32",
          "name": "",
          "type": "bytes32"
        }
      ],
      "stateMutability": "view",
      "type": "function",
      "constant": true
    },
    {
      "inputs": [
        {
          "internalType": "uint256",
          "name": "",
          "type": "uint256"
        }
      ],
      "name": "Hospitals_keys",
      "outputs": [
        {
          "internalType": "address",
          "name": "",
          "type": "address"
        }
      ],
      "stateMutability": "view",
      "type": "function",
      "constant": true
    },
    {
      "inputs": [],
      "name": "PATIENT_ROLE",
      "outputs": [
        {
          "internalType": "bytes32",
          "name": "",
          "type": "bytes32"
        }
      ],
      "stateMutability": "view",
      "type": "function",
      "constant": true
    },
    {
      "inputs": [
        {
          "internalType": "bytes32",
          "name": "role",
          "type": "bytes32"
        }
      ],
      "name": "getRoleAdmin",
      "outputs": [
        {
          "internalType": "bytes32",
          "name": "",
          "type": "bytes32"
        }
      ],
      "stateMutability": "view",
      "type": "function",
      "constant": true
    },
    {
      "inputs": [
        {
          "internalType": "bytes32",
          "name": "role",
          "type": "bytes32"
        },
        {
          "internalType": "address",
          "name": "account",
          "type": "address"
        }
      ],
      "name": "grantRole",
      "outputs": [],
      "stateMutability": "nonpayable",
      "type": "function"
    },
    {
      "inputs": [
        {
          "internalType": "bytes32",
          "name": "role",
          "type": "bytes32"
        },
        {
          "internalType": "address",
          "name": "account",
          "type": "address"
        }
      ],
      "name": "hasRole",
      "outputs": [
        {
          "internalType": "bool",
          "name": "",
          "type": "bool"
        }
      ],
      "stateMutability": "view",
      "type": "function",
      "constant": true
    },
    {
      "inputs": [
        {
          "internalType": "bytes32",
          "name": "role",
          "type": "bytes32"
        },
        {
          "internalType": "address",
          "name": "account",
          "type": "address"
        }
      ],
      "name": "renounceRole",
      "outputs": [],
      "stateMutability": "nonpayable",
      "type": "function"
    },
    {
      "inputs": [
        {
          "internalType": "uint256",
          "name": "",
          "type": "uint256"
        }
      ],
      "name": "requests",
      "outputs": [
        {
          "internalType": "uint256",
          "name": "id",
          "type": "uint256"
        },
        {
          "internalType": "address",
          "name": "from_doctor_addr",
          "type": "address"
        },
        {
          "internalType": "address",
          "name": "to_patients_addr",
          "type": "address"
        },
        {
          "internalType": "uint256",
          "name": "date",
          "type": "uint256"
        },
        {
          "internalType": "string",
          "name": "patient_name",
          "type": "string"
        },
        {
          "internalType": "string",
          "name": "doctor_name",
          "type": "string"
        }
      ],
      "stateMutability": "view",
      "type": "function",
      "constant": true
    },
    {
      "inputs": [
        {
          "internalType": "bytes32",
          "name": "role",
          "type": "bytes32"
        },
        {
          "internalType": "address",
          "name": "account",
          "type": "address"
        }
      ],
      "name": "revokeRole",
      "outputs": [],
      "stateMutability": "nonpayable",
      "type": "function"
    },
    {
      "inputs": [
        {
          "internalType": "bytes4",
          "name": "interfaceId",
          "type": "bytes4"
        }
      ],
      "name": "supportsInterface",
      "outputs": [
        {
          "internalType": "bool",
          "name": "",
          "type": "bool"
        }
      ],
      "stateMutability": "view",
      "type": "function",
      "constant": true
    },
    {
      "inputs": [],
      "name": "logg",
      "outputs": [
        {
          "internalType": "uint256",
          "name": "role",
          "type": "uint256"
        }
      ],
      "stateMutability": "view",
      "type": "function",
      "constant": true
    },
    {
      "inputs": [
        {
          "internalType": "string",
          "name": "_name",
          "type": "string"
        },
        {
          "internalType": "address",
          "name": "_address",
          "type": "address"
        },
        {
          "internalType": "string",
          "name": "_place",
          "type": "string"
        },
        {
          "internalType": "uint256",
          "name": "_phone",
          "type": "uint256"
        }
      ],
      "name": "addhospital",
      "outputs": [
        {
          "internalType": "bool",
          "name": "success",
          "type": "bool"
        }
      ],
      "stateMutability": "nonpayable",
      "type": "function"
    },
    {
      "inputs": [
        {
          "internalType": "address",
          "name": "_hosAddress",
          "type": "address"
        }
      ],
      "name": "removeitem_hos",
      "outputs": [],
      "stateMutability": "nonpayable",
      "type": "function"
    },
    {
      "inputs": [
        {
          "internalType": "address",
          "name": "_address",
          "type": "address"
        }
      ],
      "name": "removehospital",
      "outputs": [
        {
          "internalType": "bool",
          "name": "success",
          "type": "bool"
        }
      ],
      "stateMutability": "nonpayable",
      "type": "function"
    },
    {
      "inputs": [],
      "name": "get_all_hospitals",
      "outputs": [
        {
          "components": [
            {
              "internalType": "uint256",
              "name": "id",
              "type": "uint256"
            },
            {
              "internalType": "string",
              "name": "name",
              "type": "string"
            },
            {
              "internalType": "address",
              "name": "addr",
              "type": "address"
            },
            {
              "internalType": "string",
              "name": "place",
              "type": "string"
            },
            {
              "internalType": "uint256",
              "name": "phone",
              "type": "uint256"
            }
          ],
          "internalType": "struct MedRecChain.Hospital[]",
          "name": "",
          "type": "tuple[]"
        }
      ],
      "stateMutability": "view",
      "type": "function",
      "constant": true
    },
    {
      "inputs": [
        {
          "internalType": "string",
          "name": "_name",
          "type": "string"
        },
        {
          "internalType": "address",
          "name": "_hospital_addr",
          "type": "address"
        },
        {
          "internalType": "uint256",
          "name": "_phone",
          "type": "uint256"
        },
        {
          "internalType": "string",
          "name": "_email",
          "type": "string"
        },
        {
          "internalType": "uint256",
          "name": "_age",
          "type": "uint256"
        },
        {
          "internalType": "string",
          "name": "_place",
          "type": "string"
        },
        {
          "internalType": "string",
          "name": "_Medical_specialty",
          "type": "string"
        },
        {
          "internalType": "address",
          "name": "_docAddress",
          "type": "address"
        }
      ],
      "name": "addDoctor",
      "outputs": [
        {
          "internalType": "bool",
          "name": "success",
          "type": "bool"
        }
      ],
      "stateMutability": "nonpayable",
      "type": "function"
    },
    {
      "inputs": [
        {
          "internalType": "address",
          "name": "_docAddress",
          "type": "address"
        }
      ],
      "name": "removeitem_doc",
      "outputs": [],
      "stateMutability": "nonpayable",
      "type": "function"
    },
    {
      "inputs": [
        {
          "internalType": "address",
          "name": "_docAddress",
          "type": "address"
        }
      ],
      "name": "removeDoctor",
      "outputs": [
        {
          "internalType": "bool",
          "name": "success",
          "type": "bool"
        }
      ],
      "stateMutability": "nonpayable",
      "type": "function"
    },
    {
      "inputs": [],
      "name": "get_all_Doctors",
      "outputs": [
        {
          "components": [
            {
              "internalType": "uint256",
              "name": "id",
              "type": "uint256"
            },
            {
              "internalType": "string",
              "name": "name",
              "type": "string"
            },
            {
              "internalType": "address",
              "name": "hospital_addr",
              "type": "address"
            },
            {
              "internalType": "uint256",
              "name": "phone",
              "type": "uint256"
            },
            {
              "internalType": "string",
              "name": "email",
              "type": "string"
            },
            {
              "internalType": "uint256",
              "name": "age",
              "type": "uint256"
            },
            {
              "internalType": "string",
              "name": "place",
              "type": "string"
            },
            {
              "internalType": "string",
              "name": "Medical_specialty",
              "type": "string"
            },
            {
              "internalType": "address",
              "name": "docAddress",
              "type": "address"
            }
          ],
          "internalType": "struct MedRecChain.doctor[]",
          "name": "",
          "type": "tuple[]"
        }
      ],
      "stateMutability": "view",
      "type": "function",
      "constant": true
    },
    {
      "inputs": [],
      "name": "get_record_number",
      "outputs": [
        {
          "internalType": "uint256",
          "name": "i",
          "type": "uint256"
        }
      ],
      "stateMutability": "view",
      "type": "function",
      "constant": true
    },
    {
      "inputs": [
        {
          "internalType": "address",
          "name": "_addr",
          "type": "address"
        }
      ],
      "name": "get_hospita_by_address",
      "outputs": [
        {
          "components": [
            {
              "internalType": "uint256",
              "name": "id",
              "type": "uint256"
            },
            {
              "internalType": "string",
              "name": "name",
              "type": "string"
            },
            {
              "internalType": "address",
              "name": "addr",
              "type": "address"
            },
            {
              "internalType": "string",
              "name": "place",
              "type": "string"
            },
            {
              "internalType": "uint256",
              "name": "phone",
              "type": "uint256"
            }
          ],
          "internalType": "struct MedRecChain.Hospital",
          "name": "",
          "type": "tuple"
        }
      ],
      "stateMutability": "view",
      "type": "function",
      "constant": true
    },
    {
      "inputs": [
        {
          "internalType": "string",
          "name": "_name",
          "type": "string"
        },
        {
          "internalType": "string",
          "name": "_email",
          "type": "string"
        },
        {
          "internalType": "string",
          "name": "_National_Addr",
          "type": "string"
        },
        {
          "internalType": "uint256",
          "name": "_National_id",
          "type": "uint256"
        },
        {
          "internalType": "uint256",
          "name": "_age",
          "type": "uint256"
        },
        {
          "internalType": "address",
          "name": "_PatientAddress",
          "type": "address"
        },
        {
          "internalType": "uint256",
          "name": "_phone",
          "type": "uint256"
        },
        {
          "internalType": "string",
          "name": "_Blood_Type",
          "type": "string"
        },
        {
          "internalType": "string",
          "name": "_marital_status",
          "type": "string"
        },
        {
          "internalType": "string",
          "name": "_gender",
          "type": "string"
        }
      ],
      "name": "addPatient",
      "outputs": [
        {
          "internalType": "bool",
          "name": "success",
          "type": "bool"
        }
      ],
      "stateMutability": "nonpayable",
      "type": "function"
    },
    {
      "inputs": [],
      "name": "get_all_Patients",
      "outputs": [
        {
          "components": [
            {
              "internalType": "uint256",
              "name": "id",
              "type": "uint256"
            },
            {
              "internalType": "string",
              "name": "name",
              "type": "string"
            },
            {
              "internalType": "string",
              "name": "email",
              "type": "string"
            },
            {
              "internalType": "string",
              "name": "National_Addr",
              "type": "string"
            },
            {
              "internalType": "uint256",
              "name": "National_id",
              "type": "uint256"
            },
            {
              "internalType": "uint256",
              "name": "age",
              "type": "uint256"
            },
            {
              "internalType": "address",
              "name": "PatientAddress",
              "type": "address"
            },
            {
              "internalType": "uint256",
              "name": "phone",
              "type": "uint256"
            },
            {
              "internalType": "string",
              "name": "Blood_Type",
              "type": "string"
            },
            {
              "internalType": "string",
              "name": "marital_status",
              "type": "string"
            },
            {
              "internalType": "string",
              "name": "gender",
              "type": "string"
            },
            {
              "internalType": "address",
              "name": "hospital_addr",
              "type": "address"
            },
            {
              "components": [
                {
                  "internalType": "uint256",
                  "name": "Medical_id",
                  "type": "uint256"
                },
                {
                  "internalType": "string",
                  "name": "category",
                  "type": "string"
                },
                {
                  "internalType": "string",
                  "name": "patient_name",
                  "type": "string"
                },
                {
                  "internalType": "string",
                  "name": "rec_name",
                  "type": "string"
                },
                {
                  "internalType": "string",
                  "name": "Created_at",
                  "type": "string"
                },
                {
                  "internalType": "address",
                  "name": "patient_addr",
                  "type": "address"
                },
                {
                  "internalType": "address",
                  "name": "doctor_addr",
                  "type": "address"
                },
                {
                  "internalType": "string",
                  "name": "hex_ipfs",
                  "type": "string"
                }
              ],
              "internalType": "struct MedRecChain.record[]",
              "name": "Records",
              "type": "tuple[]"
            }
          ],
          "internalType": "struct MedRecChain.patient[]",
          "name": "",
          "type": "tuple[]"
        }
      ],
      "stateMutability": "view",
      "type": "function",
      "constant": true
    },
    {
      "inputs": [
        {
          "internalType": "address",
          "name": "_addr",
          "type": "address"
        }
      ],
      "name": "get_doctor_by_address",
      "outputs": [
        {
          "components": [
            {
              "internalType": "uint256",
              "name": "id",
              "type": "uint256"
            },
            {
              "internalType": "string",
              "name": "name",
              "type": "string"
            },
            {
              "internalType": "address",
              "name": "hospital_addr",
              "type": "address"
            },
            {
              "internalType": "uint256",
              "name": "phone",
              "type": "uint256"
            },
            {
              "internalType": "string",
              "name": "email",
              "type": "string"
            },
            {
              "internalType": "uint256",
              "name": "age",
              "type": "uint256"
            },
            {
              "internalType": "string",
              "name": "place",
              "type": "string"
            },
            {
              "internalType": "string",
              "name": "Medical_specialty",
              "type": "string"
            },
            {
              "internalType": "address",
              "name": "docAddress",
              "type": "address"
            }
          ],
          "internalType": "struct MedRecChain.doctor",
          "name": "",
          "type": "tuple"
        }
      ],
      "stateMutability": "view",
      "type": "function",
      "constant": true
    },
    {
      "inputs": [
        {
          "internalType": "address",
          "name": "_from_doctor_addr",
          "type": "address"
        },
        {
          "internalType": "address",
          "name": "_to_patients_addr",
          "type": "address"
        }
      ],
      "name": "checkRequestExists",
      "outputs": [
        {
          "internalType": "bool",
          "name": "",
          "type": "bool"
        }
      ],
      "stateMutability": "view",
      "type": "function",
      "constant": true
    },
    {
      "inputs": [
        {
          "internalType": "address",
          "name": "_patient",
          "type": "address"
        },
        {
          "internalType": "address",
          "name": "_doctor",
          "type": "address"
        }
      ],
      "name": "send_request_Access",
      "outputs": [
        {
          "internalType": "bool",
          "name": "success",
          "type": "bool"
        }
      ],
      "stateMutability": "nonpayable",
      "type": "function"
    },
    {
      "inputs": [],
      "name": "get_all_requests",
      "outputs": [
        {
          "components": [
            {
              "internalType": "uint256",
              "name": "id",
              "type": "uint256"
            },
            {
              "internalType": "address",
              "name": "from_doctor_addr",
              "type": "address"
            },
            {
              "internalType": "address",
              "name": "to_patients_addr",
              "type": "address"
            },
            {
              "internalType": "uint256",
              "name": "date",
              "type": "uint256"
            },
            {
              "internalType": "string",
              "name": "patient_name",
              "type": "string"
            },
            {
              "internalType": "string",
              "name": "doctor_name",
              "type": "string"
            }
          ],
          "internalType": "struct MedRecChain.request[]",
          "name": "",
          "type": "tuple[]"
        }
      ],
      "stateMutability": "view",
      "type": "function",
      "constant": true
    },
    {
      "inputs": [
        {
          "internalType": "string",
          "name": "_category",
          "type": "string"
        },
        {
          "internalType": "string",
          "name": "_patient_name",
          "type": "string"
        },
        {
          "internalType": "string",
          "name": "_rec_name",
          "type": "string"
        },
        {
          "internalType": "string",
          "name": "_Created_at",
          "type": "string"
        },
        {
          "internalType": "address",
          "name": "_patientAddr",
          "type": "address"
        },
        {
          "internalType": "address",
          "name": "_doctor_addr",
          "type": "address"
        },
        {
          "internalType": "string",
          "name": "_hex_ipfs",
          "type": "string"
        }
      ],
      "name": "addRecord",
      "outputs": [
        {
          "internalType": "bool",
          "name": "",
          "type": "bool"
        }
      ],
      "stateMutability": "nonpayable",
      "type": "function"
    },
    {
      "inputs": [
        {
          "internalType": "address",
          "name": "_patientAddr",
          "type": "address"
        }
      ],
      "name": "See_Record_for_Doctor",
      "outputs": [
        {
          "components": [
            {
              "internalType": "uint256",
              "name": "Medical_id",
              "type": "uint256"
            },
            {
              "internalType": "string",
              "name": "category",
              "type": "string"
            },
            {
              "internalType": "string",
              "name": "patient_name",
              "type": "string"
            },
            {
              "internalType": "string",
              "name": "rec_name",
              "type": "string"
            },
            {
              "internalType": "string",
              "name": "Created_at",
              "type": "string"
            },
            {
              "internalType": "address",
              "name": "patient_addr",
              "type": "address"
            },
            {
              "internalType": "address",
              "name": "doctor_addr",
              "type": "address"
            },
            {
              "internalType": "string",
              "name": "hex_ipfs",
              "type": "string"
            }
          ],
          "internalType": "struct MedRecChain.record[]",
          "name": "",
          "type": "tuple[]"
        }
      ],
      "stateMutability": "view",
      "type": "function",
      "constant": true
    },
    {
      "inputs": [
        {
          "internalType": "address",
          "name": "_addr",
          "type": "address"
        }
      ],
      "name": "get_patient_by_address",
      "outputs": [
        {
          "components": [
            {
              "internalType": "uint256",
              "name": "id",
              "type": "uint256"
            },
            {
              "internalType": "string",
              "name": "name",
              "type": "string"
            },
            {
              "internalType": "string",
              "name": "email",
              "type": "string"
            },
            {
              "internalType": "string",
              "name": "National_Addr",
              "type": "string"
            },
            {
              "internalType": "uint256",
              "name": "National_id",
              "type": "uint256"
            },
            {
              "internalType": "uint256",
              "name": "age",
              "type": "uint256"
            },
            {
              "internalType": "address",
              "name": "PatientAddress",
              "type": "address"
            },
            {
              "internalType": "uint256",
              "name": "phone",
              "type": "uint256"
            },
            {
              "internalType": "string",
              "name": "Blood_Type",
              "type": "string"
            },
            {
              "internalType": "string",
              "name": "marital_status",
              "type": "string"
            },
            {
              "internalType": "string",
              "name": "gender",
              "type": "string"
            },
            {
              "internalType": "address",
              "name": "hospital_addr",
              "type": "address"
            },
            {
              "components": [
                {
                  "internalType": "uint256",
                  "name": "Medical_id",
                  "type": "uint256"
                },
                {
                  "internalType": "string",
                  "name": "category",
                  "type": "string"
                },
                {
                  "internalType": "string",
                  "name": "patient_name",
                  "type": "string"
                },
                {
                  "internalType": "string",
                  "name": "rec_name",
                  "type": "string"
                },
                {
                  "internalType": "string",
                  "name": "Created_at",
                  "type": "string"
                },
                {
                  "internalType": "address",
                  "name": "patient_addr",
                  "type": "address"
                },
                {
                  "internalType": "address",
                  "name": "doctor_addr",
                  "type": "address"
                },
                {
                  "internalType": "string",
                  "name": "hex_ipfs",
                  "type": "string"
                }
              ],
              "internalType": "struct MedRecChain.record[]",
              "name": "Records",
              "type": "tuple[]"
            }
          ],
          "internalType": "struct MedRecChain.patient",
          "name": "",
          "type": "tuple"
        }
      ],
      "stateMutability": "view",
      "type": "function",
      "constant": true
    },
    {
      "inputs": [],
      "name": "See_Record_for_Patient",
      "outputs": [
        {
          "components": [
            {
              "internalType": "uint256",
              "name": "Medical_id",
              "type": "uint256"
            },
            {
              "internalType": "string",
              "name": "category",
              "type": "string"
            },
            {
              "internalType": "string",
              "name": "patient_name",
              "type": "string"
            },
            {
              "internalType": "string",
              "name": "rec_name",
              "type": "string"
            },
            {
              "internalType": "string",
              "name": "Created_at",
              "type": "string"
            },
            {
              "internalType": "address",
              "name": "patient_addr",
              "type": "address"
            },
            {
              "internalType": "address",
              "name": "doctor_addr",
              "type": "address"
            },
            {
              "internalType": "string",
              "name": "hex_ipfs",
              "type": "string"
            }
          ],
          "internalType": "struct MedRecChain.record[]",
          "name": "",
          "type": "tuple[]"
        }
      ],
      "stateMutability": "view",
      "type": "function",
      "constant": true
    },
    {
      "inputs": [
        {
          "internalType": "address",
          "name": "_doctor",
          "type": "address"
        }
      ],
      "name": "approveAccess",
      "outputs": [],
      "stateMutability": "nonpayable",
      "type": "function"
    },
    {
      "inputs": [
        {
          "internalType": "address",
          "name": "_doctor",
          "type": "address"
        },
        {
          "internalType": "address",
          "name": "_patient",
          "type": "address"
        }
      ],
      "name": "check_approve_Access",
      "outputs": [
        {
          "internalType": "bool",
          "name": "",
          "type": "bool"
        }
      ],
      "stateMutability": "view",
      "type": "function",
      "constant": true
    },
    {
      "inputs": [
        {
          "internalType": "address",
          "name": "doc",
          "type": "address"
        },
        {
          "internalType": "address",
          "name": "pat",
          "type": "address"
        }
      ],
      "name": "DeleteRequest",
      "outputs": [],
      "stateMutability": "nonpayable",
      "type": "function"
    },
    {
      "inputs": [
        {
          "internalType": "address",
          "name": "_doctor",
          "type": "address"
        }
      ],
      "name": "rejectAccess",
      "outputs": [],
      "stateMutability": "nonpayable",
      "type": "function"
    }
  ],
  "bytecode": "0x6080604052600180546001600160a01b03191673c577e31a2a01564b662c57b115c86af62f7e528a1790553480156200003757600080fd5b5060015462000071907fa49807205ce4d355092ef5a8a18f56e8913cf4a201fbe287825b095693c21775906001600160a01b031662000077565b62000127565b62000083828262000087565b5050565b6000828152602081815260408083206001600160a01b038516845290915290205460ff1662000083576000828152602081815260408083206001600160a01b03851684529091529020805460ff19166001179055620000e33390565b6001600160a01b0316816001600160a01b0316837f2f8788117e7eff1d82e926ec794901d17c78024a50270940304540a733656f0d60405160405180910390a45050565b615dab80620001376000396000f3fe608060405234801561001057600080fd5b506004361061023d5760003560e01c806398fc90e91161013b578063c5f3a65a116100b8578063f6ba66781161007c578063f6ba66781461052e578063fd6ecf0b14610543578063fe7ac90d14610563578063fec331f214610576578063ff1b636d1461058b57600080fd5b8063c5f3a65a146104c0578063c821f07f146104d3578063d15258d1146104f3578063d547741f14610508578063d8b070fa1461051b57600080fd5b8063ad182efe116100ff578063ad182efe1461045d578063aefae3b114610470578063bb5bfd6614610483578063c10f761114610498578063c1b32571146104ad57600080fd5b806398fc90e914610407578063a217fddf1461041a578063a2cdceda14610422578063aa836ed214610435578063ac5cb97d1461044857600080fd5b806353bbcf03116101c95780638f333d701161018d5780638f333d7014610399578063905e03ba146103ae57806391d14854146103c157806393ac6177146103d45780639474c8e5146103f457600080fd5b806353bbcf0314610331578063705211f41461033957806375b238fc1461034c57806381d12c581461036157806385b5f7fc1461038657600080fd5b8063248a9ca311610210578063248a9ca3146102a85780632f2ff15d146102cb5780633141172c146102e057806336568abe146102f3578063432d62741461030657600080fd5b806301ffc9a714610242578063217e16f71461026a57806321ea00a91461027f57806323654cc414610295575b600080fd5b610255610250366004614e75565b61059e565b60405190151581526020015b60405180910390f35b6102726105d5565b6040516102619190614f50565b610287610860565b604051908152602001610261565b6102556102a3366004614fc9565b6108f4565b6102876102b6366004614ffc565b60009081526020819052604090206001015490565b6102de6102d9366004615015565b610b69565b005b6102de6102ee366004615038565b610b93565b6102de610301366004615015565b610ca0565b610319610314366004614ffc565b610d1e565b6040516001600160a01b039091168152602001610261565b610287610d48565b6102de610347366004615038565b610db5565b610287600080516020615d3683398151915281565b61037461036f366004614ffc565b610f30565b60405161026196959493929190615053565b6102de610394366004614fc9565b611098565b6103a1611501565b60405161026191906151af565b6102556103bc366004615265565b6118d4565b6102556103cf366004615015565b611b59565b6103e76103e2366004615038565b611b82565b60405161026191906152e1565b6103a1610402366004615038565b611d03565b610255610415366004615038565b6121c1565b610287600081565b6102de610430366004615038565b61230f565b610255610443366004614fc9565b6124b1565b610287600080516020615cf683398151915281565b61025561046b3660046152f4565b612547565b61025561047e366004614fc9565b61284d565b61048b612904565b60405161026191906153e7565b6104a0612ab8565b60405161026191906155ca565b6102de6104bb366004615038565b6132d7565b6102556104ce36600461561f565b61344f565b6104e66104e1366004615038565b6137ac565b60405161026191906157c6565b6104fb613a70565b60405161026191906157d9565b6102de610516366004615015565b613dff565b61025561052936600461582e565b613e24565b610287600080516020615d5683398151915281565b610556610551366004615038565b6141a3565b6040516102619190615954565b610255610571366004615038565b6148f9565b610287600080516020615d1683398151915281565b600154610319906001600160a01b031681565b60006001600160e01b03198216637965db0b60e01b14806105cf57506301ffc9a760e01b6001600160e01b03198316145b92915050565b60606105ef600080516020615d3683398151915233611b59565b6106145760405162461bcd60e51b815260040161060b90615967565b60405180910390fd5b60045460009067ffffffffffffffff811115610632576106326151c2565b60405190808252806020026020018201604052801561066b57816020015b610658614d12565b8152602001906001900390816106505790505b50905060005b60045481101561085a576003600060048381548110610692576106926159b7565b9060005260206000200160009054906101000a90046001600160a01b03166001600160a01b03166001600160a01b031681526020019081526020016000206040518060a0016040529081600082015481526020016001820180546106f5906159cd565b80601f0160208091040260200160405190810160405280929190818152602001828054610721906159cd565b801561076e5780601f106107435761010080835404028352916020019161076e565b820191906000526020600020905b81548152906001019060200180831161075157829003601f168201915b505050918352505060028201546001600160a01b0316602082015260038201805460409092019161079e906159cd565b80601f01602080910402602001604051908101604052809291908181526020018280546107ca906159cd565b80156108175780601f106107ec57610100808354040283529160200191610817565b820191906000526020600020905b8154815290600101906020018083116107fa57829003601f168201915b5050505050815260200160048201548152505082828151811061083c5761083c6159b7565b6020026020010181905250808061085290615a1d565b915050610671565b50905090565b600061087a600080516020615d3683398151915233611b59565b156108855750600190565b61089d600080516020615d5683398151915233611b59565b156108a85750600290565b6108c0600080516020615d1683398151915233611b59565b156108cb5750600390565b6108e3600080516020615cf683398151915233611b59565b156108ee5750600490565b50600090565b600061090e600080516020615cf683398151915284611b59565b6109805760405162461bcd60e51b815260206004820152603860248201527f54686520706572736f6e20796f75206172652072657175657374696e6720616360448201527f6365737320746f206973206e6f7420612050617469656e740000000000000000606482015260840161060b565b61098a828461284d565b156109d05760405162461bcd60e51b8152602060048201526016602482015275185b1c9958591e481cd95b990818481c995c5d595cdd60521b604482015260640161060b565b600d546109de906001615a36565b600d5560006109ec846141a3565b905060006109f9846137ac565b6040805160c081018252600d5481526001600160a01b0380881660208084019182528a8316948401948552426060850190815288820151608086019081529187015160a0860152600e8054600181018255600091909152855160069091027fbb7b4a454dc3493923482f07822329ed19e8244eff582cc204f8554c3620c3fd810191825593517fbb7b4a454dc3493923482f07822329ed19e8244eff582cc204f8554c3620c3fe850180549187166001600160a01b031992831617905596517fbb7b4a454dc3493923482f07822329ed19e8244eff582cc204f8554c3620c3ff850180549190961697169690961790935591517fbb7b4a454dc3493923482f07822329ed19e8244eff582cc204f8554c3620c400820155905193945090927fbb7b4a454dc3493923482f07822329ed19e8244eff582cc204f8554c3620c40190910190610b469082615a97565b5060a08201516005820190610b5b9082615a97565b506001979650505050505050565b600082815260208190526040902060010154610b8481614a07565b610b8e8383614a11565b505050565b610bab600080516020615cf683398151915233611b59565b610bf75760405162461bcd60e51b815260206004820152601b60248201527f54686973206163636f756e74206973206e6f742070617469656e740000000000604482015260640161060b565b610c0f600080516020615d1683398151915282611b59565b610c675760405162461bcd60e51b8152602060048201526024808201527f446f63746f7220646f6573206e6f7420686176652074686520646f63746f7220604482015263726f6c6560e01b606482015260840161060b565b3360008181526002602090815260408083206001600160a01b03861684529091529020805460ff19169055610c9d908290611098565b50565b6001600160a01b0381163314610d105760405162461bcd60e51b815260206004820152602f60248201527f416363657373436f6e74726f6c3a2063616e206f6e6c792072656e6f756e636560448201526e103937b632b9903337b91039b2b63360891b606482015260840161060b565b610d1a8282614a95565b5050565b60048181548110610d2e57600080fd5b6000918252602090912001546001600160a01b0316905081565b60008060005b60065481101561085a576005600060068381548110610d6f57610d6f6159b7565b60009182526020808320909101546001600160a01b031683528201929092526040019020600c0154610da19083615a36565b915080610dad81615a1d565b915050610d4e565b610dcd600080516020615cf683398151915233611b59565b610e195760405162461bcd60e51b815260206004820152601b60248201527f54686973206163636f756e74206973206e6f742070617469656e740000000000604482015260640161060b565b610e31600080516020615d1683398151915282611b59565b610e7d5760405162461bcd60e51b815260206004820152601c60248201527f746869732061636f756e74206973206e6f74206120646f63746f722000000000604482015260640161060b565b3360009081526002602090815260408083206001600160a01b038516845290915290205460ff1615610eff5760405162461bcd60e51b815260206004820152602560248201527f54686973205265717565737420616c7261656479206265656e20417070726f76604482015264032b21090960dd1b606482015260840161060b565b3360009081526002602090815260408083206001600160a01b0394909416835292905220805460ff19166001179055565b600e8181548110610f4057600080fd5b6000918252602090912060069091020180546001820154600283015460038401546004850180549496506001600160a01b03938416959290931693909290610f87906159cd565b80601f0160208091040260200160405190810160405280929190818152602001828054610fb3906159cd565b80156110005780601f10610fd557610100808354040283529160200191611000565b820191906000526020600020905b815481529060010190602001808311610fe357829003601f168201915b505050505090806005018054611015906159cd565b80601f0160208091040260200160405190810160405280929190818152602001828054611041906159cd565b801561108e5780601f106110635761010080835404028352916020019161108e565b820191906000526020600020905b81548152906001019060200180831161107157829003601f168201915b5050505050905086565b600e546110b75760405162461bcd60e51b815260040161060b90615b57565b60005b600e54811015610b8e57826040516020016110d59190615b81565b60405160208183030381529060405280519060200120600e82815481106110fe576110fe6159b7565b60009182526020918290206001600690920201015460405161112c926001600160a01b039092169101615b81565b604051602081830303815290604052805190602001201480156111ca57508160405160200161115b9190615b81565b60405160208183030381529060405280519060200120600e8281548110611184576111846159b7565b6000918252602091829020600260069092020101546040516111b2926001600160a01b039092169101615b81565b60405160208183030381529060405280519060200120145b156114ef57600e81815481106111e2576111e26159b7565b6000918252602082206006909102018181556001810180546001600160a01b0319908116909155600282018054909116905560038101829055906112296004830182614d4a565b611237600583016000614d4a565b5050600e5460009061124b90600190615b9e565b90506000600e8281548110611262576112626159b7565b60009182526020918290206040805160c08101825260069093029091018054835260018101546001600160a01b0390811694840194909452600281015490931690820152600382015460608201526004820180549192916080840191906112c8906159cd565b80601f01602080910402602001604051908101604052809291908181526020018280546112f4906159cd565b80156113415780601f1061131657610100808354040283529160200191611341565b820191906000526020600020905b81548152906001019060200180831161132457829003601f168201915b5050505050815260200160058201805461135a906159cd565b80601f0160208091040260200160405190810160405280929190818152602001828054611386906159cd565b80156113d35780601f106113a8576101008083540402835291602001916113d3565b820191906000526020600020905b8154815290600101906020018083116113b657829003601f168201915b505050505081525050905080600e84815481106113f2576113f26159b7565b60009182526020918290208351600690920201908155908201516001820180546001600160a01b039283166001600160a01b0319918216179091556040840151600284018054919093169116179055606082015160038201556080820151600482019061145f9082615a97565b5060a082015160058201906114749082615a97565b50905050600e80548061148957611489615bb1565b6000828152602081206006600019909301928302018181556001810180546001600160a01b0319908116909155600282018054909116905560038101829055906114d66004830182614d4a565b6114e4600583016000614d4a565b505090555050505050565b806114f981615a1d565b9150506110ba565b336000908152600560205260409020600c01546060906115635760405162461bcd60e51b815260206004820152601c60248201527f70617469656e74207265636f726420646f65736e277420657869737400000000604482015260640161060b565b336000908152600560209081526040808320600c0180548251818502810185019093528083529193909284015b828210156118cb578382906000526020600020906008020160405180610100016040529081600082015481526020016001820180546115ce906159cd565b80601f01602080910402602001604051908101604052809291908181526020018280546115fa906159cd565b80156116475780601f1061161c57610100808354040283529160200191611647565b820191906000526020600020905b81548152906001019060200180831161162a57829003601f168201915b50505050508152602001600282018054611660906159cd565b80601f016020809104026020016040519081016040528092919081815260200182805461168c906159cd565b80156116d95780601f106116ae576101008083540402835291602001916116d9565b820191906000526020600020905b8154815290600101906020018083116116bc57829003601f168201915b505050505081526020016003820180546116f2906159cd565b80601f016020809104026020016040519081016040528092919081815260200182805461171e906159cd565b801561176b5780601f106117405761010080835404028352916020019161176b565b820191906000526020600020905b81548152906001019060200180831161174e57829003601f168201915b50505050508152602001600482018054611784906159cd565b80601f01602080910402602001604051908101604052809291908181526020018280546117b0906159cd565b80156117fd5780601f106117d2576101008083540402835291602001916117fd565b820191906000526020600020905b8154815290600101906020018083116117e057829003601f168201915b505050918352505060058201546001600160a01b039081166020830152600683015416604082015260078201805460609092019161183a906159cd565b80601f0160208091040260200160405190810160405280929190818152602001828054611866906159cd565b80156118b35780601f10611888576101008083540402835291602001916118b3565b820191906000526020600020905b81548152906001019060200180831161189657829003601f168201915b50505050508152505081526020019060010190611590565b50505050905090565b60006118ee600080516020615d3683398151915233611b59565b61190a5760405162461bcd60e51b815260040161060b90615967565b611922600080516020615d5683398151915285611b59565b1561193f5760405162461bcd60e51b815260040161060b90615bc7565b611957600080516020615d3683398151915285611b59565b156119745760405162461bcd60e51b815260040161060b90615c08565b61198c600080516020615d1683398151915285611b59565b156119d55760405162461bcd60e51b815260206004820152601960248201527802a3434b99020b1b1b7bab73a1034b9902237b1ba37b910909603d1b604482015260640161060b565b6119ed600080516020615cf683398151915285611b59565b15611a3a5760405162461bcd60e51b815260206004820152601a60248201527f54686973204163636f756e742069732050617469656e74212120000000000000604482015260640161060b565b611a52600080516020615d5683398151915285614afa565b600954611a60906001615a36565b60098190556040805160a08101825291825260208083018881526001600160a01b0388168484018190526060850188905260808501879052600090815260039092529190208251815590516001820190611aba9082615a97565b5060408201516002820180546001600160a01b0319166001600160a01b0390921691909117905560608201516003820190611af59082615a97565b50608091909101516004918201558054600181810183556000929092527f8a35acfbc15ff81a39ae7d344fd709f28e8600b4aa8c65c6b64bfe7fe36bd19b0180546001600160a01b0387166001600160a01b03199091161790559050949350505050565b6000918252602082815260408084206001600160a01b0393909316845291905290205460ff1690565b611b8a614d12565b6001600160a01b038216600090815260036020908152604091829020825160a08101909352805483526001810180549192840191611bc7906159cd565b80601f0160208091040260200160405190810160405280929190818152602001828054611bf3906159cd565b8015611c405780601f10611c1557610100808354040283529160200191611c40565b820191906000526020600020905b815481529060010190602001808311611c2357829003601f168201915b505050918352505060028201546001600160a01b03166020820152600382018054604090920191611c70906159cd565b80601f0160208091040260200160405190810160405280929190818152602001828054611c9c906159cd565b8015611ce95780601f10611cbe57610100808354040283529160200191611ce9565b820191906000526020600020905b815481529060010190602001808311611ccc57829003601f168201915b505050505081526020016004820154815250509050919050565b6001600160a01b038116600090815260026020908152604080832033845290915290205460609060ff16611d795760405162461bcd60e51b815260206004820152601c60248201527f4e6f207065726d697373696f6e20746f20676574205265636f72647300000000604482015260640161060b565b611d91600080516020615cf683398151915283611b59565b611ddd5760405162461bcd60e51b815260206004820152601b60248201527f546869732070617469656e7473206973206e6f74206578697369740000000000604482015260640161060b565b6001600160a01b0382166000908152600560205260409020600c0154611e455760405162461bcd60e51b815260206004820152601c60248201527f70617469656e74207265636f726420646f65736e277420657869737400000000604482015260640161060b565b6001600160a01b0382166000908152600560209081526040808320600c0180548251818502810185019093528083529193909284015b828210156121b657838290600052602060002090600802016040518061010001604052908160008201548152602001600182018054611eb9906159cd565b80601f0160208091040260200160405190810160405280929190818152602001828054611ee5906159cd565b8015611f325780601f10611f0757610100808354040283529160200191611f32565b820191906000526020600020905b815481529060010190602001808311611f1557829003601f168201915b50505050508152602001600282018054611f4b906159cd565b80601f0160208091040260200160405190810160405280929190818152602001828054611f77906159cd565b8015611fc45780601f10611f9957610100808354040283529160200191611fc4565b820191906000526020600020905b815481529060010190602001808311611fa757829003601f168201915b50505050508152602001600382018054611fdd906159cd565b80601f0160208091040260200160405190810160405280929190818152602001828054612009906159cd565b80156120565780601f1061202b57610100808354040283529160200191612056565b820191906000526020600020905b81548152906001019060200180831161203957829003601f168201915b5050505050815260200160048201805461206f906159cd565b80601f016020809104026020016040519081016040528092919081815260200182805461209b906159cd565b80156120e85780601f106120bd576101008083540402835291602001916120e8565b820191906000526020600020905b8154815290600101906020018083116120cb57829003601f168201915b505050918352505060058201546001600160a01b0390811660208301526006830154166040820152600782018054606090920191612125906159cd565b80601f0160208091040260200160405190810160405280929190818152602001828054612151906159cd565b801561219e5780601f106121735761010080835404028352916020019161219e565b820191906000526020600020905b81548152906001019060200180831161218157829003601f168201915b50505050508152505081526020019060010190611e7b565b505050509050919050565b60006121db600080516020615d3683398151915233611b59565b6121f75760405162461bcd60e51b815260040161060b90615967565b61220f600080516020615d1683398151915283611b59565b61225b5760405162461bcd60e51b815260206004820152601760248201527f54686973206163636f756e74206e6f7420657869736974000000000000000000604482015260640161060b565b6001600160a01b0382166000908152600760205260408120818155906122846001830182614d4a565b6002820180546001600160a01b03191690556000600383018190556122ad906004840190614d4a565b60058201600090556006820160006122c59190614d4a565b6122d3600783016000614d4a565b5060080180546001600160a01b03191690556122fd600080516020615d1683398151915283614a95565b6123068261230f565b5060015b919050565b60085461232e5760405162461bcd60e51b815260040161060b90615b57565b60005b600854811015610d1a578160405160200161234c9190615b81565b6040516020818303038152906040528051906020012060088281548110612375576123756159b7565b6000918252602091829020015460405161239b926001600160a01b039092169101615b81565b604051602081830303815290604052805190602001200361249f57600881815481106123c9576123c96159b7565b6000918252602082200180546001600160a01b03191690556008546123f090600190615b9e565b9050600060088281548110612407576124076159b7565b600091825260209091200154600880546001600160a01b039092169250829185908110612436576124366159b7565b9060005260206000200160006101000a8154816001600160a01b0302191690836001600160a01b03160217905550600880548061247557612475615bb1565b600082815260209020810160001990810180546001600160a01b031916905501905550610d1a9050565b806124a981615a1d565b915050612331565b60006124cb600080516020615d1683398151915233611b59565b6125175760405162461bcd60e51b815260206004820152601a60248201527f54686973206163636f756e74206973206e6f7420446f63746f72000000000000604482015260640161060b565b506001600160a01b0380821660009081526002602090815260408083209386168352929052205460ff1692915050565b6000612561600080516020615d1683398151915233611b59565b6125ad5760405162461bcd60e51b815260206004820152601a60248201527f54686973206163636f756e74206973206e6f7420446f63746f72000000000000604482015260640161060b565b6125c5600080516020615cf683398151915285611b59565b6126115760405162461bcd60e51b815260206004820152601b60248201527f546869732070617469656e7473206973206e6f74206578697369740000000000604482015260640161060b565b6001600160a01b038416600090815260026020908152604080832033845290915290205460ff166126845760405162461bcd60e51b815260206004820152601c60248201527f4e6f207065726d697373696f6e20746f20616464205265636f72647300000000604482015260640161060b565b6001600160a01b03831633146126dc5760405162461bcd60e51b815260206004820152601c60248201527f4e6f207065726d697373696f6e20746f207468697320446f63746f7200000000604482015260640161060b565b600c546126ea906001615a36565b600c8190555060056000856001600160a01b03166001600160a01b03168152602001908152602001600020600c01604051806101000160405280600c5481526020018a8152602001898152602001888152602001878152602001866001600160a01b03168152602001856001600160a01b031681526020018481525090806001815401808255809150506001900390600052602060002090600802016000909190919091506000820151816000015560208201518160010190816127ae9190615a97565b50604082015160028201906127c39082615a97565b50606082015160038201906127d89082615a97565b50608082015160048201906127ed9082615a97565b5060a08201516005820180546001600160a01b039283166001600160a01b03199182161790915560c084015160068401805491909316911617905560e0820151600782019061283c9082615a97565b5060019a9950505050505050505050565b6000805b600e548110156128fa57836001600160a01b0316600e8281548110612878576128786159b7565b60009182526020909120600160069092020101546001600160a01b03161480156128d95750826001600160a01b0316600e82815481106128ba576128ba6159b7565b60009182526020909120600260069092020101546001600160a01b0316145b156128e85760019150506105cf565b806128f281615a1d565b915050612851565b5060009392505050565b6060600e805480602002602001604051908101604052809291908181526020016000905b828210156118cb5760008481526020908190206040805160c081018252600686029092018054835260018101546001600160a01b039081169484019490945260028101549093169082015260038201546060820152600482018054919291608084019190612995906159cd565b80601f01602080910402602001604051908101604052809291908181526020018280546129c1906159cd565b8015612a0e5780601f106129e357610100808354040283529160200191612a0e565b820191906000526020600020905b8154815290600101906020018083116129f157829003601f168201915b50505050508152602001600582018054612a27906159cd565b80601f0160208091040260200160405190810160405280929190818152602001828054612a53906159cd565b8015612aa05780601f10612a7557610100808354040283529160200191612aa0565b820191906000526020600020905b815481529060010190602001808311612a8357829003601f168201915b50505050508152505081526020019060010190612928565b60065460609060009067ffffffffffffffff811115612ad957612ad96151c2565b604051908082528060200260200182016040528015612b1257816020015b612aff614d84565b815260200190600190039081612af75790505b50905060005b60065481101561085a576005600060068381548110612b3957612b396159b7565b9060005260206000200160009054906101000a90046001600160a01b03166001600160a01b03166001600160a01b03168152602001908152602001600020604051806101a001604052908160008201548152602001600182018054612b9d906159cd565b80601f0160208091040260200160405190810160405280929190818152602001828054612bc9906159cd565b8015612c165780601f10612beb57610100808354040283529160200191612c16565b820191906000526020600020905b815481529060010190602001808311612bf957829003601f168201915b50505050508152602001600282018054612c2f906159cd565b80601f0160208091040260200160405190810160405280929190818152602001828054612c5b906159cd565b8015612ca85780601f10612c7d57610100808354040283529160200191612ca8565b820191906000526020600020905b815481529060010190602001808311612c8b57829003601f168201915b50505050508152602001600382018054612cc1906159cd565b80601f0160208091040260200160405190810160405280929190818152602001828054612ced906159cd565b8015612d3a5780601f10612d0f57610100808354040283529160200191612d3a565b820191906000526020600020905b815481529060010190602001808311612d1d57829003601f168201915b5050509183525050600482015460208201526005820154604082015260068201546001600160a01b031660608201526007820154608082015260088201805460a090920191612d88906159cd565b80601f0160208091040260200160405190810160405280929190818152602001828054612db4906159cd565b8015612e015780601f10612dd657610100808354040283529160200191612e01565b820191906000526020600020905b815481529060010190602001808311612de457829003601f168201915b50505050508152602001600982018054612e1a906159cd565b80601f0160208091040260200160405190810160405280929190818152602001828054612e46906159cd565b8015612e935780601f10612e6857610100808354040283529160200191612e93565b820191906000526020600020905b815481529060010190602001808311612e7657829003601f168201915b50505050508152602001600a82018054612eac906159cd565b80601f0160208091040260200160405190810160405280929190818152602001828054612ed8906159cd565b8015612f255780601f10612efa57610100808354040283529160200191612f25565b820191906000526020600020905b815481529060010190602001808311612f0857829003601f168201915b5050509183525050600b8201546001600160a01b0316602080830191909152600c83018054604080518285028101850182528281529401939260009084015b8282101561329f57838290600052602060002090600802016040518061010001604052908160008201548152602001600182018054612fa2906159cd565b80601f0160208091040260200160405190810160405280929190818152602001828054612fce906159cd565b801561301b5780601f10612ff05761010080835404028352916020019161301b565b820191906000526020600020905b815481529060010190602001808311612ffe57829003601f168201915b50505050508152602001600282018054613034906159cd565b80601f0160208091040260200160405190810160405280929190818152602001828054613060906159cd565b80156130ad5780601f10613082576101008083540402835291602001916130ad565b820191906000526020600020905b81548152906001019060200180831161309057829003601f168201915b505050505081526020016003820180546130c6906159cd565b80601f01602080910402602001604051908101604052809291908181526020018280546130f2906159cd565b801561313f5780601f106131145761010080835404028352916020019161313f565b820191906000526020600020905b81548152906001019060200180831161312257829003601f168201915b50505050508152602001600482018054613158906159cd565b80601f0160208091040260200160405190810160405280929190818152602001828054613184906159cd565b80156131d15780601f106131a6576101008083540402835291602001916131d1565b820191906000526020600020905b8154815290600101906020018083116131b457829003601f168201915b505050918352505060058201546001600160a01b039081166020830152600683015416604082015260078201805460609092019161320e906159cd565b80601f016020809104026020016040519081016040528092919081815260200182805461323a906159cd565b80156132875780601f1061325c57610100808354040283529160200191613287565b820191906000526020600020905b81548152906001019060200180831161326a57829003601f168201915b50505050508152505081526020019060010190612f64565b50505050815250508282815181106132b9576132b96159b7565b602002602001018190525080806132cf90615a1d565b915050612b18565b6004546132f65760405162461bcd60e51b815260040161060b90615b57565b60005b600454811015610d1a57816040516020016133149190615b81565b604051602081830303815290604052805190602001206004828154811061333d5761333d6159b7565b60009182526020918290200154604051613363926001600160a01b039092169101615b81565b604051602081830303815290604052805190602001200361343d5760048181548110613391576133916159b7565b6000918252602082200180546001600160a01b03191690556004546133b890600190615b9e565b90506000600482815481106133cf576133cf6159b7565b600091825260209091200154600480546001600160a01b0390921692508291859081106133fe576133fe6159b7565b9060005260206000200160006101000a8154816001600160a01b0302191690836001600160a01b03160217905550600480548061247557612475615bb1565b8061344781615a1d565b9150506132f9565b6000613469600080516020615d3683398151915233611b59565b6134855760405162461bcd60e51b815260040161060b90615967565b61349d600080516020615d1683398151915283611b59565b156134ea5760405162461bcd60e51b815260206004820152601d60248201527f54686973206163636f756e7420616c7265616479206120646f63746f72000000604482015260640161060b565b613502600080516020615d3683398151915283611b59565b1561351f5760405162461bcd60e51b815260040161060b90615c08565b613537600080516020615d5683398151915283611b59565b156135845760405162461bcd60e51b815260206004820152601b60248201527f54686973204163636f756e7420697320486f73706974616c2121200000000000604482015260640161060b565b61359c600080516020615cf683398151915283611b59565b156135e95760405162461bcd60e51b815260206004820152601a60248201527f54686973204163636f756e742069732050617469656e74212120000000000000604482015260640161060b565b613601600080516020615d5683398151915289611b59565b61361d5760405162461bcd60e51b815260040161060b90615bc7565b613635600080516020615d1683398151915283614afa565b600a54613643906001615a36565b600a819055604080516101208101825291825260208083018c81526001600160a01b03808d1685850152606085018c9052608085018b905260a085018a905260c0850189905260e08501889052861661010085018190526000908152600790925291902082518155905160018201906136bc9082615a97565b5060408201516002820180546001600160a01b0319166001600160a01b0390921691909117905560608201516003820155608082015160048201906137019082615a97565b5060a0820151600582015560c082015160068201906137209082615a97565b5060e082015160078201906137359082615a97565b506101009190910151600891820180546001600160a01b039283166001600160a01b0319918216179091558254600181810185556000949094527ff3f7a9fe364faab93b216da50a3214154f22a0a2b415b23a84c8169e8b636ee30180549590921694169390931790925550979650505050505050565b6137b4614dfe565b6001600160a01b038216600090815260076020908152604091829020825161012081019093528054835260018101805491928401916137f2906159cd565b80601f016020809104026020016040519081016040528092919081815260200182805461381e906159cd565b801561386b5780601f106138405761010080835404028352916020019161386b565b820191906000526020600020905b81548152906001019060200180831161384e57829003601f168201915b505050918352505060028201546001600160a01b03166020820152600382015460408201526004820180546060909201916138a5906159cd565b80601f01602080910402602001604051908101604052809291908181526020018280546138d1906159cd565b801561391e5780601f106138f35761010080835404028352916020019161391e565b820191906000526020600020905b81548152906001019060200180831161390157829003601f168201915b5050505050815260200160058201548152602001600682018054613941906159cd565b80601f016020809104026020016040519081016040528092919081815260200182805461396d906159cd565b80156139ba5780601f1061398f576101008083540402835291602001916139ba565b820191906000526020600020905b81548152906001019060200180831161399d57829003601f168201915b505050505081526020016007820180546139d3906159cd565b80601f01602080910402602001604051908101604052809291908181526020018280546139ff906159cd565b8015613a4c5780601f10613a2157610100808354040283529160200191613a4c565b820191906000526020600020905b815481529060010190602001808311613a2f57829003601f168201915b5050509183525050600891909101546001600160a01b031660209091015292915050565b60085460609060009067ffffffffffffffff811115613a9157613a916151c2565b604051908082528060200260200182016040528015613aca57816020015b613ab7614dfe565b815260200190600190039081613aaf5790505b50905060005b60085481101561085a576007600060088381548110613af157613af16159b7565b9060005260206000200160009054906101000a90046001600160a01b03166001600160a01b03166001600160a01b031681526020019081526020016000206040518061012001604052908160008201548152602001600182018054613b55906159cd565b80601f0160208091040260200160405190810160405280929190818152602001828054613b81906159cd565b8015613bce5780601f10613ba357610100808354040283529160200191613bce565b820191906000526020600020905b815481529060010190602001808311613bb157829003601f168201915b505050918352505060028201546001600160a01b0316602082015260038201546040820152600482018054606090920191613c08906159cd565b80601f0160208091040260200160405190810160405280929190818152602001828054613c34906159cd565b8015613c815780601f10613c5657610100808354040283529160200191613c81565b820191906000526020600020905b815481529060010190602001808311613c6457829003601f168201915b5050505050815260200160058201548152602001600682018054613ca4906159cd565b80601f0160208091040260200160405190810160405280929190818152602001828054613cd0906159cd565b8015613d1d5780601f10613cf257610100808354040283529160200191613d1d565b820191906000526020600020905b815481529060010190602001808311613d0057829003601f168201915b50505050508152602001600782018054613d36906159cd565b80601f0160208091040260200160405190810160405280929190818152602001828054613d62906159cd565b8015613daf5780601f10613d8457610100808354040283529160200191613daf565b820191906000526020600020905b815481529060010190602001808311613d9257829003601f168201915b5050509183525050600891909101546001600160a01b03166020909101528251839083908110613de157613de16159b7565b60200260200101819052508080613df790615a1d565b915050613ad0565b600082815260208190526040902060010154613e1a81614a07565b610b8e8383614a95565b6000613e3e600080516020615d5683398151915233611b59565b613e8a5760405162461bcd60e51b815260206004820152601c60248201527f54686973206163636f756e74206973206e6f7420486f73706974616c00000000604482015260640161060b565b613ea2600080516020615cf683398151915287611b59565b15613eef5760405162461bcd60e51b815260206004820152601e60248201527f54686973206163636f756e7420616c726561647920612070617469656e740000604482015260640161060b565b613f07600080516020615d3683398151915287611b59565b15613f245760405162461bcd60e51b815260040161060b90615c08565b613f3c600080516020615d1683398151915287611b59565b15613f855760405162461bcd60e51b815260206004820152601960248201527802a3434b99020b1b1b7bab73a1034b9902237b1ba37b910909603d1b604482015260640161060b565b613f9d600080516020615d5683398151915287611b59565b15613fea5760405162461bcd60e51b815260206004820152601b60248201527f54686973204163636f756e7420697320486f73706974616c2121200000000000604482015260640161060b565b614002600080516020615cf683398151915287614afa565b600b54614010906001615a36565b600b8190556001600160a01b03871660008181526005602052604090209182556006820180546001600160a01b03191690911790556001016140528c82615a97565b506001600160a01b03861660009081526005602052604090206002016140788b82615a97565b506001600160a01b038616600090815260056020526040902060030161409e8a82615a97565b506001600160a01b0386166000908152600560208190526040909120600481018a9055908101889055600781018690556008016140db8582615a97565b506001600160a01b03861660009081526005602052604090206009016141018482615a97565b506001600160a01b0386166000908152600560205260409020600a016141278382615a97565b50506001600160a01b0385166000818152600560205260408120600b0180546001600160a01b031990811633179091556006805460018181018355919093527ff652222313e28459528d920b65115c16c04f3efc82aaedc97be59f3f377c0d3f90920180549091169092179091559a9950505050505050505050565b6141ab614d84565b6001600160a01b03821660009081526005602090815260409182902082516101a081019093528054835260018101805491928401916141e9906159cd565b80601f0160208091040260200160405190810160405280929190818152602001828054614215906159cd565b80156142625780601f1061423757610100808354040283529160200191614262565b820191906000526020600020905b81548152906001019060200180831161424557829003601f168201915b5050505050815260200160028201805461427b906159cd565b80601f01602080910402602001604051908101604052809291908181526020018280546142a7906159cd565b80156142f45780601f106142c9576101008083540402835291602001916142f4565b820191906000526020600020905b8154815290600101906020018083116142d757829003601f168201915b5050505050815260200160038201805461430d906159cd565b80601f0160208091040260200160405190810160405280929190818152602001828054614339906159cd565b80156143865780601f1061435b57610100808354040283529160200191614386565b820191906000526020600020905b81548152906001019060200180831161436957829003601f168201915b5050509183525050600482015460208201526005820154604082015260068201546001600160a01b031660608201526007820154608082015260088201805460a0909201916143d4906159cd565b80601f0160208091040260200160405190810160405280929190818152602001828054614400906159cd565b801561444d5780601f106144225761010080835404028352916020019161444d565b820191906000526020600020905b81548152906001019060200180831161443057829003601f168201915b50505050508152602001600982018054614466906159cd565b80601f0160208091040260200160405190810160405280929190818152602001828054614492906159cd565b80156144df5780601f106144b4576101008083540402835291602001916144df565b820191906000526020600020905b8154815290600101906020018083116144c257829003601f168201915b50505050508152602001600a820180546144f8906159cd565b80601f0160208091040260200160405190810160405280929190818152602001828054614524906159cd565b80156145715780601f1061454657610100808354040283529160200191614571565b820191906000526020600020905b81548152906001019060200180831161455457829003601f168201915b5050509183525050600b8201546001600160a01b0316602080830191909152600c83018054604080518285028101850182528281529401939260009084015b828210156148eb578382906000526020600020906008020160405180610100016040529081600082015481526020016001820180546145ee906159cd565b80601f016020809104026020016040519081016040528092919081815260200182805461461a906159cd565b80156146675780601f1061463c57610100808354040283529160200191614667565b820191906000526020600020905b81548152906001019060200180831161464a57829003601f168201915b50505050508152602001600282018054614680906159cd565b80601f01602080910402602001604051908101604052809291908181526020018280546146ac906159cd565b80156146f95780601f106146ce576101008083540402835291602001916146f9565b820191906000526020600020905b8154815290600101906020018083116146dc57829003601f168201915b50505050508152602001600382018054614712906159cd565b80601f016020809104026020016040519081016040528092919081815260200182805461473e906159cd565b801561478b5780601f106147605761010080835404028352916020019161478b565b820191906000526020600020905b81548152906001019060200180831161476e57829003601f168201915b505050505081526020016004820180546147a4906159cd565b80601f01602080910402602001604051908101604052809291908181526020018280546147d0906159cd565b801561481d5780601f106147f25761010080835404028352916020019161481d565b820191906000526020600020905b81548152906001019060200180831161480057829003601f168201915b505050918352505060058201546001600160a01b039081166020830152600683015416604082015260078201805460609092019161485a906159cd565b80601f0160208091040260200160405190810160405280929190818152602001828054614886906159cd565b80156148d35780601f106148a8576101008083540402835291602001916148d3565b820191906000526020600020905b8154815290600101906020018083116148b657829003601f168201915b505050505081525050815260200190600101906145b0565b505050915250909392505050565b6000614913600080516020615d3683398151915233611b59565b61492f5760405162461bcd60e51b815260040161060b90615967565b614947600080516020615d5683398151915283611b59565b6149935760405162461bcd60e51b815260206004820152601b60248201527f5468697320686f73706974616c206973206e6f74206578697369740000000000604482015260640161060b565b6149ab600080516020615d5683398151915283614a95565b6001600160a01b0382166000908152600360205260408120818155906149d46001830182614d4a565b6002820180546001600160a01b03191690556149f4600383016000614d4a565b60048201600090555050612306826132d7565b610c9d8133614b04565b614a1b8282611b59565b610d1a576000828152602081815260408083206001600160a01b03851684529091529020805460ff19166001179055614a513390565b6001600160a01b0316816001600160a01b0316837f2f8788117e7eff1d82e926ec794901d17c78024a50270940304540a733656f0d60405160405180910390a45050565b614a9f8282611b59565b15610d1a576000828152602081815260408083206001600160a01b0385168085529252808320805460ff1916905551339285917ff6391f5c32d9c69d2a47ea670b442974b53935d1edc7fd64eb21e047a839171b9190a45050565b610d1a8282614a11565b614b0e8282611b59565b610d1a57614b1b81614b5d565b614b26836020614b6f565b604051602001614b37929190615c3f565b60408051601f198184030181529082905262461bcd60e51b825261060b91600401615cb4565b60606105cf6001600160a01b03831660145b60606000614b7e836002615cc7565b614b89906002615a36565b67ffffffffffffffff811115614ba157614ba16151c2565b6040519080825280601f01601f191660200182016040528015614bcb576020820181803683370190505b509050600360fc1b81600081518110614be657614be66159b7565b60200101906001600160f81b031916908160001a905350600f60fb1b81600181518110614c1557614c156159b7565b60200101906001600160f81b031916908160001a9053506000614c39846002615cc7565b614c44906001615a36565b90505b6001811115614cbc576f181899199a1a9b1b9c1cb0b131b232b360811b85600f1660108110614c7857614c786159b7565b1a60f81b828281518110614c8e57614c8e6159b7565b60200101906001600160f81b031916908160001a90535060049490941c93614cb581615cde565b9050614c47565b508315614d0b5760405162461bcd60e51b815260206004820181905260248201527f537472696e67733a20686578206c656e67746820696e73756666696369656e74604482015260640161060b565b9392505050565b6040518060a00160405280600081526020016060815260200160006001600160a01b0316815260200160608152602001600081525090565b508054614d56906159cd565b6000825580601f10614d66575050565b601f016020900490600052602060002090810190610c9d9190614e5c565b604051806101a0016040528060008152602001606081526020016060815260200160608152602001600081526020016000815260200160006001600160a01b031681526020016000815260200160608152602001606081526020016060815260200160006001600160a01b03168152602001606081525090565b604051806101200160405280600081526020016060815260200160006001600160a01b03168152602001600081526020016060815260200160008152602001606081526020016060815260200160006001600160a01b031681525090565b5b80821115614e715760008155600101614e5d565b5090565b600060208284031215614e8757600080fd5b81356001600160e01b031981168114614d0b57600080fd5b60005b83811015614eba578181015183820152602001614ea2565b50506000910152565b60008151808452614edb816020860160208601614e9f565b601f01601f19169290920160200192915050565b805182526000602082015160a06020850152614f0e60a0850182614ec3565b905060018060a01b03604084015116604085015260608301518482036060860152614f398282614ec3565b915050608083015160808501528091505092915050565b6000602080830181845280855180835260408601915060408160051b870101925083870160005b82811015614fa557603f19888603018452614f93858351614eef565b94509285019290850190600101614f77565b5092979650505050505050565b80356001600160a01b038116811461230a57600080fd5b60008060408385031215614fdc57600080fd5b614fe583614fb2565b9150614ff360208401614fb2565b90509250929050565b60006020828403121561500e57600080fd5b5035919050565b6000806040838503121561502857600080fd5b82359150614ff360208401614fb2565b60006020828403121561504a57600080fd5b614d0b82614fb2565b8681526001600160a01b038681166020830152851660408201526060810184905260c06080820181905260009061508c90830185614ec3565b82810360a084015261509e8185614ec3565b9998505050505050505050565b6000815180845260208085019450848260051b860182860160005b858110156151a25783830389528151610100815185528682015181888701526150f182870182614ec3565b9150506040808301518683038288015261510b8382614ec3565b92505050606080830151868303828801526151268382614ec3565b92505050608080830151868303828801526151418382614ec3565b9250505060a08083015161515f828801826001600160a01b03169052565b505060c0828101516001600160a01b03169086015260e0918201518582039286019290925261518e8183614ec3565b9a87019a94505050908401906001016150c6565b5090979650505050505050565b602081526000614d0b60208301846150ab565b634e487b7160e01b600052604160045260246000fd5b600082601f8301126151e957600080fd5b813567ffffffffffffffff80821115615204576152046151c2565b604051601f8301601f19908116603f0116810190828211818310171561522c5761522c6151c2565b8160405283815286602085880101111561524557600080fd5b836020870160208301376000602085830101528094505050505092915050565b6000806000806080858703121561527b57600080fd5b843567ffffffffffffffff8082111561529357600080fd5b61529f888389016151d8565b95506152ad60208801614fb2565b945060408701359150808211156152c357600080fd5b506152d0878288016151d8565b949793965093946060013593505050565b602081526000614d0b6020830184614eef565b600080600080600080600060e0888a03121561530f57600080fd5b873567ffffffffffffffff8082111561532757600080fd5b6153338b838c016151d8565b985060208a013591508082111561534957600080fd5b6153558b838c016151d8565b975060408a013591508082111561536b57600080fd5b6153778b838c016151d8565b965060608a013591508082111561538d57600080fd5b6153998b838c016151d8565b95506153a760808b01614fb2565b94506153b560a08b01614fb2565b935060c08a01359150808211156153cb57600080fd5b506153d88a828b016151d8565b91505092959891949750929550565b60006020808301818452808551808352604092508286019150828160051b87010184880160005b8381101561549957888303603f19018552815180518452878101516001600160a01b03908116898601528782015116878501526060808201519085015260808082015160c0828701819052919061546783880182614ec3565b9250505060a080830151925085820381870152506154858183614ec3565b96890196945050509086019060010161540e565b509098975050505050505050565b60006101a08251845260208301518160208601526154c782860182614ec3565b915050604083015184820360408601526154e18282614ec3565b915050606083015184820360608601526154fb8282614ec3565b9150506080830151608085015260a083015160a085015260c083015161552c60c08601826001600160a01b03169052565b5060e083015160e0850152610100808401518583038287015261554f8382614ec3565b92505050610120808401518583038287015261556b8382614ec3565b9250505061014080840151858303828701526155878382614ec3565b92505050610160808401516155a6828701826001600160a01b03169052565b505061018080840151858303828701526155c083826150ab565b9695505050505050565b6000602080830181845280855180835260408601915060408160051b870101925083870160005b82811015614fa557603f1988860301845261560d8583516154a7565b945092850192908501906001016155f1565b600080600080600080600080610100898b03121561563c57600080fd5b883567ffffffffffffffff8082111561565457600080fd5b6156608c838d016151d8565b995061566e60208c01614fb2565b985060408b0135975060608b013591508082111561568b57600080fd5b6156978c838d016151d8565b965060808b0135955060a08b01359150808211156156b457600080fd5b6156c08c838d016151d8565b945060c08b01359150808211156156d657600080fd5b506156e38b828c016151d8565b9250506156f260e08a01614fb2565b90509295985092959890939650565b600061012082518452602083015181602086015261572182860182614ec3565b915050604083015161573e60408601826001600160a01b03169052565b5060608301516060850152608083015184820360808601526157608282614ec3565b91505060a083015160a085015260c083015184820360c08601526157848282614ec3565b91505060e083015184820360e086015261579e8282614ec3565b915050610100808401516157bc828701826001600160a01b03169052565b5090949350505050565b602081526000614d0b6020830184615701565b6000602080830181845280855180835260408601915060408160051b870101925083870160005b82811015614fa557603f1988860301845261581c858351615701565b94509285019290850190600101615800565b6000806000806000806000806000806101408b8d03121561584e57600080fd5b8a3567ffffffffffffffff8082111561586657600080fd5b6158728e838f016151d8565b9b5060208d013591508082111561588857600080fd5b6158948e838f016151d8565b9a5060408d01359150808211156158aa57600080fd5b6158b68e838f016151d8565b995060608d0135985060808d013597506158d260a08e01614fb2565b965060c08d0135955060e08d01359150808211156158ef57600080fd5b6158fb8e838f016151d8565b94506101008d013591508082111561591257600080fd5b61591e8e838f016151d8565b93506101208d013591508082111561593557600080fd5b506159428d828e016151d8565b9150509295989b9194979a5092959850565b602081526000614d0b60208301846154a7565b60208082526030908201527f4f6e6c7920737570657241646d696e20686173207065726d697373696f6e207460408201526f37903237903a3430ba1030b1ba34b7b760811b606082015260800190565b634e487b7160e01b600052603260045260246000fd5b600181811c908216806159e157607f821691505b602082108103615a0157634e487b7160e01b600052602260045260246000fd5b50919050565b634e487b7160e01b600052601160045260246000fd5b600060018201615a2f57615a2f615a07565b5060010190565b808201808211156105cf576105cf615a07565b601f821115610b8e57600081815260208120601f850160051c81016020861015615a705750805b601f850160051c820191505b81811015615a8f57828155600101615a7c565b505050505050565b815167ffffffffffffffff811115615ab157615ab16151c2565b615ac581615abf84546159cd565b84615a49565b602080601f831160018114615afa5760008415615ae25750858301515b600019600386901b1c1916600185901b178555615a8f565b600085815260208120601f198616915b82811015615b2957888601518255948401946001909101908401615b0a565b5085821015615b475787850151600019600388901b60f8161c191681555b5050505050600190811b01905550565b60208082526010908201526f4e6f206b65797320696e20617272617960801b604082015260600190565b60609190911b6bffffffffffffffffffffffff1916815260140190565b818103818111156105cf576105cf615a07565b634e487b7160e01b600052603160045260246000fd5b60208082526021908201527f5468697320686f73706974616c206973207265616c6c792065786973697421216040820152600160fd1b606082015260800190565b60208082526018908201527f54686973204163636f756e742069732041646d696e2121200000000000000000604082015260600190565b7f416363657373436f6e74726f6c3a206163636f756e7420000000000000000000815260008351615c77816017850160208801614e9f565b7001034b99036b4b9b9b4b733903937b6329607d1b6017918401918201528351615ca8816028840160208801614e9f565b01602801949350505050565b602081526000614d0b6020830184614ec3565b80820281158282048414176105cf576105cf615a07565b600081615ced57615ced615a07565b50600019019056fe72606200fac42b7dc86b75901d61ecfab2a4a1a6eded478b97a428094891abed0af1dac7dea2fd7f7738119cec7df099dfad49aa9d2e7d17ba6b60f63ae7411fa49807205ce4d355092ef5a8a18f56e8913cf4a201fbe287825b095693c21775c8f5b4140cca307cd927e59cbeea8291bffeee228fc677f0fa059aef7b4dd8d5a26469706673582212205fac4f7d99cbe821f1e4c952a4ba03c89ec89fb143793efc8ec02566a2d8944864736f6c63430008130033",
  "immutableReferences": {},
  "source": "// SPDX-License-Identifier: GPL-3.0\r\npragma solidity ^0.8.4;\r\n\r\n\r\nimport \"@openzeppelin/contracts/access/AccessControl.sol\";\r\n\r\ncontract MedRecChain is AccessControl {\r\n\r\n    //ROLES\r\n    bytes32 public constant ADMIN_ROLE= keccak256(\"ADMIN_ROLE\");\r\n    bytes32 public constant HOSPITAL_ROLE= keccak256(\"HOSPITAL_ROLE\");\r\n    bytes32 public constant DOCTOR_ROLE= keccak256(\"DOCTOR_ROLE\");\r\n    bytes32 public constant PATIENT_ROLE= keccak256(\"PATIENT_ROLE\");\r\n\r\n    \r\n    // Admin refers to government, It hard coded by us.\r\n    address public Admin = 0xC577E31A2A01564b662C57B115C86Af62f7E528A;\r\n    \r\n    // [_patient][_doctor] = bool\r\n    mapping (address=>mapping (address =>bool)) isAuth;\r\n\r\n\r\n    struct Hospital\r\n    {\r\n        uint256 id;\r\n        string name;\r\n        address addr;\r\n        string place;\r\n        uint256 phone;\r\n\r\n        \r\n    }\r\n\r\n    mapping(address=>Hospital) Hospitals;\r\n    address[] public Hospitals_keys;\r\n    \r\n\r\n    struct patient\r\n    {\r\n\r\n        uint256 id;\r\n        string name;\r\n        string email;\r\n        string National_Addr;\r\n        uint256 National_id;\r\n        uint256 age;\r\n        address PatientAddress;\r\n        uint256 phone;\r\n        string Blood_Type;\r\n        string marital_status;\r\n        string gender;\r\n        address hospital_addr;\r\n        \r\n        record[] Records;\r\n        \r\n    }\r\n\r\n    mapping(address=>patient) patients;\r\n    address[] private patients_keys;\r\n\r\n    struct doctor{\r\n\r\n        uint256 id;\r\n        string name;\r\n        address hospital_addr;\r\n        uint256 phone;\r\n        string email;\r\n        uint256 age;\r\n        string place;\r\n        string Medical_specialty;\r\n        address docAddress;\r\n    \r\n    }\r\n\r\n    mapping(address=>doctor) doctors;\r\n    address[] private doctors_keys;\r\n\r\n\r\n    struct record {\r\n\r\n        uint Medical_id;\r\n\r\n        string category;\r\n        string patient_name;\r\n        string rec_name;\r\n        string Created_at;\r\n        address patient_addr;\r\n        address doctor_addr;\r\n        string hex_ipfs;  // file, image date\r\n    }\r\n\r\n \r\n    // for Ids\r\n    uint256 Hospital_index;\r\n    uint256 Doctor_index;\r\n    uint256 Patient_index;\r\n    uint256 Record_index;\r\n    uint256 Request_index;\r\n     \r\n\r\n    \r\n    constructor() {\r\n         _setupRole(ADMIN_ROLE,Admin);\r\n    }\r\n\r\n    // function to know who logg in\r\n     function logg() public view returns(uint  role){\r\n        if(hasRole(ADMIN_ROLE, msg.sender))\r\n        {return 1;}\r\n        else if(hasRole(HOSPITAL_ROLE, msg.sender))\r\n        {return 2;} \r\n        else if(hasRole(DOCTOR_ROLE, msg.sender))\r\n        {return 3;} \r\n        else if(hasRole(PATIENT_ROLE, msg.sender))\r\n        {return 4;}\r\n        else\r\n        {return 0;}\r\n     \r\n    }\r\n\r\n    //To check the role of who deploye the contract. \r\n    modifier onlyAdmin(){ \r\n        require(hasRole(ADMIN_ROLE, msg.sender),\"Only superAdmin has permission to do that action\");\r\n        _;\r\n    }\r\n\r\n    modifier onlyHospital(){\r\n        require(hasRole(HOSPITAL_ROLE, msg.sender), \"This account is not Hospital\");\r\n        _;\r\n    }\r\n    modifier onlydoctors(){\r\n        require(hasRole(DOCTOR_ROLE, msg.sender), \"This account is not Doctor\");\r\n        _;\r\n    }\r\n    modifier onlypatient(){\r\n         require(hasRole(PATIENT_ROLE, msg.sender), \"This account is not patient\");\r\n        _;\r\n    \r\n    }\r\n\r\n//////////////////////////////////////\r\n\r\n    //Tasks done by Admin (defult exisit)\r\n    //1. add hospital\r\n    //2. delete hospital\r\n    //3. add doctor\r\n    //4. delete doctor\r\n    //5. see all hospital in system\r\n    //6. see all doctors in system\r\n\r\n\r\n    function addhospital(string memory _name, address _address, string memory _place, uint256 _phone) public onlyAdmin returns(bool success){\r\n        require(!hasRole(HOSPITAL_ROLE, _address), \"This hospital is really exisit!! \");\r\n        require(!hasRole(ADMIN_ROLE, _address), \"This Account is Admin!! \");\r\n        require(!hasRole(DOCTOR_ROLE, _address), \"This Account is Doctor!! \");\r\n        require(!hasRole(PATIENT_ROLE, _address), \"This Account is Patient!! \");\r\n\r\n         _setupRole(HOSPITAL_ROLE, _address);\r\n        Hospital_index= Hospital_index+1;\r\n        Hospitals[_address]=Hospital(Hospital_index, _name, _address, _place, _phone); \r\n        Hospitals_keys.push(_address);\r\n        return true;\r\n    }\r\n\r\n    function removeitem_hos(address _hosAddress ) public  {\r\n    require(Hospitals_keys.length > 0, \"No keys in array\");\r\n        for (uint i = 0; i < Hospitals_keys.length; i++) {\r\n            if (keccak256(abi.encodePacked(Hospitals_keys[i])) == keccak256(abi.encodePacked(_hosAddress))) {\r\n                delete Hospitals_keys[i];\r\n                uint lastIndex =Hospitals_keys.length-1;\r\n                address  lastId = Hospitals_keys[lastIndex];\r\n                Hospitals_keys[i]=lastId;\r\n                Hospitals_keys.pop();\r\n                break;\r\n            }\r\n        }\r\n    }\r\n\r\n    function removehospital(address _address) public onlyAdmin returns(bool success){\r\n        require(hasRole(HOSPITAL_ROLE, _address), \"This hospital is not exisit\");\r\n        _revokeRole(HOSPITAL_ROLE,_address);\r\n        delete Hospitals[_address];\r\n        removeitem_hos(_address);\r\n        return true;\r\n    }\r\n\r\n    function get_all_hospitals() public view onlyAdmin returns(Hospital[] memory){\r\n        Hospital[] memory hos = new Hospital[](Hospitals_keys.length);\r\n        for (uint256 i = 0; i < Hospitals_keys.length; i++) {\r\n            hos[i] = Hospitals[Hospitals_keys[i]];\r\n        }\r\n        return hos;\r\n    }\r\n\r\n  ///////////////\r\n\r\n    function addDoctor(string memory _name, address _hospital_addr, uint256  _phone, string memory _email, uint256  _age, string memory _place, string memory _Medical_specialty, address  _docAddress) public onlyAdmin returns(bool success){\r\n        require(!hasRole(DOCTOR_ROLE, _docAddress), \"This account already a doctor\");\r\n        require(!hasRole(ADMIN_ROLE, _docAddress), \"This Account is Admin!! \");\r\n        require(!hasRole(HOSPITAL_ROLE, _docAddress), \"This Account is Hospital!! \");\r\n        require(!hasRole(PATIENT_ROLE, _docAddress), \"This Account is Patient!! \");\r\n        require(hasRole(HOSPITAL_ROLE, _hospital_addr), \"This hospital is really exisit!! \");\r\n        _setupRole(DOCTOR_ROLE, _docAddress);\r\n        Doctor_index= Doctor_index+1;\r\n        doctors[_docAddress]=doctor(Doctor_index, _name, _hospital_addr, _phone,  _email,  _age,  _place,  _Medical_specialty, _docAddress); \r\n        doctors_keys.push(_docAddress);\r\n        return true;\r\n    }\r\n\r\n\r\n   function removeitem_doc(address _docAddress ) public {\r\n    require(doctors_keys.length > 0, \"No keys in array\");\r\n        for (uint i = 0; i < doctors_keys.length; i++) {\r\n            if (keccak256(abi.encodePacked(doctors_keys[i])) == keccak256(abi.encodePacked(_docAddress))) {\r\n                delete doctors_keys[i];\r\n                uint lastIndex =doctors_keys.length-1;\r\n                address  lastId = doctors_keys[lastIndex];\r\n                doctors_keys[i]=lastId;\r\n                doctors_keys.pop();\r\n                break;\r\n            }\r\n        }\r\n    }\r\n    \r\n    function removeDoctor(address _docAddress) public onlyAdmin returns(bool success){\r\n        require(hasRole(DOCTOR_ROLE, _docAddress),\"This account not exisit\");\r\n        delete doctors[_docAddress];\r\n        _revokeRole(DOCTOR_ROLE,_docAddress);\r\n        removeitem_doc(_docAddress);\r\n        return true;\r\n    }\r\n\r\n    function get_all_Doctors() public view  returns(doctor[] memory){\r\n        doctor[] memory doc = new doctor[](doctors_keys.length);\r\n        for (uint256 i = 0; i < doctors_keys.length; i++) {\r\n            doc[i] = doctors[doctors_keys[i]];\r\n        }\r\n        return doc;\r\n    }\r\n\r\n    function get_record_number() public view  returns(uint256 i){\r\n        uint256 total;\r\n        for (uint256 a = 0; a < patients_keys.length; a++) {\r\n        total += patients[patients_keys[a]].Records.length;\r\n    }\r\n    return total;\r\n    }\r\n\r\n///////////////////////////////////////////\r\n\r\n    // Tasks done by Hospitals (sign in )\r\n    //1. add patient\r\n    //2.See his profile\r\n    //3.see all patients\r\n   \r\n\r\n   function get_hospita_by_address(address _addr) view public returns(Hospital memory) {\r\n    return (Hospitals[_addr]);\r\n    }\r\n\r\n    \r\n       \r\n\r\n\r\n    function addPatient(string memory _name, string memory _email, string memory _National_Addr, uint256  _National_id, uint256  _age, address _PatientAddress, uint256 _phone, string memory _Blood_Type, string memory _marital_status, string memory _gender) public onlyHospital returns(bool success){\r\n        require(!hasRole(PATIENT_ROLE, _PatientAddress), \"This account already a patient\");\r\n        require(!hasRole(ADMIN_ROLE, _PatientAddress), \"This Account is Admin!! \");\r\n        require(!hasRole(DOCTOR_ROLE, _PatientAddress), \"This Account is Doctor!! \");\r\n        require(!hasRole(HOSPITAL_ROLE, _PatientAddress), \"This Account is Hospital!! \");\r\n        _setupRole(PATIENT_ROLE, _PatientAddress);\r\n        Patient_index= Patient_index+1;\r\n        patients[_PatientAddress].id=Patient_index;\r\n        patients[_PatientAddress].PatientAddress=_PatientAddress;\r\n        patients[_PatientAddress].name=_name;\r\n        patients[_PatientAddress].email=_email;\r\n        patients[_PatientAddress].National_Addr=_National_Addr;\r\n        patients[_PatientAddress].National_id=_National_id;\r\n        patients[_PatientAddress].age=_age;\r\n        patients[_PatientAddress].phone=_phone;\r\n        patients[_PatientAddress].Blood_Type=_Blood_Type;\r\n        patients[_PatientAddress].marital_status=_marital_status;\r\n        patients[_PatientAddress].gender=_gender;\r\n        patients[_PatientAddress].hospital_addr=msg.sender;\r\n\r\n        patients_keys.push(_PatientAddress);\r\n        return true;\r\n    }\r\n\r\n    function get_all_Patients() public view returns(patient[] memory){\r\n        patient[] memory pat = new patient[](patients_keys.length);\r\n        for (uint256 i = 0; i < patients_keys.length; i++) {\r\n            pat[i] = patients[patients_keys[i]];\r\n        }\r\n        return pat;\r\n    }\r\n\r\n//////////////////////////////////////////////\r\n\r\n    // Tasks done by Doctor (sign in)\r\n\r\n    // 1. send request to patient\r\n    // 2. see record (has be accepted)\r\n    // 3. add record (has be accepted)\r\n    // 4.view his profile info\r\n    // 5.show requests by id & show their status\r\n\r\n\r\n    function get_doctor_by_address(address _addr) view public  returns(doctor memory) {\r\n    return (doctors[_addr]);\r\n    }\r\n\r\n\r\n    \r\n    struct request\r\n    {\r\n        uint id;\r\n        address from_doctor_addr;\r\n        address to_patients_addr;\r\n        uint256 date;\r\n        string patient_name;\r\n        string doctor_name;\r\n    }\r\n      \r\n    request[] public requests;\r\n\r\n    function checkRequestExists(address _from_doctor_addr ,address _to_patients_addr) public view returns (bool) {\r\n        for (uint i = 0; i < requests.length; i++) {\r\n            if ( ((requests[i].from_doctor_addr) == (_from_doctor_addr)) && ((requests[i].to_patients_addr)==(_to_patients_addr)) ) {\r\n                return true;\r\n                }\r\n        }\r\n    return false;\r\n    }\r\n\r\n\r\n\r\n    function send_request_Access(address _patient,address _doctor) public returns(bool success) {\r\n        require(hasRole(PATIENT_ROLE, _patient), \"The person you are requesting access to is not a Patient\");\r\n        require(!checkRequestExists(_doctor,_patient),\"already send a request\");\r\n        Request_index=Request_index+1;\r\n        patient memory pati = get_patient_by_address(_patient);\r\n        doctor memory doc = get_doctor_by_address(_doctor);\r\n        requests.push(request(Request_index,_doctor,_patient,block.timestamp,pati.name,doc.name));\r\n        return true;\r\n    }\r\n\r\n     function get_all_requests() view public returns(request[] memory) {\r\n        //IN JS convert a Unix timestamp to a human-readable\r\n        // const unixTimestamp = date.currentTimestamp();\r\n        // const date = new Date(unixTimestamp * 1000);\r\n        // const humanReadableDate = date.toLocaleString();\r\n\r\n        // Also, be handled, cause it show all requests at blockchain NOT whose patient's requests \r\n        // it will be solved by check\r\n        // for (i=0 ; i<requests.lenght;i++ ){\r\n        // \"if (requests.to_patients_addr == accounts[0]){....}\" \r\n        //}\r\n        return (requests);\r\n\r\n    }\r\n\r\n        \r\n    function addRecord( string memory _category, string  memory _patient_name, string memory _rec_name, string  memory _Created_at, address _patientAddr, address _doctor_addr, string memory _hex_ipfs) onlydoctors public returns(bool){\r\n        require(hasRole(PATIENT_ROLE, _patientAddr),\"This patients is not exisit\");\r\n        require(isAuth[_patientAddr][msg.sender],\"No permission to add Records\");\r\n        require(_doctor_addr == msg.sender, \"No permission to this Doctor\" );\r\n        Record_index=Record_index+1;\r\n        patients[_patientAddr].Records.push(record(Record_index, _category, _patient_name, _rec_name, _Created_at, _patientAddr, _doctor_addr, _hex_ipfs));\r\n        return true;\r\n    }\r\n\r\n    \r\n\r\n\r\n    function See_Record_for_Doctor(address _patientAddr)  view public returns(record[] memory){\r\n       require(isAuth[_patientAddr][msg.sender],\"No permission to get Records\");\r\n        require(hasRole(PATIENT_ROLE, _patientAddr),\"This patients is not exisit\");\r\n        require(patients[_patientAddr].Records.length>0,\"patient record doesn't exist\");\r\n        return (patients[_patientAddr].Records);\r\n\r\n    }\r\n\r\n\r\n\r\n///////////////////////////////////\r\n\r\n    //Tasks done by Patient (sign in)\r\n\r\n    //1.view his all records\r\n    //2.accept request sended by doctor\r\n    //3.rejected request sended by doctor\r\n    //4.give permission to doctor bt himself\r\n    //5.see requestes from doctors\r\n    //6.view his profile info\r\n\r\n\r\n\r\n    function get_patient_by_address(address _addr) view public  returns(patient memory) {\r\n    return (patients[_addr]);\r\n    }\r\n\r\n\r\n\r\n     function See_Record_for_Patient()  view public returns(record[] memory){\r\n        require(patients[msg.sender].Records.length > 0,\"patient record doesn't exist\");\r\n        return (patients[msg.sender].Records);\r\n\r\n    }\r\n\r\n    function approveAccess(address _doctor) onlypatient  public {   \r\n        require(hasRole(DOCTOR_ROLE, _doctor), \"this acount is not a doctor \");\r\n        require((isAuth[msg.sender][_doctor]) == false, \"This Request alraedy been Approved!! \");\r\n        isAuth[msg.sender][_doctor] = true;\r\n    }\r\n\r\n    function check_approve_Access(address _doctor, address _patient) view onlydoctors public returns(bool ) {\r\n            return(isAuth[_patient][_doctor]);\r\n        }\r\n\r\n\r\n   function DeleteRequest(address doc, address pat ) public  {\r\n    require(requests.length > 0, \"No keys in array\");\r\n        for (uint i = 0; i < requests.length; i++) {\r\n            if( (keccak256(abi.encodePacked(requests[i].from_doctor_addr)) == keccak256(abi.encodePacked(doc))) && (keccak256(abi.encodePacked(requests[i].to_patients_addr)) == keccak256(abi.encodePacked(pat)))) {\r\n                delete requests[i];\r\n                uint lastIndex =requests.length-1;\r\n                request memory lastId = requests[lastIndex];\r\n                requests[i]=lastId;\r\n                requests.pop();\r\n                break;\r\n            }\r\n        }\r\n    }\r\n\r\n\r\n\r\n    function rejectAccess(address _doctor) onlypatient public {\r\n        require(hasRole(DOCTOR_ROLE, _doctor), \"Doctor does not have the doctor role\");\r\n     //   require((isAuth[msg.sender][_doctor]) == true, \"This Request alraedy been Reject!! \");\r\n        isAuth[msg.sender][_doctor] = false;\r\n        DeleteRequest(_doctor,msg.sender);\r\n    }\r\n\r\n   \r\n\r\n}",
  "sourcePath": "G:\\BFCAI\\project\\penultimate-modification\\contracts\\MedRecChain.sol",
  "compiler": {
    "name": "solc",
    "version": "0.8.19+commit.7dd6d404.Emscripten.clang"
  },
  "schemaVersion": "3.4.13",
  "updatedAt": "2023-05-19T16:13:05.550Z",
  "networkType": "ethereum",
  "devdoc": {
    "events": {
      "RoleAdminChanged(bytes32,bytes32,bytes32)": {
        "details": "Emitted when `newAdminRole` is set as ``role``'s admin role, replacing `previousAdminRole` `DEFAULT_ADMIN_ROLE` is the starting admin for all roles, despite {RoleAdminChanged} not being emitted signaling this. _Available since v3.1._"
      },
      "RoleGranted(bytes32,address,address)": {
        "details": "Emitted when `account` is granted `role`. `sender` is the account that originated the contract call, an admin role bearer except when using {AccessControl-_setupRole}."
      },
      "RoleRevoked(bytes32,address,address)": {
        "details": "Emitted when `account` is revoked `role`. `sender` is the account that originated the contract call:   - if using `revokeRole`, it is the admin role bearer   - if using `renounceRole`, it is the role bearer (i.e. `account`)"
      }
    },
    "kind": "dev",
    "methods": {
      "getRoleAdmin(bytes32)": {
        "details": "Returns the admin role that controls `role`. See {grantRole} and {revokeRole}. To change a role's admin, use {_setRoleAdmin}."
      },
      "grantRole(bytes32,address)": {
        "details": "Grants `role` to `account`. If `account` had not been already granted `role`, emits a {RoleGranted} event. Requirements: - the caller must have ``role``'s admin role. May emit a {RoleGranted} event."
      },
      "hasRole(bytes32,address)": {
        "details": "Returns `true` if `account` has been granted `role`."
      },
      "renounceRole(bytes32,address)": {
        "details": "Revokes `role` from the calling account. Roles are often managed via {grantRole} and {revokeRole}: this function's purpose is to provide a mechanism for accounts to lose their privileges if they are compromised (such as when a trusted device is misplaced). If the calling account had been revoked `role`, emits a {RoleRevoked} event. Requirements: - the caller must be `account`. May emit a {RoleRevoked} event."
      },
      "revokeRole(bytes32,address)": {
        "details": "Revokes `role` from `account`. If `account` had been granted `role`, emits a {RoleRevoked} event. Requirements: - the caller must have ``role``'s admin role. May emit a {RoleRevoked} event."
      },
      "supportsInterface(bytes4)": {
        "details": "See {IERC165-supportsInterface}."
      }
    },
    "version": 1
  },
  "userdoc": {
    "kind": "user",
    "methods": {},
    "version": 1
  }
}