{
  "contractName": "MedRecChain",
  "abi": [
    {
      "inputs": [],
      "stateMutability": "nonpayable",
      "type": "constructor"
    },
    {
      "anonymous": false,
      "inputs": [
        {
          "indexed": true,
          "internalType": "bytes32",
          "name": "role",
          "type": "bytes32"
        },
        {
          "indexed": true,
          "internalType": "bytes32",
          "name": "previousAdminRole",
          "type": "bytes32"
        },
        {
          "indexed": true,
          "internalType": "bytes32",
          "name": "newAdminRole",
          "type": "bytes32"
        }
      ],
      "name": "RoleAdminChanged",
      "type": "event"
    },
    {
      "anonymous": false,
      "inputs": [
        {
          "indexed": true,
          "internalType": "bytes32",
          "name": "role",
          "type": "bytes32"
        },
        {
          "indexed": true,
          "internalType": "address",
          "name": "account",
          "type": "address"
        },
        {
          "indexed": true,
          "internalType": "address",
          "name": "sender",
          "type": "address"
        }
      ],
      "name": "RoleGranted",
      "type": "event"
    },
    {
      "anonymous": false,
      "inputs": [
        {
          "indexed": true,
          "internalType": "bytes32",
          "name": "role",
          "type": "bytes32"
        },
        {
          "indexed": true,
          "internalType": "address",
          "name": "account",
          "type": "address"
        },
        {
          "indexed": true,
          "internalType": "address",
          "name": "sender",
          "type": "address"
        }
      ],
      "name": "RoleRevoked",
      "type": "event"
    },
    {
      "inputs": [],
      "name": "ADMIN_ROLE",
      "outputs": [
        {
          "internalType": "bytes32",
          "name": "",
          "type": "bytes32"
        }
      ],
      "stateMutability": "view",
      "type": "function",
      "constant": true
    },
    {
      "inputs": [],
      "name": "Admin",
      "outputs": [
        {
          "internalType": "address",
          "name": "",
          "type": "address"
        }
      ],
      "stateMutability": "view",
      "type": "function",
      "constant": true
    },
    {
      "inputs": [],
      "name": "DEFAULT_ADMIN_ROLE",
      "outputs": [
        {
          "internalType": "bytes32",
          "name": "",
          "type": "bytes32"
        }
      ],
      "stateMutability": "view",
      "type": "function",
      "constant": true
    },
    {
      "inputs": [],
      "name": "DOCTOR_ROLE",
      "outputs": [
        {
          "internalType": "bytes32",
          "name": "",
          "type": "bytes32"
        }
      ],
      "stateMutability": "view",
      "type": "function",
      "constant": true
    },
    {
      "inputs": [],
      "name": "HOSPITAL_ROLE",
      "outputs": [
        {
          "internalType": "bytes32",
          "name": "",
          "type": "bytes32"
        }
      ],
      "stateMutability": "view",
      "type": "function",
      "constant": true
    },
    {
      "inputs": [
        {
          "internalType": "uint256",
          "name": "",
          "type": "uint256"
        }
      ],
      "name": "Hospitals_keys",
      "outputs": [
        {
          "internalType": "address",
          "name": "",
          "type": "address"
        }
      ],
      "stateMutability": "view",
      "type": "function",
      "constant": true
    },
    {
      "inputs": [],
      "name": "PATIENT_ROLE",
      "outputs": [
        {
          "internalType": "bytes32",
          "name": "",
          "type": "bytes32"
        }
      ],
      "stateMutability": "view",
      "type": "function",
      "constant": true
    },
    {
      "inputs": [
        {
          "internalType": "bytes32",
          "name": "role",
          "type": "bytes32"
        }
      ],
      "name": "getRoleAdmin",
      "outputs": [
        {
          "internalType": "bytes32",
          "name": "",
          "type": "bytes32"
        }
      ],
      "stateMutability": "view",
      "type": "function",
      "constant": true
    },
    {
      "inputs": [
        {
          "internalType": "bytes32",
          "name": "role",
          "type": "bytes32"
        },
        {
          "internalType": "address",
          "name": "account",
          "type": "address"
        }
      ],
      "name": "grantRole",
      "outputs": [],
      "stateMutability": "nonpayable",
      "type": "function"
    },
    {
      "inputs": [
        {
          "internalType": "bytes32",
          "name": "role",
          "type": "bytes32"
        },
        {
          "internalType": "address",
          "name": "account",
          "type": "address"
        }
      ],
      "name": "hasRole",
      "outputs": [
        {
          "internalType": "bool",
          "name": "",
          "type": "bool"
        }
      ],
      "stateMutability": "view",
      "type": "function",
      "constant": true
    },
    {
      "inputs": [
        {
          "internalType": "bytes32",
          "name": "role",
          "type": "bytes32"
        },
        {
          "internalType": "address",
          "name": "account",
          "type": "address"
        }
      ],
      "name": "renounceRole",
      "outputs": [],
      "stateMutability": "nonpayable",
      "type": "function"
    },
    {
      "inputs": [
        {
          "internalType": "uint256",
          "name": "",
          "type": "uint256"
        }
      ],
      "name": "requests",
      "outputs": [
        {
          "internalType": "uint256",
          "name": "id",
          "type": "uint256"
        },
        {
          "internalType": "address",
          "name": "from_doctor_addr",
          "type": "address"
        },
        {
          "internalType": "address",
          "name": "to_patients_addr",
          "type": "address"
        },
        {
          "internalType": "uint256",
          "name": "date",
          "type": "uint256"
        },
        {
          "internalType": "string",
          "name": "patient_name",
          "type": "string"
        },
        {
          "internalType": "string",
          "name": "doctor_name",
          "type": "string"
        }
      ],
      "stateMutability": "view",
      "type": "function",
      "constant": true
    },
    {
      "inputs": [
        {
          "internalType": "bytes32",
          "name": "role",
          "type": "bytes32"
        },
        {
          "internalType": "address",
          "name": "account",
          "type": "address"
        }
      ],
      "name": "revokeRole",
      "outputs": [],
      "stateMutability": "nonpayable",
      "type": "function"
    },
    {
      "inputs": [
        {
          "internalType": "bytes4",
          "name": "interfaceId",
          "type": "bytes4"
        }
      ],
      "name": "supportsInterface",
      "outputs": [
        {
          "internalType": "bool",
          "name": "",
          "type": "bool"
        }
      ],
      "stateMutability": "view",
      "type": "function",
      "constant": true
    },
    {
      "inputs": [],
      "name": "logg",
      "outputs": [
        {
          "internalType": "uint256",
          "name": "role",
          "type": "uint256"
        }
      ],
      "stateMutability": "view",
      "type": "function",
      "constant": true
    },
    {
      "inputs": [
        {
          "internalType": "string",
          "name": "_name",
          "type": "string"
        },
        {
          "internalType": "address",
          "name": "_address",
          "type": "address"
        },
        {
          "internalType": "string",
          "name": "_place",
          "type": "string"
        },
        {
          "internalType": "uint256",
          "name": "_phone",
          "type": "uint256"
        }
      ],
      "name": "addhospital",
      "outputs": [
        {
          "internalType": "bool",
          "name": "success",
          "type": "bool"
        }
      ],
      "stateMutability": "nonpayable",
      "type": "function"
    },
    {
      "inputs": [
        {
          "internalType": "address",
          "name": "_hosAddress",
          "type": "address"
        }
      ],
      "name": "removeitem_hos",
      "outputs": [],
      "stateMutability": "nonpayable",
      "type": "function"
    },
    {
      "inputs": [
        {
          "internalType": "address",
          "name": "_address",
          "type": "address"
        }
      ],
      "name": "removehospital",
      "outputs": [
        {
          "internalType": "bool",
          "name": "success",
          "type": "bool"
        }
      ],
      "stateMutability": "nonpayable",
      "type": "function"
    },
    {
      "inputs": [],
      "name": "get_all_hospitals",
      "outputs": [
        {
          "components": [
            {
              "internalType": "uint256",
              "name": "id",
              "type": "uint256"
            },
            {
              "internalType": "string",
              "name": "name",
              "type": "string"
            },
            {
              "internalType": "address",
              "name": "addr",
              "type": "address"
            },
            {
              "internalType": "string",
              "name": "place",
              "type": "string"
            },
            {
              "internalType": "uint256",
              "name": "phone",
              "type": "uint256"
            }
          ],
          "internalType": "struct MedRecChain.Hospital[]",
          "name": "",
          "type": "tuple[]"
        }
      ],
      "stateMutability": "view",
      "type": "function",
      "constant": true
    },
    {
      "inputs": [
        {
          "internalType": "string",
          "name": "_name",
          "type": "string"
        },
        {
          "internalType": "address",
          "name": "_hospital_addr",
          "type": "address"
        },
        {
          "internalType": "uint256",
          "name": "_phone",
          "type": "uint256"
        },
        {
          "internalType": "string",
          "name": "_email",
          "type": "string"
        },
        {
          "internalType": "uint256",
          "name": "_age",
          "type": "uint256"
        },
        {
          "internalType": "string",
          "name": "_place",
          "type": "string"
        },
        {
          "internalType": "string",
          "name": "_Medical_specialty",
          "type": "string"
        },
        {
          "internalType": "address",
          "name": "_docAddress",
          "type": "address"
        }
      ],
      "name": "addDoctor",
      "outputs": [
        {
          "internalType": "bool",
          "name": "success",
          "type": "bool"
        }
      ],
      "stateMutability": "nonpayable",
      "type": "function"
    },
    {
      "inputs": [
        {
          "internalType": "address",
          "name": "_docAddress",
          "type": "address"
        }
      ],
      "name": "removeitem_doc",
      "outputs": [],
      "stateMutability": "nonpayable",
      "type": "function"
    },
    {
      "inputs": [
        {
          "internalType": "address",
          "name": "_docAddress",
          "type": "address"
        }
      ],
      "name": "removeDoctor",
      "outputs": [
        {
          "internalType": "bool",
          "name": "success",
          "type": "bool"
        }
      ],
      "stateMutability": "nonpayable",
      "type": "function"
    },
    {
      "inputs": [],
      "name": "get_all_Doctors",
      "outputs": [
        {
          "components": [
            {
              "internalType": "uint256",
              "name": "id",
              "type": "uint256"
            },
            {
              "internalType": "string",
              "name": "name",
              "type": "string"
            },
            {
              "internalType": "address",
              "name": "hospital_addr",
              "type": "address"
            },
            {
              "internalType": "uint256",
              "name": "phone",
              "type": "uint256"
            },
            {
              "internalType": "string",
              "name": "email",
              "type": "string"
            },
            {
              "internalType": "uint256",
              "name": "age",
              "type": "uint256"
            },
            {
              "internalType": "string",
              "name": "place",
              "type": "string"
            },
            {
              "internalType": "string",
              "name": "Medical_specialty",
              "type": "string"
            },
            {
              "internalType": "address",
              "name": "docAddress",
              "type": "address"
            }
          ],
          "internalType": "struct MedRecChain.doctor[]",
          "name": "",
          "type": "tuple[]"
        }
      ],
      "stateMutability": "view",
      "type": "function",
      "constant": true
    },
    {
      "inputs": [],
      "name": "get_record_number",
      "outputs": [
        {
          "internalType": "uint256",
          "name": "i",
          "type": "uint256"
        }
      ],
      "stateMutability": "view",
      "type": "function",
      "constant": true
    },
    {
      "inputs": [
        {
          "internalType": "address",
          "name": "_addr",
          "type": "address"
        }
      ],
      "name": "get_hospita_by_address",
      "outputs": [
        {
          "components": [
            {
              "internalType": "uint256",
              "name": "id",
              "type": "uint256"
            },
            {
              "internalType": "string",
              "name": "name",
              "type": "string"
            },
            {
              "internalType": "address",
              "name": "addr",
              "type": "address"
            },
            {
              "internalType": "string",
              "name": "place",
              "type": "string"
            },
            {
              "internalType": "uint256",
              "name": "phone",
              "type": "uint256"
            }
          ],
          "internalType": "struct MedRecChain.Hospital",
          "name": "",
          "type": "tuple"
        }
      ],
      "stateMutability": "view",
      "type": "function",
      "constant": true
    },
    {
      "inputs": [
        {
          "internalType": "string",
          "name": "_name",
          "type": "string"
        },
        {
          "internalType": "string",
          "name": "_email",
          "type": "string"
        },
        {
          "internalType": "string",
          "name": "_National_Addr",
          "type": "string"
        },
        {
          "internalType": "uint256",
          "name": "_National_id",
          "type": "uint256"
        },
        {
          "internalType": "uint256",
          "name": "_age",
          "type": "uint256"
        },
        {
          "internalType": "address",
          "name": "_PatientAddress",
          "type": "address"
        },
        {
          "internalType": "uint256",
          "name": "_phone",
          "type": "uint256"
        },
        {
          "internalType": "string",
          "name": "_Blood_Type",
          "type": "string"
        },
        {
          "internalType": "string",
          "name": "_marital_status",
          "type": "string"
        },
        {
          "internalType": "string",
          "name": "_gender",
          "type": "string"
        }
      ],
      "name": "addPatient",
      "outputs": [
        {
          "internalType": "bool",
          "name": "success",
          "type": "bool"
        }
      ],
      "stateMutability": "nonpayable",
      "type": "function"
    },
    {
      "inputs": [],
      "name": "get_all_Patients",
      "outputs": [
        {
          "components": [
            {
              "internalType": "uint256",
              "name": "id",
              "type": "uint256"
            },
            {
              "internalType": "string",
              "name": "name",
              "type": "string"
            },
            {
              "internalType": "string",
              "name": "email",
              "type": "string"
            },
            {
              "internalType": "string",
              "name": "National_Addr",
              "type": "string"
            },
            {
              "internalType": "uint256",
              "name": "National_id",
              "type": "uint256"
            },
            {
              "internalType": "uint256",
              "name": "age",
              "type": "uint256"
            },
            {
              "internalType": "address",
              "name": "PatientAddress",
              "type": "address"
            },
            {
              "internalType": "uint256",
              "name": "phone",
              "type": "uint256"
            },
            {
              "internalType": "string",
              "name": "Blood_Type",
              "type": "string"
            },
            {
              "internalType": "string",
              "name": "marital_status",
              "type": "string"
            },
            {
              "internalType": "string",
              "name": "gender",
              "type": "string"
            },
            {
              "internalType": "address",
              "name": "hospital_addr",
              "type": "address"
            },
            {
              "components": [
                {
                  "internalType": "uint256",
                  "name": "Medical_id",
                  "type": "uint256"
                },
                {
                  "internalType": "string",
                  "name": "category",
                  "type": "string"
                },
                {
                  "internalType": "string",
                  "name": "patient_name",
                  "type": "string"
                },
                {
                  "internalType": "string",
                  "name": "rec_name",
                  "type": "string"
                },
                {
                  "internalType": "string",
                  "name": "Created_at",
                  "type": "string"
                },
                {
                  "internalType": "address",
                  "name": "patient_addr",
                  "type": "address"
                },
                {
                  "internalType": "address",
                  "name": "doctor_addr",
                  "type": "address"
                },
                {
                  "internalType": "string",
                  "name": "hex_ipfs",
                  "type": "string"
                },
                {
                  "internalType": "string",
                  "name": "notes",
                  "type": "string"
                }
              ],
              "internalType": "struct MedRecChain.record[]",
              "name": "Records",
              "type": "tuple[]"
            }
          ],
          "internalType": "struct MedRecChain.patient[]",
          "name": "",
          "type": "tuple[]"
        }
      ],
      "stateMutability": "view",
      "type": "function",
      "constant": true
    },
    {
      "inputs": [
        {
          "internalType": "address",
          "name": "_addr",
          "type": "address"
        }
      ],
      "name": "get_doctor_by_address",
      "outputs": [
        {
          "components": [
            {
              "internalType": "uint256",
              "name": "id",
              "type": "uint256"
            },
            {
              "internalType": "string",
              "name": "name",
              "type": "string"
            },
            {
              "internalType": "address",
              "name": "hospital_addr",
              "type": "address"
            },
            {
              "internalType": "uint256",
              "name": "phone",
              "type": "uint256"
            },
            {
              "internalType": "string",
              "name": "email",
              "type": "string"
            },
            {
              "internalType": "uint256",
              "name": "age",
              "type": "uint256"
            },
            {
              "internalType": "string",
              "name": "place",
              "type": "string"
            },
            {
              "internalType": "string",
              "name": "Medical_specialty",
              "type": "string"
            },
            {
              "internalType": "address",
              "name": "docAddress",
              "type": "address"
            }
          ],
          "internalType": "struct MedRecChain.doctor",
          "name": "",
          "type": "tuple"
        }
      ],
      "stateMutability": "view",
      "type": "function",
      "constant": true
    },
    {
      "inputs": [
        {
          "internalType": "address",
          "name": "_from_doctor_addr",
          "type": "address"
        },
        {
          "internalType": "address",
          "name": "_to_patients_addr",
          "type": "address"
        }
      ],
      "name": "checkRequestExists",
      "outputs": [
        {
          "internalType": "bool",
          "name": "",
          "type": "bool"
        }
      ],
      "stateMutability": "view",
      "type": "function",
      "constant": true
    },
    {
      "inputs": [
        {
          "internalType": "address",
          "name": "_patient",
          "type": "address"
        },
        {
          "internalType": "address",
          "name": "_doctor",
          "type": "address"
        }
      ],
      "name": "send_request_Access",
      "outputs": [
        {
          "internalType": "bool",
          "name": "success",
          "type": "bool"
        }
      ],
      "stateMutability": "nonpayable",
      "type": "function"
    },
    {
      "inputs": [],
      "name": "get_all_requests",
      "outputs": [
        {
          "components": [
            {
              "internalType": "uint256",
              "name": "id",
              "type": "uint256"
            },
            {
              "internalType": "address",
              "name": "from_doctor_addr",
              "type": "address"
            },
            {
              "internalType": "address",
              "name": "to_patients_addr",
              "type": "address"
            },
            {
              "internalType": "uint256",
              "name": "date",
              "type": "uint256"
            },
            {
              "internalType": "string",
              "name": "patient_name",
              "type": "string"
            },
            {
              "internalType": "string",
              "name": "doctor_name",
              "type": "string"
            }
          ],
          "internalType": "struct MedRecChain.request[]",
          "name": "",
          "type": "tuple[]"
        }
      ],
      "stateMutability": "view",
      "type": "function",
      "constant": true
    },
    {
      "inputs": [
        {
          "internalType": "string",
          "name": "_category",
          "type": "string"
        },
        {
          "internalType": "string",
          "name": "_patient_name",
          "type": "string"
        },
        {
          "internalType": "string",
          "name": "_rec_name",
          "type": "string"
        },
        {
          "internalType": "string",
          "name": "_Created_at",
          "type": "string"
        },
        {
          "internalType": "address",
          "name": "_patientAddr",
          "type": "address"
        },
        {
          "internalType": "address",
          "name": "_doctor_addr",
          "type": "address"
        },
        {
          "internalType": "string",
          "name": "_hex_ipfs",
          "type": "string"
        },
        {
          "internalType": "string",
          "name": "_notes",
          "type": "string"
        }
      ],
      "name": "addRecord",
      "outputs": [
        {
          "internalType": "bool",
          "name": "",
          "type": "bool"
        }
      ],
      "stateMutability": "nonpayable",
      "type": "function"
    },
    {
      "inputs": [
        {
          "internalType": "address",
          "name": "_addr",
          "type": "address"
        }
      ],
      "name": "get_patient_by_address",
      "outputs": [
        {
          "components": [
            {
              "internalType": "uint256",
              "name": "id",
              "type": "uint256"
            },
            {
              "internalType": "string",
              "name": "name",
              "type": "string"
            },
            {
              "internalType": "string",
              "name": "email",
              "type": "string"
            },
            {
              "internalType": "string",
              "name": "National_Addr",
              "type": "string"
            },
            {
              "internalType": "uint256",
              "name": "National_id",
              "type": "uint256"
            },
            {
              "internalType": "uint256",
              "name": "age",
              "type": "uint256"
            },
            {
              "internalType": "address",
              "name": "PatientAddress",
              "type": "address"
            },
            {
              "internalType": "uint256",
              "name": "phone",
              "type": "uint256"
            },
            {
              "internalType": "string",
              "name": "Blood_Type",
              "type": "string"
            },
            {
              "internalType": "string",
              "name": "marital_status",
              "type": "string"
            },
            {
              "internalType": "string",
              "name": "gender",
              "type": "string"
            },
            {
              "internalType": "address",
              "name": "hospital_addr",
              "type": "address"
            },
            {
              "components": [
                {
                  "internalType": "uint256",
                  "name": "Medical_id",
                  "type": "uint256"
                },
                {
                  "internalType": "string",
                  "name": "category",
                  "type": "string"
                },
                {
                  "internalType": "string",
                  "name": "patient_name",
                  "type": "string"
                },
                {
                  "internalType": "string",
                  "name": "rec_name",
                  "type": "string"
                },
                {
                  "internalType": "string",
                  "name": "Created_at",
                  "type": "string"
                },
                {
                  "internalType": "address",
                  "name": "patient_addr",
                  "type": "address"
                },
                {
                  "internalType": "address",
                  "name": "doctor_addr",
                  "type": "address"
                },
                {
                  "internalType": "string",
                  "name": "hex_ipfs",
                  "type": "string"
                },
                {
                  "internalType": "string",
                  "name": "notes",
                  "type": "string"
                }
              ],
              "internalType": "struct MedRecChain.record[]",
              "name": "Records",
              "type": "tuple[]"
            }
          ],
          "internalType": "struct MedRecChain.patient",
          "name": "",
          "type": "tuple"
        }
      ],
      "stateMutability": "view",
      "type": "function",
      "constant": true
    },
    {
      "inputs": [],
      "name": "See_Record_for_Patient",
      "outputs": [
        {
          "components": [
            {
              "internalType": "uint256",
              "name": "Medical_id",
              "type": "uint256"
            },
            {
              "internalType": "string",
              "name": "category",
              "type": "string"
            },
            {
              "internalType": "string",
              "name": "patient_name",
              "type": "string"
            },
            {
              "internalType": "string",
              "name": "rec_name",
              "type": "string"
            },
            {
              "internalType": "string",
              "name": "Created_at",
              "type": "string"
            },
            {
              "internalType": "address",
              "name": "patient_addr",
              "type": "address"
            },
            {
              "internalType": "address",
              "name": "doctor_addr",
              "type": "address"
            },
            {
              "internalType": "string",
              "name": "hex_ipfs",
              "type": "string"
            },
            {
              "internalType": "string",
              "name": "notes",
              "type": "string"
            }
          ],
          "internalType": "struct MedRecChain.record[]",
          "name": "",
          "type": "tuple[]"
        }
      ],
      "stateMutability": "view",
      "type": "function",
      "constant": true
    },
    {
      "inputs": [
        {
          "internalType": "address",
          "name": "_doctor",
          "type": "address"
        }
      ],
      "name": "approveAccess",
      "outputs": [],
      "stateMutability": "nonpayable",
      "type": "function"
    },
    {
      "inputs": [
        {
          "internalType": "address",
          "name": "_doctor",
          "type": "address"
        },
        {
          "internalType": "address",
          "name": "_patient",
          "type": "address"
        }
      ],
      "name": "check_approve_Access",
      "outputs": [
        {
          "internalType": "bool",
          "name": "",
          "type": "bool"
        }
      ],
      "stateMutability": "view",
      "type": "function",
      "constant": true
    },
    {
      "inputs": [
        {
          "internalType": "address",
          "name": "doc",
          "type": "address"
        },
        {
          "internalType": "address",
          "name": "pat",
          "type": "address"
        }
      ],
      "name": "DeleteRequest",
      "outputs": [],
      "stateMutability": "nonpayable",
      "type": "function"
    },
    {
      "inputs": [
        {
          "internalType": "address",
          "name": "_doctor",
          "type": "address"
        }
      ],
      "name": "rejectAccess",
      "outputs": [],
      "stateMutability": "nonpayable",
      "type": "function"
    }
  ],
  "bytecode": "0x6080604052600180546001600160a01b03191673e7b5deb3da0e59ea8f46d497995433629c67501f1790553480156200003757600080fd5b5060015462000071907fa49807205ce4d355092ef5a8a18f56e8913cf4a201fbe287825b095693c21775906001600160a01b031662000077565b62000127565b62000083828262000087565b5050565b6000828152602081815260408083206001600160a01b038516845290915290205460ff1662000083576000828152602081815260408083206001600160a01b03851684529091529020805460ff19166001179055620000e33390565b6001600160a01b0316816001600160a01b0316837f2f8788117e7eff1d82e926ec794901d17c78024a50270940304540a733656f0d60405160405180910390a45050565b61595180620001376000396000f3fe608060405234801561001057600080fd5b50600436106101c25760003560e01c806301ffc9a7146101c7578063217e16f7146101ef57806321ea00a91461020457806323654cc41461021a578063248a9ca31461022d5780632f2ff15d146102405780633141172c1461025557806336568abe14610268578063432d62741461027b57806353bbcf03146102a6578063705211f4146102ae57806375b238fc146102c157806381d12c58146102d657806385b5f7fc146102fb5780638f333d701461030e578063905e03ba1461032357806391d148541461033657806393ac61771461034957806398fc90e914610369578063a217fddf1461037c578063a2cdceda14610384578063aa836ed214610397578063ac5cb97d146103aa578063aefae3b1146103bf578063bb5bfd66146103d2578063c10f7611146103e7578063c1b32571146103fc578063c5f3a65a1461040f578063c821f07f14610422578063d15258d114610442578063d547741f14610457578063d8b070fa1461046a578063f2b62d931461047d578063f6ba667814610490578063fd6ecf0b146104a5578063fe7ac90d146104c5578063fec331f2146104d8578063ff1b636d146104ed575b600080fd5b6101da6101d53660046148ff565b610500565b60405190151581526020015b60405180910390f35b6101f7610537565b6040516101e691906149e7565b61020c6107c1565b6040519081526020016101e6565b6101da610228366004614a60565b610855565b61020c61023b366004614a93565b610ac5565b61025361024e366004614aac565b610ada565b005b610253610263366004614acf565b610afb565b610253610276366004614aac565b610bd8565b61028e610289366004614a93565b610c56565b6040516001600160a01b0390911681526020016101e6565b61020c610c80565b6102536102bc366004614acf565b610ced565b61020c6000805160206158dc83398151915281565b6102e96102e4366004614a93565b610e37565b6040516101e696959493929190614aea565b610253610309366004614a60565b610f9f565b610316611408565b6040516101e69190614c61565b6101da610331366004614d16565b61186c565b6101da610344366004614aac565b611a95565b61035c610357366004614acf565b611abe565b6040516101e69190614d91565b6101da610377366004614acf565b611c3f565b61020c600081565b610253610392366004614acf565b611d87565b6101da6103a5366004614a60565b611f29565b61020c60008051602061589c83398151915281565b6101da6103cd366004614a60565b611f8f565b6103da612046565b6040516101e69190614da4565b6103ef6121fa565b6040516101e69190614f77565b61025361040a366004614acf565b612aaa565b6101da61041d366004614fcc565b612c22565b610435610430366004614acf565b612f1f565b6040516101e69190615162565b61044a6131e3565b6040516101e69190615175565b610253610465366004614aac565b613571565b6101da6104783660046151ca565b61358d565b6101da61048b3660046152ef565b6138af565b61020c6000805160206158fc83398151915281565b6104b86104b3366004614acf565b613b9e565b6040516101e69190615406565b6101da6104d3366004614acf565b614386565b61020c6000805160206158bc83398151915281565b60015461028e906001600160a01b031681565b60006001600160e01b03198216637965db0b60e01b148061053157506301ffc9a760e01b6001600160e01b03198316145b92915050565b60606105516000805160206158dc83398151915233611a95565b6105765760405162461bcd60e51b815260040161056d90615419565b60405180910390fd5b6004546000906001600160401b0381111561059357610593614c74565b6040519080825280602002602001820160405280156105cc57816020015b6105b961479c565b8152602001906001900390816105b15790505b50905060005b6004548110156107bb5760036000600483815481106105f3576105f3615469565b9060005260206000200160009054906101000a90046001600160a01b03166001600160a01b03166001600160a01b031681526020019081526020016000206040518060a0016040529081600082015481526020016001820180546106569061547f565b80601f01602080910402602001604051908101604052809291908181526020018280546106829061547f565b80156106cf5780601f106106a4576101008083540402835291602001916106cf565b820191906000526020600020905b8154815290600101906020018083116106b257829003601f168201915b505050918352505060028201546001600160a01b031660208201526003820180546040909201916106ff9061547f565b80601f016020809104026020016040519081016040528092919081815260200182805461072b9061547f565b80156107785780601f1061074d57610100808354040283529160200191610778565b820191906000526020600020905b81548152906001019060200180831161075b57829003601f168201915b5050505050815260200160048201548152505082828151811061079d5761079d615469565b602002602001018190525080806107b3906154cf565b9150506105d2565b50905090565b60006107db6000805160206158dc83398151915233611a95565b156107e65750600190565b6107fe6000805160206158fc83398151915233611a95565b156108095750600290565b6108216000805160206158bc83398151915233611a95565b1561082c5750600390565b61084460008051602061589c83398151915233611a95565b1561084f5750600490565b50600090565b600061086f60008051602061589c83398151915284611a95565b6108dc5760405162461bcd60e51b815260206004820152603860248201527f54686520706572736f6e20796f75206172652072657175657374696e6720616360448201527718d95cdcc81d1bc81a5cc81b9bdd08184814185d1a595b9d60421b606482015260840161056d565b6108e68284611f8f565b1561092c5760405162461bcd60e51b8152602060048201526016602482015275185b1c9958591e481cd95b990818481c995c5d595cdd60521b604482015260640161056d565b600d5461093a9060016154e8565b600d55600061094884613b9e565b9050600061095584612f1f565b6040805160c081018252600d5481526001600160a01b0380881660208084019182528a8316948401948552426060850190815288820151608086019081529187015160a0860152600e8054600181018255600091909152855160069091027fbb7b4a454dc3493923482f07822329ed19e8244eff582cc204f8554c3620c3fd810191825593517fbb7b4a454dc3493923482f07822329ed19e8244eff582cc204f8554c3620c3fe850180549187166001600160a01b031992831617905596517fbb7b4a454dc3493923482f07822329ed19e8244eff582cc204f8554c3620c3ff850180549190961697169690961790935591517fbb7b4a454dc3493923482f07822329ed19e8244eff582cc204f8554c3620c400820155905193945090927fbb7b4a454dc3493923482f07822329ed19e8244eff582cc204f8554c3620c40190910190610aa29082615549565b5060a08201516005820190610ab79082615549565b506001979650505050505050565b60009081526020819052604090206001015490565b610ae382610ac5565b610aec81614492565b610af6838361449c565b505050565b610b1360008051602061589c83398151915233611a95565b610b2f5760405162461bcd60e51b815260040161056d90615608565b610b476000805160206158bc83398151915282611a95565b610b9f5760405162461bcd60e51b8152602060048201526024808201527f446f63746f7220646f6573206e6f7420686176652074686520646f63746f7220604482015263726f6c6560e01b606482015260840161056d565b3360008181526002602090815260408083206001600160a01b03861684529091529020805460ff19169055610bd5908290610f9f565b50565b6001600160a01b0381163314610c485760405162461bcd60e51b815260206004820152602f60248201527f416363657373436f6e74726f6c3a2063616e206f6e6c792072656e6f756e636560448201526e103937b632b9903337b91039b2b63360891b606482015260840161056d565b610c528282614520565b5050565b60048181548110610c6657600080fd5b6000918252602090912001546001600160a01b0316905081565b60008060005b6006548110156107bb576005600060068381548110610ca757610ca7615469565b60009182526020808320909101546001600160a01b031683528201929092526040019020600c0154610cd990836154e8565b915080610ce5816154cf565b915050610c86565b610d0560008051602061589c83398151915233611a95565b610d215760405162461bcd60e51b815260040161056d90615608565b610d396000805160206158bc83398151915282611a95565b610d845760405162461bcd60e51b815260206004820152601c60248201527b03a3434b99030b1b7bab73a1034b9903737ba1030903237b1ba37b9160251b604482015260640161056d565b3360009081526002602090815260408083206001600160a01b038516845290915290205460ff1615610e065760405162461bcd60e51b815260206004820152602560248201527f54686973205265717565737420616c7261656479206265656e20417070726f76604482015264032b21090960dd1b606482015260840161056d565b3360009081526002602090815260408083206001600160a01b0394909416835292905220805460ff19166001179055565b600e8181548110610e4757600080fd5b6000918252602090912060069091020180546001820154600283015460038401546004850180549496506001600160a01b03938416959290931693909290610e8e9061547f565b80601f0160208091040260200160405190810160405280929190818152602001828054610eba9061547f565b8015610f075780601f10610edc57610100808354040283529160200191610f07565b820191906000526020600020905b815481529060010190602001808311610eea57829003601f168201915b505050505090806005018054610f1c9061547f565b80601f0160208091040260200160405190810160405280929190818152602001828054610f489061547f565b8015610f955780601f10610f6a57610100808354040283529160200191610f95565b820191906000526020600020905b815481529060010190602001808311610f7857829003601f168201915b5050505050905086565b600e54610fbe5760405162461bcd60e51b815260040161056d9061563d565b60005b600e54811015610af65782604051602001610fdc9190615667565b60405160208183030381529060405280519060200120600e828154811061100557611005615469565b600091825260209182902060016006909202010154604051611033926001600160a01b039092169101615667565b604051602081830303815290604052805190602001201480156110d15750816040516020016110629190615667565b60405160208183030381529060405280519060200120600e828154811061108b5761108b615469565b6000918252602091829020600260069092020101546040516110b9926001600160a01b039092169101615667565b60405160208183030381529060405280519060200120145b156113f657600e81815481106110e9576110e9615469565b6000918252602082206006909102018181556001810180546001600160a01b03199081169091556002820180549091169055600381018290559061113060048301826147d4565b61113e6005830160006147d4565b5050600e546000906111529060019061567f565b90506000600e828154811061116957611169615469565b60009182526020918290206040805160c08101825260069093029091018054835260018101546001600160a01b0390811694840194909452600281015490931690820152600382015460608201526004820180549192916080840191906111cf9061547f565b80601f01602080910402602001604051908101604052809291908181526020018280546111fb9061547f565b80156112485780601f1061121d57610100808354040283529160200191611248565b820191906000526020600020905b81548152906001019060200180831161122b57829003601f168201915b505050505081526020016005820180546112619061547f565b80601f016020809104026020016040519081016040528092919081815260200182805461128d9061547f565b80156112da5780601f106112af576101008083540402835291602001916112da565b820191906000526020600020905b8154815290600101906020018083116112bd57829003601f168201915b505050505081525050905080600e84815481106112f9576112f9615469565b60009182526020918290208351600690920201908155908201516001820180546001600160a01b039283166001600160a01b031991821617909155604084015160028401805491909316911617905560608201516003820155608082015160048201906113669082615549565b5060a0820151600582019061137b9082615549565b50905050600e80548061139057611390615692565b6000828152602081206006600019909301928302018181556001810180546001600160a01b0319908116909155600282018054909116905560038101829055906113dd60048301826147d4565b6113eb6005830160006147d4565b505090555050505050565b80611400816154cf565b915050610fc1565b336000908152600560205260409020600c01546060906114695760405162461bcd60e51b815260206004820152601c60248201527b1c185d1a595b9d081c9958dbdc9908191bd95cdb89dd08195e1a5cdd60221b604482015260640161056d565b336000908152600560209081526040808320600c0180548251818502810185019093528083529193909284015b82821015611863578382906000526020600020906009020160405180610120016040529081600082015481526020016001820180546114d49061547f565b80601f01602080910402602001604051908101604052809291908181526020018280546115009061547f565b801561154d5780601f106115225761010080835404028352916020019161154d565b820191906000526020600020905b81548152906001019060200180831161153057829003601f168201915b505050505081526020016002820180546115669061547f565b80601f01602080910402602001604051908101604052809291908181526020018280546115929061547f565b80156115df5780601f106115b4576101008083540402835291602001916115df565b820191906000526020600020905b8154815290600101906020018083116115c257829003601f168201915b505050505081526020016003820180546115f89061547f565b80601f01602080910402602001604051908101604052809291908181526020018280546116249061547f565b80156116715780601f1061164657610100808354040283529160200191611671565b820191906000526020600020905b81548152906001019060200180831161165457829003601f168201915b5050505050815260200160048201805461168a9061547f565b80601f01602080910402602001604051908101604052809291908181526020018280546116b69061547f565b80156117035780601f106116d857610100808354040283529160200191611703565b820191906000526020600020905b8154815290600101906020018083116116e657829003601f168201915b505050918352505060058201546001600160a01b03908116602083015260068301541660408201526007820180546060909201916117409061547f565b80601f016020809104026020016040519081016040528092919081815260200182805461176c9061547f565b80156117b95780601f1061178e576101008083540402835291602001916117b9565b820191906000526020600020905b81548152906001019060200180831161179c57829003601f168201915b505050505081526020016008820180546117d29061547f565b80601f01602080910402602001604051908101604052809291908181526020018280546117fe9061547f565b801561184b5780601f106118205761010080835404028352916020019161184b565b820191906000526020600020905b81548152906001019060200180831161182e57829003601f168201915b50505050508152505081526020019060010190611496565b50505050905090565b60006118866000805160206158dc83398151915233611a95565b6118a25760405162461bcd60e51b815260040161056d90615419565b6118ba6000805160206158fc83398151915285611a95565b156118d75760405162461bcd60e51b815260040161056d906156a8565b6118ef6000805160206158dc83398151915285611a95565b1561190c5760405162461bcd60e51b815260040161056d906156e9565b6119246000805160206158bc83398151915285611a95565b156119415760405162461bcd60e51b815260040161056d9061571b565b61195960008051602061589c83398151915285611a95565b156119765760405162461bcd60e51b815260040161056d9061574e565b61198e6000805160206158fc83398151915285614585565b60095461199c9060016154e8565b60098190556040805160a08101825291825260208083018881526001600160a01b03881684840181905260608501889052608085018790526000908152600390925291902082518155905160018201906119f69082615549565b5060408201516002820180546001600160a01b0319166001600160a01b0390921691909117905560608201516003820190611a319082615549565b50608091909101516004918201558054600181810183556000929092527f8a35acfbc15ff81a39ae7d344fd709f28e8600b4aa8c65c6b64bfe7fe36bd19b0180546001600160a01b0387166001600160a01b03199091161790559050949350505050565b6000918252602082815260408084206001600160a01b0393909316845291905290205460ff1690565b611ac661479c565b6001600160a01b038216600090815260036020908152604091829020825160a08101909352805483526001810180549192840191611b039061547f565b80601f0160208091040260200160405190810160405280929190818152602001828054611b2f9061547f565b8015611b7c5780601f10611b5157610100808354040283529160200191611b7c565b820191906000526020600020905b815481529060010190602001808311611b5f57829003601f168201915b505050918352505060028201546001600160a01b03166020820152600382018054604090920191611bac9061547f565b80601f0160208091040260200160405190810160405280929190818152602001828054611bd89061547f565b8015611c255780601f10611bfa57610100808354040283529160200191611c25565b820191906000526020600020905b815481529060010190602001808311611c0857829003601f168201915b505050505081526020016004820154815250509050919050565b6000611c596000805160206158dc83398151915233611a95565b611c755760405162461bcd60e51b815260040161056d90615419565b611c8d6000805160206158bc83398151915283611a95565b611cd35760405162461bcd60e51b8152602060048201526017602482015276151a1a5cc81858d8dbdd5b9d081b9bdd08195e1a5cda5d604a1b604482015260640161056d565b6001600160a01b038216600090815260076020526040812081815590611cfc60018301826147d4565b6002820180546001600160a01b0319169055600060038301819055611d259060048401906147d4565b6005820160009055600682016000611d3d91906147d4565b611d4b6007830160006147d4565b5060080180546001600160a01b0319169055611d756000805160206158bc83398151915283614520565b611d7e82611d87565b5060015b919050565b600854611da65760405162461bcd60e51b815260040161056d9061563d565b60005b600854811015610c525781604051602001611dc49190615667565b6040516020818303038152906040528051906020012060088281548110611ded57611ded615469565b60009182526020918290200154604051611e13926001600160a01b039092169101615667565b6040516020818303038152906040528051906020012003611f175760088181548110611e4157611e41615469565b6000918252602082200180546001600160a01b0319169055600854611e689060019061567f565b9050600060088281548110611e7f57611e7f615469565b600091825260209091200154600880546001600160a01b039092169250829185908110611eae57611eae615469565b9060005260206000200160006101000a8154816001600160a01b0302191690836001600160a01b031602179055506008805480611eed57611eed615692565b600082815260209020810160001990810180546001600160a01b031916905501905550610c529050565b80611f21816154cf565b915050611da9565b6000611f436000805160206158bc83398151915233611a95565b611f5f5760405162461bcd60e51b815260040161056d90615782565b506001600160a01b0380821660009081526002602090815260408083209386168352929052205460ff1692915050565b6000805b600e5481101561203c57836001600160a01b0316600e8281548110611fba57611fba615469565b60009182526020909120600160069092020101546001600160a01b031614801561201b5750826001600160a01b0316600e8281548110611ffc57611ffc615469565b60009182526020909120600260069092020101546001600160a01b0316145b1561202a576001915050610531565b80612034816154cf565b915050611f93565b5060009392505050565b6060600e805480602002602001604051908101604052809291908181526020016000905b828210156118635760008481526020908190206040805160c081018252600686029092018054835260018101546001600160a01b0390811694840194909452600281015490931690820152600382015460608201526004820180549192916080840191906120d79061547f565b80601f01602080910402602001604051908101604052809291908181526020018280546121039061547f565b80156121505780601f1061212557610100808354040283529160200191612150565b820191906000526020600020905b81548152906001019060200180831161213357829003601f168201915b505050505081526020016005820180546121699061547f565b80601f01602080910402602001604051908101604052809291908181526020018280546121959061547f565b80156121e25780601f106121b7576101008083540402835291602001916121e2565b820191906000526020600020905b8154815290600101906020018083116121c557829003601f168201915b5050505050815250508152602001906001019061206a565b6006546060906000906001600160401b0381111561221a5761221a614c74565b60405190808252806020026020018201604052801561225357816020015b61224061480e565b8152602001906001900390816122385790505b50905060005b6006548110156107bb57600560006006838154811061227a5761227a615469565b9060005260206000200160009054906101000a90046001600160a01b03166001600160a01b03166001600160a01b03168152602001908152602001600020604051806101a0016040529081600082015481526020016001820180546122de9061547f565b80601f016020809104026020016040519081016040528092919081815260200182805461230a9061547f565b80156123575780601f1061232c57610100808354040283529160200191612357565b820191906000526020600020905b81548152906001019060200180831161233a57829003601f168201915b505050505081526020016002820180546123709061547f565b80601f016020809104026020016040519081016040528092919081815260200182805461239c9061547f565b80156123e95780601f106123be576101008083540402835291602001916123e9565b820191906000526020600020905b8154815290600101906020018083116123cc57829003601f168201915b505050505081526020016003820180546124029061547f565b80601f016020809104026020016040519081016040528092919081815260200182805461242e9061547f565b801561247b5780601f106124505761010080835404028352916020019161247b565b820191906000526020600020905b81548152906001019060200180831161245e57829003601f168201915b5050509183525050600482015460208201526005820154604082015260068201546001600160a01b031660608201526007820154608082015260088201805460a0909201916124c99061547f565b80601f01602080910402602001604051908101604052809291908181526020018280546124f59061547f565b80156125425780601f1061251757610100808354040283529160200191612542565b820191906000526020600020905b81548152906001019060200180831161252557829003601f168201915b5050505050815260200160098201805461255b9061547f565b80601f01602080910402602001604051908101604052809291908181526020018280546125879061547f565b80156125d45780601f106125a9576101008083540402835291602001916125d4565b820191906000526020600020905b8154815290600101906020018083116125b757829003601f168201915b50505050508152602001600a820180546125ed9061547f565b80601f01602080910402602001604051908101604052809291908181526020018280546126199061547f565b80156126665780601f1061263b57610100808354040283529160200191612666565b820191906000526020600020905b81548152906001019060200180831161264957829003601f168201915b5050509183525050600b8201546001600160a01b0316602080830191909152600c83018054604080518285028101850182528281529401939260009084015b82821015612a72578382906000526020600020906009020160405180610120016040529081600082015481526020016001820180546126e39061547f565b80601f016020809104026020016040519081016040528092919081815260200182805461270f9061547f565b801561275c5780601f106127315761010080835404028352916020019161275c565b820191906000526020600020905b81548152906001019060200180831161273f57829003601f168201915b505050505081526020016002820180546127759061547f565b80601f01602080910402602001604051908101604052809291908181526020018280546127a19061547f565b80156127ee5780601f106127c3576101008083540402835291602001916127ee565b820191906000526020600020905b8154815290600101906020018083116127d157829003601f168201915b505050505081526020016003820180546128079061547f565b80601f01602080910402602001604051908101604052809291908181526020018280546128339061547f565b80156128805780601f1061285557610100808354040283529160200191612880565b820191906000526020600020905b81548152906001019060200180831161286357829003601f168201915b505050505081526020016004820180546128999061547f565b80601f01602080910402602001604051908101604052809291908181526020018280546128c59061547f565b80156129125780601f106128e757610100808354040283529160200191612912565b820191906000526020600020905b8154815290600101906020018083116128f557829003601f168201915b505050918352505060058201546001600160a01b039081166020830152600683015416604082015260078201805460609092019161294f9061547f565b80601f016020809104026020016040519081016040528092919081815260200182805461297b9061547f565b80156129c85780601f1061299d576101008083540402835291602001916129c8565b820191906000526020600020905b8154815290600101906020018083116129ab57829003601f168201915b505050505081526020016008820180546129e19061547f565b80601f0160208091040260200160405190810160405280929190818152602001828054612a0d9061547f565b8015612a5a5780601f10612a2f57610100808354040283529160200191612a5a565b820191906000526020600020905b815481529060010190602001808311612a3d57829003601f168201915b505050505081525050815260200190600101906126a5565b5050505081525050828281518110612a8c57612a8c615469565b60200260200101819052508080612aa2906154cf565b915050612259565b600454612ac95760405162461bcd60e51b815260040161056d9061563d565b60005b600454811015610c525781604051602001612ae79190615667565b6040516020818303038152906040528051906020012060048281548110612b1057612b10615469565b60009182526020918290200154604051612b36926001600160a01b039092169101615667565b6040516020818303038152906040528051906020012003612c105760048181548110612b6457612b64615469565b6000918252602082200180546001600160a01b0319169055600454612b8b9060019061567f565b9050600060048281548110612ba257612ba2615469565b600091825260209091200154600480546001600160a01b039092169250829185908110612bd157612bd1615469565b9060005260206000200160006101000a8154816001600160a01b0302191690836001600160a01b031602179055506004805480611eed57611eed615692565b80612c1a816154cf565b915050612acc565b6000612c3c6000805160206158dc83398151915233611a95565b612c585760405162461bcd60e51b815260040161056d90615419565b612c706000805160206158bc83398151915283611a95565b15612cbd5760405162461bcd60e51b815260206004820152601d60248201527f54686973206163636f756e7420616c7265616479206120646f63746f72000000604482015260640161056d565b612cd56000805160206158dc83398151915283611a95565b15612cf25760405162461bcd60e51b815260040161056d906156e9565b612d0a6000805160206158fc83398151915283611a95565b15612d275760405162461bcd60e51b815260040161056d906157b6565b612d3f60008051602061589c83398151915283611a95565b15612d5c5760405162461bcd60e51b815260040161056d9061574e565b612d746000805160206158fc83398151915289611a95565b612d905760405162461bcd60e51b815260040161056d906156a8565b612da86000805160206158bc83398151915283614585565b600a54612db69060016154e8565b600a819055604080516101208101825291825260208083018c81526001600160a01b03808d1685850152606085018c9052608085018b905260a085018a905260c0850189905260e0850188905286166101008501819052600090815260079092529190208251815590516001820190612e2f9082615549565b5060408201516002820180546001600160a01b0319166001600160a01b039092169190911790556060820151600382015560808201516004820190612e749082615549565b5060a0820151600582015560c08201516006820190612e939082615549565b5060e08201516007820190612ea89082615549565b506101009190910151600891820180546001600160a01b039283166001600160a01b0319918216179091558254600181810185556000949094527ff3f7a9fe364faab93b216da50a3214154f22a0a2b415b23a84c8169e8b636ee30180549590921694169390931790925550979650505050505050565b612f27614888565b6001600160a01b03821660009081526007602090815260409182902082516101208101909352805483526001810180549192840191612f659061547f565b80601f0160208091040260200160405190810160405280929190818152602001828054612f919061547f565b8015612fde5780601f10612fb357610100808354040283529160200191612fde565b820191906000526020600020905b815481529060010190602001808311612fc157829003601f168201915b505050918352505060028201546001600160a01b03166020820152600382015460408201526004820180546060909201916130189061547f565b80601f01602080910402602001604051908101604052809291908181526020018280546130449061547f565b80156130915780601f1061306657610100808354040283529160200191613091565b820191906000526020600020905b81548152906001019060200180831161307457829003601f168201915b50505050508152602001600582015481526020016006820180546130b49061547f565b80601f01602080910402602001604051908101604052809291908181526020018280546130e09061547f565b801561312d5780601f106131025761010080835404028352916020019161312d565b820191906000526020600020905b81548152906001019060200180831161311057829003601f168201915b505050505081526020016007820180546131469061547f565b80601f01602080910402602001604051908101604052809291908181526020018280546131729061547f565b80156131bf5780601f10613194576101008083540402835291602001916131bf565b820191906000526020600020905b8154815290600101906020018083116131a257829003601f168201915b5050509183525050600891909101546001600160a01b031660209091015292915050565b6008546060906000906001600160401b0381111561320357613203614c74565b60405190808252806020026020018201604052801561323c57816020015b613229614888565b8152602001906001900390816132215790505b50905060005b6008548110156107bb57600760006008838154811061326357613263615469565b9060005260206000200160009054906101000a90046001600160a01b03166001600160a01b03166001600160a01b0316815260200190815260200160002060405180610120016040529081600082015481526020016001820180546132c79061547f565b80601f01602080910402602001604051908101604052809291908181526020018280546132f39061547f565b80156133405780601f1061331557610100808354040283529160200191613340565b820191906000526020600020905b81548152906001019060200180831161332357829003601f168201915b505050918352505060028201546001600160a01b031660208201526003820154604082015260048201805460609092019161337a9061547f565b80601f01602080910402602001604051908101604052809291908181526020018280546133a69061547f565b80156133f35780601f106133c8576101008083540402835291602001916133f3565b820191906000526020600020905b8154815290600101906020018083116133d657829003601f168201915b50505050508152602001600582015481526020016006820180546134169061547f565b80601f01602080910402602001604051908101604052809291908181526020018280546134429061547f565b801561348f5780601f106134645761010080835404028352916020019161348f565b820191906000526020600020905b81548152906001019060200180831161347257829003601f168201915b505050505081526020016007820180546134a89061547f565b80601f01602080910402602001604051908101604052809291908181526020018280546134d49061547f565b80156135215780601f106134f657610100808354040283529160200191613521565b820191906000526020600020905b81548152906001019060200180831161350457829003601f168201915b5050509183525050600891909101546001600160a01b0316602090910152825183908390811061355357613553615469565b60200260200101819052508080613569906154cf565b915050613242565b61357a82610ac5565b61358381614492565b610af68383614520565b60006135a76000805160206158fc83398151915233611a95565b6135f25760405162461bcd60e51b815260206004820152601c60248201527b151a1a5cc81858d8dbdd5b9d081a5cc81b9bdd08121bdcdc1a5d185b60221b604482015260640161056d565b61360a60008051602061589c83398151915287611a95565b156136575760405162461bcd60e51b815260206004820152601e60248201527f54686973206163636f756e7420616c726561647920612070617469656e740000604482015260640161056d565b61366f6000805160206158dc83398151915287611a95565b1561368c5760405162461bcd60e51b815260040161056d906156e9565b6136a46000805160206158bc83398151915287611a95565b156136c15760405162461bcd60e51b815260040161056d9061571b565b6136d96000805160206158fc83398151915287611a95565b156136f65760405162461bcd60e51b815260040161056d906157b6565b61370e60008051602061589c83398151915287614585565b600b5461371c9060016154e8565b600b8190556001600160a01b03871660008181526005602052604090209182556006820180546001600160a01b031916909117905560010161375e8c82615549565b506001600160a01b03861660009081526005602052604090206002016137848b82615549565b506001600160a01b03861660009081526005602052604090206003016137aa8a82615549565b506001600160a01b0386166000908152600560208190526040909120600481018a9055908101889055600781018690556008016137e78582615549565b506001600160a01b038616600090815260056020526040902060090161380d8482615549565b506001600160a01b0386166000908152600560205260409020600a016138338382615549565b50506001600160a01b0385166000818152600560205260408120600b0180546001600160a01b031990811633179091556006805460018181018355919093527ff652222313e28459528d920b65115c16c04f3efc82aaedc97be59f3f377c0d3f90920180549091169092179091559a9950505050505050505050565b60006138c96000805160206158bc83398151915233611a95565b6138e55760405162461bcd60e51b815260040161056d90615782565b6138fd60008051602061589c83398151915286611a95565b6139475760405162461bcd60e51b815260206004820152601b60248201527a151a1a5cc81c185d1a595b9d1cc81a5cc81b9bdd08195e1a5cda5d602a1b604482015260640161056d565b6001600160a01b038516600090815260026020908152604080832033845290915290205460ff166139b95760405162461bcd60e51b815260206004820152601c60248201527b4e6f207065726d697373696f6e20746f20616464205265636f72647360201b604482015260640161056d565b6001600160a01b0384163314613a105760405162461bcd60e51b815260206004820152601c60248201527b2737903832b936b4b9b9b4b7b7103a37903a3434b9902237b1ba37b960211b604482015260640161056d565b600c54613a1e9060016154e8565b600c8190555060056000866001600160a01b03166001600160a01b03168152602001908152602001600020600c01604051806101200160405280600c5481526020018b81526020018a8152602001898152602001888152602001876001600160a01b03168152602001866001600160a01b03168152602001858152602001848152509080600181540180825580915050600190039060005260206000209060090201600090919091909150600082015181600001556020820151816001019081613ae89190615549565b5060408201516002820190613afd9082615549565b5060608201516003820190613b129082615549565b5060808201516004820190613b279082615549565b5060a08201516005820180546001600160a01b039283166001600160a01b03199182161790915560c084015160068401805491909316911617905560e08201516007820190613b769082615549565b506101008201516008820190613b8c9082615549565b5060019b9a5050505050505050505050565b613ba661480e565b6001600160a01b03821660009081526005602090815260409182902082516101a08101909352805483526001810180549192840191613be49061547f565b80601f0160208091040260200160405190810160405280929190818152602001828054613c109061547f565b8015613c5d5780601f10613c3257610100808354040283529160200191613c5d565b820191906000526020600020905b815481529060010190602001808311613c4057829003601f168201915b50505050508152602001600282018054613c769061547f565b80601f0160208091040260200160405190810160405280929190818152602001828054613ca29061547f565b8015613cef5780601f10613cc457610100808354040283529160200191613cef565b820191906000526020600020905b815481529060010190602001808311613cd257829003601f168201915b50505050508152602001600382018054613d089061547f565b80601f0160208091040260200160405190810160405280929190818152602001828054613d349061547f565b8015613d815780601f10613d5657610100808354040283529160200191613d81565b820191906000526020600020905b815481529060010190602001808311613d6457829003601f168201915b5050509183525050600482015460208201526005820154604082015260068201546001600160a01b031660608201526007820154608082015260088201805460a090920191613dcf9061547f565b80601f0160208091040260200160405190810160405280929190818152602001828054613dfb9061547f565b8015613e485780601f10613e1d57610100808354040283529160200191613e48565b820191906000526020600020905b815481529060010190602001808311613e2b57829003601f168201915b50505050508152602001600982018054613e619061547f565b80601f0160208091040260200160405190810160405280929190818152602001828054613e8d9061547f565b8015613eda5780601f10613eaf57610100808354040283529160200191613eda565b820191906000526020600020905b815481529060010190602001808311613ebd57829003601f168201915b50505050508152602001600a82018054613ef39061547f565b80601f0160208091040260200160405190810160405280929190818152602001828054613f1f9061547f565b8015613f6c5780601f10613f4157610100808354040283529160200191613f6c565b820191906000526020600020905b815481529060010190602001808311613f4f57829003601f168201915b5050509183525050600b8201546001600160a01b0316602080830191909152600c83018054604080518285028101850182528281529401939260009084015b8282101561437857838290600052602060002090600902016040518061012001604052908160008201548152602001600182018054613fe99061547f565b80601f01602080910402602001604051908101604052809291908181526020018280546140159061547f565b80156140625780601f1061403757610100808354040283529160200191614062565b820191906000526020600020905b81548152906001019060200180831161404557829003601f168201915b5050505050815260200160028201805461407b9061547f565b80601f01602080910402602001604051908101604052809291908181526020018280546140a79061547f565b80156140f45780601f106140c9576101008083540402835291602001916140f4565b820191906000526020600020905b8154815290600101906020018083116140d757829003601f168201915b5050505050815260200160038201805461410d9061547f565b80601f01602080910402602001604051908101604052809291908181526020018280546141399061547f565b80156141865780601f1061415b57610100808354040283529160200191614186565b820191906000526020600020905b81548152906001019060200180831161416957829003601f168201915b5050505050815260200160048201805461419f9061547f565b80601f01602080910402602001604051908101604052809291908181526020018280546141cb9061547f565b80156142185780601f106141ed57610100808354040283529160200191614218565b820191906000526020600020905b8154815290600101906020018083116141fb57829003601f168201915b505050918352505060058201546001600160a01b03908116602083015260068301541660408201526007820180546060909201916142559061547f565b80601f01602080910402602001604051908101604052809291908181526020018280546142819061547f565b80156142ce5780601f106142a3576101008083540402835291602001916142ce565b820191906000526020600020905b8154815290600101906020018083116142b157829003601f168201915b505050505081526020016008820180546142e79061547f565b80601f01602080910402602001604051908101604052809291908181526020018280546143139061547f565b80156143605780601f1061433557610100808354040283529160200191614360565b820191906000526020600020905b81548152906001019060200180831161434357829003601f168201915b50505050508152505081526020019060010190613fab565b505050915250909392505050565b60006143a06000805160206158dc83398151915233611a95565b6143bc5760405162461bcd60e51b815260040161056d90615419565b6143d46000805160206158fc83398151915283611a95565b61441e5760405162461bcd60e51b815260206004820152601b60248201527a151a1a5cc81a1bdcdc1a5d185b081a5cc81b9bdd08195e1a5cda5d602a1b604482015260640161056d565b6144366000805160206158fc83398151915283614520565b6001600160a01b03821660009081526003602052604081208181559061445f60018301826147d4565b6002820180546001600160a01b031916905561447f6003830160006147d4565b60048201600090555050611d7e82612aaa565b610bd5813361458f565b6144a68282611a95565b610c52576000828152602081815260408083206001600160a01b03851684529091529020805460ff191660011790556144dc3390565b6001600160a01b0316816001600160a01b0316837f2f8788117e7eff1d82e926ec794901d17c78024a50270940304540a733656f0d60405160405180910390a45050565b61452a8282611a95565b15610c52576000828152602081815260408083206001600160a01b0385168085529252808320805460ff1916905551339285917ff6391f5c32d9c69d2a47ea670b442974b53935d1edc7fd64eb21e047a839171b9190a45050565b610c52828261449c565b6145998282611a95565b610c52576145a6816145e8565b6145b18360206145fa565b6040516020016145c29291906157eb565b60408051601f198184030181529082905262461bcd60e51b825261056d9160040161585a565b60606105316001600160a01b03831660145b6060600061460983600261586d565b6146149060026154e8565b6001600160401b0381111561462b5761462b614c74565b6040519080825280601f01601f191660200182016040528015614655576020820181803683370190505b509050600360fc1b8160008151811061467057614670615469565b60200101906001600160f81b031916908160001a905350600f60fb1b8160018151811061469f5761469f615469565b60200101906001600160f81b031916908160001a90535060006146c384600261586d565b6146ce9060016154e8565b90505b6001811115614746576f181899199a1a9b1b9c1cb0b131b232b360811b85600f166010811061470257614702615469565b1a60f81b82828151811061471857614718615469565b60200101906001600160f81b031916908160001a90535060049490941c9361473f81615884565b90506146d1565b5083156147955760405162461bcd60e51b815260206004820181905260248201527f537472696e67733a20686578206c656e67746820696e73756666696369656e74604482015260640161056d565b9392505050565b6040518060a00160405280600081526020016060815260200160006001600160a01b0316815260200160608152602001600081525090565b5080546147e09061547f565b6000825580601f106147f0575050565b601f016020900490600052602060002090810190610bd591906148e6565b604051806101a0016040528060008152602001606081526020016060815260200160608152602001600081526020016000815260200160006001600160a01b031681526020016000815260200160608152602001606081526020016060815260200160006001600160a01b03168152602001606081525090565b604051806101200160405280600081526020016060815260200160006001600160a01b03168152602001600081526020016060815260200160008152602001606081526020016060815260200160006001600160a01b031681525090565b5b808211156148fb57600081556001016148e7565b5090565b60006020828403121561491157600080fd5b81356001600160e01b03198116811461479557600080fd5b60005b8381101561494457818101518382015260200161492c565b50506000910152565b60008151808452614965816020860160208601614929565b601f01601f19169290920160200192915050565b6001600160a01b03169052565b805182526000602082015160a060208501526149a560a085018261494d565b905060018060a01b036040840151166040850152606083015184820360608601526149d0828261494d565b915050608083015160808501528091505092915050565b6000602080830181845280855180835260408601915060408160051b870101925083870160005b82811015614a3c57603f19888603018452614a2a858351614986565b94509285019290850190600101614a0e565b5092979650505050505050565b80356001600160a01b0381168114611d8257600080fd5b60008060408385031215614a7357600080fd5b614a7c83614a49565b9150614a8a60208401614a49565b90509250929050565b600060208284031215614aa557600080fd5b5035919050565b60008060408385031215614abf57600080fd5b82359150614a8a60208401614a49565b600060208284031215614ae157600080fd5b61479582614a49565b8681526001600160a01b038681166020830152851660408201526060810184905260c060808201819052600090614b239083018561494d565b82810360a0840152614b35818561494d565b9998505050505050505050565b600082825180855260208086019550808260051b84010181860160005b84811015614c5457601f19868403018952815161012081518552858201518187870152614b8e8287018261494d565b91505060408083015186830382880152614ba8838261494d565b9250505060608083015186830382880152614bc3838261494d565b9250505060808083015186830382880152614bde838261494d565b9250505060a080830151614bf482880182614979565b505060c080830151614c0882880182614979565b505060e08083015186830382880152614c21838261494d565b925050506101008083015192508582038187015250614c40818361494d565b9a86019a9450505090830190600101614b5f565b5090979650505050505050565b6020815260006147956020830184614b42565b634e487b7160e01b600052604160045260246000fd5b600082601f830112614c9b57600080fd5b81356001600160401b0380821115614cb557614cb5614c74565b604051601f8301601f19908116603f01168101908282118183101715614cdd57614cdd614c74565b81604052838152866020858801011115614cf657600080fd5b836020870160208301376000602085830101528094505050505092915050565b60008060008060808587031215614d2c57600080fd5b84356001600160401b0380821115614d4357600080fd5b614d4f88838901614c8a565b9550614d5d60208801614a49565b94506040870135915080821115614d7357600080fd5b50614d8087828801614c8a565b949793965093946060013593505050565b6020815260006147956020830184614986565b60006020808301818452808551808352604092508286019150828160051b87010184880160005b83811015614e5657888303603f19018552815180518452878101516001600160a01b03908116898601528782015116878501526060808201519085015260808082015160c08287018190529190614e248388018261494d565b9250505060a08083015192508582038187015250614e42818361494d565b968901969450505090860190600101614dcb565b509098975050505050505050565b60006101a0825184526020830151816020860152614e848286018261494d565b91505060408301518482036040860152614e9e828261494d565b91505060608301518482036060860152614eb8828261494d565b9150506080830151608085015260a083015160a085015260c0830151614ee160c0860182614979565b5060e083015160e08501526101008084015185830382870152614f04838261494d565b925050506101208084015185830382870152614f20838261494d565b925050506101408084015185830382870152614f3c838261494d565b9250505061016080840151614f5382870182614979565b50506101808084015185830382870152614f6d8382614b42565b9695505050505050565b6000602080830181845280855180835260408601915060408160051b870101925083870160005b82811015614a3c57603f19888603018452614fba858351614e64565b94509285019290850190600101614f9e565b600080600080600080600080610100898b031215614fe957600080fd5b88356001600160401b038082111561500057600080fd5b61500c8c838d01614c8a565b995061501a60208c01614a49565b985060408b0135975060608b013591508082111561503757600080fd5b6150438c838d01614c8a565b965060808b0135955060a08b013591508082111561506057600080fd5b61506c8c838d01614c8a565b945060c08b013591508082111561508257600080fd5b5061508f8b828c01614c8a565b92505061509e60e08a01614a49565b90509295985092959890939650565b60006101208251845260208301518160208601526150cd8286018261494d565b91505060408301516150e26040860182614979565b506060830151606085015260808301518482036080860152615104828261494d565b91505060a083015160a085015260c083015184820360c0860152615128828261494d565b91505060e083015184820360e0860152615142828261494d565b9150506101008084015161515882870182614979565b5090949350505050565b60208152600061479560208301846150ad565b6000602080830181845280855180835260408601915060408160051b870101925083870160005b82811015614a3c57603f198886030184526151b88583516150ad565b9450928501929085019060010161519c565b6000806000806000806000806000806101408b8d0312156151ea57600080fd5b8a356001600160401b038082111561520157600080fd5b61520d8e838f01614c8a565b9b5060208d013591508082111561522357600080fd5b61522f8e838f01614c8a565b9a5060408d013591508082111561524557600080fd5b6152518e838f01614c8a565b995060608d0135985060808d0135975061526d60a08e01614a49565b965060c08d0135955060e08d013591508082111561528a57600080fd5b6152968e838f01614c8a565b94506101008d01359150808211156152ad57600080fd5b6152b98e838f01614c8a565b93506101208d01359150808211156152d057600080fd5b506152dd8d828e01614c8a565b9150509295989b9194979a5092959850565b600080600080600080600080610100898b03121561530c57600080fd5b88356001600160401b038082111561532357600080fd5b61532f8c838d01614c8a565b995060208b013591508082111561534557600080fd5b6153518c838d01614c8a565b985060408b013591508082111561536757600080fd5b6153738c838d01614c8a565b975060608b013591508082111561538957600080fd5b6153958c838d01614c8a565b96506153a360808c01614a49565b95506153b160a08c01614a49565b945060c08b01359150808211156153c757600080fd5b6153d38c838d01614c8a565b935060e08b01359150808211156153e957600080fd5b506153f68b828c01614c8a565b9150509295985092959890939650565b6020815260006147956020830184614e64565b60208082526030908201527f4f6e6c7920737570657241646d696e20686173207065726d697373696f6e207460408201526f37903237903a3430ba1030b1ba34b7b760811b606082015260800190565b634e487b7160e01b600052603260045260246000fd5b600181811c9082168061549357607f821691505b6020821081036154b357634e487b7160e01b600052602260045260246000fd5b50919050565b634e487b7160e01b600052601160045260246000fd5b6000600182016154e1576154e16154b9565b5060010190565b80820180821115610531576105316154b9565b601f821115610af657600081815260208120601f850160051c810160208610156155225750805b601f850160051c820191505b818110156155415782815560010161552e565b505050505050565b81516001600160401b0381111561556257615562614c74565b61557681615570845461547f565b846154fb565b602080601f8311600181146155ab57600084156155935750858301515b600019600386901b1c1916600185901b178555615541565b600085815260208120601f198616915b828110156155da578886015182559484019460019091019084016155bb565b50858210156155f85787850151600019600388901b60f8161c191681555b5050505050600190811b01905550565b6020808252601b908201527a151a1a5cc81858d8dbdd5b9d081a5cc81b9bdd081c185d1a595b9d602a1b604082015260600190565b60208082526010908201526f4e6f206b65797320696e20617272617960801b604082015260600190565b60609190911b6001600160601b031916815260140190565b81810381811115610531576105316154b9565b634e487b7160e01b600052603160045260246000fd5b60208082526021908201527f5468697320686f73706974616c206973207265616c6c792065786973697421216040820152600160fd1b606082015260800190565b60208082526018908201527702a3434b99020b1b1b7bab73a1034b99020b236b4b71090960451b604082015260600190565b60208082526019908201527802a3434b99020b1b1b7bab73a1034b9902237b1ba37b910909603d1b604082015260600190565b6020808252601a908201527902a3434b99020b1b1b7bab73a1034b9902830ba34b2b73a1090960351b604082015260600190565b6020808252601a90820152792a3434b99030b1b1b7bab73a1034b9903737ba102237b1ba37b960311b604082015260600190565b6020808252601b908201527a02a3434b99020b1b1b7bab73a1034b9902437b9b834ba30b610909602d1b604082015260600190565b76020b1b1b2b9b9a1b7b73a3937b61d1030b1b1b7bab73a1604d1b81526000835161581d816017850160208801614929565b7001034b99036b4b9b9b4b733903937b6329607d1b601791840191820152835161584e816028840160208801614929565b01602801949350505050565b602081526000614795602083018461494d565b8082028115828204841417610531576105316154b9565b600081615893576158936154b9565b50600019019056fe72606200fac42b7dc86b75901d61ecfab2a4a1a6eded478b97a428094891abed0af1dac7dea2fd7f7738119cec7df099dfad49aa9d2e7d17ba6b60f63ae7411fa49807205ce4d355092ef5a8a18f56e8913cf4a201fbe287825b095693c21775c8f5b4140cca307cd927e59cbeea8291bffeee228fc677f0fa059aef7b4dd8d5a2646970667358221220abc121f4e9953088af8baa23a503d5faf507efa2e8f9b9b29a9be9206ea10d9b64736f6c63430008130033",
  "immutableReferences": {},
  "source": "// SPDX-License-Identifier: GPL-3.0\r\npragma solidity ^0.8.0;\r\n\r\n\r\nimport \"@openzeppelin/contracts/access/AccessControl.sol\";\r\n\r\ncontract MedRecChain is AccessControl {\r\n\r\n    //ROLES\r\n    bytes32 public constant ADMIN_ROLE= keccak256(\"ADMIN_ROLE\");\r\n    bytes32 public constant HOSPITAL_ROLE= keccak256(\"HOSPITAL_ROLE\");\r\n    bytes32 public constant DOCTOR_ROLE= keccak256(\"DOCTOR_ROLE\");\r\n    bytes32 public constant PATIENT_ROLE= keccak256(\"PATIENT_ROLE\");\r\n\r\n    \r\n    // Admin refers to government, It hard coded by us.\r\n    address public Admin = 0xe7b5DEb3dA0e59Ea8F46d497995433629C67501f;\r\n    \r\n    // [_patient][_doctor] = bool\r\n    mapping (address=>mapping (address =>bool)) isAuth;\r\n\r\n\r\n    struct Hospital\r\n    {\r\n        uint256 id;\r\n        string name;\r\n        address addr;\r\n        string place;\r\n        uint256 phone;\r\n\r\n        \r\n    }\r\n\r\n    mapping(address=>Hospital) Hospitals;\r\n    address[] public Hospitals_keys;\r\n    \r\n\r\n    struct patient\r\n    {\r\n\r\n        uint256 id;\r\n        string name;\r\n        string email;\r\n        string National_Addr;\r\n        uint256 National_id;\r\n        uint256 age;\r\n        address PatientAddress;\r\n        uint256 phone;\r\n        string Blood_Type;\r\n        string marital_status;\r\n        string gender;\r\n        address hospital_addr;\r\n        \r\n        record[] Records;\r\n        \r\n    }\r\n\r\n    mapping(address=>patient) patients;\r\n    address[] private patients_keys;\r\n\r\n    struct doctor{\r\n\r\n        uint256 id;\r\n        string name;\r\n        address hospital_addr;\r\n        uint256 phone;\r\n        string email;\r\n        uint256 age;\r\n        string place;\r\n        string Medical_specialty;\r\n        address docAddress;\r\n    \r\n    }\r\n\r\n    mapping(address=>doctor) doctors;\r\n    address[] private doctors_keys;\r\n\r\n\r\n    struct record {\r\n\r\n        uint Medical_id;\r\n        string category;\r\n        string patient_name;\r\n        string rec_name;\r\n        string Created_at;\r\n        address patient_addr;\r\n        address doctor_addr;\r\n        string hex_ipfs;  // file, image date\r\n        string notes;\r\n    }\r\n\r\n \r\n    // for Ids\r\n    uint256 Hospital_index;\r\n    uint256 Doctor_index;\r\n    uint256 Patient_index;\r\n\r\n    uint256 Record_index;\r\n    uint256 Request_index;\r\n     \r\n\r\n    \r\n    constructor() {\r\n         _setupRole(ADMIN_ROLE,Admin);\r\n    }\r\n\r\n    // function to know who logg in\r\n     function logg() public view returns(uint  role){\r\n        if(hasRole(ADMIN_ROLE, msg.sender))\r\n        {return 1;}\r\n        else if(hasRole(HOSPITAL_ROLE, msg.sender))\r\n        {return 2;} \r\n        else if(hasRole(DOCTOR_ROLE, msg.sender))\r\n        {return 3;} \r\n        else if(hasRole(PATIENT_ROLE, msg.sender))\r\n        {return 4;}\r\n        else\r\n        {return 0;}\r\n     \r\n    }\r\n\r\n    //To check the role of who deploye the contract. \r\n    modifier onlyAdmin(){ \r\n        require(hasRole(ADMIN_ROLE, msg.sender),\"Only superAdmin has permission to do that action\");\r\n        _;\r\n    }\r\n\r\n    modifier onlyHospital(){\r\n        require(hasRole(HOSPITAL_ROLE, msg.sender), \"This account is not Hospital\");\r\n        _;\r\n    }\r\n    modifier onlydoctors(){\r\n        require(hasRole(DOCTOR_ROLE, msg.sender), \"This account is not Doctor\");\r\n        _;\r\n    }\r\n    modifier onlypatient(){\r\n         require(hasRole(PATIENT_ROLE, msg.sender), \"This account is not patient\");\r\n        _;\r\n    \r\n    }\r\n\r\n//////////////////////////////////////\r\n\r\n    //Tasks done by Admin (defult exisit)\r\n    //1. add hospital\r\n    //2. delete hospital\r\n    //3. add doctor\r\n    //4. delete doctor\r\n    //5. see all hospital in system\r\n    //6. see all doctors in system\r\n\r\n\r\n    function addhospital(string memory _name, address _address, string memory _place, uint256 _phone) public onlyAdmin returns(bool success){\r\n        require(!hasRole(HOSPITAL_ROLE, _address), \"This hospital is really exisit!! \");\r\n        require(!hasRole(ADMIN_ROLE, _address), \"This Account is Admin!! \");\r\n        require(!hasRole(DOCTOR_ROLE, _address), \"This Account is Doctor!! \");\r\n        require(!hasRole(PATIENT_ROLE, _address), \"This Account is Patient!! \");\r\n\r\n         _setupRole(HOSPITAL_ROLE, _address);\r\n        Hospital_index= Hospital_index+1;\r\n        Hospitals[_address]=Hospital(Hospital_index, _name, _address, _place, _phone); \r\n        Hospitals_keys.push(_address);\r\n        return true;\r\n    }\r\n\r\n    function removeitem_hos(address _hosAddress ) public  {\r\n    require(Hospitals_keys.length > 0, \"No keys in array\");\r\n        for (uint i = 0; i < Hospitals_keys.length; i++) {\r\n            if (keccak256(abi.encodePacked(Hospitals_keys[i])) == keccak256(abi.encodePacked(_hosAddress))) {\r\n                delete Hospitals_keys[i];\r\n                uint lastIndex =Hospitals_keys.length-1;\r\n                address  lastId = Hospitals_keys[lastIndex];\r\n                Hospitals_keys[i]=lastId;\r\n                Hospitals_keys.pop();\r\n                break;\r\n            }\r\n        }\r\n    }\r\n\r\n    function removehospital(address _address) public onlyAdmin returns(bool success){\r\n        require(hasRole(HOSPITAL_ROLE, _address), \"This hospital is not exisit\");\r\n        _revokeRole(HOSPITAL_ROLE,_address);\r\n        delete Hospitals[_address];\r\n        removeitem_hos(_address);\r\n        return true;\r\n    }\r\n\r\n    function get_all_hospitals() public view onlyAdmin returns(Hospital[] memory){\r\n        Hospital[] memory hos = new Hospital[](Hospitals_keys.length);\r\n        for (uint256 i = 0; i < Hospitals_keys.length; i++) {\r\n            hos[i] = Hospitals[Hospitals_keys[i]];\r\n        }\r\n        return hos;\r\n    }\r\n\r\n  ///////////////\r\n\r\n    function addDoctor(string memory _name, address _hospital_addr, uint256  _phone, string memory _email, uint256  _age, string memory _place, string memory _Medical_specialty, address  _docAddress) public onlyAdmin returns(bool success){\r\n        require(!hasRole(DOCTOR_ROLE, _docAddress), \"This account already a doctor\");\r\n        require(!hasRole(ADMIN_ROLE, _docAddress), \"This Account is Admin!! \");\r\n        require(!hasRole(HOSPITAL_ROLE, _docAddress), \"This Account is Hospital!! \");\r\n        require(!hasRole(PATIENT_ROLE, _docAddress), \"This Account is Patient!! \");\r\n        require(hasRole(HOSPITAL_ROLE, _hospital_addr), \"This hospital is really exisit!! \");\r\n        _setupRole(DOCTOR_ROLE, _docAddress);\r\n        Doctor_index= Doctor_index+1;\r\n        doctors[_docAddress]=doctor(Doctor_index, _name, _hospital_addr, _phone,  _email,  _age,  _place,  _Medical_specialty, _docAddress); \r\n        doctors_keys.push(_docAddress);\r\n        return true;\r\n    }\r\n\r\n\r\n   function removeitem_doc(address _docAddress ) public {\r\n    require(doctors_keys.length > 0, \"No keys in array\");\r\n        for (uint i = 0; i < doctors_keys.length; i++) {\r\n            if (keccak256(abi.encodePacked(doctors_keys[i])) == keccak256(abi.encodePacked(_docAddress))) {\r\n                delete doctors_keys[i];\r\n                uint lastIndex =doctors_keys.length-1;\r\n                address  lastId = doctors_keys[lastIndex];\r\n                doctors_keys[i]=lastId;\r\n                doctors_keys.pop();\r\n                break;\r\n            }\r\n        }\r\n    }\r\n    \r\n    function removeDoctor(address _docAddress) public onlyAdmin returns(bool success){\r\n        require(hasRole(DOCTOR_ROLE, _docAddress),\"This account not exisit\");\r\n        delete doctors[_docAddress];\r\n        _revokeRole(DOCTOR_ROLE,_docAddress);\r\n        removeitem_doc(_docAddress);\r\n        return true;\r\n    }\r\n\r\n    function get_all_Doctors() public view  returns(doctor[] memory){\r\n        doctor[] memory doc = new doctor[](doctors_keys.length);\r\n        for (uint256 i = 0; i < doctors_keys.length; i++) {\r\n            doc[i] = doctors[doctors_keys[i]];\r\n        }\r\n        return doc;\r\n    }\r\n\r\n    function get_record_number() public view  returns(uint256 i){\r\n        uint256 total;\r\n        for (uint256 a = 0; a < patients_keys.length; a++) {\r\n        total += patients[patients_keys[a]].Records.length;\r\n    }\r\n    return total;\r\n    }\r\n\r\n///////////////////////////////////////////\r\n\r\n    // Tasks done by Hospitals (sign in )\r\n    //1. add patient\r\n    //2.See his profile\r\n    //3.see all patients\r\n   \r\n\r\n   function get_hospita_by_address(address _addr) view public returns(Hospital memory) {\r\n    return (Hospitals[_addr]);\r\n    }\r\n\r\n    \r\n       \r\n    function addPatient(string memory _name, string memory _email, string memory _National_Addr, uint256  _National_id, uint256  _age, address _PatientAddress, uint256 _phone, string memory _Blood_Type, string memory _marital_status, string memory _gender) public onlyHospital returns(bool success){\r\n        require(!hasRole(PATIENT_ROLE, _PatientAddress), \"This account already a patient\");\r\n        require(!hasRole(ADMIN_ROLE, _PatientAddress), \"This Account is Admin!! \");\r\n        require(!hasRole(DOCTOR_ROLE, _PatientAddress), \"This Account is Doctor!! \");\r\n        require(!hasRole(HOSPITAL_ROLE, _PatientAddress), \"This Account is Hospital!! \");\r\n        _setupRole(PATIENT_ROLE, _PatientAddress);\r\n        Patient_index= Patient_index+1;\r\n        patients[_PatientAddress].id=Patient_index;\r\n        patients[_PatientAddress].PatientAddress=_PatientAddress;\r\n        patients[_PatientAddress].name=_name;\r\n        patients[_PatientAddress].email=_email;\r\n        patients[_PatientAddress].National_Addr=_National_Addr;\r\n        patients[_PatientAddress].National_id=_National_id;\r\n        patients[_PatientAddress].age=_age;\r\n        patients[_PatientAddress].phone=_phone;\r\n        patients[_PatientAddress].Blood_Type=_Blood_Type;\r\n        patients[_PatientAddress].marital_status=_marital_status;\r\n        patients[_PatientAddress].gender=_gender;\r\n        patients[_PatientAddress].hospital_addr=msg.sender;\r\n\r\n        patients_keys.push(_PatientAddress);\r\n        return true;\r\n    }\r\n\r\n    function get_all_Patients() public view returns(patient[] memory){\r\n        patient[] memory pat = new patient[](patients_keys.length);\r\n        for (uint256 i = 0; i < patients_keys.length; i++) {\r\n            pat[i] = patients[patients_keys[i]];\r\n        }\r\n        return pat;\r\n    }\r\n\r\n//////////////////////////////////////////////\r\n\r\n    // Tasks done by Doctor (sign in)\r\n    // 1. send request to patient\r\n    // 2. see record (has be accepted)\r\n    // 3. add record (has be accepted)\r\n    // 4.view his profile info\r\n    // 5.show requests by id & show their status\r\n\r\n\r\n    function get_doctor_by_address(address _addr) view public  returns(doctor memory) {\r\n    return (doctors[_addr]);\r\n    }\r\n\r\n\r\n    \r\n    struct request\r\n    {\r\n        uint id;\r\n        address from_doctor_addr;\r\n        address to_patients_addr;\r\n        uint256 date;\r\n        string patient_name;\r\n        string doctor_name;\r\n    }\r\n      \r\n    request[] public requests;\r\n\r\n    function checkRequestExists(address _from_doctor_addr ,address _to_patients_addr) public view returns (bool) {\r\n        for (uint i = 0; i < requests.length; i++) {\r\n            if ( ((requests[i].from_doctor_addr) == (_from_doctor_addr)) && ((requests[i].to_patients_addr)==(_to_patients_addr)) ) {\r\n                return true;\r\n                }\r\n        }\r\n    return false;\r\n    }\r\n\r\n\r\n\r\n    function send_request_Access(address _patient,address _doctor) public returns(bool success) {\r\n        require(hasRole(PATIENT_ROLE, _patient), \"The person you are requesting access to is not a Patient\");\r\n        require(!checkRequestExists(_doctor,_patient),\"already send a request\");\r\n        Request_index=Request_index+1;\r\n        patient memory pati = get_patient_by_address(_patient);\r\n        doctor memory doc = get_doctor_by_address(_doctor);\r\n        requests.push(request(Request_index,_doctor,_patient,block.timestamp,pati.name,doc.name));\r\n        return true;\r\n    }\r\n\r\n     function get_all_requests() view public returns(request[] memory) {\r\n        //IN JS convert a Unix timestamp to a human-readable\r\n        // const unixTimestamp = date.currentTimestamp();\r\n        // const date = new Date(unixTimestamp * 1000);\r\n        // const humanReadableDate = date.toLocaleString();\r\n\r\n        // Also, be handled, cause it show all requests at blockchain NOT whose patient's requests \r\n        // it will be solved by check\r\n        // for (i=0 ; i<requests.lenght;i++ ){\r\n        // \"if (requests.to_patients_addr == accounts[0]){....}\" \r\n        //}\r\n        return (requests);\r\n\r\n    }\r\n\r\n        \r\n    function addRecord( string memory _category, string  memory _patient_name, string memory _rec_name, string  memory _Created_at, address _patientAddr, address _doctor_addr, string memory _hex_ipfs, string memory _notes) onlydoctors public returns(bool){\r\n        require(hasRole(PATIENT_ROLE, _patientAddr),\"This patients is not exisit\");\r\n        require(isAuth[_patientAddr][msg.sender],\"No permission to add Records\");\r\n        require(_doctor_addr == msg.sender, \"No permission to this Doctor\" );\r\n        Record_index=Record_index+1;\r\n        patients[_patientAddr].Records.push(record(Record_index, _category, _patient_name, _rec_name, _Created_at, _patientAddr, _doctor_addr, _hex_ipfs, _notes));\r\n        return true;\r\n    }\r\n\r\n    \r\n\r\n\r\n    // function See_Record_for_Doctor(address _patientAddr)  view public returns(record[] memory){\r\n    //    require(isAuth[_patientAddr][msg.sender],\"No permission to get Records\");\r\n    //     require(hasRole(PATIENT_ROLE, _patientAddr),\"This patients is not exisit\");\r\n    //     require(patients[_patientAddr].Records.length>0,\"patient record doesn't exist\");\r\n    //     return (patients[_patientAddr].Records);\r\n\r\n    // }\r\n\r\n\r\n\r\n///////////////////////////////////\r\n\r\n    //Tasks done by Patient (sign in)\r\n\r\n    //1.view his all records\r\n    //2.accept request sended by doctor\r\n    //3.rejected request sended by doctor\r\n    //4.give permission to doctor bt himself\r\n    //5.see requestes from doctors\r\n    //6.view his profile info\r\n\r\n\r\n\r\n    function get_patient_by_address(address _addr) view public  returns(patient memory) {\r\n    return (patients[_addr]);\r\n    }\r\n\r\n\r\n\r\n     function See_Record_for_Patient()  view public returns(record[] memory){\r\n        require(patients[msg.sender].Records.length > 0,\"patient record doesn't exist\");\r\n        return (patients[msg.sender].Records);\r\n\r\n    }\r\n\r\n    function approveAccess(address _doctor) onlypatient  public {   \r\n        require(hasRole(DOCTOR_ROLE, _doctor), \"this acount is not a doctor \");\r\n        require((isAuth[msg.sender][_doctor]) == false, \"This Request alraedy been Approved!! \");\r\n        isAuth[msg.sender][_doctor] = true;\r\n    }\r\n\r\n    function check_approve_Access(address _doctor, address _patient) view onlydoctors public returns(bool ) {\r\n            return(isAuth[_patient][_doctor]);\r\n        }\r\n\r\n\r\n   function DeleteRequest(address doc, address pat ) public  {\r\n    require(requests.length > 0, \"No keys in array\");\r\n        for (uint i = 0; i < requests.length; i++) {\r\n            if( (keccak256(abi.encodePacked(requests[i].from_doctor_addr)) == keccak256(abi.encodePacked(doc))) && (keccak256(abi.encodePacked(requests[i].to_patients_addr)) == keccak256(abi.encodePacked(pat)))) {\r\n                delete requests[i];\r\n                uint lastIndex =requests.length-1;\r\n                request memory lastId = requests[lastIndex];\r\n                requests[i]=lastId;\r\n                requests.pop();\r\n                break;\r\n            }\r\n        }\r\n    }\r\n\r\n\r\n\r\n    function rejectAccess(address _doctor) onlypatient public {\r\n        require(hasRole(DOCTOR_ROLE, _doctor), \"Doctor does not have the doctor role\");\r\n     //   require((isAuth[msg.sender][_doctor]) == true, \"This Request alraedy been Reject!! \");\r\n        isAuth[msg.sender][_doctor] = false;\r\n        DeleteRequest(_doctor,msg.sender);\r\n    }\r\n\r\n   \r\n\r\n}",
  "sourcePath": "D:\\My Files\\Grad Project\\the last\\final-modification\\contracts\\MedRecChain.sol",
  "compiler": {
    "name": "solc",
    "version": "0.8.19+commit.7dd6d404.Emscripten.clang"
  },
  "schemaVersion": "3.4.13",
  "updatedAt": "2023-05-24T08:23:03.020Z",
  "networkType": "ethereum",
  "devdoc": {
    "events": {
      "RoleAdminChanged(bytes32,bytes32,bytes32)": {
        "details": "Emitted when `newAdminRole` is set as ``role``'s admin role, replacing `previousAdminRole` `DEFAULT_ADMIN_ROLE` is the starting admin for all roles, despite {RoleAdminChanged} not being emitted signaling this. _Available since v3.1._"
      },
      "RoleGranted(bytes32,address,address)": {
        "details": "Emitted when `account` is granted `role`. `sender` is the account that originated the contract call, an admin role bearer except when using {AccessControl-_setupRole}."
      },
      "RoleRevoked(bytes32,address,address)": {
        "details": "Emitted when `account` is revoked `role`. `sender` is the account that originated the contract call:   - if using `revokeRole`, it is the admin role bearer   - if using `renounceRole`, it is the role bearer (i.e. `account`)"
      }
    },
    "kind": "dev",
    "methods": {
      "getRoleAdmin(bytes32)": {
        "details": "Returns the admin role that controls `role`. See {grantRole} and {revokeRole}. To change a role's admin, use {_setRoleAdmin}."
      },
      "grantRole(bytes32,address)": {
        "details": "Grants `role` to `account`. If `account` had not been already granted `role`, emits a {RoleGranted} event. Requirements: - the caller must have ``role``'s admin role. May emit a {RoleGranted} event."
      },
      "hasRole(bytes32,address)": {
        "details": "Returns `true` if `account` has been granted `role`."
      },
      "renounceRole(bytes32,address)": {
        "details": "Revokes `role` from the calling account. Roles are often managed via {grantRole} and {revokeRole}: this function's purpose is to provide a mechanism for accounts to lose their privileges if they are compromised (such as when a trusted device is misplaced). If the calling account had been revoked `role`, emits a {RoleRevoked} event. Requirements: - the caller must be `account`. May emit a {RoleRevoked} event."
      },
      "revokeRole(bytes32,address)": {
        "details": "Revokes `role` from `account`. If `account` had been granted `role`, emits a {RoleRevoked} event. Requirements: - the caller must have ``role``'s admin role. May emit a {RoleRevoked} event."
      },
      "supportsInterface(bytes4)": {
        "details": "See {IERC165-supportsInterface}."
      }
    },
    "version": 1
  },
  "userdoc": {
    "kind": "user",
    "methods": {},
    "version": 1
  }
}